{"contracts/AskGPT.sol":{"AskGPT":{"abi":[{"inputs":[{"internalType":"address","name":"_forwarder","type":"address"}],"stateMutability":"nonpayable","type":"constructor"},{"anonymous":false,"inputs":[{"indexed":true,"internalType":"address","name":"_firstParty","type":"address"},{"indexed":true,"internalType":"address","name":"_secondParty","type":"address"},{"indexed":false,"internalType":"address","name":"_contractAddress","type":"address"},{"indexed":false,"internalType":"uint256","name":"_timestamp","type":"uint256"}],"name":"AgreementCreated","type":"event"},{"anonymous":false,"inputs":[{"indexed":true,"internalType":"address","name":"_buyer","type":"address"},{"indexed":true,"internalType":"uint256","name":"_numOfScripts","type":"uint256"},{"indexed":false,"internalType":"uint256","name":"_paymentAmount","type":"uint256"},{"indexed":false,"internalType":"uint256","name":"_timestamp","type":"uint256"}],"name":"MembershipPayment","type":"event"},{"stateMutability":"payable","type":"fallback"},{"inputs":[],"name":"admin","outputs":[{"internalType":"address","name":"","type":"address"}],"stateMutability":"view","type":"function"},{"inputs":[],"name":"agreementCount","outputs":[{"internalType":"uint256","name":"","type":"uint256"}],"stateMutability":"view","type":"function"},{"inputs":[{"internalType":"address","name":"","type":"address"}],"name":"agreementUri","outputs":[{"internalType":"string","name":"","type":"string"}],"stateMutability":"view","type":"function"},{"inputs":[{"internalType":"uint256","name":"","type":"uint256"}],"name":"agreements","outputs":[{"internalType":"address","name":"","type":"address"}],"stateMutability":"view","type":"function"},{"inputs":[{"internalType":"uint256","name":"","type":"uint256"}],"name":"agreementsData","outputs":[{"internalType":"address","name":"contractAddress","type":"address"},{"internalType":"string","name":"data","type":"string"}],"stateMutability":"view","type":"function"},{"inputs":[{"internalType":"uint256","name":"_packageId","type":"uint256"}],"name":"buyScripts","outputs":[],"stateMutability":"payable","type":"function"},{"inputs":[{"internalType":"string","name":"_agreementUri","type":"string"},{"internalType":"uint256","name":"_startsAt","type":"uint256"},{"internalType":"string","name":"_name","type":"string"},{"internalType":"address","name":"_secondParty","type":"address"}],"name":"createAgreement","outputs":[],"stateMutability":"nonpayable","type":"function"},{"inputs":[{"internalType":"address","name":"_user","type":"address"}],"name":"deductPendingScripts","outputs":[],"stateMutability":"nonpayable","type":"function"},{"inputs":[],"name":"getAllAgreements","outputs":[{"components":[{"internalType":"address","name":"contractAddress","type":"address"},{"internalType":"string","name":"data","type":"string"}],"internalType":"struct AskGPT.AgreementData[]","name":"allAgreements","type":"tuple[]"}],"stateMutability":"view","type":"function"},{"inputs":[],"name":"getPackages","outputs":[{"components":[{"internalType":"string","name":"name","type":"string"},{"internalType":"uint256","name":"price","type":"uint256"},{"internalType":"uint256","name":"numOfScripts","type":"uint256"}],"internalType":"struct AskGPT.PackageData[]","name":"allPackages","type":"tuple[]"}],"stateMutability":"view","type":"function"},{"inputs":[{"internalType":"address","name":"_user","type":"address"}],"name":"getPendingScripts","outputs":[{"internalType":"uint256","name":"_numOfScripts","type":"uint256"}],"stateMutability":"view","type":"function"},{"inputs":[{"internalType":"address","name":"_creator","type":"address"}],"name":"getUserAgreements","outputs":[{"components":[{"internalType":"address","name":"contractAddress","type":"address"},{"internalType":"string","name":"data","type":"string"}],"internalType":"struct AskGPT.AgreementData[]","name":"allCreatorAgreements","type":"tuple[]"}],"stateMutability":"view","type":"function"},{"inputs":[],"name":"marketFee","outputs":[{"internalType":"uint256","name":"","type":"uint256"}],"stateMutability":"view","type":"function"},{"inputs":[{"internalType":"uint256","name":"","type":"uint256"}],"name":"packages","outputs":[{"internalType":"string","name":"name","type":"string"},{"internalType":"uint256","name":"price","type":"uint256"},{"internalType":"uint256","name":"numOfScripts","type":"uint256"}],"stateMutability":"view","type":"function"},{"inputs":[{"internalType":"uint256","name":"_amount","type":"uint256"}],"name":"setMarketFee","outputs":[],"stateMutability":"nonpayable","type":"function"},{"inputs":[{"components":[{"internalType":"string","name":"name","type":"string"},{"internalType":"uint256","name":"price","type":"uint256"},{"internalType":"uint256","name":"numOfScripts","type":"uint256"}],"internalType":"struct AskGPT.PackageData","name":"_package1","type":"tuple"},{"components":[{"internalType":"string","name":"name","type":"string"},{"internalType":"uint256","name":"price","type":"uint256"},{"internalType":"uint256","name":"numOfScripts","type":"uint256"}],"internalType":"struct AskGPT.PackageData","name":"_package2","type":"tuple"},{"components":[{"internalType":"string","name":"name","type":"string"},{"internalType":"uint256","name":"price","type":"uint256"},{"internalType":"uint256","name":"numOfScripts","type":"uint256"}],"internalType":"struct AskGPT.PackageData","name":"_package3","type":"tuple"},{"components":[{"internalType":"string","name":"name","type":"string"},{"internalType":"uint256","name":"price","type":"uint256"},{"internalType":"uint256","name":"numOfScripts","type":"uint256"}],"internalType":"struct AskGPT.PackageData","name":"_package4","type":"tuple"}],"name":"setPackages","outputs":[],"stateMutability":"nonpayable","type":"function"},{"inputs":[{"internalType":"address","name":"","type":"address"},{"internalType":"uint256","name":"","type":"uint256"}],"name":"userAgreements","outputs":[{"internalType":"uint256","name":"","type":"uint256"}],"stateMutability":"view","type":"function"},{"inputs":[],"name":"withdraw","outputs":[],"stateMutability":"nonpayable","type":"function"},{"stateMutability":"payable","type":"receive"}],"evm":{"bytecode":{"linkReferences":{},"object":"6080604052601960005534801561001557600080fd5b50604051613daa380380613daa83398101604081905261003491610067565b60028054336001600160a01b031991821617909155600380549091166001600160a01b0392909216919091179055610095565b600060208284031215610078578081fd5b81516001600160a01b038116811461008e578182fd5b9392505050565b613d06806100a46000396000f3fe608060405260043610620001275760003560e01c806385c23f9911620000a3578063bb7bb278116200006d578063bb7bb278146200032e578063bd14de961462000346578063c216212a1462000399578063f3ff64bd14620003cf578063f851a44014620003e6576200012f565b806385c23f99146200027b5780639f9019e914620002af578063a1eea4f714620002e4578063adb9cae61462000309576200012f565b80634c27984e11620000f15780634c27984e14620001be5780634e6873c714620001e35780635c05a89f146200020a5780635f6e805914620002315780637c2c04521462000256576200012f565b80630ccf2156146200013157806322822a77146200015c57806326b825d214620001815780633ccfd60b14620001a6576200012f565b366200012f57005b005b3480156200013e57600080fd5b506200014960005481565b6040519081526020015b60405180910390f35b3480156200016957600080fd5b506200012f6200017b36600462001544565b62000408565b3480156200018e57600080fd5b506200012f620001a03660046200167d565b620005fd565b348015620001b357600080fd5b506200012f6200064a565b348015620001cb57600080fd5b5062000149620001dd36600462001518565b620006d2565b348015620001f057600080fd5b50620001fb62000704565b60405162000153919062001794565b3480156200021757600080fd5b5062000222620008b3565b60405162000153919062001812565b3480156200023e57600080fd5b506200012f62000250366004620015c8565b62000a2d565b3480156200026357600080fd5b506200012f62000275366004620014f4565b62000bde565b3480156200028857600080fd5b50620002a06200029a366004620014f4565b62000ce4565b60405162000153919062001886565b348015620002bc57600080fd5b50620002d4620002ce3660046200167d565b62000d86565b6040516200015392919062001766565b348015620002f157600080fd5b506200014962000303366004620014f4565b62000e3d565b3480156200031657600080fd5b50620001fb62000328366004620014f4565b62000ec5565b3480156200033b57600080fd5b506200014960015481565b3480156200035357600080fd5b5062000380620003653660046200167d565b6004602052600090815260409020546001600160a01b031681565b6040516001600160a01b03909116815260200162000153565b348015620003a657600080fd5b50620003be620003b83660046200167d565b62001109565b60405162000153939291906200189b565b6200012f620003e03660046200167d565b620011bb565b348015620003f357600080fd5b5060025462000380906001600160a01b031681565b600180549060006200041a83620019aa565b919050555060006200042b620012e6565b6001546000546002546003546040518794938b938b9330938c93926001600160a01b039081169216906200045f9062001353565b620004749a99989796959493929190620016e4565b604051809103906000f08015801562000491573d6000803e3d6000fd5b506001600160a01b03811660009081526006602090815260409091208751929350620004c292909188019062001361565b5060018054600090815260046020908152604080832080546001600160a01b038088166001600160a01b03199283168117909355835180850185529283528285018c8152875487526007865293909520825181549616959091169490941784559051805191946200053a939085019291019062001361565b50905050600560006200054c620012e6565b6001600160a01b03908116825260208083019390935260409182016000908120600180548254808301845592845286842090920191909155918616808252600585529281208254815493840182559082529390200191909155620005af620012e6565b604080516001600160a01b03858116825242602083015292909216917ff3e9fb09d0520a320797dae1f1ec5bc12aacd22478b49f6e89c50a46c6a27619910160405180910390a35050505050565b6002546001600160a01b031662000613620012e6565b6001600160a01b031614620006455760405162461bcd60e51b81526004016200063c90620018c2565b60405180910390fd5b600055565b6002546001600160a01b031662000660620012e6565b6001600160a01b031614620006895760405162461bcd60e51b81526004016200063c90620018c2565b600062000695620012e6565b6040519091506001600160a01b038216904780156108fc02916000818181858888f19350505050158015620006ce573d6000803e3d6000fd5b5050565b60056020528160005260406000208181548110620006ef57600080fd5b90600052602060002001600091509150505481565b6060600060015467ffffffffffffffff8111156200073257634e487b7160e01b600052604160045260246000fd5b6040519080825280602002602001820160405280156200077a57816020015b604080518082019091526000815260606020820152815260200190600190039081620007515790505b50905060015b600180546200078f916200191e565b811015620008ac57600081815260076020908152604091829020825180840190935280546001600160a01b031683526001810180549192840191620007d4906200196d565b80601f016020809104026020016040519081016040528092919081815260200182805462000802906200196d565b8015620008535780601f10620008275761010080835404028352916020019162000853565b820191906000526020600020905b8154815290600101906020018083116200083557829003601f168201915b505050505081525050826001836200086c919062001939565b815181106200088b57634e487b7160e01b600052603260045260246000fd5b60200260200101819052508080620008a390620019aa565b91505062000780565b5090505b90565b60408051600480825260a0820190925260609160009190816020015b620008f460405180606001604052806060815260200160008152602001600081525090565b815260200190600190039081620008cf57905050905060015b6005811015620008ac576000818152600b60205260409081902081516060810190925280548290829062000941906200196d565b80601f01602080910402602001604051908101604052809291908181526020018280546200096f906200196d565b8015620009c05780601f106200099457610100808354040283529160200191620009c0565b820191906000526020600020905b815481529060010190602001808311620009a257829003601f168201915b505050505081526020016001820154815260200160028201548152505082600183620009ed919062001939565b8151811062000a0c57634e487b7160e01b600052603260045260246000fd5b6020026020010181905250808062000a2490620019aa565b9150506200090d565b6002546001600160a01b031662000a43620012e6565b6001600160a01b03161462000a6c5760405162461bcd60e51b81526004016200063c90620018c2565b6001600052600b60209081528451805186927f72c6bfb7988af3a1efa6568f02a999bc52252641c659d85961ca3d372b57d5cf9262000ab2928492919091019062001361565b506020828101516001830155604090920151600291820155600052600b81528351805185927fa50eece07c7db1631545c0069bd8f5f54d5935e215d59097edf258a44ba916349262000b0b928492919091019062001361565b5060208281015160018301556040909201516002909101556003600052600b81528251805184927f64c15cc42be7899b001f818cf4433057002112c418d1d3a67cd5cb453051d33e9262000b66928492919091019062001361565b5060208281015160018301556040909201516002909101556004600052600b81528151805183927f12d0c11577e2f0950f57c455c117796550b79f444811db8ba2f69c57b646c7849262000bc1928492919091019062001361565b506020820151600182015560409091015160029091015550505050565b6002546001600160a01b031662000bf4620012e6565b6001600160a01b03161462000c1d5760405162461bcd60e51b81526004016200063c90620018c2565b6001600160a01b0381166000908152600a602052604090205460ff161562000c70576001600160a01b038116600090815260086020526040812080549162000c658362001953565b919050555062000ce1565b6001600160a01b038116600090815260096020526040812080549162000c9683620019aa565b90915550506001600160a01b0381166000908152600960205260409020546003141562000ce1576001600160a01b0381166000908152600a60205260409020805460ff191660011790555b50565b6006602052600090815260409020805462000cff906200196d565b80601f016020809104026020016040519081016040528092919081815260200182805462000d2d906200196d565b801562000d7e5780601f1062000d525761010080835404028352916020019162000d7e565b820191906000526020600020905b81548152906001019060200180831162000d6057829003601f168201915b505050505081565b600760205260009081526040902080546001820180546001600160a01b03909216929162000db4906200196d565b80601f016020809104026020016040519081016040528092919081815260200182805462000de2906200196d565b801562000e335780601f1062000e075761010080835404028352916020019162000e33565b820191906000526020600020905b81548152906001019060200180831162000e1557829003601f168201915b5050505050905082565b6001600160a01b0381166000908152600a602052604081205460ff161562000e7f57506001600160a01b03811660009081526008602052604090205462000ec0565b6001600160a01b03821660009081526008602090815260408083205460099092529091205462000eb190600362001939565b62000ebd91906200191e565b90505b919050565b6001600160a01b038116600090815260056020908152604080832080548251818502810185019093528083526060949383018282801562000f2657602002820191906000526020600020905b81548152602001906001019080831162000f11575b505050505090506000815167ffffffffffffffff81111562000f5857634e487b7160e01b600052604160045260246000fd5b60405190808252806020026020018201604052801562000fa057816020015b60408051808201909152600081526060602082015281526020019060019003908162000f775790505b50905060005b825181101562001101576007600084838151811062000fd557634e487b7160e01b600052603260045260246000fd5b602002602001015181526020019081526020016000206040518060400160405290816000820160009054906101000a90046001600160a01b03166001600160a01b03166001600160a01b0316815260200160018201805462001037906200196d565b80601f016020809104026020016040519081016040528092919081815260200182805462001065906200196d565b8015620010b65780601f106200108a57610100808354040283529160200191620010b6565b820191906000526020600020905b8154815290600101906020018083116200109857829003601f168201915b505050505081525050828281518110620010e057634e487b7160e01b600052603260045260246000fd5b60200260200101819052508080620010f890620019aa565b91505062000fa6565b509392505050565b600b6020526000908152604090208054819062001126906200196d565b80601f016020809104026020016040519081016040528092919081815260200182805462001154906200196d565b8015620011a55780601f106200117957610100808354040283529160200191620011a5565b820191906000526020600020905b8154815290600101906020018083116200118757829003601f168201915b5050505050908060010154908060020154905083565b6000818152600b60205260409020600101543410156200122a5760405162461bcd60e51b8152602060048201526024808201527f45746865722073656e7420646f6573206e6f74206d61746368207468652070726044820152636963652160e01b60648201526084016200063c565b600062001236620012e6565b6000838152600b60209081526040808320600201546001600160a01b03851684526008909252822080549394509092909190620012759084906200191e565b90915550506000828152600b602052604090206002015462001296620012e6565b6001600160a01b03167f382f658b6642bff97773130e5a5da27bc9fb84c464fe84cbd7ec50e808b9f2803442604051620012da929190918252602082015260400190565b60405180910390a35050565b6003546000906001600160a01b03163314156200134b57600080368080601f0160208091040260200160405190810160405280939291908181526020018383808284376000920191909152505050503601516001600160a01b03169150620008b09050565b5033620008b0565b6122dc80620019f583390190565b8280546200136f906200196d565b90600052602060002090601f016020900481019282620013935760008555620013de565b82601f10620013ae57805160ff1916838001178555620013de565b82800160010185558215620013de579182015b82811115620013de578251825591602001919060010190620013c1565b50620013ec929150620013f0565b5090565b5b80821115620013ec5760008155600101620013f1565b80356001600160a01b038116811462000ec057600080fd5b600082601f83011262001430578081fd5b813567ffffffffffffffff8111156200144d576200144d620019de565b62001462601f8201601f1916602001620018ea565b81815284602083860101111562001477578283fd5b816020850160208301379081016020019190915292915050565b600060608284031215620014a3578081fd5b620014af6060620018ea565b9050813567ffffffffffffffff811115620014c957600080fd5b620014d7848285016200141f565b825250602082013560208201526040820135604082015292915050565b60006020828403121562001506578081fd5b620015118262001407565b9392505050565b600080604083850312156200152b578081fd5b620015368362001407565b946020939093013593505050565b600080600080608085870312156200155a578182fd5b843567ffffffffffffffff8082111562001572578384fd5b62001580888389016200141f565b95506020870135945060408701359150808211156200159d578384fd5b50620015ac878288016200141f565b925050620015bd6060860162001407565b905092959194509250565b60008060008060808587031215620015de578384fd5b843567ffffffffffffffff80821115620015f6578586fd5b620016048883890162001491565b955060208701359150808211156200161a578485fd5b620016288883890162001491565b945060408701359150808211156200163e578384fd5b6200164c8883890162001491565b9350606087013591508082111562001662578283fd5b50620016718782880162001491565b91505092959194509250565b6000602082840312156200168f578081fd5b5035919050565b60008151808452815b81811015620016bd576020818501810151868301820152016200169f565b81811115620016cf5782602083870101525b50601f01601f19169290920160200192915050565b6001600160a01b038b811682528a81166020830152604082018a9052610140606083018190526000916200171b8483018c62001696565b915089608085015280891660a085015283820360c08501526200173f828962001696565b60e08501979097529485166101008401525050911661012090910152979650505050505050565b6001600160a01b03831681526040602082018190526000906200178c9083018462001696565b949350505050565b60208082528251828201819052600091906040908185019080840286018301878501865b838110156200180457888303603f19018552815180516001600160a01b03168452870151878401879052620017f08785018262001696565b9588019593505090860190600101620017b8565b509098975050505050505050565b60208082528251828201819052600091906040908185019080840286018301878501865b838110156200180457603f198984030185528151606081518186526200185f8287018262001696565b838b0151878c01529289015195890195909552509487019492509086019060010162001836565b60006020825262001511602083018462001696565b600060608252620018b0606083018662001696565b60208301949094525060400152919050565b6020808252600e908201526d4e6f74207468652061646d696e2160901b604082015260600190565b604051601f8201601f1916810167ffffffffffffffff81118282101715620019165762001916620019de565b604052919050565b60008219821115620019345762001934620019c8565b500190565b6000828210156200194e576200194e620019c8565b500390565b600081620019655762001965620019c8565b506000190190565b6002810460018216806200198257607f821691505b60208210811415620019a457634e487b7160e01b600052602260045260246000fd5b50919050565b6000600019821415620019c157620019c1620019c8565b5060010190565b634e487b7160e01b600052601160045260246000fd5b634e487b7160e01b600052604160045260246000fdfe60806040523480156200001157600080fd5b50604051620022dc380380620022dc83398101604081905262000034916200026c565b6006889055600380546001600160a01b038085166001600160a01b031992831617909255600480548d841690831617905560058054928c169290911691909117905586516200008b9060079060208a0190620000f6565b506008869055600280546001600160a01b0319166001600160a01b0387161790558351620000c1906000906020870190620000f6565b5060019290925550600c80546001600160a01b0319166001600160a01b0390921691909117905550620003a395505050505050565b828054620001049062000350565b90600052602060002090601f01602090048101928262000128576000855562000173565b82601f106200014357805160ff191683800117855562000173565b8280016001018555821562000173579182015b828111156200017357825182559160200191906001019062000156565b506200018192915062000185565b5090565b5b8082111562000181576000815560010162000186565b80516001600160a01b0381168114620001b457600080fd5b919050565b600082601f830112620001ca578081fd5b81516001600160401b0380821115620001e757620001e76200038d565b604051601f8301601f19908116603f011681019082821181831017156200021257620002126200038d565b816040528381526020925086838588010111156200022e578485fd5b8491505b8382101562000251578582018301518183018401529082019062000232565b838211156200026257848385830101525b9695505050505050565b6000806000806000806000806000806101408b8d0312156200028c578586fd5b620002978b6200019c565b9950620002a760208c016200019c565b60408c015160608d0151919a5098506001600160401b0380821115620002cb578788fd5b620002d98e838f01620001b9565b985060808d01519750620002f060a08e016200019c565b965060c08d015191508082111562000306578586fd5b50620003158d828e01620001b9565b94505060e08b015192506200032e6101008c016200019c565b91506200033f6101208c016200019c565b90509295989b9194979a5092959850565b6002810460018216806200036557607f821691505b602082108114156200038757634e487b7160e01b600052602260045260246000fd5b50919050565b634e487b7160e01b600052604160045260246000fd5b611f2980620003b36000396000f3fe6080604052600436106100e75760003560e01c806397926fc81161008a578063c8a3e04e11610059578063c8a3e04e14610234578063e36bd0f314610254578063e7ca9969146102bb578063e89e4ed6146102dd576100e7565b806397926fc8146101d95780639f4a23ba146101f9578063bb6e7de91461020c578063c438b40f14610221576100e7565b80635de988ab116100c65780635de988ab146101595780636b9080c11461017957806373a482e9146101a65780637d60631e146101b9576100e7565b8062e6652a146100ec5780635c43dd991461010e5780635cdb464214610139575b600080fd5b3480156100f857600080fd5b5061010c6101073660046119e4565b610310565b005b34801561011a57600080fd5b506101236104c2565b6040516101309190611ad8565b60405180910390f35b34801561014557600080fd5b5061010c6101543660046119e4565b610756565b34801561016557600080fd5b5061010c610174366004611958565b6108b1565b34801561018557600080fd5b5061018e6109d5565b6040516101309c9b9a99989796959493929190611a50565b61010c6101b4366004611958565b610b80565b3480156101c557600080fd5b5061010c6101d43660046118ee565b610d3b565b3480156101e557600080fd5b5061010c6101f4366004611958565b610ebe565b61010c610207366004611958565b610fc1565b34801561021857600080fd5b5061010c611148565b61010c61022f366004611958565b6111a8565b34801561024057600080fd5b5061010c61024f366004611970565b611302565b34801561026057600080fd5b5061029961026f366004611958565b600e6020526000908152604090208054600182015460028301546003909301549192909160ff1684565b6040805194855260208501939093529183015215156060820152608001610130565b3480156102c757600080fd5b506102d061149d565b6040516101309190611b95565b3480156102e957600080fd5b506102fd6102f8366004611958565b6115d0565b6040516101309796959493929190611db0565b6004546001600160a01b0316610324611725565b6001600160a01b0316148061035357506003546001600160a01b0316610348611725565b6001600160a01b0316145b6103785760405162461bcd60e51b815260040161036f90611c4d565b60405180910390fd5b6000828152600d602052604090206004015460ff166103a95760405162461bcd60e51b815260040161036f90611cbb565b6000828152600d602052604090206004015462010000900460ff16156103e15760405162461bcd60e51b815260040161036f90611c84565b6000828152600d60205260409020600201548111156104125760405162461bcd60e51b815260040161036f90611cf2565b600b805490600061042283611eac565b909155505060408051608081018252600b80548083526020808401878152848601878152600060608701818152948152600e8452879020955186559051600186015551600285015590516003909301805460ff1916931515939093179092555482518481524292810192909252849290917f7918bd36c203935800793ba10c13259100530473ba726ee3a8d0bfbf49daeeab910160405180910390a35050565b60606000600a5467ffffffffffffffff8111156104ef57634e487b7160e01b600052604160045260246000fd5b60405190808252806020026020018201604052801561056657816020015b6105536040518060e00160405280600081526020016060815260200160008152602001606081526020016000151581526020016000151581526020016000151581525090565b81526020019060019003908161050d5790505b50905060015b600a5461057a906001611e03565b81101561074f57600d60008281526020019081526020016000206040518060e0016040529081600082015481526020016001820180546105b990611e71565b80601f01602080910402602001604051908101604052809291908181526020018280546105e590611e71565b80156106325780601f1061060757610100808354040283529160200191610632565b820191906000526020600020905b81548152906001019060200180831161061557829003601f168201915b505050505081526020016002820154815260200160038201805461065590611e71565b80601f016020809104026020016040519081016040528092919081815260200182805461068190611e71565b80156106ce5780601f106106a3576101008083540402835291602001916106ce565b820191906000526020600020905b8154815290600101906020018083116106b157829003601f168201915b50505091835250506004919091015460ff8082161515602084015261010082048116151560408401526201000090910416151560609091015282610713600184611e5a565b8151811061073157634e487b7160e01b600052603260045260246000fd5b6020026020010181905250808061074790611eac565b91505061056c565b5090505b90565b6004546001600160a01b031661076a611725565b6001600160a01b0316148061079957506003546001600160a01b031661078e611725565b6001600160a01b0316145b6107b55760405162461bcd60e51b815260040161036f90611c4d565b6000828152600e602052604090206003015460ff16156108135760405162461bcd60e51b81526020600482015260196024820152785265717565737420616c7265616479207265736f6c7665642160381b604482015260640161036f565b6000828152600e60209081526040808320600101548352600d9091529020600201548111156108545760405162461bcd60e51b815260040161036f90611cf2565b6000828152600e6020526040908190206002018290555182907fd35e4a11544ca6df55d52949c95edc0f59ce2714fd227da3726a92457b09a38c906108a59084904290918252602082015260400190565b60405180910390a25050565b6005546001600160a01b03166108c5611725565b6001600160a01b03161461090f5760405162461bcd60e51b81526020600482015260116024820152704e6f74207468652072656365697665722160781b604482015260640161036f565b6000818152600d602052604090206004015460ff166109405760405162461bcd60e51b815260040161036f90611cbb565b6000818152600d602052604090206004015462010000900460ff16156109785760405162461bcd60e51b815260040161036f90611c84565b6000818152600d602052604090819020600401805461ff0019166101001790555181907fcaf49e218dd72f80b847b963b0a3f9b56254f688513253fe99b456e6311c1fb9906109ca9042815260200190565b60405180910390a250565b6000806000606060008060008060006060600080600460009054906101000a90046001600160a01b0316600560009054906101000a90046001600160a01b0316600654600760085460095447600a54600b546000600154600360009054906101000a90046001600160a01b0316888054610a4e90611e71565b80601f0160208091040260200160405190810160405280929190818152602001828054610a7a90611e71565b8015610ac75780601f10610a9c57610100808354040283529160200191610ac7565b820191906000526020600020905b815481529060010190602001808311610aaa57829003601f168201915b50505050509850828054610ada90611e71565b80601f0160208091040260200160405190810160405280929190818152602001828054610b0690611e71565b8015610b535780601f10610b2857610100808354040283529160200191610b53565b820191906000526020600020905b815481529060010190602001808311610b3657829003601f168201915b505050505092509b509b509b509b509b509b509b509b509b509b509b509b50909192939495969798999a9b565b6004546001600160a01b0316610b94611725565b6001600160a01b031614610bba5760405162461bcd60e51b815260040161036f90611d86565b6001546000828152600d602052604081206002015490916103e891610bdf9190611e3b565b610be99190611e1b565b6000838152600d602052604090206004015490915060ff1615610c1e5760405162461bcd60e51b815260040161036f90611d4f565b6000828152600d6020526040902060020154610c3b908290611e03565b341015610cb05760405162461bcd60e51b815260206004820152603760248201527f416d6f756e742073656e7420646f6573206e6f74206d6174636820746865207360448201527f706563696669656420616d6f756e74202b206665657321000000000000000000606482015260840161036f565b6002546040516001600160a01b039091169082156108fc029083906000818181858888f19350505050158015610cea573d6000803e3d6000fd5b506000828152600d602052604090819020600401805460ff191660011790555182907fad6f5443f0021bc2808ac5204f3c96a037dc9406ec9bfdf92a8e81539f04c605906108a59042815260200190565b6004546001600160a01b0316610d4f611725565b6001600160a01b031614610d755760405162461bcd60e51b815260040161036f90611d86565b60095415610d955760405162461bcd60e51b815260040161036f90611c20565b600a8054906000610da583611eac565b90915550506040805160e081018252600a5480825260208083018781528385018790526060840186905260006080850181905260a0850181905260c08501819052928352600d8252939091208251815592518051929392610e0c926001850192019061178f565b506040820151600282015560608201518051610e3291600384019160209091019061178f565b5060808201516004909101805460a084015160c0909401511515620100000262ff0000199415156101000261ff001994151560ff1990931692909217939093161792909216179055600a546040517f6df4a40f54ddbc024cc4e985b8fa77b24d3b18ae73fe8d9444beaed8682ff0f390610eb190869086904290611bfb565b60405180910390a2505050565b6004546001600160a01b0316610ed2611725565b6001600160a01b031614610ef85760405162461bcd60e51b815260040161036f90611d86565b60095415610f185760405162461bcd60e51b815260040161036f90611c20565b6000818152600d602052604090206004015460ff1615610f4a5760405162461bcd60e51b815260040161036f90611d4f565b6000818152600d6020526040812081815590610f696001830182611813565b6002820160009055600382016000610f819190611813565b50600401805462ffffff1916905560405142815281907f846ab9b254edc77fe46806b496d2efb2f0f0f1c7338a82ee13d93ceb37152d2a906020016109ca565b6003546001600160a01b0316610fd5611725565b6001600160a01b0316148061100457506005546001600160a01b0316610ff9611725565b6001600160a01b0316145b6110205760405162461bcd60e51b815260040161036f90611c4d565b6000818152600e602052604090206003015460ff161561107e5760405162461bcd60e51b81526020600482015260196024820152785265717565737420616c7265616479207265736f6c7665642160381b604482015260640161036f565b6000818152600e6020908152604080832060038101805460ff1916600190811790915560028083015491909201548552600d909352908320018054919290916110c8908490611e5a565b90915550506004546000828152600e60205260408082206002015490516001600160a01b039093169281156108fc0292818181858888f19350505050158015611115573d6000803e3d6000fd5b50807f4ce0986d74e104c2d3d9c6f307178d94afd5abaf7ccf6658a17fac5a5718a8f2426040516109ca91815260200190565b6004546001600160a01b031661115c611725565b6001600160a01b0316146111825760405162461bcd60e51b815260040161036f90611d86565b600954156111a25760405162461bcd60e51b815260040161036f90611c20565b42600955565b6004546001600160a01b03166111bc611725565b6001600160a01b031614806111eb57506003546001600160a01b03166111e0611725565b6001600160a01b0316145b6112075760405162461bcd60e51b815260040161036f90611c4d565b6000818152600d602052604090206004015460ff166112385760405162461bcd60e51b815260040161036f90611cbb565b6000818152600d602052604090206004015462010000900460ff16156112705760405162461bcd60e51b815260040161036f90611c84565b6000818152600d602052604080822060048101805462ff000019166201000017905560055460029091015491516001600160a01b039091169282156108fc02929190818181858888f193505050501580156112cf573d6000803e3d6000fd5b50807f939da3b627c123c81fe5aacebf925163337a0d4f8a03724640618078cad24894426040516109ca91815260200190565b6004546001600160a01b0316611316611725565b6001600160a01b03161461133c5760405162461bcd60e51b815260040161036f90611d86565b6009541561135c5760405162461bcd60e51b815260040161036f90611c20565b6000848152600d602052604090206004015460ff161561138e5760405162461bcd60e51b815260040161036f90611d4f565b6040805160e08101825285815260208082018681528284018690526060830185905260006080840181905260a0840181905260c08401819052888152600d83529390932082518155925180519293926113ed926001850192019061178f565b50604082015160028201556060820151805161141391600384019160209091019061178f565b5060808201516004909101805460a084015160c0909401511515620100000262ff0000199415156101000261ff001994151560ff199093169290921793909316179290921617905560405184907f03ba09f38b23ad2697f2c208e0c31023842b2f3da43982784195f20216b2291f9061148f9042815260200190565b60405180910390a250505050565b60606000600b5467ffffffffffffffff8111156114ca57634e487b7160e01b600052604160045260246000fd5b60405190808252806020026020018201604052801561152857816020015b61151560405180608001604052806000815260200160008152602001600081526020016000151581525090565b8152602001906001900390816114e85790505b50905060015b600b5461153c906001611e03565b81101561074f576000818152600e6020908152604091829020825160808101845281548152600180830154938201939093526002820154938101939093526003015460ff161515606083015283906115949084611e5a565b815181106115b257634e487b7160e01b600052603260045260246000fd5b602002602001018190525080806115c890611eac565b91505061152e565b600d60205260009081526040902080546001820180549192916115f290611e71565b80601f016020809104026020016040519081016040528092919081815260200182805461161e90611e71565b801561166b5780601f106116405761010080835404028352916020019161166b565b820191906000526020600020905b81548152906001019060200180831161164e57829003601f168201915b50505050509080600201549080600301805461168690611e71565b80601f01602080910402602001604051908101604052809291908181526020018280546116b290611e71565b80156116ff5780601f106116d4576101008083540402835291602001916116ff565b820191906000526020600020905b8154815290600101906020018083116116e257829003601f168201915b5050506004909301549192505060ff808216916101008104821691620100009091041687565b600c546000906001600160a01b031633141561178857600080368080601f0160208091040260200160405190810160405280939291908181526020018383808284376000920191909152505050503601516001600160a01b031691506107539050565b5033610753565b82805461179b90611e71565b90600052602060002090601f0160209004810192826117bd5760008555611803565b82601f106117d657805160ff1916838001178555611803565b82800160010185558215611803579182015b828111156118035782518255916020019190600101906117e8565b5061180f929150611852565b5090565b50805461181f90611e71565b6000825580601f10611831575061184f565b601f01602090049060005260206000209081019061184f9190611852565b50565b5b8082111561180f5760008155600101611853565b600082601f830112611877578081fd5b813567ffffffffffffffff8082111561189257611892611edd565b604051601f8301601f19908116603f011681019082821181831017156118ba576118ba611edd565b816040528381528660208588010111156118d2578485fd5b8360208701602083013792830160200193909352509392505050565b600080600060608486031215611902578283fd5b833567ffffffffffffffff80821115611919578485fd5b61192587838801611867565b9450602086013593506040860135915080821115611941578283fd5b5061194e86828701611867565b9150509250925092565b600060208284031215611969578081fd5b5035919050565b60008060008060808587031215611985578081fd5b84359350602085013567ffffffffffffffff808211156119a3578283fd5b6119af88838901611867565b94506040870135935060608701359150808211156119cb578283fd5b506119d887828801611867565b91505092959194509250565b600080604083850312156119f6578182fd5b50508035926020909101359150565b60008151808452815b81811015611a2a57602081850181015186830182015201611a0e565b81811115611a3b5782602083870101525b50601f01601f19169290920160200192915050565b600060018060a01b03808f168352808e1660208401528c60408401526101806060840152611a8261018084018d611a05565b8b60808501528a60a08501528960c08501528860e085015287610100850152838103610120850152611ab48188611a05565b610140850196909652509290921661016090910152509a9950505050505050505050565b60208082528251828201819052600091906040908185019080840286018301878501865b83811015611b8757603f19898403018552815160e08151855288820151818a870152611b2a82870182611a05565b915050878201518886015260608083015186830382880152611b4c8382611a05565b60808581015115159089015260a08086015115159089015260c094850151151594909701939093525050509386019390860190600101611afc565b509098975050505050505050565b602080825282518282018190526000919060409081850190868401855b82811015611bee578151805185528681015187860152858101518686015260609081015115159085015260809093019290850190600101611bb2565b5091979650505050505050565b600060608252611c0e6060830186611a05565b60208301949094525060400152919050565b6020808252601390820152721059dc99595b595b9d081a185cc8195b991959606a1b604082015260600190565b60208082526019908201527f4e6f74207468652064697370757465207265736f6c7665722100000000000000604082015260600190565b6020808252601b908201527f4d696c6573746f6e6520616c726561647920617070726f766564210000000000604082015260600190565b60208082526017908201527f4d696c6573746f6e652069736e27742066756e64656421000000000000000000604082015260600190565b6020808252603a908201527f526566756e6420616d6f756e742063616e6e6f7420626520677265617465722060408201527f7468616e20746865206d696c6573746f6e6520616d6f756e7421000000000000606082015260800190565b60208082526019908201527f4d696c6573746f6e6520616c72656164792066756e6465642100000000000000604082015260600190565b60208082526010908201526f4e6f7420746865206d616e616765722160801b604082015260600190565b600088825260e06020830152611dc960e0830189611a05565b8760408401528281036060840152611de18188611a05565b9515156080840152505091151560a0830152151560c090910152949350505050565b60008219821115611e1657611e16611ec7565b500190565b600082611e3657634e487b7160e01b81526012600452602481fd5b500490565b6000816000190483118215151615611e5557611e55611ec7565b500290565b600082821015611e6c57611e6c611ec7565b500390565b600281046001821680611e8557607f821691505b60208210811415611ea657634e487b7160e01b600052602260045260246000fd5b50919050565b6000600019821415611ec057611ec0611ec7565b5060010190565b634e487b7160e01b600052601160045260246000fd5b634e487b7160e01b600052604160045260246000fdfea2646970667358221220dace1cbb3c0d3a75798b7a7b4cf4af58f7d7df84ad9c8bd21666fbd97039966764736f6c63430008020033a2646970667358221220f886feb8a2a0d01389d10b86bc2d6025ba25b89f839fe2b422356dd1f660cd2d64736f6c63430008020033","opcodes":"PUSH1 0x80 PUSH1 0x40 MSTORE PUSH1 0x19 PUSH1 0x0 SSTORE CALLVALUE DUP1 ISZERO PUSH2 0x15 JUMPI PUSH1 0x0 DUP1 REVERT JUMPDEST POP PUSH1 0x40 MLOAD PUSH2 0x3DAA CODESIZE SUB DUP1 PUSH2 0x3DAA DUP4 CODECOPY DUP2 ADD PUSH1 0x40 DUP2 SWAP1 MSTORE PUSH2 0x34 SWAP2 PUSH2 0x67 JUMP JUMPDEST PUSH1 0x2 DUP1 SLOAD CALLER PUSH1 0x1 PUSH1 0x1 PUSH1 0xA0 SHL SUB NOT SWAP2 DUP3 AND OR SWAP1 SWAP2 SSTORE PUSH1 0x3 DUP1 SLOAD SWAP1 SWAP2 AND PUSH1 0x1 PUSH1 0x1 PUSH1 0xA0 SHL SUB SWAP3 SWAP1 SWAP3 AND SWAP2 SWAP1 SWAP2 OR SWAP1 SSTORE PUSH2 0x95 JUMP JUMPDEST PUSH1 0x0 PUSH1 0x20 DUP3 DUP5 SUB SLT ISZERO PUSH2 0x78 JUMPI DUP1 DUP2 REVERT JUMPDEST DUP2 MLOAD PUSH1 0x1 PUSH1 0x1 PUSH1 0xA0 SHL SUB DUP2 AND DUP2 EQ PUSH2 0x8E JUMPI DUP2 DUP3 REVERT JUMPDEST SWAP4 SWAP3 POP POP POP JUMP JUMPDEST PUSH2 0x3D06 DUP1 PUSH2 0xA4 PUSH1 0x0 CODECOPY PUSH1 0x0 RETURN INVALID PUSH1 0x80 PUSH1 0x40 MSTORE PUSH1 0x4 CALLDATASIZE LT PUSH3 0x127 JUMPI PUSH1 0x0 CALLDATALOAD PUSH1 0xE0 SHR DUP1 PUSH4 0x85C23F99 GT PUSH3 0xA3 JUMPI DUP1 PUSH4 0xBB7BB278 GT PUSH3 0x6D JUMPI DUP1 PUSH4 0xBB7BB278 EQ PUSH3 0x32E JUMPI DUP1 PUSH4 0xBD14DE96 EQ PUSH3 0x346 JUMPI DUP1 PUSH4 0xC216212A EQ PUSH3 0x399 JUMPI DUP1 PUSH4 0xF3FF64BD EQ PUSH3 0x3CF JUMPI DUP1 PUSH4 0xF851A440 EQ PUSH3 0x3E6 JUMPI PUSH3 0x12F JUMP JUMPDEST DUP1 PUSH4 0x85C23F99 EQ PUSH3 0x27B JUMPI DUP1 PUSH4 0x9F9019E9 EQ PUSH3 0x2AF JUMPI DUP1 PUSH4 0xA1EEA4F7 EQ PUSH3 0x2E4 JUMPI DUP1 PUSH4 0xADB9CAE6 EQ PUSH3 0x309 JUMPI PUSH3 0x12F JUMP JUMPDEST DUP1 PUSH4 0x4C27984E GT PUSH3 0xF1 JUMPI DUP1 PUSH4 0x4C27984E EQ PUSH3 0x1BE JUMPI DUP1 PUSH4 0x4E6873C7 EQ PUSH3 0x1E3 JUMPI DUP1 PUSH4 0x5C05A89F EQ PUSH3 0x20A JUMPI DUP1 PUSH4 0x5F6E8059 EQ PUSH3 0x231 JUMPI DUP1 PUSH4 0x7C2C0452 EQ PUSH3 0x256 JUMPI PUSH3 0x12F JUMP JUMPDEST DUP1 PUSH4 0xCCF2156 EQ PUSH3 0x131 JUMPI DUP1 PUSH4 0x22822A77 EQ PUSH3 0x15C JUMPI DUP1 PUSH4 0x26B825D2 EQ PUSH3 0x181 JUMPI DUP1 PUSH4 0x3CCFD60B EQ PUSH3 0x1A6 JUMPI PUSH3 0x12F JUMP JUMPDEST CALLDATASIZE PUSH3 0x12F JUMPI STOP JUMPDEST STOP JUMPDEST CALLVALUE DUP1 ISZERO PUSH3 0x13E JUMPI PUSH1 0x0 DUP1 REVERT JUMPDEST POP PUSH3 0x149 PUSH1 0x0 SLOAD DUP2 JUMP JUMPDEST PUSH1 0x40 MLOAD SWAP1 DUP2 MSTORE PUSH1 0x20 ADD JUMPDEST PUSH1 0x40 MLOAD DUP1 SWAP2 SUB SWAP1 RETURN JUMPDEST CALLVALUE DUP1 ISZERO PUSH3 0x169 JUMPI PUSH1 0x0 DUP1 REVERT JUMPDEST POP PUSH3 0x12F PUSH3 0x17B CALLDATASIZE PUSH1 0x4 PUSH3 0x1544 JUMP JUMPDEST PUSH3 0x408 JUMP JUMPDEST CALLVALUE DUP1 ISZERO PUSH3 0x18E JUMPI PUSH1 0x0 DUP1 REVERT JUMPDEST POP PUSH3 0x12F PUSH3 0x1A0 CALLDATASIZE PUSH1 0x4 PUSH3 0x167D JUMP JUMPDEST PUSH3 0x5FD JUMP JUMPDEST CALLVALUE DUP1 ISZERO PUSH3 0x1B3 JUMPI PUSH1 0x0 DUP1 REVERT JUMPDEST POP PUSH3 0x12F PUSH3 0x64A JUMP JUMPDEST CALLVALUE DUP1 ISZERO PUSH3 0x1CB JUMPI PUSH1 0x0 DUP1 REVERT JUMPDEST POP PUSH3 0x149 PUSH3 0x1DD CALLDATASIZE PUSH1 0x4 PUSH3 0x1518 JUMP JUMPDEST PUSH3 0x6D2 JUMP JUMPDEST CALLVALUE DUP1 ISZERO PUSH3 0x1F0 JUMPI PUSH1 0x0 DUP1 REVERT JUMPDEST POP PUSH3 0x1FB PUSH3 0x704 JUMP JUMPDEST PUSH1 0x40 MLOAD PUSH3 0x153 SWAP2 SWAP1 PUSH3 0x1794 JUMP JUMPDEST CALLVALUE DUP1 ISZERO PUSH3 0x217 JUMPI PUSH1 0x0 DUP1 REVERT JUMPDEST POP PUSH3 0x222 PUSH3 0x8B3 JUMP JUMPDEST PUSH1 0x40 MLOAD PUSH3 0x153 SWAP2 SWAP1 PUSH3 0x1812 JUMP JUMPDEST CALLVALUE DUP1 ISZERO PUSH3 0x23E JUMPI PUSH1 0x0 DUP1 REVERT JUMPDEST POP PUSH3 0x12F PUSH3 0x250 CALLDATASIZE PUSH1 0x4 PUSH3 0x15C8 JUMP JUMPDEST PUSH3 0xA2D JUMP JUMPDEST CALLVALUE DUP1 ISZERO PUSH3 0x263 JUMPI PUSH1 0x0 DUP1 REVERT JUMPDEST POP PUSH3 0x12F PUSH3 0x275 CALLDATASIZE PUSH1 0x4 PUSH3 0x14F4 JUMP JUMPDEST PUSH3 0xBDE JUMP JUMPDEST CALLVALUE DUP1 ISZERO PUSH3 0x288 JUMPI PUSH1 0x0 DUP1 REVERT JUMPDEST POP PUSH3 0x2A0 PUSH3 0x29A CALLDATASIZE PUSH1 0x4 PUSH3 0x14F4 JUMP JUMPDEST PUSH3 0xCE4 JUMP JUMPDEST PUSH1 0x40 MLOAD PUSH3 0x153 SWAP2 SWAP1 PUSH3 0x1886 JUMP JUMPDEST CALLVALUE DUP1 ISZERO PUSH3 0x2BC JUMPI PUSH1 0x0 DUP1 REVERT JUMPDEST POP PUSH3 0x2D4 PUSH3 0x2CE CALLDATASIZE PUSH1 0x4 PUSH3 0x167D JUMP JUMPDEST PUSH3 0xD86 JUMP JUMPDEST PUSH1 0x40 MLOAD PUSH3 0x153 SWAP3 SWAP2 SWAP1 PUSH3 0x1766 JUMP JUMPDEST CALLVALUE DUP1 ISZERO PUSH3 0x2F1 JUMPI PUSH1 0x0 DUP1 REVERT JUMPDEST POP PUSH3 0x149 PUSH3 0x303 CALLDATASIZE PUSH1 0x4 PUSH3 0x14F4 JUMP JUMPDEST PUSH3 0xE3D JUMP JUMPDEST CALLVALUE DUP1 ISZERO PUSH3 0x316 JUMPI PUSH1 0x0 DUP1 REVERT JUMPDEST POP PUSH3 0x1FB PUSH3 0x328 CALLDATASIZE PUSH1 0x4 PUSH3 0x14F4 JUMP JUMPDEST PUSH3 0xEC5 JUMP JUMPDEST CALLVALUE DUP1 ISZERO PUSH3 0x33B JUMPI PUSH1 0x0 DUP1 REVERT JUMPDEST POP PUSH3 0x149 PUSH1 0x1 SLOAD DUP2 JUMP JUMPDEST CALLVALUE DUP1 ISZERO PUSH3 0x353 JUMPI PUSH1 0x0 DUP1 REVERT JUMPDEST POP PUSH3 0x380 PUSH3 0x365 CALLDATASIZE PUSH1 0x4 PUSH3 0x167D JUMP JUMPDEST PUSH1 0x4 PUSH1 0x20 MSTORE PUSH1 0x0 SWAP1 DUP2 MSTORE PUSH1 0x40 SWAP1 KECCAK256 SLOAD PUSH1 0x1 PUSH1 0x1 PUSH1 0xA0 SHL SUB AND DUP2 JUMP JUMPDEST PUSH1 0x40 MLOAD PUSH1 0x1 PUSH1 0x1 PUSH1 0xA0 SHL SUB SWAP1 SWAP2 AND DUP2 MSTORE PUSH1 0x20 ADD PUSH3 0x153 JUMP JUMPDEST CALLVALUE DUP1 ISZERO PUSH3 0x3A6 JUMPI PUSH1 0x0 DUP1 REVERT JUMPDEST POP PUSH3 0x3BE PUSH3 0x3B8 CALLDATASIZE PUSH1 0x4 PUSH3 0x167D JUMP JUMPDEST PUSH3 0x1109 JUMP JUMPDEST PUSH1 0x40 MLOAD PUSH3 0x153 SWAP4 SWAP3 SWAP2 SWAP1 PUSH3 0x189B JUMP JUMPDEST PUSH3 0x12F PUSH3 0x3E0 CALLDATASIZE PUSH1 0x4 PUSH3 0x167D JUMP JUMPDEST PUSH3 0x11BB JUMP JUMPDEST CALLVALUE DUP1 ISZERO PUSH3 0x3F3 JUMPI PUSH1 0x0 DUP1 REVERT JUMPDEST POP PUSH1 0x2 SLOAD PUSH3 0x380 SWAP1 PUSH1 0x1 PUSH1 0x1 PUSH1 0xA0 SHL SUB AND DUP2 JUMP JUMPDEST PUSH1 0x1 DUP1 SLOAD SWAP1 PUSH1 0x0 PUSH3 0x41A DUP4 PUSH3 0x19AA JUMP JUMPDEST SWAP2 SWAP1 POP SSTORE POP PUSH1 0x0 PUSH3 0x42B PUSH3 0x12E6 JUMP JUMPDEST PUSH1 0x1 SLOAD PUSH1 0x0 SLOAD PUSH1 0x2 SLOAD PUSH1 0x3 SLOAD PUSH1 0x40 MLOAD DUP8 SWAP5 SWAP4 DUP12 SWAP4 DUP12 SWAP4 ADDRESS SWAP4 DUP13 SWAP4 SWAP3 PUSH1 0x1 PUSH1 0x1 PUSH1 0xA0 SHL SUB SWAP1 DUP2 AND SWAP3 AND SWAP1 PUSH3 0x45F SWAP1 PUSH3 0x1353 JUMP JUMPDEST PUSH3 0x474 SWAP11 SWAP10 SWAP9 SWAP8 SWAP7 SWAP6 SWAP5 SWAP4 SWAP3 SWAP2 SWAP1 PUSH3 0x16E4 JUMP JUMPDEST PUSH1 0x40 MLOAD DUP1 SWAP2 SUB SWAP1 PUSH1 0x0 CREATE DUP1 ISZERO DUP1 ISZERO PUSH3 0x491 JUMPI RETURNDATASIZE PUSH1 0x0 DUP1 RETURNDATACOPY RETURNDATASIZE PUSH1 0x0 REVERT JUMPDEST POP PUSH1 0x1 PUSH1 0x1 PUSH1 0xA0 SHL SUB DUP2 AND PUSH1 0x0 SWAP1 DUP2 MSTORE PUSH1 0x6 PUSH1 0x20 SWAP1 DUP2 MSTORE PUSH1 0x40 SWAP1 SWAP2 KECCAK256 DUP8 MLOAD SWAP3 SWAP4 POP PUSH3 0x4C2 SWAP3 SWAP1 SWAP2 DUP9 ADD SWAP1 PUSH3 0x1361 JUMP JUMPDEST POP PUSH1 0x1 DUP1 SLOAD PUSH1 0x0 SWAP1 DUP2 MSTORE PUSH1 0x4 PUSH1 0x20 SWAP1 DUP2 MSTORE PUSH1 0x40 DUP1 DUP4 KECCAK256 DUP1 SLOAD PUSH1 0x1 PUSH1 0x1 PUSH1 0xA0 SHL SUB DUP1 DUP9 AND PUSH1 0x1 PUSH1 0x1 PUSH1 0xA0 SHL SUB NOT SWAP3 DUP4 AND DUP2 OR SWAP1 SWAP4 SSTORE DUP4 MLOAD DUP1 DUP6 ADD DUP6 MSTORE SWAP3 DUP4 MSTORE DUP3 DUP6 ADD DUP13 DUP2 MSTORE DUP8 SLOAD DUP8 MSTORE PUSH1 0x7 DUP7 MSTORE SWAP4 SWAP1 SWAP6 KECCAK256 DUP3 MLOAD DUP2 SLOAD SWAP7 AND SWAP6 SWAP1 SWAP2 AND SWAP5 SWAP1 SWAP5 OR DUP5 SSTORE SWAP1 MLOAD DUP1 MLOAD SWAP2 SWAP5 PUSH3 0x53A SWAP4 SWAP1 DUP6 ADD SWAP3 SWAP2 ADD SWAP1 PUSH3 0x1361 JUMP JUMPDEST POP SWAP1 POP POP PUSH1 0x5 PUSH1 0x0 PUSH3 0x54C PUSH3 0x12E6 JUMP JUMPDEST PUSH1 0x1 PUSH1 0x1 PUSH1 0xA0 SHL SUB SWAP1 DUP2 AND DUP3 MSTORE PUSH1 0x20 DUP1 DUP4 ADD SWAP4 SWAP1 SWAP4 MSTORE PUSH1 0x40 SWAP2 DUP3 ADD PUSH1 0x0 SWAP1 DUP2 KECCAK256 PUSH1 0x1 DUP1 SLOAD DUP3 SLOAD DUP1 DUP4 ADD DUP5 SSTORE SWAP3 DUP5 MSTORE DUP7 DUP5 KECCAK256 SWAP1 SWAP3 ADD SWAP2 SWAP1 SWAP2 SSTORE SWAP2 DUP7 AND DUP1 DUP3 MSTORE PUSH1 0x5 DUP6 MSTORE SWAP3 DUP2 KECCAK256 DUP3 SLOAD DUP2 SLOAD SWAP4 DUP5 ADD DUP3 SSTORE SWAP1 DUP3 MSTORE SWAP4 SWAP1 KECCAK256 ADD SWAP2 SWAP1 SWAP2 SSTORE PUSH3 0x5AF PUSH3 0x12E6 JUMP JUMPDEST PUSH1 0x40 DUP1 MLOAD PUSH1 0x1 PUSH1 0x1 PUSH1 0xA0 SHL SUB DUP6 DUP2 AND DUP3 MSTORE TIMESTAMP PUSH1 0x20 DUP4 ADD MSTORE SWAP3 SWAP1 SWAP3 AND SWAP2 PUSH32 0xF3E9FB09D0520A320797DAE1F1EC5BC12AACD22478B49F6E89C50A46C6A27619 SWAP2 ADD PUSH1 0x40 MLOAD DUP1 SWAP2 SUB SWAP1 LOG3 POP POP POP POP POP JUMP JUMPDEST PUSH1 0x2 SLOAD PUSH1 0x1 PUSH1 0x1 PUSH1 0xA0 SHL SUB AND PUSH3 0x613 PUSH3 0x12E6 JUMP JUMPDEST PUSH1 0x1 PUSH1 0x1 PUSH1 0xA0 SHL SUB AND EQ PUSH3 0x645 JUMPI PUSH1 0x40 MLOAD PUSH3 0x461BCD PUSH1 0xE5 SHL DUP2 MSTORE PUSH1 0x4 ADD PUSH3 0x63C SWAP1 PUSH3 0x18C2 JUMP JUMPDEST PUSH1 0x40 MLOAD DUP1 SWAP2 SUB SWAP1 REVERT JUMPDEST PUSH1 0x0 SSTORE JUMP JUMPDEST PUSH1 0x2 SLOAD PUSH1 0x1 PUSH1 0x1 PUSH1 0xA0 SHL SUB AND PUSH3 0x660 PUSH3 0x12E6 JUMP JUMPDEST PUSH1 0x1 PUSH1 0x1 PUSH1 0xA0 SHL SUB AND EQ PUSH3 0x689 JUMPI PUSH1 0x40 MLOAD PUSH3 0x461BCD PUSH1 0xE5 SHL DUP2 MSTORE PUSH1 0x4 ADD PUSH3 0x63C SWAP1 PUSH3 0x18C2 JUMP JUMPDEST PUSH1 0x0 PUSH3 0x695 PUSH3 0x12E6 JUMP JUMPDEST PUSH1 0x40 MLOAD SWAP1 SWAP2 POP PUSH1 0x1 PUSH1 0x1 PUSH1 0xA0 SHL SUB DUP3 AND SWAP1 SELFBALANCE DUP1 ISZERO PUSH2 0x8FC MUL SWAP2 PUSH1 0x0 DUP2 DUP2 DUP2 DUP6 DUP9 DUP9 CALL SWAP4 POP POP POP POP ISZERO DUP1 ISZERO PUSH3 0x6CE JUMPI RETURNDATASIZE PUSH1 0x0 DUP1 RETURNDATACOPY RETURNDATASIZE PUSH1 0x0 REVERT JUMPDEST POP POP JUMP JUMPDEST PUSH1 0x5 PUSH1 0x20 MSTORE DUP2 PUSH1 0x0 MSTORE PUSH1 0x40 PUSH1 0x0 KECCAK256 DUP2 DUP2 SLOAD DUP2 LT PUSH3 0x6EF JUMPI PUSH1 0x0 DUP1 REVERT JUMPDEST SWAP1 PUSH1 0x0 MSTORE PUSH1 0x20 PUSH1 0x0 KECCAK256 ADD PUSH1 0x0 SWAP2 POP SWAP2 POP POP SLOAD DUP2 JUMP JUMPDEST PUSH1 0x60 PUSH1 0x0 PUSH1 0x1 SLOAD PUSH8 0xFFFFFFFFFFFFFFFF DUP2 GT ISZERO PUSH3 0x732 JUMPI PUSH4 0x4E487B71 PUSH1 0xE0 SHL PUSH1 0x0 MSTORE PUSH1 0x41 PUSH1 0x4 MSTORE PUSH1 0x24 PUSH1 0x0 REVERT JUMPDEST PUSH1 0x40 MLOAD SWAP1 DUP1 DUP3 MSTORE DUP1 PUSH1 0x20 MUL PUSH1 0x20 ADD DUP3 ADD PUSH1 0x40 MSTORE DUP1 ISZERO PUSH3 0x77A JUMPI DUP2 PUSH1 0x20 ADD JUMPDEST PUSH1 0x40 DUP1 MLOAD DUP1 DUP3 ADD SWAP1 SWAP2 MSTORE PUSH1 0x0 DUP2 MSTORE PUSH1 0x60 PUSH1 0x20 DUP3 ADD MSTORE DUP2 MSTORE PUSH1 0x20 ADD SWAP1 PUSH1 0x1 SWAP1 SUB SWAP1 DUP2 PUSH3 0x751 JUMPI SWAP1 POP JUMPDEST POP SWAP1 POP PUSH1 0x1 JUMPDEST PUSH1 0x1 DUP1 SLOAD PUSH3 0x78F SWAP2 PUSH3 0x191E JUMP JUMPDEST DUP2 LT ISZERO PUSH3 0x8AC JUMPI PUSH1 0x0 DUP2 DUP2 MSTORE PUSH1 0x7 PUSH1 0x20 SWAP1 DUP2 MSTORE PUSH1 0x40 SWAP2 DUP3 SWAP1 KECCAK256 DUP3 MLOAD DUP1 DUP5 ADD SWAP1 SWAP4 MSTORE DUP1 SLOAD PUSH1 0x1 PUSH1 0x1 PUSH1 0xA0 SHL SUB AND DUP4 MSTORE PUSH1 0x1 DUP2 ADD DUP1 SLOAD SWAP2 SWAP3 DUP5 ADD SWAP2 PUSH3 0x7D4 SWAP1 PUSH3 0x196D JUMP JUMPDEST DUP1 PUSH1 0x1F ADD PUSH1 0x20 DUP1 SWAP2 DIV MUL PUSH1 0x20 ADD PUSH1 0x40 MLOAD SWAP1 DUP2 ADD PUSH1 0x40 MSTORE DUP1 SWAP3 SWAP2 SWAP1 DUP2 DUP2 MSTORE PUSH1 0x20 ADD DUP3 DUP1 SLOAD PUSH3 0x802 SWAP1 PUSH3 0x196D JUMP JUMPDEST DUP1 ISZERO PUSH3 0x853 JUMPI DUP1 PUSH1 0x1F LT PUSH3 0x827 JUMPI PUSH2 0x100 DUP1 DUP4 SLOAD DIV MUL DUP4 MSTORE SWAP2 PUSH1 0x20 ADD SWAP2 PUSH3 0x853 JUMP JUMPDEST DUP3 ADD SWAP2 SWAP1 PUSH1 0x0 MSTORE PUSH1 0x20 PUSH1 0x0 KECCAK256 SWAP1 JUMPDEST DUP2 SLOAD DUP2 MSTORE SWAP1 PUSH1 0x1 ADD SWAP1 PUSH1 0x20 ADD DUP1 DUP4 GT PUSH3 0x835 JUMPI DUP3 SWAP1 SUB PUSH1 0x1F AND DUP3 ADD SWAP2 JUMPDEST POP POP POP POP POP DUP2 MSTORE POP POP DUP3 PUSH1 0x1 DUP4 PUSH3 0x86C SWAP2 SWAP1 PUSH3 0x1939 JUMP JUMPDEST DUP2 MLOAD DUP2 LT PUSH3 0x88B JUMPI PUSH4 0x4E487B71 PUSH1 0xE0 SHL PUSH1 0x0 MSTORE PUSH1 0x32 PUSH1 0x4 MSTORE PUSH1 0x24 PUSH1 0x0 REVERT JUMPDEST PUSH1 0x20 MUL PUSH1 0x20 ADD ADD DUP2 SWAP1 MSTORE POP DUP1 DUP1 PUSH3 0x8A3 SWAP1 PUSH3 0x19AA JUMP JUMPDEST SWAP2 POP POP PUSH3 0x780 JUMP JUMPDEST POP SWAP1 POP JUMPDEST SWAP1 JUMP JUMPDEST PUSH1 0x40 DUP1 MLOAD PUSH1 0x4 DUP1 DUP3 MSTORE PUSH1 0xA0 DUP3 ADD SWAP1 SWAP3 MSTORE PUSH1 0x60 SWAP2 PUSH1 0x0 SWAP2 SWAP1 DUP2 PUSH1 0x20 ADD JUMPDEST PUSH3 0x8F4 PUSH1 0x40 MLOAD DUP1 PUSH1 0x60 ADD PUSH1 0x40 MSTORE DUP1 PUSH1 0x60 DUP2 MSTORE PUSH1 0x20 ADD PUSH1 0x0 DUP2 MSTORE PUSH1 0x20 ADD PUSH1 0x0 DUP2 MSTORE POP SWAP1 JUMP JUMPDEST DUP2 MSTORE PUSH1 0x20 ADD SWAP1 PUSH1 0x1 SWAP1 SUB SWAP1 DUP2 PUSH3 0x8CF JUMPI SWAP1 POP POP SWAP1 POP PUSH1 0x1 JUMPDEST PUSH1 0x5 DUP2 LT ISZERO PUSH3 0x8AC JUMPI PUSH1 0x0 DUP2 DUP2 MSTORE PUSH1 0xB PUSH1 0x20 MSTORE PUSH1 0x40 SWAP1 DUP2 SWAP1 KECCAK256 DUP2 MLOAD PUSH1 0x60 DUP2 ADD SWAP1 SWAP3 MSTORE DUP1 SLOAD DUP3 SWAP1 DUP3 SWAP1 PUSH3 0x941 SWAP1 PUSH3 0x196D JUMP JUMPDEST DUP1 PUSH1 0x1F ADD PUSH1 0x20 DUP1 SWAP2 DIV MUL PUSH1 0x20 ADD PUSH1 0x40 MLOAD SWAP1 DUP2 ADD PUSH1 0x40 MSTORE DUP1 SWAP3 SWAP2 SWAP1 DUP2 DUP2 MSTORE PUSH1 0x20 ADD DUP3 DUP1 SLOAD PUSH3 0x96F SWAP1 PUSH3 0x196D JUMP JUMPDEST DUP1 ISZERO PUSH3 0x9C0 JUMPI DUP1 PUSH1 0x1F LT PUSH3 0x994 JUMPI PUSH2 0x100 DUP1 DUP4 SLOAD DIV MUL DUP4 MSTORE SWAP2 PUSH1 0x20 ADD SWAP2 PUSH3 0x9C0 JUMP JUMPDEST DUP3 ADD SWAP2 SWAP1 PUSH1 0x0 MSTORE PUSH1 0x20 PUSH1 0x0 KECCAK256 SWAP1 JUMPDEST DUP2 SLOAD DUP2 MSTORE SWAP1 PUSH1 0x1 ADD SWAP1 PUSH1 0x20 ADD DUP1 DUP4 GT PUSH3 0x9A2 JUMPI DUP3 SWAP1 SUB PUSH1 0x1F AND DUP3 ADD SWAP2 JUMPDEST POP POP POP POP POP DUP2 MSTORE PUSH1 0x20 ADD PUSH1 0x1 DUP3 ADD SLOAD DUP2 MSTORE PUSH1 0x20 ADD PUSH1 0x2 DUP3 ADD SLOAD DUP2 MSTORE POP POP DUP3 PUSH1 0x1 DUP4 PUSH3 0x9ED SWAP2 SWAP1 PUSH3 0x1939 JUMP JUMPDEST DUP2 MLOAD DUP2 LT PUSH3 0xA0C JUMPI PUSH4 0x4E487B71 PUSH1 0xE0 SHL PUSH1 0x0 MSTORE PUSH1 0x32 PUSH1 0x4 MSTORE PUSH1 0x24 PUSH1 0x0 REVERT JUMPDEST PUSH1 0x20 MUL PUSH1 0x20 ADD ADD DUP2 SWAP1 MSTORE POP DUP1 DUP1 PUSH3 0xA24 SWAP1 PUSH3 0x19AA JUMP JUMPDEST SWAP2 POP POP PUSH3 0x90D JUMP JUMPDEST PUSH1 0x2 SLOAD PUSH1 0x1 PUSH1 0x1 PUSH1 0xA0 SHL SUB AND PUSH3 0xA43 PUSH3 0x12E6 JUMP JUMPDEST PUSH1 0x1 PUSH1 0x1 PUSH1 0xA0 SHL SUB AND EQ PUSH3 0xA6C JUMPI PUSH1 0x40 MLOAD PUSH3 0x461BCD PUSH1 0xE5 SHL DUP2 MSTORE PUSH1 0x4 ADD PUSH3 0x63C SWAP1 PUSH3 0x18C2 JUMP JUMPDEST PUSH1 0x1 PUSH1 0x0 MSTORE PUSH1 0xB PUSH1 0x20 SWAP1 DUP2 MSTORE DUP5 MLOAD DUP1 MLOAD DUP7 SWAP3 PUSH32 0x72C6BFB7988AF3A1EFA6568F02A999BC52252641C659D85961CA3D372B57D5CF SWAP3 PUSH3 0xAB2 SWAP3 DUP5 SWAP3 SWAP2 SWAP1 SWAP2 ADD SWAP1 PUSH3 0x1361 JUMP JUMPDEST POP PUSH1 0x20 DUP3 DUP2 ADD MLOAD PUSH1 0x1 DUP4 ADD SSTORE PUSH1 0x40 SWAP1 SWAP3 ADD MLOAD PUSH1 0x2 SWAP2 DUP3 ADD SSTORE PUSH1 0x0 MSTORE PUSH1 0xB DUP2 MSTORE DUP4 MLOAD DUP1 MLOAD DUP6 SWAP3 PUSH32 0xA50EECE07C7DB1631545C0069BD8F5F54D5935E215D59097EDF258A44BA91634 SWAP3 PUSH3 0xB0B SWAP3 DUP5 SWAP3 SWAP2 SWAP1 SWAP2 ADD SWAP1 PUSH3 0x1361 JUMP JUMPDEST POP PUSH1 0x20 DUP3 DUP2 ADD MLOAD PUSH1 0x1 DUP4 ADD SSTORE PUSH1 0x40 SWAP1 SWAP3 ADD MLOAD PUSH1 0x2 SWAP1 SWAP2 ADD SSTORE PUSH1 0x3 PUSH1 0x0 MSTORE PUSH1 0xB DUP2 MSTORE DUP3 MLOAD DUP1 MLOAD DUP5 SWAP3 PUSH32 0x64C15CC42BE7899B001F818CF4433057002112C418D1D3A67CD5CB453051D33E SWAP3 PUSH3 0xB66 SWAP3 DUP5 SWAP3 SWAP2 SWAP1 SWAP2 ADD SWAP1 PUSH3 0x1361 JUMP JUMPDEST POP PUSH1 0x20 DUP3 DUP2 ADD MLOAD PUSH1 0x1 DUP4 ADD SSTORE PUSH1 0x40 SWAP1 SWAP3 ADD MLOAD PUSH1 0x2 SWAP1 SWAP2 ADD SSTORE PUSH1 0x4 PUSH1 0x0 MSTORE PUSH1 0xB DUP2 MSTORE DUP2 MLOAD DUP1 MLOAD DUP4 SWAP3 PUSH32 0x12D0C11577E2F0950F57C455C117796550B79F444811DB8BA2F69C57B646C784 SWAP3 PUSH3 0xBC1 SWAP3 DUP5 SWAP3 SWAP2 SWAP1 SWAP2 ADD SWAP1 PUSH3 0x1361 JUMP JUMPDEST POP PUSH1 0x20 DUP3 ADD MLOAD PUSH1 0x1 DUP3 ADD SSTORE PUSH1 0x40 SWAP1 SWAP2 ADD MLOAD PUSH1 0x2 SWAP1 SWAP2 ADD SSTORE POP POP POP POP JUMP JUMPDEST PUSH1 0x2 SLOAD PUSH1 0x1 PUSH1 0x1 PUSH1 0xA0 SHL SUB AND PUSH3 0xBF4 PUSH3 0x12E6 JUMP JUMPDEST PUSH1 0x1 PUSH1 0x1 PUSH1 0xA0 SHL SUB AND EQ PUSH3 0xC1D JUMPI PUSH1 0x40 MLOAD PUSH3 0x461BCD PUSH1 0xE5 SHL DUP2 MSTORE PUSH1 0x4 ADD PUSH3 0x63C SWAP1 PUSH3 0x18C2 JUMP JUMPDEST PUSH1 0x1 PUSH1 0x1 PUSH1 0xA0 SHL SUB DUP2 AND PUSH1 0x0 SWAP1 DUP2 MSTORE PUSH1 0xA PUSH1 0x20 MSTORE PUSH1 0x40 SWAP1 KECCAK256 SLOAD PUSH1 0xFF AND ISZERO PUSH3 0xC70 JUMPI PUSH1 0x1 PUSH1 0x1 PUSH1 0xA0 SHL SUB DUP2 AND PUSH1 0x0 SWAP1 DUP2 MSTORE PUSH1 0x8 PUSH1 0x20 MSTORE PUSH1 0x40 DUP2 KECCAK256 DUP1 SLOAD SWAP2 PUSH3 0xC65 DUP4 PUSH3 0x1953 JUMP JUMPDEST SWAP2 SWAP1 POP SSTORE POP PUSH3 0xCE1 JUMP JUMPDEST PUSH1 0x1 PUSH1 0x1 PUSH1 0xA0 SHL SUB DUP2 AND PUSH1 0x0 SWAP1 DUP2 MSTORE PUSH1 0x9 PUSH1 0x20 MSTORE PUSH1 0x40 DUP2 KECCAK256 DUP1 SLOAD SWAP2 PUSH3 0xC96 DUP4 PUSH3 0x19AA JUMP JUMPDEST SWAP1 SWAP2 SSTORE POP POP PUSH1 0x1 PUSH1 0x1 PUSH1 0xA0 SHL SUB DUP2 AND PUSH1 0x0 SWAP1 DUP2 MSTORE PUSH1 0x9 PUSH1 0x20 MSTORE PUSH1 0x40 SWAP1 KECCAK256 SLOAD PUSH1 0x3 EQ ISZERO PUSH3 0xCE1 JUMPI PUSH1 0x1 PUSH1 0x1 PUSH1 0xA0 SHL SUB DUP2 AND PUSH1 0x0 SWAP1 DUP2 MSTORE PUSH1 0xA PUSH1 0x20 MSTORE PUSH1 0x40 SWAP1 KECCAK256 DUP1 SLOAD PUSH1 0xFF NOT AND PUSH1 0x1 OR SWAP1 SSTORE JUMPDEST POP JUMP JUMPDEST PUSH1 0x6 PUSH1 0x20 MSTORE PUSH1 0x0 SWAP1 DUP2 MSTORE PUSH1 0x40 SWAP1 KECCAK256 DUP1 SLOAD PUSH3 0xCFF SWAP1 PUSH3 0x196D JUMP JUMPDEST DUP1 PUSH1 0x1F ADD PUSH1 0x20 DUP1 SWAP2 DIV MUL PUSH1 0x20 ADD PUSH1 0x40 MLOAD SWAP1 DUP2 ADD PUSH1 0x40 MSTORE DUP1 SWAP3 SWAP2 SWAP1 DUP2 DUP2 MSTORE PUSH1 0x20 ADD DUP3 DUP1 SLOAD PUSH3 0xD2D SWAP1 PUSH3 0x196D JUMP JUMPDEST DUP1 ISZERO PUSH3 0xD7E JUMPI DUP1 PUSH1 0x1F LT PUSH3 0xD52 JUMPI PUSH2 0x100 DUP1 DUP4 SLOAD DIV MUL DUP4 MSTORE SWAP2 PUSH1 0x20 ADD SWAP2 PUSH3 0xD7E JUMP JUMPDEST DUP3 ADD SWAP2 SWAP1 PUSH1 0x0 MSTORE PUSH1 0x20 PUSH1 0x0 KECCAK256 SWAP1 JUMPDEST DUP2 SLOAD DUP2 MSTORE SWAP1 PUSH1 0x1 ADD SWAP1 PUSH1 0x20 ADD DUP1 DUP4 GT PUSH3 0xD60 JUMPI DUP3 SWAP1 SUB PUSH1 0x1F AND DUP3 ADD SWAP2 JUMPDEST POP POP POP POP POP DUP2 JUMP JUMPDEST PUSH1 0x7 PUSH1 0x20 MSTORE PUSH1 0x0 SWAP1 DUP2 MSTORE PUSH1 0x40 SWAP1 KECCAK256 DUP1 SLOAD PUSH1 0x1 DUP3 ADD DUP1 SLOAD PUSH1 0x1 PUSH1 0x1 PUSH1 0xA0 SHL SUB SWAP1 SWAP3 AND SWAP3 SWAP2 PUSH3 0xDB4 SWAP1 PUSH3 0x196D JUMP JUMPDEST DUP1 PUSH1 0x1F ADD PUSH1 0x20 DUP1 SWAP2 DIV MUL PUSH1 0x20 ADD PUSH1 0x40 MLOAD SWAP1 DUP2 ADD PUSH1 0x40 MSTORE DUP1 SWAP3 SWAP2 SWAP1 DUP2 DUP2 MSTORE PUSH1 0x20 ADD DUP3 DUP1 SLOAD PUSH3 0xDE2 SWAP1 PUSH3 0x196D JUMP JUMPDEST DUP1 ISZERO PUSH3 0xE33 JUMPI DUP1 PUSH1 0x1F LT PUSH3 0xE07 JUMPI PUSH2 0x100 DUP1 DUP4 SLOAD DIV MUL DUP4 MSTORE SWAP2 PUSH1 0x20 ADD SWAP2 PUSH3 0xE33 JUMP JUMPDEST DUP3 ADD SWAP2 SWAP1 PUSH1 0x0 MSTORE PUSH1 0x20 PUSH1 0x0 KECCAK256 SWAP1 JUMPDEST DUP2 SLOAD DUP2 MSTORE SWAP1 PUSH1 0x1 ADD SWAP1 PUSH1 0x20 ADD DUP1 DUP4 GT PUSH3 0xE15 JUMPI DUP3 SWAP1 SUB PUSH1 0x1F AND DUP3 ADD SWAP2 JUMPDEST POP POP POP POP POP SWAP1 POP DUP3 JUMP JUMPDEST PUSH1 0x1 PUSH1 0x1 PUSH1 0xA0 SHL SUB DUP2 AND PUSH1 0x0 SWAP1 DUP2 MSTORE PUSH1 0xA PUSH1 0x20 MSTORE PUSH1 0x40 DUP2 KECCAK256 SLOAD PUSH1 0xFF AND ISZERO PUSH3 0xE7F JUMPI POP PUSH1 0x1 PUSH1 0x1 PUSH1 0xA0 SHL SUB DUP2 AND PUSH1 0x0 SWAP1 DUP2 MSTORE PUSH1 0x8 PUSH1 0x20 MSTORE PUSH1 0x40 SWAP1 KECCAK256 SLOAD PUSH3 0xEC0 JUMP JUMPDEST PUSH1 0x1 PUSH1 0x1 PUSH1 0xA0 SHL SUB DUP3 AND PUSH1 0x0 SWAP1 DUP2 MSTORE PUSH1 0x8 PUSH1 0x20 SWAP1 DUP2 MSTORE PUSH1 0x40 DUP1 DUP4 KECCAK256 SLOAD PUSH1 0x9 SWAP1 SWAP3 MSTORE SWAP1 SWAP2 KECCAK256 SLOAD PUSH3 0xEB1 SWAP1 PUSH1 0x3 PUSH3 0x1939 JUMP JUMPDEST PUSH3 0xEBD SWAP2 SWAP1 PUSH3 0x191E JUMP JUMPDEST SWAP1 POP JUMPDEST SWAP2 SWAP1 POP JUMP JUMPDEST PUSH1 0x1 PUSH1 0x1 PUSH1 0xA0 SHL SUB DUP2 AND PUSH1 0x0 SWAP1 DUP2 MSTORE PUSH1 0x5 PUSH1 0x20 SWAP1 DUP2 MSTORE PUSH1 0x40 DUP1 DUP4 KECCAK256 DUP1 SLOAD DUP3 MLOAD DUP2 DUP6 MUL DUP2 ADD DUP6 ADD SWAP1 SWAP4 MSTORE DUP1 DUP4 MSTORE PUSH1 0x60 SWAP5 SWAP4 DUP4 ADD DUP3 DUP3 DUP1 ISZERO PUSH3 0xF26 JUMPI PUSH1 0x20 MUL DUP3 ADD SWAP2 SWAP1 PUSH1 0x0 MSTORE PUSH1 0x20 PUSH1 0x0 KECCAK256 SWAP1 JUMPDEST DUP2 SLOAD DUP2 MSTORE PUSH1 0x20 ADD SWAP1 PUSH1 0x1 ADD SWAP1 DUP1 DUP4 GT PUSH3 0xF11 JUMPI JUMPDEST POP POP POP POP POP SWAP1 POP PUSH1 0x0 DUP2 MLOAD PUSH8 0xFFFFFFFFFFFFFFFF DUP2 GT ISZERO PUSH3 0xF58 JUMPI PUSH4 0x4E487B71 PUSH1 0xE0 SHL PUSH1 0x0 MSTORE PUSH1 0x41 PUSH1 0x4 MSTORE PUSH1 0x24 PUSH1 0x0 REVERT JUMPDEST PUSH1 0x40 MLOAD SWAP1 DUP1 DUP3 MSTORE DUP1 PUSH1 0x20 MUL PUSH1 0x20 ADD DUP3 ADD PUSH1 0x40 MSTORE DUP1 ISZERO PUSH3 0xFA0 JUMPI DUP2 PUSH1 0x20 ADD JUMPDEST PUSH1 0x40 DUP1 MLOAD DUP1 DUP3 ADD SWAP1 SWAP2 MSTORE PUSH1 0x0 DUP2 MSTORE PUSH1 0x60 PUSH1 0x20 DUP3 ADD MSTORE DUP2 MSTORE PUSH1 0x20 ADD SWAP1 PUSH1 0x1 SWAP1 SUB SWAP1 DUP2 PUSH3 0xF77 JUMPI SWAP1 POP JUMPDEST POP SWAP1 POP PUSH1 0x0 JUMPDEST DUP3 MLOAD DUP2 LT ISZERO PUSH3 0x1101 JUMPI PUSH1 0x7 PUSH1 0x0 DUP5 DUP4 DUP2 MLOAD DUP2 LT PUSH3 0xFD5 JUMPI PUSH4 0x4E487B71 PUSH1 0xE0 SHL PUSH1 0x0 MSTORE PUSH1 0x32 PUSH1 0x4 MSTORE PUSH1 0x24 PUSH1 0x0 REVERT JUMPDEST PUSH1 0x20 MUL PUSH1 0x20 ADD ADD MLOAD DUP2 MSTORE PUSH1 0x20 ADD SWAP1 DUP2 MSTORE PUSH1 0x20 ADD PUSH1 0x0 KECCAK256 PUSH1 0x40 MLOAD DUP1 PUSH1 0x40 ADD PUSH1 0x40 MSTORE SWAP1 DUP2 PUSH1 0x0 DUP3 ADD PUSH1 0x0 SWAP1 SLOAD SWAP1 PUSH2 0x100 EXP SWAP1 DIV PUSH1 0x1 PUSH1 0x1 PUSH1 0xA0 SHL SUB AND PUSH1 0x1 PUSH1 0x1 PUSH1 0xA0 SHL SUB AND PUSH1 0x1 PUSH1 0x1 PUSH1 0xA0 SHL SUB AND DUP2 MSTORE PUSH1 0x20 ADD PUSH1 0x1 DUP3 ADD DUP1 SLOAD PUSH3 0x1037 SWAP1 PUSH3 0x196D JUMP JUMPDEST DUP1 PUSH1 0x1F ADD PUSH1 0x20 DUP1 SWAP2 DIV MUL PUSH1 0x20 ADD PUSH1 0x40 MLOAD SWAP1 DUP2 ADD PUSH1 0x40 MSTORE DUP1 SWAP3 SWAP2 SWAP1 DUP2 DUP2 MSTORE PUSH1 0x20 ADD DUP3 DUP1 SLOAD PUSH3 0x1065 SWAP1 PUSH3 0x196D JUMP JUMPDEST DUP1 ISZERO PUSH3 0x10B6 JUMPI DUP1 PUSH1 0x1F LT PUSH3 0x108A JUMPI PUSH2 0x100 DUP1 DUP4 SLOAD DIV MUL DUP4 MSTORE SWAP2 PUSH1 0x20 ADD SWAP2 PUSH3 0x10B6 JUMP JUMPDEST DUP3 ADD SWAP2 SWAP1 PUSH1 0x0 MSTORE PUSH1 0x20 PUSH1 0x0 KECCAK256 SWAP1 JUMPDEST DUP2 SLOAD DUP2 MSTORE SWAP1 PUSH1 0x1 ADD SWAP1 PUSH1 0x20 ADD DUP1 DUP4 GT PUSH3 0x1098 JUMPI DUP3 SWAP1 SUB PUSH1 0x1F AND DUP3 ADD SWAP2 JUMPDEST POP POP POP POP POP DUP2 MSTORE POP POP DUP3 DUP3 DUP2 MLOAD DUP2 LT PUSH3 0x10E0 JUMPI PUSH4 0x4E487B71 PUSH1 0xE0 SHL PUSH1 0x0 MSTORE PUSH1 0x32 PUSH1 0x4 MSTORE PUSH1 0x24 PUSH1 0x0 REVERT JUMPDEST PUSH1 0x20 MUL PUSH1 0x20 ADD ADD DUP2 SWAP1 MSTORE POP DUP1 DUP1 PUSH3 0x10F8 SWAP1 PUSH3 0x19AA JUMP JUMPDEST SWAP2 POP POP PUSH3 0xFA6 JUMP JUMPDEST POP SWAP4 SWAP3 POP POP POP JUMP JUMPDEST PUSH1 0xB PUSH1 0x20 MSTORE PUSH1 0x0 SWAP1 DUP2 MSTORE PUSH1 0x40 SWAP1 KECCAK256 DUP1 SLOAD DUP2 SWAP1 PUSH3 0x1126 SWAP1 PUSH3 0x196D JUMP JUMPDEST DUP1 PUSH1 0x1F ADD PUSH1 0x20 DUP1 SWAP2 DIV MUL PUSH1 0x20 ADD PUSH1 0x40 MLOAD SWAP1 DUP2 ADD PUSH1 0x40 MSTORE DUP1 SWAP3 SWAP2 SWAP1 DUP2 DUP2 MSTORE PUSH1 0x20 ADD DUP3 DUP1 SLOAD PUSH3 0x1154 SWAP1 PUSH3 0x196D JUMP JUMPDEST DUP1 ISZERO PUSH3 0x11A5 JUMPI DUP1 PUSH1 0x1F LT PUSH3 0x1179 JUMPI PUSH2 0x100 DUP1 DUP4 SLOAD DIV MUL DUP4 MSTORE SWAP2 PUSH1 0x20 ADD SWAP2 PUSH3 0x11A5 JUMP JUMPDEST DUP3 ADD SWAP2 SWAP1 PUSH1 0x0 MSTORE PUSH1 0x20 PUSH1 0x0 KECCAK256 SWAP1 JUMPDEST DUP2 SLOAD DUP2 MSTORE SWAP1 PUSH1 0x1 ADD SWAP1 PUSH1 0x20 ADD DUP1 DUP4 GT PUSH3 0x1187 JUMPI DUP3 SWAP1 SUB PUSH1 0x1F AND DUP3 ADD SWAP2 JUMPDEST POP POP POP POP POP SWAP1 DUP1 PUSH1 0x1 ADD SLOAD SWAP1 DUP1 PUSH1 0x2 ADD SLOAD SWAP1 POP DUP4 JUMP JUMPDEST PUSH1 0x0 DUP2 DUP2 MSTORE PUSH1 0xB PUSH1 0x20 MSTORE PUSH1 0x40 SWAP1 KECCAK256 PUSH1 0x1 ADD SLOAD CALLVALUE LT ISZERO PUSH3 0x122A JUMPI PUSH1 0x40 MLOAD PUSH3 0x461BCD PUSH1 0xE5 SHL DUP2 MSTORE PUSH1 0x20 PUSH1 0x4 DUP3 ADD MSTORE PUSH1 0x24 DUP1 DUP3 ADD MSTORE PUSH32 0x45746865722073656E7420646F6573206E6F74206D6174636820746865207072 PUSH1 0x44 DUP3 ADD MSTORE PUSH4 0x69636521 PUSH1 0xE0 SHL PUSH1 0x64 DUP3 ADD MSTORE PUSH1 0x84 ADD PUSH3 0x63C JUMP JUMPDEST PUSH1 0x0 PUSH3 0x1236 PUSH3 0x12E6 JUMP JUMPDEST PUSH1 0x0 DUP4 DUP2 MSTORE PUSH1 0xB PUSH1 0x20 SWAP1 DUP2 MSTORE PUSH1 0x40 DUP1 DUP4 KECCAK256 PUSH1 0x2 ADD SLOAD PUSH1 0x1 PUSH1 0x1 PUSH1 0xA0 SHL SUB DUP6 AND DUP5 MSTORE PUSH1 0x8 SWAP1 SWAP3 MSTORE DUP3 KECCAK256 DUP1 SLOAD SWAP4 SWAP5 POP SWAP1 SWAP3 SWAP1 SWAP2 SWAP1 PUSH3 0x1275 SWAP1 DUP5 SWAP1 PUSH3 0x191E JUMP JUMPDEST SWAP1 SWAP2 SSTORE POP POP PUSH1 0x0 DUP3 DUP2 MSTORE PUSH1 0xB PUSH1 0x20 MSTORE PUSH1 0x40 SWAP1 KECCAK256 PUSH1 0x2 ADD SLOAD PUSH3 0x1296 PUSH3 0x12E6 JUMP JUMPDEST PUSH1 0x1 PUSH1 0x1 PUSH1 0xA0 SHL SUB AND PUSH32 0x382F658B6642BFF97773130E5A5DA27BC9FB84C464FE84CBD7EC50E808B9F280 CALLVALUE TIMESTAMP PUSH1 0x40 MLOAD PUSH3 0x12DA SWAP3 SWAP2 SWAP1 SWAP2 DUP3 MSTORE PUSH1 0x20 DUP3 ADD MSTORE PUSH1 0x40 ADD SWAP1 JUMP JUMPDEST PUSH1 0x40 MLOAD DUP1 SWAP2 SUB SWAP1 LOG3 POP POP JUMP JUMPDEST PUSH1 0x3 SLOAD PUSH1 0x0 SWAP1 PUSH1 0x1 PUSH1 0x1 PUSH1 0xA0 SHL SUB AND CALLER EQ ISZERO PUSH3 0x134B JUMPI PUSH1 0x0 DUP1 CALLDATASIZE DUP1 DUP1 PUSH1 0x1F ADD PUSH1 0x20 DUP1 SWAP2 DIV MUL PUSH1 0x20 ADD PUSH1 0x40 MLOAD SWAP1 DUP2 ADD PUSH1 0x40 MSTORE DUP1 SWAP4 SWAP3 SWAP2 SWAP1 DUP2 DUP2 MSTORE PUSH1 0x20 ADD DUP4 DUP4 DUP1 DUP3 DUP5 CALLDATACOPY PUSH1 0x0 SWAP3 ADD SWAP2 SWAP1 SWAP2 MSTORE POP POP POP POP CALLDATASIZE ADD MLOAD PUSH1 0x1 PUSH1 0x1 PUSH1 0xA0 SHL SUB AND SWAP2 POP PUSH3 0x8B0 SWAP1 POP JUMP JUMPDEST POP CALLER PUSH3 0x8B0 JUMP JUMPDEST PUSH2 0x22DC DUP1 PUSH3 0x19F5 DUP4 CODECOPY ADD SWAP1 JUMP JUMPDEST DUP3 DUP1 SLOAD PUSH3 0x136F SWAP1 PUSH3 0x196D JUMP JUMPDEST SWAP1 PUSH1 0x0 MSTORE PUSH1 0x20 PUSH1 0x0 KECCAK256 SWAP1 PUSH1 0x1F ADD PUSH1 0x20 SWAP1 DIV DUP2 ADD SWAP3 DUP3 PUSH3 0x1393 JUMPI PUSH1 0x0 DUP6 SSTORE PUSH3 0x13DE JUMP JUMPDEST DUP3 PUSH1 0x1F LT PUSH3 0x13AE JUMPI DUP1 MLOAD PUSH1 0xFF NOT AND DUP4 DUP1 ADD OR DUP6 SSTORE PUSH3 0x13DE JUMP JUMPDEST DUP3 DUP1 ADD PUSH1 0x1 ADD DUP6 SSTORE DUP3 ISZERO PUSH3 0x13DE JUMPI SWAP2 DUP3 ADD JUMPDEST DUP3 DUP2 GT ISZERO PUSH3 0x13DE JUMPI DUP3 MLOAD DUP3 SSTORE SWAP2 PUSH1 0x20 ADD SWAP2 SWAP1 PUSH1 0x1 ADD SWAP1 PUSH3 0x13C1 JUMP JUMPDEST POP PUSH3 0x13EC SWAP3 SWAP2 POP PUSH3 0x13F0 JUMP JUMPDEST POP SWAP1 JUMP JUMPDEST JUMPDEST DUP1 DUP3 GT ISZERO PUSH3 0x13EC JUMPI PUSH1 0x0 DUP2 SSTORE PUSH1 0x1 ADD PUSH3 0x13F1 JUMP JUMPDEST DUP1 CALLDATALOAD PUSH1 0x1 PUSH1 0x1 PUSH1 0xA0 SHL SUB DUP2 AND DUP2 EQ PUSH3 0xEC0 JUMPI PUSH1 0x0 DUP1 REVERT JUMPDEST PUSH1 0x0 DUP3 PUSH1 0x1F DUP4 ADD SLT PUSH3 0x1430 JUMPI DUP1 DUP2 REVERT JUMPDEST DUP2 CALLDATALOAD PUSH8 0xFFFFFFFFFFFFFFFF DUP2 GT ISZERO PUSH3 0x144D JUMPI PUSH3 0x144D PUSH3 0x19DE JUMP JUMPDEST PUSH3 0x1462 PUSH1 0x1F DUP3 ADD PUSH1 0x1F NOT AND PUSH1 0x20 ADD PUSH3 0x18EA JUMP JUMPDEST DUP2 DUP2 MSTORE DUP5 PUSH1 0x20 DUP4 DUP7 ADD ADD GT ISZERO PUSH3 0x1477 JUMPI DUP3 DUP4 REVERT JUMPDEST DUP2 PUSH1 0x20 DUP6 ADD PUSH1 0x20 DUP4 ADD CALLDATACOPY SWAP1 DUP2 ADD PUSH1 0x20 ADD SWAP2 SWAP1 SWAP2 MSTORE SWAP3 SWAP2 POP POP JUMP JUMPDEST PUSH1 0x0 PUSH1 0x60 DUP3 DUP5 SUB SLT ISZERO PUSH3 0x14A3 JUMPI DUP1 DUP2 REVERT JUMPDEST PUSH3 0x14AF PUSH1 0x60 PUSH3 0x18EA JUMP JUMPDEST SWAP1 POP DUP2 CALLDATALOAD PUSH8 0xFFFFFFFFFFFFFFFF DUP2 GT ISZERO PUSH3 0x14C9 JUMPI PUSH1 0x0 DUP1 REVERT JUMPDEST PUSH3 0x14D7 DUP5 DUP3 DUP6 ADD PUSH3 0x141F JUMP JUMPDEST DUP3 MSTORE POP PUSH1 0x20 DUP3 ADD CALLDATALOAD PUSH1 0x20 DUP3 ADD MSTORE PUSH1 0x40 DUP3 ADD CALLDATALOAD PUSH1 0x40 DUP3 ADD MSTORE SWAP3 SWAP2 POP POP JUMP JUMPDEST PUSH1 0x0 PUSH1 0x20 DUP3 DUP5 SUB SLT ISZERO PUSH3 0x1506 JUMPI DUP1 DUP2 REVERT JUMPDEST PUSH3 0x1511 DUP3 PUSH3 0x1407 JUMP JUMPDEST SWAP4 SWAP3 POP POP POP JUMP JUMPDEST PUSH1 0x0 DUP1 PUSH1 0x40 DUP4 DUP6 SUB SLT ISZERO PUSH3 0x152B JUMPI DUP1 DUP2 REVERT JUMPDEST PUSH3 0x1536 DUP4 PUSH3 0x1407 JUMP JUMPDEST SWAP5 PUSH1 0x20 SWAP4 SWAP1 SWAP4 ADD CALLDATALOAD SWAP4 POP POP POP JUMP JUMPDEST PUSH1 0x0 DUP1 PUSH1 0x0 DUP1 PUSH1 0x80 DUP6 DUP8 SUB SLT ISZERO PUSH3 0x155A JUMPI DUP2 DUP3 REVERT JUMPDEST DUP5 CALLDATALOAD PUSH8 0xFFFFFFFFFFFFFFFF DUP1 DUP3 GT ISZERO PUSH3 0x1572 JUMPI DUP4 DUP5 REVERT JUMPDEST PUSH3 0x1580 DUP9 DUP4 DUP10 ADD PUSH3 0x141F JUMP JUMPDEST SWAP6 POP PUSH1 0x20 DUP8 ADD CALLDATALOAD SWAP5 POP PUSH1 0x40 DUP8 ADD CALLDATALOAD SWAP2 POP DUP1 DUP3 GT ISZERO PUSH3 0x159D JUMPI DUP4 DUP5 REVERT JUMPDEST POP PUSH3 0x15AC DUP8 DUP3 DUP9 ADD PUSH3 0x141F JUMP JUMPDEST SWAP3 POP POP PUSH3 0x15BD PUSH1 0x60 DUP7 ADD PUSH3 0x1407 JUMP JUMPDEST SWAP1 POP SWAP3 SWAP6 SWAP2 SWAP5 POP SWAP3 POP JUMP JUMPDEST PUSH1 0x0 DUP1 PUSH1 0x0 DUP1 PUSH1 0x80 DUP6 DUP8 SUB SLT ISZERO PUSH3 0x15DE JUMPI DUP4 DUP5 REVERT JUMPDEST DUP5 CALLDATALOAD PUSH8 0xFFFFFFFFFFFFFFFF DUP1 DUP3 GT ISZERO PUSH3 0x15F6 JUMPI DUP6 DUP7 REVERT JUMPDEST PUSH3 0x1604 DUP9 DUP4 DUP10 ADD PUSH3 0x1491 JUMP JUMPDEST SWAP6 POP PUSH1 0x20 DUP8 ADD CALLDATALOAD SWAP2 POP DUP1 DUP3 GT ISZERO PUSH3 0x161A JUMPI DUP5 DUP6 REVERT JUMPDEST PUSH3 0x1628 DUP9 DUP4 DUP10 ADD PUSH3 0x1491 JUMP JUMPDEST SWAP5 POP PUSH1 0x40 DUP8 ADD CALLDATALOAD SWAP2 POP DUP1 DUP3 GT ISZERO PUSH3 0x163E JUMPI DUP4 DUP5 REVERT JUMPDEST PUSH3 0x164C DUP9 DUP4 DUP10 ADD PUSH3 0x1491 JUMP JUMPDEST SWAP4 POP PUSH1 0x60 DUP8 ADD CALLDATALOAD SWAP2 POP DUP1 DUP3 GT ISZERO PUSH3 0x1662 JUMPI DUP3 DUP4 REVERT JUMPDEST POP PUSH3 0x1671 DUP8 DUP3 DUP9 ADD PUSH3 0x1491 JUMP JUMPDEST SWAP2 POP POP SWAP3 SWAP6 SWAP2 SWAP5 POP SWAP3 POP JUMP JUMPDEST PUSH1 0x0 PUSH1 0x20 DUP3 DUP5 SUB SLT ISZERO PUSH3 0x168F JUMPI DUP1 DUP2 REVERT JUMPDEST POP CALLDATALOAD SWAP2 SWAP1 POP JUMP JUMPDEST PUSH1 0x0 DUP2 MLOAD DUP1 DUP5 MSTORE DUP2 JUMPDEST DUP2 DUP2 LT ISZERO PUSH3 0x16BD JUMPI PUSH1 0x20 DUP2 DUP6 ADD DUP2 ADD MLOAD DUP7 DUP4 ADD DUP3 ADD MSTORE ADD PUSH3 0x169F JUMP JUMPDEST DUP2 DUP2 GT ISZERO PUSH3 0x16CF JUMPI DUP3 PUSH1 0x20 DUP4 DUP8 ADD ADD MSTORE JUMPDEST POP PUSH1 0x1F ADD PUSH1 0x1F NOT AND SWAP3 SWAP1 SWAP3 ADD PUSH1 0x20 ADD SWAP3 SWAP2 POP POP JUMP JUMPDEST PUSH1 0x1 PUSH1 0x1 PUSH1 0xA0 SHL SUB DUP12 DUP2 AND DUP3 MSTORE DUP11 DUP2 AND PUSH1 0x20 DUP4 ADD MSTORE PUSH1 0x40 DUP3 ADD DUP11 SWAP1 MSTORE PUSH2 0x140 PUSH1 0x60 DUP4 ADD DUP2 SWAP1 MSTORE PUSH1 0x0 SWAP2 PUSH3 0x171B DUP5 DUP4 ADD DUP13 PUSH3 0x1696 JUMP JUMPDEST SWAP2 POP DUP10 PUSH1 0x80 DUP6 ADD MSTORE DUP1 DUP10 AND PUSH1 0xA0 DUP6 ADD MSTORE DUP4 DUP3 SUB PUSH1 0xC0 DUP6 ADD MSTORE PUSH3 0x173F DUP3 DUP10 PUSH3 0x1696 JUMP JUMPDEST PUSH1 0xE0 DUP6 ADD SWAP8 SWAP1 SWAP8 MSTORE SWAP5 DUP6 AND PUSH2 0x100 DUP5 ADD MSTORE POP POP SWAP2 AND PUSH2 0x120 SWAP1 SWAP2 ADD MSTORE SWAP8 SWAP7 POP POP POP POP POP POP POP JUMP JUMPDEST PUSH1 0x1 PUSH1 0x1 PUSH1 0xA0 SHL SUB DUP4 AND DUP2 MSTORE PUSH1 0x40 PUSH1 0x20 DUP3 ADD DUP2 SWAP1 MSTORE PUSH1 0x0 SWAP1 PUSH3 0x178C SWAP1 DUP4 ADD DUP5 PUSH3 0x1696 JUMP JUMPDEST SWAP5 SWAP4 POP POP POP POP JUMP JUMPDEST PUSH1 0x20 DUP1 DUP3 MSTORE DUP3 MLOAD DUP3 DUP3 ADD DUP2 SWAP1 MSTORE PUSH1 0x0 SWAP2 SWAP1 PUSH1 0x40 SWAP1 DUP2 DUP6 ADD SWAP1 DUP1 DUP5 MUL DUP7 ADD DUP4 ADD DUP8 DUP6 ADD DUP7 JUMPDEST DUP4 DUP2 LT ISZERO PUSH3 0x1804 JUMPI DUP9 DUP4 SUB PUSH1 0x3F NOT ADD DUP6 MSTORE DUP2 MLOAD DUP1 MLOAD PUSH1 0x1 PUSH1 0x1 PUSH1 0xA0 SHL SUB AND DUP5 MSTORE DUP8 ADD MLOAD DUP8 DUP5 ADD DUP8 SWAP1 MSTORE PUSH3 0x17F0 DUP8 DUP6 ADD DUP3 PUSH3 0x1696 JUMP JUMPDEST SWAP6 DUP9 ADD SWAP6 SWAP4 POP POP SWAP1 DUP7 ADD SWAP1 PUSH1 0x1 ADD PUSH3 0x17B8 JUMP JUMPDEST POP SWAP1 SWAP9 SWAP8 POP POP POP POP POP POP POP POP JUMP JUMPDEST PUSH1 0x20 DUP1 DUP3 MSTORE DUP3 MLOAD DUP3 DUP3 ADD DUP2 SWAP1 MSTORE PUSH1 0x0 SWAP2 SWAP1 PUSH1 0x40 SWAP1 DUP2 DUP6 ADD SWAP1 DUP1 DUP5 MUL DUP7 ADD DUP4 ADD DUP8 DUP6 ADD DUP7 JUMPDEST DUP4 DUP2 LT ISZERO PUSH3 0x1804 JUMPI PUSH1 0x3F NOT DUP10 DUP5 SUB ADD DUP6 MSTORE DUP2 MLOAD PUSH1 0x60 DUP2 MLOAD DUP2 DUP7 MSTORE PUSH3 0x185F DUP3 DUP8 ADD DUP3 PUSH3 0x1696 JUMP JUMPDEST DUP4 DUP12 ADD MLOAD DUP8 DUP13 ADD MSTORE SWAP3 DUP10 ADD MLOAD SWAP6 DUP10 ADD SWAP6 SWAP1 SWAP6 MSTORE POP SWAP5 DUP8 ADD SWAP5 SWAP3 POP SWAP1 DUP7 ADD SWAP1 PUSH1 0x1 ADD PUSH3 0x1836 JUMP JUMPDEST PUSH1 0x0 PUSH1 0x20 DUP3 MSTORE PUSH3 0x1511 PUSH1 0x20 DUP4 ADD DUP5 PUSH3 0x1696 JUMP JUMPDEST PUSH1 0x0 PUSH1 0x60 DUP3 MSTORE PUSH3 0x18B0 PUSH1 0x60 DUP4 ADD DUP7 PUSH3 0x1696 JUMP JUMPDEST PUSH1 0x20 DUP4 ADD SWAP5 SWAP1 SWAP5 MSTORE POP PUSH1 0x40 ADD MSTORE SWAP2 SWAP1 POP JUMP JUMPDEST PUSH1 0x20 DUP1 DUP3 MSTORE PUSH1 0xE SWAP1 DUP3 ADD MSTORE PUSH14 0x4E6F74207468652061646D696E21 PUSH1 0x90 SHL PUSH1 0x40 DUP3 ADD MSTORE PUSH1 0x60 ADD SWAP1 JUMP JUMPDEST PUSH1 0x40 MLOAD PUSH1 0x1F DUP3 ADD PUSH1 0x1F NOT AND DUP2 ADD PUSH8 0xFFFFFFFFFFFFFFFF DUP2 GT DUP3 DUP3 LT OR ISZERO PUSH3 0x1916 JUMPI PUSH3 0x1916 PUSH3 0x19DE JUMP JUMPDEST PUSH1 0x40 MSTORE SWAP2 SWAP1 POP JUMP JUMPDEST PUSH1 0x0 DUP3 NOT DUP3 GT ISZERO PUSH3 0x1934 JUMPI PUSH3 0x1934 PUSH3 0x19C8 JUMP JUMPDEST POP ADD SWAP1 JUMP JUMPDEST PUSH1 0x0 DUP3 DUP3 LT ISZERO PUSH3 0x194E JUMPI PUSH3 0x194E PUSH3 0x19C8 JUMP JUMPDEST POP SUB SWAP1 JUMP JUMPDEST PUSH1 0x0 DUP2 PUSH3 0x1965 JUMPI PUSH3 0x1965 PUSH3 0x19C8 JUMP JUMPDEST POP PUSH1 0x0 NOT ADD SWAP1 JUMP JUMPDEST PUSH1 0x2 DUP2 DIV PUSH1 0x1 DUP3 AND DUP1 PUSH3 0x1982 JUMPI PUSH1 0x7F DUP3 AND SWAP2 POP JUMPDEST PUSH1 0x20 DUP3 LT DUP2 EQ ISZERO PUSH3 0x19A4 JUMPI PUSH4 0x4E487B71 PUSH1 0xE0 SHL PUSH1 0x0 MSTORE PUSH1 0x22 PUSH1 0x4 MSTORE PUSH1 0x24 PUSH1 0x0 REVERT JUMPDEST POP SWAP2 SWAP1 POP JUMP JUMPDEST PUSH1 0x0 PUSH1 0x0 NOT DUP3 EQ ISZERO PUSH3 0x19C1 JUMPI PUSH3 0x19C1 PUSH3 0x19C8 JUMP JUMPDEST POP PUSH1 0x1 ADD SWAP1 JUMP JUMPDEST PUSH4 0x4E487B71 PUSH1 0xE0 SHL PUSH1 0x0 MSTORE PUSH1 0x11 PUSH1 0x4 MSTORE PUSH1 0x24 PUSH1 0x0 REVERT JUMPDEST PUSH4 0x4E487B71 PUSH1 0xE0 SHL PUSH1 0x0 MSTORE PUSH1 0x41 PUSH1 0x4 MSTORE PUSH1 0x24 PUSH1 0x0 REVERT INVALID PUSH1 0x80 PUSH1 0x40 MSTORE CALLVALUE DUP1 ISZERO PUSH3 0x11 JUMPI PUSH1 0x0 DUP1 REVERT JUMPDEST POP PUSH1 0x40 MLOAD PUSH3 0x22DC CODESIZE SUB DUP1 PUSH3 0x22DC DUP4 CODECOPY DUP2 ADD PUSH1 0x40 DUP2 SWAP1 MSTORE PUSH3 0x34 SWAP2 PUSH3 0x26C JUMP JUMPDEST PUSH1 0x6 DUP9 SWAP1 SSTORE PUSH1 0x3 DUP1 SLOAD PUSH1 0x1 PUSH1 0x1 PUSH1 0xA0 SHL SUB DUP1 DUP6 AND PUSH1 0x1 PUSH1 0x1 PUSH1 0xA0 SHL SUB NOT SWAP3 DUP4 AND OR SWAP1 SWAP3 SSTORE PUSH1 0x4 DUP1 SLOAD DUP14 DUP5 AND SWAP1 DUP4 AND OR SWAP1 SSTORE PUSH1 0x5 DUP1 SLOAD SWAP3 DUP13 AND SWAP3 SWAP1 SWAP2 AND SWAP2 SWAP1 SWAP2 OR SWAP1 SSTORE DUP7 MLOAD PUSH3 0x8B SWAP1 PUSH1 0x7 SWAP1 PUSH1 0x20 DUP11 ADD SWAP1 PUSH3 0xF6 JUMP JUMPDEST POP PUSH1 0x8 DUP7 SWAP1 SSTORE PUSH1 0x2 DUP1 SLOAD PUSH1 0x1 PUSH1 0x1 PUSH1 0xA0 SHL SUB NOT AND PUSH1 0x1 PUSH1 0x1 PUSH1 0xA0 SHL SUB DUP8 AND OR SWAP1 SSTORE DUP4 MLOAD PUSH3 0xC1 SWAP1 PUSH1 0x0 SWAP1 PUSH1 0x20 DUP8 ADD SWAP1 PUSH3 0xF6 JUMP JUMPDEST POP PUSH1 0x1 SWAP3 SWAP1 SWAP3 SSTORE POP PUSH1 0xC DUP1 SLOAD PUSH1 0x1 PUSH1 0x1 PUSH1 0xA0 SHL SUB NOT AND PUSH1 0x1 PUSH1 0x1 PUSH1 0xA0 SHL SUB SWAP1 SWAP3 AND SWAP2 SWAP1 SWAP2 OR SWAP1 SSTORE POP PUSH3 0x3A3 SWAP6 POP POP POP POP POP POP JUMP JUMPDEST DUP3 DUP1 SLOAD PUSH3 0x104 SWAP1 PUSH3 0x350 JUMP JUMPDEST SWAP1 PUSH1 0x0 MSTORE PUSH1 0x20 PUSH1 0x0 KECCAK256 SWAP1 PUSH1 0x1F ADD PUSH1 0x20 SWAP1 DIV DUP2 ADD SWAP3 DUP3 PUSH3 0x128 JUMPI PUSH1 0x0 DUP6 SSTORE PUSH3 0x173 JUMP JUMPDEST DUP3 PUSH1 0x1F LT PUSH3 0x143 JUMPI DUP1 MLOAD PUSH1 0xFF NOT AND DUP4 DUP1 ADD OR DUP6 SSTORE PUSH3 0x173 JUMP JUMPDEST DUP3 DUP1 ADD PUSH1 0x1 ADD DUP6 SSTORE DUP3 ISZERO PUSH3 0x173 JUMPI SWAP2 DUP3 ADD JUMPDEST DUP3 DUP2 GT ISZERO PUSH3 0x173 JUMPI DUP3 MLOAD DUP3 SSTORE SWAP2 PUSH1 0x20 ADD SWAP2 SWAP1 PUSH1 0x1 ADD SWAP1 PUSH3 0x156 JUMP JUMPDEST POP PUSH3 0x181 SWAP3 SWAP2 POP PUSH3 0x185 JUMP JUMPDEST POP SWAP1 JUMP JUMPDEST JUMPDEST DUP1 DUP3 GT ISZERO PUSH3 0x181 JUMPI PUSH1 0x0 DUP2 SSTORE PUSH1 0x1 ADD PUSH3 0x186 JUMP JUMPDEST DUP1 MLOAD PUSH1 0x1 PUSH1 0x1 PUSH1 0xA0 SHL SUB DUP2 AND DUP2 EQ PUSH3 0x1B4 JUMPI PUSH1 0x0 DUP1 REVERT JUMPDEST SWAP2 SWAP1 POP JUMP JUMPDEST PUSH1 0x0 DUP3 PUSH1 0x1F DUP4 ADD SLT PUSH3 0x1CA JUMPI DUP1 DUP2 REVERT JUMPDEST DUP2 MLOAD PUSH1 0x1 PUSH1 0x1 PUSH1 0x40 SHL SUB DUP1 DUP3 GT ISZERO PUSH3 0x1E7 JUMPI PUSH3 0x1E7 PUSH3 0x38D JUMP JUMPDEST PUSH1 0x40 MLOAD PUSH1 0x1F DUP4 ADD PUSH1 0x1F NOT SWAP1 DUP2 AND PUSH1 0x3F ADD AND DUP2 ADD SWAP1 DUP3 DUP3 GT DUP2 DUP4 LT OR ISZERO PUSH3 0x212 JUMPI PUSH3 0x212 PUSH3 0x38D JUMP JUMPDEST DUP2 PUSH1 0x40 MSTORE DUP4 DUP2 MSTORE PUSH1 0x20 SWAP3 POP DUP7 DUP4 DUP6 DUP9 ADD ADD GT ISZERO PUSH3 0x22E JUMPI DUP5 DUP6 REVERT JUMPDEST DUP5 SWAP2 POP JUMPDEST DUP4 DUP3 LT ISZERO PUSH3 0x251 JUMPI DUP6 DUP3 ADD DUP4 ADD MLOAD DUP2 DUP4 ADD DUP5 ADD MSTORE SWAP1 DUP3 ADD SWAP1 PUSH3 0x232 JUMP JUMPDEST DUP4 DUP3 GT ISZERO PUSH3 0x262 JUMPI DUP5 DUP4 DUP6 DUP4 ADD ADD MSTORE JUMPDEST SWAP7 SWAP6 POP POP POP POP POP POP JUMP JUMPDEST PUSH1 0x0 DUP1 PUSH1 0x0 DUP1 PUSH1 0x0 DUP1 PUSH1 0x0 DUP1 PUSH1 0x0 DUP1 PUSH2 0x140 DUP12 DUP14 SUB SLT ISZERO PUSH3 0x28C JUMPI DUP6 DUP7 REVERT JUMPDEST PUSH3 0x297 DUP12 PUSH3 0x19C JUMP JUMPDEST SWAP10 POP PUSH3 0x2A7 PUSH1 0x20 DUP13 ADD PUSH3 0x19C JUMP JUMPDEST PUSH1 0x40 DUP13 ADD MLOAD PUSH1 0x60 DUP14 ADD MLOAD SWAP2 SWAP11 POP SWAP9 POP PUSH1 0x1 PUSH1 0x1 PUSH1 0x40 SHL SUB DUP1 DUP3 GT ISZERO PUSH3 0x2CB JUMPI DUP8 DUP9 REVERT JUMPDEST PUSH3 0x2D9 DUP15 DUP4 DUP16 ADD PUSH3 0x1B9 JUMP JUMPDEST SWAP9 POP PUSH1 0x80 DUP14 ADD MLOAD SWAP8 POP PUSH3 0x2F0 PUSH1 0xA0 DUP15 ADD PUSH3 0x19C JUMP JUMPDEST SWAP7 POP PUSH1 0xC0 DUP14 ADD MLOAD SWAP2 POP DUP1 DUP3 GT ISZERO PUSH3 0x306 JUMPI DUP6 DUP7 REVERT JUMPDEST POP PUSH3 0x315 DUP14 DUP3 DUP15 ADD PUSH3 0x1B9 JUMP JUMPDEST SWAP5 POP POP PUSH1 0xE0 DUP12 ADD MLOAD SWAP3 POP PUSH3 0x32E PUSH2 0x100 DUP13 ADD PUSH3 0x19C JUMP JUMPDEST SWAP2 POP PUSH3 0x33F PUSH2 0x120 DUP13 ADD PUSH3 0x19C JUMP JUMPDEST SWAP1 POP SWAP3 SWAP6 SWAP9 SWAP12 SWAP2 SWAP5 SWAP8 SWAP11 POP SWAP3 SWAP6 SWAP9 POP JUMP JUMPDEST PUSH1 0x2 DUP2 DIV PUSH1 0x1 DUP3 AND DUP1 PUSH3 0x365 JUMPI PUSH1 0x7F DUP3 AND SWAP2 POP JUMPDEST PUSH1 0x20 DUP3 LT DUP2 EQ ISZERO PUSH3 0x387 JUMPI PUSH4 0x4E487B71 PUSH1 0xE0 SHL PUSH1 0x0 MSTORE PUSH1 0x22 PUSH1 0x4 MSTORE PUSH1 0x24 PUSH1 0x0 REVERT JUMPDEST POP SWAP2 SWAP1 POP JUMP JUMPDEST PUSH4 0x4E487B71 PUSH1 0xE0 SHL PUSH1 0x0 MSTORE PUSH1 0x41 PUSH1 0x4 MSTORE PUSH1 0x24 PUSH1 0x0 REVERT JUMPDEST PUSH2 0x1F29 DUP1 PUSH3 0x3B3 PUSH1 0x0 CODECOPY PUSH1 0x0 RETURN INVALID PUSH1 0x80 PUSH1 0x40 MSTORE PUSH1 0x4 CALLDATASIZE LT PUSH2 0xE7 JUMPI PUSH1 0x0 CALLDATALOAD PUSH1 0xE0 SHR DUP1 PUSH4 0x97926FC8 GT PUSH2 0x8A JUMPI DUP1 PUSH4 0xC8A3E04E GT PUSH2 0x59 JUMPI DUP1 PUSH4 0xC8A3E04E EQ PUSH2 0x234 JUMPI DUP1 PUSH4 0xE36BD0F3 EQ PUSH2 0x254 JUMPI DUP1 PUSH4 0xE7CA9969 EQ PUSH2 0x2BB JUMPI DUP1 PUSH4 0xE89E4ED6 EQ PUSH2 0x2DD JUMPI PUSH2 0xE7 JUMP JUMPDEST DUP1 PUSH4 0x97926FC8 EQ PUSH2 0x1D9 JUMPI DUP1 PUSH4 0x9F4A23BA EQ PUSH2 0x1F9 JUMPI DUP1 PUSH4 0xBB6E7DE9 EQ PUSH2 0x20C JUMPI DUP1 PUSH4 0xC438B40F EQ PUSH2 0x221 JUMPI PUSH2 0xE7 JUMP JUMPDEST DUP1 PUSH4 0x5DE988AB GT PUSH2 0xC6 JUMPI DUP1 PUSH4 0x5DE988AB EQ PUSH2 0x159 JUMPI DUP1 PUSH4 0x6B9080C1 EQ PUSH2 0x179 JUMPI DUP1 PUSH4 0x73A482E9 EQ PUSH2 0x1A6 JUMPI DUP1 PUSH4 0x7D60631E EQ PUSH2 0x1B9 JUMPI PUSH2 0xE7 JUMP JUMPDEST DUP1 PUSH3 0xE6652A EQ PUSH2 0xEC JUMPI DUP1 PUSH4 0x5C43DD99 EQ PUSH2 0x10E JUMPI DUP1 PUSH4 0x5CDB4642 EQ PUSH2 0x139 JUMPI JUMPDEST PUSH1 0x0 DUP1 REVERT JUMPDEST CALLVALUE DUP1 ISZERO PUSH2 0xF8 JUMPI PUSH1 0x0 DUP1 REVERT JUMPDEST POP PUSH2 0x10C PUSH2 0x107 CALLDATASIZE PUSH1 0x4 PUSH2 0x19E4 JUMP JUMPDEST PUSH2 0x310 JUMP JUMPDEST STOP JUMPDEST CALLVALUE DUP1 ISZERO PUSH2 0x11A JUMPI PUSH1 0x0 DUP1 REVERT JUMPDEST POP PUSH2 0x123 PUSH2 0x4C2 JUMP JUMPDEST PUSH1 0x40 MLOAD PUSH2 0x130 SWAP2 SWAP1 PUSH2 0x1AD8 JUMP JUMPDEST PUSH1 0x40 MLOAD DUP1 SWAP2 SUB SWAP1 RETURN JUMPDEST CALLVALUE DUP1 ISZERO PUSH2 0x145 JUMPI PUSH1 0x0 DUP1 REVERT JUMPDEST POP PUSH2 0x10C PUSH2 0x154 CALLDATASIZE PUSH1 0x4 PUSH2 0x19E4 JUMP JUMPDEST PUSH2 0x756 JUMP JUMPDEST CALLVALUE DUP1 ISZERO PUSH2 0x165 JUMPI PUSH1 0x0 DUP1 REVERT JUMPDEST POP PUSH2 0x10C PUSH2 0x174 CALLDATASIZE PUSH1 0x4 PUSH2 0x1958 JUMP JUMPDEST PUSH2 0x8B1 JUMP JUMPDEST CALLVALUE DUP1 ISZERO PUSH2 0x185 JUMPI PUSH1 0x0 DUP1 REVERT JUMPDEST POP PUSH2 0x18E PUSH2 0x9D5 JUMP JUMPDEST PUSH1 0x40 MLOAD PUSH2 0x130 SWAP13 SWAP12 SWAP11 SWAP10 SWAP9 SWAP8 SWAP7 SWAP6 SWAP5 SWAP4 SWAP3 SWAP2 SWAP1 PUSH2 0x1A50 JUMP JUMPDEST PUSH2 0x10C PUSH2 0x1B4 CALLDATASIZE PUSH1 0x4 PUSH2 0x1958 JUMP JUMPDEST PUSH2 0xB80 JUMP JUMPDEST CALLVALUE DUP1 ISZERO PUSH2 0x1C5 JUMPI PUSH1 0x0 DUP1 REVERT JUMPDEST POP PUSH2 0x10C PUSH2 0x1D4 CALLDATASIZE PUSH1 0x4 PUSH2 0x18EE JUMP JUMPDEST PUSH2 0xD3B JUMP JUMPDEST CALLVALUE DUP1 ISZERO PUSH2 0x1E5 JUMPI PUSH1 0x0 DUP1 REVERT JUMPDEST POP PUSH2 0x10C PUSH2 0x1F4 CALLDATASIZE PUSH1 0x4 PUSH2 0x1958 JUMP JUMPDEST PUSH2 0xEBE JUMP JUMPDEST PUSH2 0x10C PUSH2 0x207 CALLDATASIZE PUSH1 0x4 PUSH2 0x1958 JUMP JUMPDEST PUSH2 0xFC1 JUMP JUMPDEST CALLVALUE DUP1 ISZERO PUSH2 0x218 JUMPI PUSH1 0x0 DUP1 REVERT JUMPDEST POP PUSH2 0x10C PUSH2 0x1148 JUMP JUMPDEST PUSH2 0x10C PUSH2 0x22F CALLDATASIZE PUSH1 0x4 PUSH2 0x1958 JUMP JUMPDEST PUSH2 0x11A8 JUMP JUMPDEST CALLVALUE DUP1 ISZERO PUSH2 0x240 JUMPI PUSH1 0x0 DUP1 REVERT JUMPDEST POP PUSH2 0x10C PUSH2 0x24F CALLDATASIZE PUSH1 0x4 PUSH2 0x1970 JUMP JUMPDEST PUSH2 0x1302 JUMP JUMPDEST CALLVALUE DUP1 ISZERO PUSH2 0x260 JUMPI PUSH1 0x0 DUP1 REVERT JUMPDEST POP PUSH2 0x299 PUSH2 0x26F CALLDATASIZE PUSH1 0x4 PUSH2 0x1958 JUMP JUMPDEST PUSH1 0xE PUSH1 0x20 MSTORE PUSH1 0x0 SWAP1 DUP2 MSTORE PUSH1 0x40 SWAP1 KECCAK256 DUP1 SLOAD PUSH1 0x1 DUP3 ADD SLOAD PUSH1 0x2 DUP4 ADD SLOAD PUSH1 0x3 SWAP1 SWAP4 ADD SLOAD SWAP2 SWAP3 SWAP1 SWAP2 PUSH1 0xFF AND DUP5 JUMP JUMPDEST PUSH1 0x40 DUP1 MLOAD SWAP5 DUP6 MSTORE PUSH1 0x20 DUP6 ADD SWAP4 SWAP1 SWAP4 MSTORE SWAP2 DUP4 ADD MSTORE ISZERO ISZERO PUSH1 0x60 DUP3 ADD MSTORE PUSH1 0x80 ADD PUSH2 0x130 JUMP JUMPDEST CALLVALUE DUP1 ISZERO PUSH2 0x2C7 JUMPI PUSH1 0x0 DUP1 REVERT JUMPDEST POP PUSH2 0x2D0 PUSH2 0x149D JUMP JUMPDEST PUSH1 0x40 MLOAD PUSH2 0x130 SWAP2 SWAP1 PUSH2 0x1B95 JUMP JUMPDEST CALLVALUE DUP1 ISZERO PUSH2 0x2E9 JUMPI PUSH1 0x0 DUP1 REVERT JUMPDEST POP PUSH2 0x2FD PUSH2 0x2F8 CALLDATASIZE PUSH1 0x4 PUSH2 0x1958 JUMP JUMPDEST PUSH2 0x15D0 JUMP JUMPDEST PUSH1 0x40 MLOAD PUSH2 0x130 SWAP8 SWAP7 SWAP6 SWAP5 SWAP4 SWAP3 SWAP2 SWAP1 PUSH2 0x1DB0 JUMP JUMPDEST PUSH1 0x4 SLOAD PUSH1 0x1 PUSH1 0x1 PUSH1 0xA0 SHL SUB AND PUSH2 0x324 PUSH2 0x1725 JUMP JUMPDEST PUSH1 0x1 PUSH1 0x1 PUSH1 0xA0 SHL SUB AND EQ DUP1 PUSH2 0x353 JUMPI POP PUSH1 0x3 SLOAD PUSH1 0x1 PUSH1 0x1 PUSH1 0xA0 SHL SUB AND PUSH2 0x348 PUSH2 0x1725 JUMP JUMPDEST PUSH1 0x1 PUSH1 0x1 PUSH1 0xA0 SHL SUB AND EQ JUMPDEST PUSH2 0x378 JUMPI PUSH1 0x40 MLOAD PUSH3 0x461BCD PUSH1 0xE5 SHL DUP2 MSTORE PUSH1 0x4 ADD PUSH2 0x36F SWAP1 PUSH2 0x1C4D JUMP JUMPDEST PUSH1 0x40 MLOAD DUP1 SWAP2 SUB SWAP1 REVERT JUMPDEST PUSH1 0x0 DUP3 DUP2 MSTORE PUSH1 0xD PUSH1 0x20 MSTORE PUSH1 0x40 SWAP1 KECCAK256 PUSH1 0x4 ADD SLOAD PUSH1 0xFF AND PUSH2 0x3A9 JUMPI PUSH1 0x40 MLOAD PUSH3 0x461BCD PUSH1 0xE5 SHL DUP2 MSTORE PUSH1 0x4 ADD PUSH2 0x36F SWAP1 PUSH2 0x1CBB JUMP JUMPDEST PUSH1 0x0 DUP3 DUP2 MSTORE PUSH1 0xD PUSH1 0x20 MSTORE PUSH1 0x40 SWAP1 KECCAK256 PUSH1 0x4 ADD SLOAD PUSH3 0x10000 SWAP1 DIV PUSH1 0xFF AND ISZERO PUSH2 0x3E1 JUMPI PUSH1 0x40 MLOAD PUSH3 0x461BCD PUSH1 0xE5 SHL DUP2 MSTORE PUSH1 0x4 ADD PUSH2 0x36F SWAP1 PUSH2 0x1C84 JUMP JUMPDEST PUSH1 0x0 DUP3 DUP2 MSTORE PUSH1 0xD PUSH1 0x20 MSTORE PUSH1 0x40 SWAP1 KECCAK256 PUSH1 0x2 ADD SLOAD DUP2 GT ISZERO PUSH2 0x412 JUMPI PUSH1 0x40 MLOAD PUSH3 0x461BCD PUSH1 0xE5 SHL DUP2 MSTORE PUSH1 0x4 ADD PUSH2 0x36F SWAP1 PUSH2 0x1CF2 JUMP JUMPDEST PUSH1 0xB DUP1 SLOAD SWAP1 PUSH1 0x0 PUSH2 0x422 DUP4 PUSH2 0x1EAC JUMP JUMPDEST SWAP1 SWAP2 SSTORE POP POP PUSH1 0x40 DUP1 MLOAD PUSH1 0x80 DUP2 ADD DUP3 MSTORE PUSH1 0xB DUP1 SLOAD DUP1 DUP4 MSTORE PUSH1 0x20 DUP1 DUP5 ADD DUP8 DUP2 MSTORE DUP5 DUP7 ADD DUP8 DUP2 MSTORE PUSH1 0x0 PUSH1 0x60 DUP8 ADD DUP2 DUP2 MSTORE SWAP5 DUP2 MSTORE PUSH1 0xE DUP5 MSTORE DUP8 SWAP1 KECCAK256 SWAP6 MLOAD DUP7 SSTORE SWAP1 MLOAD PUSH1 0x1 DUP7 ADD SSTORE MLOAD PUSH1 0x2 DUP6 ADD SSTORE SWAP1 MLOAD PUSH1 0x3 SWAP1 SWAP4 ADD DUP1 SLOAD PUSH1 0xFF NOT AND SWAP4 ISZERO ISZERO SWAP4 SWAP1 SWAP4 OR SWAP1 SWAP3 SSTORE SLOAD DUP3 MLOAD DUP5 DUP2 MSTORE TIMESTAMP SWAP3 DUP2 ADD SWAP3 SWAP1 SWAP3 MSTORE DUP5 SWAP3 SWAP1 SWAP2 PUSH32 0x7918BD36C203935800793BA10C13259100530473BA726EE3A8D0BFBF49DAEEAB SWAP2 ADD PUSH1 0x40 MLOAD DUP1 SWAP2 SUB SWAP1 LOG3 POP POP JUMP JUMPDEST PUSH1 0x60 PUSH1 0x0 PUSH1 0xA SLOAD PUSH8 0xFFFFFFFFFFFFFFFF DUP2 GT ISZERO PUSH2 0x4EF JUMPI PUSH4 0x4E487B71 PUSH1 0xE0 SHL PUSH1 0x0 MSTORE PUSH1 0x41 PUSH1 0x4 MSTORE PUSH1 0x24 PUSH1 0x0 REVERT JUMPDEST PUSH1 0x40 MLOAD SWAP1 DUP1 DUP3 MSTORE DUP1 PUSH1 0x20 MUL PUSH1 0x20 ADD DUP3 ADD PUSH1 0x40 MSTORE DUP1 ISZERO PUSH2 0x566 JUMPI DUP2 PUSH1 0x20 ADD JUMPDEST PUSH2 0x553 PUSH1 0x40 MLOAD DUP1 PUSH1 0xE0 ADD PUSH1 0x40 MSTORE DUP1 PUSH1 0x0 DUP2 MSTORE PUSH1 0x20 ADD PUSH1 0x60 DUP2 MSTORE PUSH1 0x20 ADD PUSH1 0x0 DUP2 MSTORE PUSH1 0x20 ADD PUSH1 0x60 DUP2 MSTORE PUSH1 0x20 ADD PUSH1 0x0 ISZERO ISZERO DUP2 MSTORE PUSH1 0x20 ADD PUSH1 0x0 ISZERO ISZERO DUP2 MSTORE PUSH1 0x20 ADD PUSH1 0x0 ISZERO ISZERO DUP2 MSTORE POP SWAP1 JUMP JUMPDEST DUP2 MSTORE PUSH1 0x20 ADD SWAP1 PUSH1 0x1 SWAP1 SUB SWAP1 DUP2 PUSH2 0x50D JUMPI SWAP1 POP JUMPDEST POP SWAP1 POP PUSH1 0x1 JUMPDEST PUSH1 0xA SLOAD PUSH2 0x57A SWAP1 PUSH1 0x1 PUSH2 0x1E03 JUMP JUMPDEST DUP2 LT ISZERO PUSH2 0x74F JUMPI PUSH1 0xD PUSH1 0x0 DUP3 DUP2 MSTORE PUSH1 0x20 ADD SWAP1 DUP2 MSTORE PUSH1 0x20 ADD PUSH1 0x0 KECCAK256 PUSH1 0x40 MLOAD DUP1 PUSH1 0xE0 ADD PUSH1 0x40 MSTORE SWAP1 DUP2 PUSH1 0x0 DUP3 ADD SLOAD DUP2 MSTORE PUSH1 0x20 ADD PUSH1 0x1 DUP3 ADD DUP1 SLOAD PUSH2 0x5B9 SWAP1 PUSH2 0x1E71 JUMP JUMPDEST DUP1 PUSH1 0x1F ADD PUSH1 0x20 DUP1 SWAP2 DIV MUL PUSH1 0x20 ADD PUSH1 0x40 MLOAD SWAP1 DUP2 ADD PUSH1 0x40 MSTORE DUP1 SWAP3 SWAP2 SWAP1 DUP2 DUP2 MSTORE PUSH1 0x20 ADD DUP3 DUP1 SLOAD PUSH2 0x5E5 SWAP1 PUSH2 0x1E71 JUMP JUMPDEST DUP1 ISZERO PUSH2 0x632 JUMPI DUP1 PUSH1 0x1F LT PUSH2 0x607 JUMPI PUSH2 0x100 DUP1 DUP4 SLOAD DIV MUL DUP4 MSTORE SWAP2 PUSH1 0x20 ADD SWAP2 PUSH2 0x632 JUMP JUMPDEST DUP3 ADD SWAP2 SWAP1 PUSH1 0x0 MSTORE PUSH1 0x20 PUSH1 0x0 KECCAK256 SWAP1 JUMPDEST DUP2 SLOAD DUP2 MSTORE SWAP1 PUSH1 0x1 ADD SWAP1 PUSH1 0x20 ADD DUP1 DUP4 GT PUSH2 0x615 JUMPI DUP3 SWAP1 SUB PUSH1 0x1F AND DUP3 ADD SWAP2 JUMPDEST POP POP POP POP POP DUP2 MSTORE PUSH1 0x20 ADD PUSH1 0x2 DUP3 ADD SLOAD DUP2 MSTORE PUSH1 0x20 ADD PUSH1 0x3 DUP3 ADD DUP1 SLOAD PUSH2 0x655 SWAP1 PUSH2 0x1E71 JUMP JUMPDEST DUP1 PUSH1 0x1F ADD PUSH1 0x20 DUP1 SWAP2 DIV MUL PUSH1 0x20 ADD PUSH1 0x40 MLOAD SWAP1 DUP2 ADD PUSH1 0x40 MSTORE DUP1 SWAP3 SWAP2 SWAP1 DUP2 DUP2 MSTORE PUSH1 0x20 ADD DUP3 DUP1 SLOAD PUSH2 0x681 SWAP1 PUSH2 0x1E71 JUMP JUMPDEST DUP1 ISZERO PUSH2 0x6CE JUMPI DUP1 PUSH1 0x1F LT PUSH2 0x6A3 JUMPI PUSH2 0x100 DUP1 DUP4 SLOAD DIV MUL DUP4 MSTORE SWAP2 PUSH1 0x20 ADD SWAP2 PUSH2 0x6CE JUMP JUMPDEST DUP3 ADD SWAP2 SWAP1 PUSH1 0x0 MSTORE PUSH1 0x20 PUSH1 0x0 KECCAK256 SWAP1 JUMPDEST DUP2 SLOAD DUP2 MSTORE SWAP1 PUSH1 0x1 ADD SWAP1 PUSH1 0x20 ADD DUP1 DUP4 GT PUSH2 0x6B1 JUMPI DUP3 SWAP1 SUB PUSH1 0x1F AND DUP3 ADD SWAP2 JUMPDEST POP POP POP SWAP2 DUP4 MSTORE POP POP PUSH1 0x4 SWAP2 SWAP1 SWAP2 ADD SLOAD PUSH1 0xFF DUP1 DUP3 AND ISZERO ISZERO PUSH1 0x20 DUP5 ADD MSTORE PUSH2 0x100 DUP3 DIV DUP2 AND ISZERO ISZERO PUSH1 0x40 DUP5 ADD MSTORE PUSH3 0x10000 SWAP1 SWAP2 DIV AND ISZERO ISZERO PUSH1 0x60 SWAP1 SWAP2 ADD MSTORE DUP3 PUSH2 0x713 PUSH1 0x1 DUP5 PUSH2 0x1E5A JUMP JUMPDEST DUP2 MLOAD DUP2 LT PUSH2 0x731 JUMPI PUSH4 0x4E487B71 PUSH1 0xE0 SHL PUSH1 0x0 MSTORE PUSH1 0x32 PUSH1 0x4 MSTORE PUSH1 0x24 PUSH1 0x0 REVERT JUMPDEST PUSH1 0x20 MUL PUSH1 0x20 ADD ADD DUP2 SWAP1 MSTORE POP DUP1 DUP1 PUSH2 0x747 SWAP1 PUSH2 0x1EAC JUMP JUMPDEST SWAP2 POP POP PUSH2 0x56C JUMP JUMPDEST POP SWAP1 POP JUMPDEST SWAP1 JUMP JUMPDEST PUSH1 0x4 SLOAD PUSH1 0x1 PUSH1 0x1 PUSH1 0xA0 SHL SUB AND PUSH2 0x76A PUSH2 0x1725 JUMP JUMPDEST PUSH1 0x1 PUSH1 0x1 PUSH1 0xA0 SHL SUB AND EQ DUP1 PUSH2 0x799 JUMPI POP PUSH1 0x3 SLOAD PUSH1 0x1 PUSH1 0x1 PUSH1 0xA0 SHL SUB AND PUSH2 0x78E PUSH2 0x1725 JUMP JUMPDEST PUSH1 0x1 PUSH1 0x1 PUSH1 0xA0 SHL SUB AND EQ JUMPDEST PUSH2 0x7B5 JUMPI PUSH1 0x40 MLOAD PUSH3 0x461BCD PUSH1 0xE5 SHL DUP2 MSTORE PUSH1 0x4 ADD PUSH2 0x36F SWAP1 PUSH2 0x1C4D JUMP JUMPDEST PUSH1 0x0 DUP3 DUP2 MSTORE PUSH1 0xE PUSH1 0x20 MSTORE PUSH1 0x40 SWAP1 KECCAK256 PUSH1 0x3 ADD SLOAD PUSH1 0xFF AND ISZERO PUSH2 0x813 JUMPI PUSH1 0x40 MLOAD PUSH3 0x461BCD PUSH1 0xE5 SHL DUP2 MSTORE PUSH1 0x20 PUSH1 0x4 DUP3 ADD MSTORE PUSH1 0x19 PUSH1 0x24 DUP3 ADD MSTORE PUSH25 0x5265717565737420616C7265616479207265736F6C76656421 PUSH1 0x38 SHL PUSH1 0x44 DUP3 ADD MSTORE PUSH1 0x64 ADD PUSH2 0x36F JUMP JUMPDEST PUSH1 0x0 DUP3 DUP2 MSTORE PUSH1 0xE PUSH1 0x20 SWAP1 DUP2 MSTORE PUSH1 0x40 DUP1 DUP4 KECCAK256 PUSH1 0x1 ADD SLOAD DUP4 MSTORE PUSH1 0xD SWAP1 SWAP2 MSTORE SWAP1 KECCAK256 PUSH1 0x2 ADD SLOAD DUP2 GT ISZERO PUSH2 0x854 JUMPI PUSH1 0x40 MLOAD PUSH3 0x461BCD PUSH1 0xE5 SHL DUP2 MSTORE PUSH1 0x4 ADD PUSH2 0x36F SWAP1 PUSH2 0x1CF2 JUMP JUMPDEST PUSH1 0x0 DUP3 DUP2 MSTORE PUSH1 0xE PUSH1 0x20 MSTORE PUSH1 0x40 SWAP1 DUP2 SWAP1 KECCAK256 PUSH1 0x2 ADD DUP3 SWAP1 SSTORE MLOAD DUP3 SWAP1 PUSH32 0xD35E4A11544CA6DF55D52949C95EDC0F59CE2714FD227DA3726A92457B09A38C SWAP1 PUSH2 0x8A5 SWAP1 DUP5 SWAP1 TIMESTAMP SWAP1 SWAP2 DUP3 MSTORE PUSH1 0x20 DUP3 ADD MSTORE PUSH1 0x40 ADD SWAP1 JUMP JUMPDEST PUSH1 0x40 MLOAD DUP1 SWAP2 SUB SWAP1 LOG2 POP POP JUMP JUMPDEST PUSH1 0x5 SLOAD PUSH1 0x1 PUSH1 0x1 PUSH1 0xA0 SHL SUB AND PUSH2 0x8C5 PUSH2 0x1725 JUMP JUMPDEST PUSH1 0x1 PUSH1 0x1 PUSH1 0xA0 SHL SUB AND EQ PUSH2 0x90F JUMPI PUSH1 0x40 MLOAD PUSH3 0x461BCD PUSH1 0xE5 SHL DUP2 MSTORE PUSH1 0x20 PUSH1 0x4 DUP3 ADD MSTORE PUSH1 0x11 PUSH1 0x24 DUP3 ADD MSTORE PUSH17 0x4E6F742074686520726563656976657221 PUSH1 0x78 SHL PUSH1 0x44 DUP3 ADD MSTORE PUSH1 0x64 ADD PUSH2 0x36F JUMP JUMPDEST PUSH1 0x0 DUP2 DUP2 MSTORE PUSH1 0xD PUSH1 0x20 MSTORE PUSH1 0x40 SWAP1 KECCAK256 PUSH1 0x4 ADD SLOAD PUSH1 0xFF AND PUSH2 0x940 JUMPI PUSH1 0x40 MLOAD PUSH3 0x461BCD PUSH1 0xE5 SHL DUP2 MSTORE PUSH1 0x4 ADD PUSH2 0x36F SWAP1 PUSH2 0x1CBB JUMP JUMPDEST PUSH1 0x0 DUP2 DUP2 MSTORE PUSH1 0xD PUSH1 0x20 MSTORE PUSH1 0x40 SWAP1 KECCAK256 PUSH1 0x4 ADD SLOAD PUSH3 0x10000 SWAP1 DIV PUSH1 0xFF AND ISZERO PUSH2 0x978 JUMPI PUSH1 0x40 MLOAD PUSH3 0x461BCD PUSH1 0xE5 SHL DUP2 MSTORE PUSH1 0x4 ADD PUSH2 0x36F SWAP1 PUSH2 0x1C84 JUMP JUMPDEST PUSH1 0x0 DUP2 DUP2 MSTORE PUSH1 0xD PUSH1 0x20 MSTORE PUSH1 0x40 SWAP1 DUP2 SWAP1 KECCAK256 PUSH1 0x4 ADD DUP1 SLOAD PUSH2 0xFF00 NOT AND PUSH2 0x100 OR SWAP1 SSTORE MLOAD DUP2 SWAP1 PUSH32 0xCAF49E218DD72F80B847B963B0A3F9B56254F688513253FE99B456E6311C1FB9 SWAP1 PUSH2 0x9CA SWAP1 TIMESTAMP DUP2 MSTORE PUSH1 0x20 ADD SWAP1 JUMP JUMPDEST PUSH1 0x40 MLOAD DUP1 SWAP2 SUB SWAP1 LOG2 POP JUMP JUMPDEST PUSH1 0x0 DUP1 PUSH1 0x0 PUSH1 0x60 PUSH1 0x0 DUP1 PUSH1 0x0 DUP1 PUSH1 0x0 PUSH1 0x60 PUSH1 0x0 DUP1 PUSH1 0x4 PUSH1 0x0 SWAP1 SLOAD SWAP1 PUSH2 0x100 EXP SWAP1 DIV PUSH1 0x1 PUSH1 0x1 PUSH1 0xA0 SHL SUB AND PUSH1 0x5 PUSH1 0x0 SWAP1 SLOAD SWAP1 PUSH2 0x100 EXP SWAP1 DIV PUSH1 0x1 PUSH1 0x1 PUSH1 0xA0 SHL SUB AND PUSH1 0x6 SLOAD PUSH1 0x7 PUSH1 0x8 SLOAD PUSH1 0x9 SLOAD SELFBALANCE PUSH1 0xA SLOAD PUSH1 0xB SLOAD PUSH1 0x0 PUSH1 0x1 SLOAD PUSH1 0x3 PUSH1 0x0 SWAP1 SLOAD SWAP1 PUSH2 0x100 EXP SWAP1 DIV PUSH1 0x1 PUSH1 0x1 PUSH1 0xA0 SHL SUB AND DUP9 DUP1 SLOAD PUSH2 0xA4E SWAP1 PUSH2 0x1E71 JUMP JUMPDEST DUP1 PUSH1 0x1F ADD PUSH1 0x20 DUP1 SWAP2 DIV MUL PUSH1 0x20 ADD PUSH1 0x40 MLOAD SWAP1 DUP2 ADD PUSH1 0x40 MSTORE DUP1 SWAP3 SWAP2 SWAP1 DUP2 DUP2 MSTORE PUSH1 0x20 ADD DUP3 DUP1 SLOAD PUSH2 0xA7A SWAP1 PUSH2 0x1E71 JUMP JUMPDEST DUP1 ISZERO PUSH2 0xAC7 JUMPI DUP1 PUSH1 0x1F LT PUSH2 0xA9C JUMPI PUSH2 0x100 DUP1 DUP4 SLOAD DIV MUL DUP4 MSTORE SWAP2 PUSH1 0x20 ADD SWAP2 PUSH2 0xAC7 JUMP JUMPDEST DUP3 ADD SWAP2 SWAP1 PUSH1 0x0 MSTORE PUSH1 0x20 PUSH1 0x0 KECCAK256 SWAP1 JUMPDEST DUP2 SLOAD DUP2 MSTORE SWAP1 PUSH1 0x1 ADD SWAP1 PUSH1 0x20 ADD DUP1 DUP4 GT PUSH2 0xAAA JUMPI DUP3 SWAP1 SUB PUSH1 0x1F AND DUP3 ADD SWAP2 JUMPDEST POP POP POP POP POP SWAP9 POP DUP3 DUP1 SLOAD PUSH2 0xADA SWAP1 PUSH2 0x1E71 JUMP JUMPDEST DUP1 PUSH1 0x1F ADD PUSH1 0x20 DUP1 SWAP2 DIV MUL PUSH1 0x20 ADD PUSH1 0x40 MLOAD SWAP1 DUP2 ADD PUSH1 0x40 MSTORE DUP1 SWAP3 SWAP2 SWAP1 DUP2 DUP2 MSTORE PUSH1 0x20 ADD DUP3 DUP1 SLOAD PUSH2 0xB06 SWAP1 PUSH2 0x1E71 JUMP JUMPDEST DUP1 ISZERO PUSH2 0xB53 JUMPI DUP1 PUSH1 0x1F LT PUSH2 0xB28 JUMPI PUSH2 0x100 DUP1 DUP4 SLOAD DIV MUL DUP4 MSTORE SWAP2 PUSH1 0x20 ADD SWAP2 PUSH2 0xB53 JUMP JUMPDEST DUP3 ADD SWAP2 SWAP1 PUSH1 0x0 MSTORE PUSH1 0x20 PUSH1 0x0 KECCAK256 SWAP1 JUMPDEST DUP2 SLOAD DUP2 MSTORE SWAP1 PUSH1 0x1 ADD SWAP1 PUSH1 0x20 ADD DUP1 DUP4 GT PUSH2 0xB36 JUMPI DUP3 SWAP1 SUB PUSH1 0x1F AND DUP3 ADD SWAP2 JUMPDEST POP POP POP POP POP SWAP3 POP SWAP12 POP SWAP12 POP SWAP12 POP SWAP12 POP SWAP12 POP SWAP12 POP SWAP12 POP SWAP12 POP SWAP12 POP SWAP12 POP SWAP12 POP SWAP12 POP SWAP1 SWAP2 SWAP3 SWAP4 SWAP5 SWAP6 SWAP7 SWAP8 SWAP9 SWAP10 SWAP11 SWAP12 JUMP JUMPDEST PUSH1 0x4 SLOAD PUSH1 0x1 PUSH1 0x1 PUSH1 0xA0 SHL SUB AND PUSH2 0xB94 PUSH2 0x1725 JUMP JUMPDEST PUSH1 0x1 PUSH1 0x1 PUSH1 0xA0 SHL SUB AND EQ PUSH2 0xBBA JUMPI PUSH1 0x40 MLOAD PUSH3 0x461BCD PUSH1 0xE5 SHL DUP2 MSTORE PUSH1 0x4 ADD PUSH2 0x36F SWAP1 PUSH2 0x1D86 JUMP JUMPDEST PUSH1 0x1 SLOAD PUSH1 0x0 DUP3 DUP2 MSTORE PUSH1 0xD PUSH1 0x20 MSTORE PUSH1 0x40 DUP2 KECCAK256 PUSH1 0x2 ADD SLOAD SWAP1 SWAP2 PUSH2 0x3E8 SWAP2 PUSH2 0xBDF SWAP2 SWAP1 PUSH2 0x1E3B JUMP JUMPDEST PUSH2 0xBE9 SWAP2 SWAP1 PUSH2 0x1E1B JUMP JUMPDEST PUSH1 0x0 DUP4 DUP2 MSTORE PUSH1 0xD PUSH1 0x20 MSTORE PUSH1 0x40 SWAP1 KECCAK256 PUSH1 0x4 ADD SLOAD SWAP1 SWAP2 POP PUSH1 0xFF AND ISZERO PUSH2 0xC1E JUMPI PUSH1 0x40 MLOAD PUSH3 0x461BCD PUSH1 0xE5 SHL DUP2 MSTORE PUSH1 0x4 ADD PUSH2 0x36F SWAP1 PUSH2 0x1D4F JUMP JUMPDEST PUSH1 0x0 DUP3 DUP2 MSTORE PUSH1 0xD PUSH1 0x20 MSTORE PUSH1 0x40 SWAP1 KECCAK256 PUSH1 0x2 ADD SLOAD PUSH2 0xC3B SWAP1 DUP3 SWAP1 PUSH2 0x1E03 JUMP JUMPDEST CALLVALUE LT ISZERO PUSH2 0xCB0 JUMPI PUSH1 0x40 MLOAD PUSH3 0x461BCD PUSH1 0xE5 SHL DUP2 MSTORE PUSH1 0x20 PUSH1 0x4 DUP3 ADD MSTORE PUSH1 0x37 PUSH1 0x24 DUP3 ADD MSTORE PUSH32 0x416D6F756E742073656E7420646F6573206E6F74206D61746368207468652073 PUSH1 0x44 DUP3 ADD MSTORE PUSH32 0x706563696669656420616D6F756E74202B206665657321000000000000000000 PUSH1 0x64 DUP3 ADD MSTORE PUSH1 0x84 ADD PUSH2 0x36F JUMP JUMPDEST PUSH1 0x2 SLOAD PUSH1 0x40 MLOAD PUSH1 0x1 PUSH1 0x1 PUSH1 0xA0 SHL SUB SWAP1 SWAP2 AND SWAP1 DUP3 ISZERO PUSH2 0x8FC MUL SWAP1 DUP4 SWAP1 PUSH1 0x0 DUP2 DUP2 DUP2 DUP6 DUP9 DUP9 CALL SWAP4 POP POP POP POP ISZERO DUP1 ISZERO PUSH2 0xCEA JUMPI RETURNDATASIZE PUSH1 0x0 DUP1 RETURNDATACOPY RETURNDATASIZE PUSH1 0x0 REVERT JUMPDEST POP PUSH1 0x0 DUP3 DUP2 MSTORE PUSH1 0xD PUSH1 0x20 MSTORE PUSH1 0x40 SWAP1 DUP2 SWAP1 KECCAK256 PUSH1 0x4 ADD DUP1 SLOAD PUSH1 0xFF NOT AND PUSH1 0x1 OR SWAP1 SSTORE MLOAD DUP3 SWAP1 PUSH32 0xAD6F5443F0021BC2808AC5204F3C96A037DC9406EC9BFDF92A8E81539F04C605 SWAP1 PUSH2 0x8A5 SWAP1 TIMESTAMP DUP2 MSTORE PUSH1 0x20 ADD SWAP1 JUMP JUMPDEST PUSH1 0x4 SLOAD PUSH1 0x1 PUSH1 0x1 PUSH1 0xA0 SHL SUB AND PUSH2 0xD4F PUSH2 0x1725 JUMP JUMPDEST PUSH1 0x1 PUSH1 0x1 PUSH1 0xA0 SHL SUB AND EQ PUSH2 0xD75 JUMPI PUSH1 0x40 MLOAD PUSH3 0x461BCD PUSH1 0xE5 SHL DUP2 MSTORE PUSH1 0x4 ADD PUSH2 0x36F SWAP1 PUSH2 0x1D86 JUMP JUMPDEST PUSH1 0x9 SLOAD ISZERO PUSH2 0xD95 JUMPI PUSH1 0x40 MLOAD PUSH3 0x461BCD PUSH1 0xE5 SHL DUP2 MSTORE PUSH1 0x4 ADD PUSH2 0x36F SWAP1 PUSH2 0x1C20 JUMP JUMPDEST PUSH1 0xA DUP1 SLOAD SWAP1 PUSH1 0x0 PUSH2 0xDA5 DUP4 PUSH2 0x1EAC JUMP JUMPDEST SWAP1 SWAP2 SSTORE POP POP PUSH1 0x40 DUP1 MLOAD PUSH1 0xE0 DUP2 ADD DUP3 MSTORE PUSH1 0xA SLOAD DUP1 DUP3 MSTORE PUSH1 0x20 DUP1 DUP4 ADD DUP8 DUP2 MSTORE DUP4 DUP6 ADD DUP8 SWAP1 MSTORE PUSH1 0x60 DUP5 ADD DUP7 SWAP1 MSTORE PUSH1 0x0 PUSH1 0x80 DUP6 ADD DUP2 SWAP1 MSTORE PUSH1 0xA0 DUP6 ADD DUP2 SWAP1 MSTORE PUSH1 0xC0 DUP6 ADD DUP2 SWAP1 MSTORE SWAP3 DUP4 MSTORE PUSH1 0xD DUP3 MSTORE SWAP4 SWAP1 SWAP2 KECCAK256 DUP3 MLOAD DUP2 SSTORE SWAP3 MLOAD DUP1 MLOAD SWAP3 SWAP4 SWAP3 PUSH2 0xE0C SWAP3 PUSH1 0x1 DUP6 ADD SWAP3 ADD SWAP1 PUSH2 0x178F JUMP JUMPDEST POP PUSH1 0x40 DUP3 ADD MLOAD PUSH1 0x2 DUP3 ADD SSTORE PUSH1 0x60 DUP3 ADD MLOAD DUP1 MLOAD PUSH2 0xE32 SWAP2 PUSH1 0x3 DUP5 ADD SWAP2 PUSH1 0x20 SWAP1 SWAP2 ADD SWAP1 PUSH2 0x178F JUMP JUMPDEST POP PUSH1 0x80 DUP3 ADD MLOAD PUSH1 0x4 SWAP1 SWAP2 ADD DUP1 SLOAD PUSH1 0xA0 DUP5 ADD MLOAD PUSH1 0xC0 SWAP1 SWAP5 ADD MLOAD ISZERO ISZERO PUSH3 0x10000 MUL PUSH3 0xFF0000 NOT SWAP5 ISZERO ISZERO PUSH2 0x100 MUL PUSH2 0xFF00 NOT SWAP5 ISZERO ISZERO PUSH1 0xFF NOT SWAP1 SWAP4 AND SWAP3 SWAP1 SWAP3 OR SWAP4 SWAP1 SWAP4 AND OR SWAP3 SWAP1 SWAP3 AND OR SWAP1 SSTORE PUSH1 0xA SLOAD PUSH1 0x40 MLOAD PUSH32 0x6DF4A40F54DDBC024CC4E985B8FA77B24D3B18AE73FE8D9444BEAED8682FF0F3 SWAP1 PUSH2 0xEB1 SWAP1 DUP7 SWAP1 DUP7 SWAP1 TIMESTAMP SWAP1 PUSH2 0x1BFB JUMP JUMPDEST PUSH1 0x40 MLOAD DUP1 SWAP2 SUB SWAP1 LOG2 POP POP POP JUMP JUMPDEST PUSH1 0x4 SLOAD PUSH1 0x1 PUSH1 0x1 PUSH1 0xA0 SHL SUB AND PUSH2 0xED2 PUSH2 0x1725 JUMP JUMPDEST PUSH1 0x1 PUSH1 0x1 PUSH1 0xA0 SHL SUB AND EQ PUSH2 0xEF8 JUMPI PUSH1 0x40 MLOAD PUSH3 0x461BCD PUSH1 0xE5 SHL DUP2 MSTORE PUSH1 0x4 ADD PUSH2 0x36F SWAP1 PUSH2 0x1D86 JUMP JUMPDEST PUSH1 0x9 SLOAD ISZERO PUSH2 0xF18 JUMPI PUSH1 0x40 MLOAD PUSH3 0x461BCD PUSH1 0xE5 SHL DUP2 MSTORE PUSH1 0x4 ADD PUSH2 0x36F SWAP1 PUSH2 0x1C20 JUMP JUMPDEST PUSH1 0x0 DUP2 DUP2 MSTORE PUSH1 0xD PUSH1 0x20 MSTORE PUSH1 0x40 SWAP1 KECCAK256 PUSH1 0x4 ADD SLOAD PUSH1 0xFF AND ISZERO PUSH2 0xF4A JUMPI PUSH1 0x40 MLOAD PUSH3 0x461BCD PUSH1 0xE5 SHL DUP2 MSTORE PUSH1 0x4 ADD PUSH2 0x36F SWAP1 PUSH2 0x1D4F JUMP JUMPDEST PUSH1 0x0 DUP2 DUP2 MSTORE PUSH1 0xD PUSH1 0x20 MSTORE PUSH1 0x40 DUP2 KECCAK256 DUP2 DUP2 SSTORE SWAP1 PUSH2 0xF69 PUSH1 0x1 DUP4 ADD DUP3 PUSH2 0x1813 JUMP JUMPDEST PUSH1 0x2 DUP3 ADD PUSH1 0x0 SWAP1 SSTORE PUSH1 0x3 DUP3 ADD PUSH1 0x0 PUSH2 0xF81 SWAP2 SWAP1 PUSH2 0x1813 JUMP JUMPDEST POP PUSH1 0x4 ADD DUP1 SLOAD PUSH3 0xFFFFFF NOT AND SWAP1 SSTORE PUSH1 0x40 MLOAD TIMESTAMP DUP2 MSTORE DUP2 SWAP1 PUSH32 0x846AB9B254EDC77FE46806B496D2EFB2F0F0F1C7338A82EE13D93CEB37152D2A SWAP1 PUSH1 0x20 ADD PUSH2 0x9CA JUMP JUMPDEST PUSH1 0x3 SLOAD PUSH1 0x1 PUSH1 0x1 PUSH1 0xA0 SHL SUB AND PUSH2 0xFD5 PUSH2 0x1725 JUMP JUMPDEST PUSH1 0x1 PUSH1 0x1 PUSH1 0xA0 SHL SUB AND EQ DUP1 PUSH2 0x1004 JUMPI POP PUSH1 0x5 SLOAD PUSH1 0x1 PUSH1 0x1 PUSH1 0xA0 SHL SUB AND PUSH2 0xFF9 PUSH2 0x1725 JUMP JUMPDEST PUSH1 0x1 PUSH1 0x1 PUSH1 0xA0 SHL SUB AND EQ JUMPDEST PUSH2 0x1020 JUMPI PUSH1 0x40 MLOAD PUSH3 0x461BCD PUSH1 0xE5 SHL DUP2 MSTORE PUSH1 0x4 ADD PUSH2 0x36F SWAP1 PUSH2 0x1C4D JUMP JUMPDEST PUSH1 0x0 DUP2 DUP2 MSTORE PUSH1 0xE PUSH1 0x20 MSTORE PUSH1 0x40 SWAP1 KECCAK256 PUSH1 0x3 ADD SLOAD PUSH1 0xFF AND ISZERO PUSH2 0x107E JUMPI PUSH1 0x40 MLOAD PUSH3 0x461BCD PUSH1 0xE5 SHL DUP2 MSTORE PUSH1 0x20 PUSH1 0x4 DUP3 ADD MSTORE PUSH1 0x19 PUSH1 0x24 DUP3 ADD MSTORE PUSH25 0x5265717565737420616C7265616479207265736F6C76656421 PUSH1 0x38 SHL PUSH1 0x44 DUP3 ADD MSTORE PUSH1 0x64 ADD PUSH2 0x36F JUMP JUMPDEST PUSH1 0x0 DUP2 DUP2 MSTORE PUSH1 0xE PUSH1 0x20 SWAP1 DUP2 MSTORE PUSH1 0x40 DUP1 DUP4 KECCAK256 PUSH1 0x3 DUP2 ADD DUP1 SLOAD PUSH1 0xFF NOT AND PUSH1 0x1 SWAP1 DUP2 OR SWAP1 SWAP2 SSTORE PUSH1 0x2 DUP1 DUP4 ADD SLOAD SWAP2 SWAP1 SWAP3 ADD SLOAD DUP6 MSTORE PUSH1 0xD SWAP1 SWAP4 MSTORE SWAP1 DUP4 KECCAK256 ADD DUP1 SLOAD SWAP2 SWAP3 SWAP1 SWAP2 PUSH2 0x10C8 SWAP1 DUP5 SWAP1 PUSH2 0x1E5A JUMP JUMPDEST SWAP1 SWAP2 SSTORE POP POP PUSH1 0x4 SLOAD PUSH1 0x0 DUP3 DUP2 MSTORE PUSH1 0xE PUSH1 0x20 MSTORE PUSH1 0x40 DUP1 DUP3 KECCAK256 PUSH1 0x2 ADD SLOAD SWAP1 MLOAD PUSH1 0x1 PUSH1 0x1 PUSH1 0xA0 SHL SUB SWAP1 SWAP4 AND SWAP3 DUP2 ISZERO PUSH2 0x8FC MUL SWAP3 DUP2 DUP2 DUP2 DUP6 DUP9 DUP9 CALL SWAP4 POP POP POP POP ISZERO DUP1 ISZERO PUSH2 0x1115 JUMPI RETURNDATASIZE PUSH1 0x0 DUP1 RETURNDATACOPY RETURNDATASIZE PUSH1 0x0 REVERT JUMPDEST POP DUP1 PUSH32 0x4CE0986D74E104C2D3D9C6F307178D94AFD5ABAF7CCF6658A17FAC5A5718A8F2 TIMESTAMP PUSH1 0x40 MLOAD PUSH2 0x9CA SWAP2 DUP2 MSTORE PUSH1 0x20 ADD SWAP1 JUMP JUMPDEST PUSH1 0x4 SLOAD PUSH1 0x1 PUSH1 0x1 PUSH1 0xA0 SHL SUB AND PUSH2 0x115C PUSH2 0x1725 JUMP JUMPDEST PUSH1 0x1 PUSH1 0x1 PUSH1 0xA0 SHL SUB AND EQ PUSH2 0x1182 JUMPI PUSH1 0x40 MLOAD PUSH3 0x461BCD PUSH1 0xE5 SHL DUP2 MSTORE PUSH1 0x4 ADD PUSH2 0x36F SWAP1 PUSH2 0x1D86 JUMP JUMPDEST PUSH1 0x9 SLOAD ISZERO PUSH2 0x11A2 JUMPI PUSH1 0x40 MLOAD PUSH3 0x461BCD PUSH1 0xE5 SHL DUP2 MSTORE PUSH1 0x4 ADD PUSH2 0x36F SWAP1 PUSH2 0x1C20 JUMP JUMPDEST TIMESTAMP PUSH1 0x9 SSTORE JUMP JUMPDEST PUSH1 0x4 SLOAD PUSH1 0x1 PUSH1 0x1 PUSH1 0xA0 SHL SUB AND PUSH2 0x11BC PUSH2 0x1725 JUMP JUMPDEST PUSH1 0x1 PUSH1 0x1 PUSH1 0xA0 SHL SUB AND EQ DUP1 PUSH2 0x11EB JUMPI POP PUSH1 0x3 SLOAD PUSH1 0x1 PUSH1 0x1 PUSH1 0xA0 SHL SUB AND PUSH2 0x11E0 PUSH2 0x1725 JUMP JUMPDEST PUSH1 0x1 PUSH1 0x1 PUSH1 0xA0 SHL SUB AND EQ JUMPDEST PUSH2 0x1207 JUMPI PUSH1 0x40 MLOAD PUSH3 0x461BCD PUSH1 0xE5 SHL DUP2 MSTORE PUSH1 0x4 ADD PUSH2 0x36F SWAP1 PUSH2 0x1C4D JUMP JUMPDEST PUSH1 0x0 DUP2 DUP2 MSTORE PUSH1 0xD PUSH1 0x20 MSTORE PUSH1 0x40 SWAP1 KECCAK256 PUSH1 0x4 ADD SLOAD PUSH1 0xFF AND PUSH2 0x1238 JUMPI PUSH1 0x40 MLOAD PUSH3 0x461BCD PUSH1 0xE5 SHL DUP2 MSTORE PUSH1 0x4 ADD PUSH2 0x36F SWAP1 PUSH2 0x1CBB JUMP JUMPDEST PUSH1 0x0 DUP2 DUP2 MSTORE PUSH1 0xD PUSH1 0x20 MSTORE PUSH1 0x40 SWAP1 KECCAK256 PUSH1 0x4 ADD SLOAD PUSH3 0x10000 SWAP1 DIV PUSH1 0xFF AND ISZERO PUSH2 0x1270 JUMPI PUSH1 0x40 MLOAD PUSH3 0x461BCD PUSH1 0xE5 SHL DUP2 MSTORE PUSH1 0x4 ADD PUSH2 0x36F SWAP1 PUSH2 0x1C84 JUMP JUMPDEST PUSH1 0x0 DUP2 DUP2 MSTORE PUSH1 0xD PUSH1 0x20 MSTORE PUSH1 0x40 DUP1 DUP3 KECCAK256 PUSH1 0x4 DUP2 ADD DUP1 SLOAD PUSH3 0xFF0000 NOT AND PUSH3 0x10000 OR SWAP1 SSTORE PUSH1 0x5 SLOAD PUSH1 0x2 SWAP1 SWAP2 ADD SLOAD SWAP2 MLOAD PUSH1 0x1 PUSH1 0x1 PUSH1 0xA0 SHL SUB SWAP1 SWAP2 AND SWAP3 DUP3 ISZERO PUSH2 0x8FC MUL SWAP3 SWAP2 SWAP1 DUP2 DUP2 DUP2 DUP6 DUP9 DUP9 CALL SWAP4 POP POP POP POP ISZERO DUP1 ISZERO PUSH2 0x12CF JUMPI RETURNDATASIZE PUSH1 0x0 DUP1 RETURNDATACOPY RETURNDATASIZE PUSH1 0x0 REVERT JUMPDEST POP DUP1 PUSH32 0x939DA3B627C123C81FE5AACEBF925163337A0D4F8A03724640618078CAD24894 TIMESTAMP PUSH1 0x40 MLOAD PUSH2 0x9CA SWAP2 DUP2 MSTORE PUSH1 0x20 ADD SWAP1 JUMP JUMPDEST PUSH1 0x4 SLOAD PUSH1 0x1 PUSH1 0x1 PUSH1 0xA0 SHL SUB AND PUSH2 0x1316 PUSH2 0x1725 JUMP JUMPDEST PUSH1 0x1 PUSH1 0x1 PUSH1 0xA0 SHL SUB AND EQ PUSH2 0x133C JUMPI PUSH1 0x40 MLOAD PUSH3 0x461BCD PUSH1 0xE5 SHL DUP2 MSTORE PUSH1 0x4 ADD PUSH2 0x36F SWAP1 PUSH2 0x1D86 JUMP JUMPDEST PUSH1 0x9 SLOAD ISZERO PUSH2 0x135C JUMPI PUSH1 0x40 MLOAD PUSH3 0x461BCD PUSH1 0xE5 SHL DUP2 MSTORE PUSH1 0x4 ADD PUSH2 0x36F SWAP1 PUSH2 0x1C20 JUMP JUMPDEST PUSH1 0x0 DUP5 DUP2 MSTORE PUSH1 0xD PUSH1 0x20 MSTORE PUSH1 0x40 SWAP1 KECCAK256 PUSH1 0x4 ADD SLOAD PUSH1 0xFF AND ISZERO PUSH2 0x138E JUMPI PUSH1 0x40 MLOAD PUSH3 0x461BCD PUSH1 0xE5 SHL DUP2 MSTORE PUSH1 0x4 ADD PUSH2 0x36F SWAP1 PUSH2 0x1D4F JUMP JUMPDEST PUSH1 0x40 DUP1 MLOAD PUSH1 0xE0 DUP2 ADD DUP3 MSTORE DUP6 DUP2 MSTORE PUSH1 0x20 DUP1 DUP3 ADD DUP7 DUP2 MSTORE DUP3 DUP5 ADD DUP7 SWAP1 MSTORE PUSH1 0x60 DUP4 ADD DUP6 SWAP1 MSTORE PUSH1 0x0 PUSH1 0x80 DUP5 ADD DUP2 SWAP1 MSTORE PUSH1 0xA0 DUP5 ADD DUP2 SWAP1 MSTORE PUSH1 0xC0 DUP5 ADD DUP2 SWAP1 MSTORE DUP9 DUP2 MSTORE PUSH1 0xD DUP4 MSTORE SWAP4 SWAP1 SWAP4 KECCAK256 DUP3 MLOAD DUP2 SSTORE SWAP3 MLOAD DUP1 MLOAD SWAP3 SWAP4 SWAP3 PUSH2 0x13ED SWAP3 PUSH1 0x1 DUP6 ADD SWAP3 ADD SWAP1 PUSH2 0x178F JUMP JUMPDEST POP PUSH1 0x40 DUP3 ADD MLOAD PUSH1 0x2 DUP3 ADD SSTORE PUSH1 0x60 DUP3 ADD MLOAD DUP1 MLOAD PUSH2 0x1413 SWAP2 PUSH1 0x3 DUP5 ADD SWAP2 PUSH1 0x20 SWAP1 SWAP2 ADD SWAP1 PUSH2 0x178F JUMP JUMPDEST POP PUSH1 0x80 DUP3 ADD MLOAD PUSH1 0x4 SWAP1 SWAP2 ADD DUP1 SLOAD PUSH1 0xA0 DUP5 ADD MLOAD PUSH1 0xC0 SWAP1 SWAP5 ADD MLOAD ISZERO ISZERO PUSH3 0x10000 MUL PUSH3 0xFF0000 NOT SWAP5 ISZERO ISZERO PUSH2 0x100 MUL PUSH2 0xFF00 NOT SWAP5 ISZERO ISZERO PUSH1 0xFF NOT SWAP1 SWAP4 AND SWAP3 SWAP1 SWAP3 OR SWAP4 SWAP1 SWAP4 AND OR SWAP3 SWAP1 SWAP3 AND OR SWAP1 SSTORE PUSH1 0x40 MLOAD DUP5 SWAP1 PUSH32 0x3BA09F38B23AD2697F2C208E0C31023842B2F3DA43982784195F20216B2291F SWAP1 PUSH2 0x148F SWAP1 TIMESTAMP DUP2 MSTORE PUSH1 0x20 ADD SWAP1 JUMP JUMPDEST PUSH1 0x40 MLOAD DUP1 SWAP2 SUB SWAP1 LOG2 POP POP POP POP JUMP JUMPDEST PUSH1 0x60 PUSH1 0x0 PUSH1 0xB SLOAD PUSH8 0xFFFFFFFFFFFFFFFF DUP2 GT ISZERO PUSH2 0x14CA JUMPI PUSH4 0x4E487B71 PUSH1 0xE0 SHL PUSH1 0x0 MSTORE PUSH1 0x41 PUSH1 0x4 MSTORE PUSH1 0x24 PUSH1 0x0 REVERT JUMPDEST PUSH1 0x40 MLOAD SWAP1 DUP1 DUP3 MSTORE DUP1 PUSH1 0x20 MUL PUSH1 0x20 ADD DUP3 ADD PUSH1 0x40 MSTORE DUP1 ISZERO PUSH2 0x1528 JUMPI DUP2 PUSH1 0x20 ADD JUMPDEST PUSH2 0x1515 PUSH1 0x40 MLOAD DUP1 PUSH1 0x80 ADD PUSH1 0x40 MSTORE DUP1 PUSH1 0x0 DUP2 MSTORE PUSH1 0x20 ADD PUSH1 0x0 DUP2 MSTORE PUSH1 0x20 ADD PUSH1 0x0 DUP2 MSTORE PUSH1 0x20 ADD PUSH1 0x0 ISZERO ISZERO DUP2 MSTORE POP SWAP1 JUMP JUMPDEST DUP2 MSTORE PUSH1 0x20 ADD SWAP1 PUSH1 0x1 SWAP1 SUB SWAP1 DUP2 PUSH2 0x14E8 JUMPI SWAP1 POP JUMPDEST POP SWAP1 POP PUSH1 0x1 JUMPDEST PUSH1 0xB SLOAD PUSH2 0x153C SWAP1 PUSH1 0x1 PUSH2 0x1E03 JUMP JUMPDEST DUP2 LT ISZERO PUSH2 0x74F JUMPI PUSH1 0x0 DUP2 DUP2 MSTORE PUSH1 0xE PUSH1 0x20 SWAP1 DUP2 MSTORE PUSH1 0x40 SWAP2 DUP3 SWAP1 KECCAK256 DUP3 MLOAD PUSH1 0x80 DUP2 ADD DUP5 MSTORE DUP2 SLOAD DUP2 MSTORE PUSH1 0x1 DUP1 DUP4 ADD SLOAD SWAP4 DUP3 ADD SWAP4 SWAP1 SWAP4 MSTORE PUSH1 0x2 DUP3 ADD SLOAD SWAP4 DUP2 ADD SWAP4 SWAP1 SWAP4 MSTORE PUSH1 0x3 ADD SLOAD PUSH1 0xFF AND ISZERO ISZERO PUSH1 0x60 DUP4 ADD MSTORE DUP4 SWAP1 PUSH2 0x1594 SWAP1 DUP5 PUSH2 0x1E5A JUMP JUMPDEST DUP2 MLOAD DUP2 LT PUSH2 0x15B2 JUMPI PUSH4 0x4E487B71 PUSH1 0xE0 SHL PUSH1 0x0 MSTORE PUSH1 0x32 PUSH1 0x4 MSTORE PUSH1 0x24 PUSH1 0x0 REVERT JUMPDEST PUSH1 0x20 MUL PUSH1 0x20 ADD ADD DUP2 SWAP1 MSTORE POP DUP1 DUP1 PUSH2 0x15C8 SWAP1 PUSH2 0x1EAC JUMP JUMPDEST SWAP2 POP POP PUSH2 0x152E JUMP JUMPDEST PUSH1 0xD PUSH1 0x20 MSTORE PUSH1 0x0 SWAP1 DUP2 MSTORE PUSH1 0x40 SWAP1 KECCAK256 DUP1 SLOAD PUSH1 0x1 DUP3 ADD DUP1 SLOAD SWAP2 SWAP3 SWAP2 PUSH2 0x15F2 SWAP1 PUSH2 0x1E71 JUMP JUMPDEST DUP1 PUSH1 0x1F ADD PUSH1 0x20 DUP1 SWAP2 DIV MUL PUSH1 0x20 ADD PUSH1 0x40 MLOAD SWAP1 DUP2 ADD PUSH1 0x40 MSTORE DUP1 SWAP3 SWAP2 SWAP1 DUP2 DUP2 MSTORE PUSH1 0x20 ADD DUP3 DUP1 SLOAD PUSH2 0x161E SWAP1 PUSH2 0x1E71 JUMP JUMPDEST DUP1 ISZERO PUSH2 0x166B JUMPI DUP1 PUSH1 0x1F LT PUSH2 0x1640 JUMPI PUSH2 0x100 DUP1 DUP4 SLOAD DIV MUL DUP4 MSTORE SWAP2 PUSH1 0x20 ADD SWAP2 PUSH2 0x166B JUMP JUMPDEST DUP3 ADD SWAP2 SWAP1 PUSH1 0x0 MSTORE PUSH1 0x20 PUSH1 0x0 KECCAK256 SWAP1 JUMPDEST DUP2 SLOAD DUP2 MSTORE SWAP1 PUSH1 0x1 ADD SWAP1 PUSH1 0x20 ADD DUP1 DUP4 GT PUSH2 0x164E JUMPI DUP3 SWAP1 SUB PUSH1 0x1F AND DUP3 ADD SWAP2 JUMPDEST POP POP POP POP POP SWAP1 DUP1 PUSH1 0x2 ADD SLOAD SWAP1 DUP1 PUSH1 0x3 ADD DUP1 SLOAD PUSH2 0x1686 SWAP1 PUSH2 0x1E71 JUMP JUMPDEST DUP1 PUSH1 0x1F ADD PUSH1 0x20 DUP1 SWAP2 DIV MUL PUSH1 0x20 ADD PUSH1 0x40 MLOAD SWAP1 DUP2 ADD PUSH1 0x40 MSTORE DUP1 SWAP3 SWAP2 SWAP1 DUP2 DUP2 MSTORE PUSH1 0x20 ADD DUP3 DUP1 SLOAD PUSH2 0x16B2 SWAP1 PUSH2 0x1E71 JUMP JUMPDEST DUP1 ISZERO PUSH2 0x16FF JUMPI DUP1 PUSH1 0x1F LT PUSH2 0x16D4 JUMPI PUSH2 0x100 DUP1 DUP4 SLOAD DIV MUL DUP4 MSTORE SWAP2 PUSH1 0x20 ADD SWAP2 PUSH2 0x16FF JUMP JUMPDEST DUP3 ADD SWAP2 SWAP1 PUSH1 0x0 MSTORE PUSH1 0x20 PUSH1 0x0 KECCAK256 SWAP1 JUMPDEST DUP2 SLOAD DUP2 MSTORE SWAP1 PUSH1 0x1 ADD SWAP1 PUSH1 0x20 ADD DUP1 DUP4 GT PUSH2 0x16E2 JUMPI DUP3 SWAP1 SUB PUSH1 0x1F AND DUP3 ADD SWAP2 JUMPDEST POP POP POP PUSH1 0x4 SWAP1 SWAP4 ADD SLOAD SWAP2 SWAP3 POP POP PUSH1 0xFF DUP1 DUP3 AND SWAP2 PUSH2 0x100 DUP2 DIV DUP3 AND SWAP2 PUSH3 0x10000 SWAP1 SWAP2 DIV AND DUP8 JUMP JUMPDEST PUSH1 0xC SLOAD PUSH1 0x0 SWAP1 PUSH1 0x1 PUSH1 0x1 PUSH1 0xA0 SHL SUB AND CALLER EQ ISZERO PUSH2 0x1788 JUMPI PUSH1 0x0 DUP1 CALLDATASIZE DUP1 DUP1 PUSH1 0x1F ADD PUSH1 0x20 DUP1 SWAP2 DIV MUL PUSH1 0x20 ADD PUSH1 0x40 MLOAD SWAP1 DUP2 ADD PUSH1 0x40 MSTORE DUP1 SWAP4 SWAP3 SWAP2 SWAP1 DUP2 DUP2 MSTORE PUSH1 0x20 ADD DUP4 DUP4 DUP1 DUP3 DUP5 CALLDATACOPY PUSH1 0x0 SWAP3 ADD SWAP2 SWAP1 SWAP2 MSTORE POP POP POP POP CALLDATASIZE ADD MLOAD PUSH1 0x1 PUSH1 0x1 PUSH1 0xA0 SHL SUB AND SWAP2 POP PUSH2 0x753 SWAP1 POP JUMP JUMPDEST POP CALLER PUSH2 0x753 JUMP JUMPDEST DUP3 DUP1 SLOAD PUSH2 0x179B SWAP1 PUSH2 0x1E71 JUMP JUMPDEST SWAP1 PUSH1 0x0 MSTORE PUSH1 0x20 PUSH1 0x0 KECCAK256 SWAP1 PUSH1 0x1F ADD PUSH1 0x20 SWAP1 DIV DUP2 ADD SWAP3 DUP3 PUSH2 0x17BD JUMPI PUSH1 0x0 DUP6 SSTORE PUSH2 0x1803 JUMP JUMPDEST DUP3 PUSH1 0x1F LT PUSH2 0x17D6 JUMPI DUP1 MLOAD PUSH1 0xFF NOT AND DUP4 DUP1 ADD OR DUP6 SSTORE PUSH2 0x1803 JUMP JUMPDEST DUP3 DUP1 ADD PUSH1 0x1 ADD DUP6 SSTORE DUP3 ISZERO PUSH2 0x1803 JUMPI SWAP2 DUP3 ADD JUMPDEST DUP3 DUP2 GT ISZERO PUSH2 0x1803 JUMPI DUP3 MLOAD DUP3 SSTORE SWAP2 PUSH1 0x20 ADD SWAP2 SWAP1 PUSH1 0x1 ADD SWAP1 PUSH2 0x17E8 JUMP JUMPDEST POP PUSH2 0x180F SWAP3 SWAP2 POP PUSH2 0x1852 JUMP JUMPDEST POP SWAP1 JUMP JUMPDEST POP DUP1 SLOAD PUSH2 0x181F SWAP1 PUSH2 0x1E71 JUMP JUMPDEST PUSH1 0x0 DUP3 SSTORE DUP1 PUSH1 0x1F LT PUSH2 0x1831 JUMPI POP PUSH2 0x184F JUMP JUMPDEST PUSH1 0x1F ADD PUSH1 0x20 SWAP1 DIV SWAP1 PUSH1 0x0 MSTORE PUSH1 0x20 PUSH1 0x0 KECCAK256 SWAP1 DUP2 ADD SWAP1 PUSH2 0x184F SWAP2 SWAP1 PUSH2 0x1852 JUMP JUMPDEST POP JUMP JUMPDEST JUMPDEST DUP1 DUP3 GT ISZERO PUSH2 0x180F JUMPI PUSH1 0x0 DUP2 SSTORE PUSH1 0x1 ADD PUSH2 0x1853 JUMP JUMPDEST PUSH1 0x0 DUP3 PUSH1 0x1F DUP4 ADD SLT PUSH2 0x1877 JUMPI DUP1 DUP2 REVERT JUMPDEST DUP2 CALLDATALOAD PUSH8 0xFFFFFFFFFFFFFFFF DUP1 DUP3 GT ISZERO PUSH2 0x1892 JUMPI PUSH2 0x1892 PUSH2 0x1EDD JUMP JUMPDEST PUSH1 0x40 MLOAD PUSH1 0x1F DUP4 ADD PUSH1 0x1F NOT SWAP1 DUP2 AND PUSH1 0x3F ADD AND DUP2 ADD SWAP1 DUP3 DUP3 GT DUP2 DUP4 LT OR ISZERO PUSH2 0x18BA JUMPI PUSH2 0x18BA PUSH2 0x1EDD JUMP JUMPDEST DUP2 PUSH1 0x40 MSTORE DUP4 DUP2 MSTORE DUP7 PUSH1 0x20 DUP6 DUP9 ADD ADD GT ISZERO PUSH2 0x18D2 JUMPI DUP5 DUP6 REVERT JUMPDEST DUP4 PUSH1 0x20 DUP8 ADD PUSH1 0x20 DUP4 ADD CALLDATACOPY SWAP3 DUP4 ADD PUSH1 0x20 ADD SWAP4 SWAP1 SWAP4 MSTORE POP SWAP4 SWAP3 POP POP POP JUMP JUMPDEST PUSH1 0x0 DUP1 PUSH1 0x0 PUSH1 0x60 DUP5 DUP7 SUB SLT ISZERO PUSH2 0x1902 JUMPI DUP3 DUP4 REVERT JUMPDEST DUP4 CALLDATALOAD PUSH8 0xFFFFFFFFFFFFFFFF DUP1 DUP3 GT ISZERO PUSH2 0x1919 JUMPI DUP5 DUP6 REVERT JUMPDEST PUSH2 0x1925 DUP8 DUP4 DUP9 ADD PUSH2 0x1867 JUMP JUMPDEST SWAP5 POP PUSH1 0x20 DUP7 ADD CALLDATALOAD SWAP4 POP PUSH1 0x40 DUP7 ADD CALLDATALOAD SWAP2 POP DUP1 DUP3 GT ISZERO PUSH2 0x1941 JUMPI DUP3 DUP4 REVERT JUMPDEST POP PUSH2 0x194E DUP7 DUP3 DUP8 ADD PUSH2 0x1867 JUMP JUMPDEST SWAP2 POP POP SWAP3 POP SWAP3 POP SWAP3 JUMP JUMPDEST PUSH1 0x0 PUSH1 0x20 DUP3 DUP5 SUB SLT ISZERO PUSH2 0x1969 JUMPI DUP1 DUP2 REVERT JUMPDEST POP CALLDATALOAD SWAP2 SWAP1 POP JUMP JUMPDEST PUSH1 0x0 DUP1 PUSH1 0x0 DUP1 PUSH1 0x80 DUP6 DUP8 SUB SLT ISZERO PUSH2 0x1985 JUMPI DUP1 DUP2 REVERT JUMPDEST DUP5 CALLDATALOAD SWAP4 POP PUSH1 0x20 DUP6 ADD CALLDATALOAD PUSH8 0xFFFFFFFFFFFFFFFF DUP1 DUP3 GT ISZERO PUSH2 0x19A3 JUMPI DUP3 DUP4 REVERT JUMPDEST PUSH2 0x19AF DUP9 DUP4 DUP10 ADD PUSH2 0x1867 JUMP JUMPDEST SWAP5 POP PUSH1 0x40 DUP8 ADD CALLDATALOAD SWAP4 POP PUSH1 0x60 DUP8 ADD CALLDATALOAD SWAP2 POP DUP1 DUP3 GT ISZERO PUSH2 0x19CB JUMPI DUP3 DUP4 REVERT JUMPDEST POP PUSH2 0x19D8 DUP8 DUP3 DUP9 ADD PUSH2 0x1867 JUMP JUMPDEST SWAP2 POP POP SWAP3 SWAP6 SWAP2 SWAP5 POP SWAP3 POP JUMP JUMPDEST PUSH1 0x0 DUP1 PUSH1 0x40 DUP4 DUP6 SUB SLT ISZERO PUSH2 0x19F6 JUMPI DUP2 DUP3 REVERT JUMPDEST POP POP DUP1 CALLDATALOAD SWAP3 PUSH1 0x20 SWAP1 SWAP2 ADD CALLDATALOAD SWAP2 POP JUMP JUMPDEST PUSH1 0x0 DUP2 MLOAD DUP1 DUP5 MSTORE DUP2 JUMPDEST DUP2 DUP2 LT ISZERO PUSH2 0x1A2A JUMPI PUSH1 0x20 DUP2 DUP6 ADD DUP2 ADD MLOAD DUP7 DUP4 ADD DUP3 ADD MSTORE ADD PUSH2 0x1A0E JUMP JUMPDEST DUP2 DUP2 GT ISZERO PUSH2 0x1A3B JUMPI DUP3 PUSH1 0x20 DUP4 DUP8 ADD ADD MSTORE JUMPDEST POP PUSH1 0x1F ADD PUSH1 0x1F NOT AND SWAP3 SWAP1 SWAP3 ADD PUSH1 0x20 ADD SWAP3 SWAP2 POP POP JUMP JUMPDEST PUSH1 0x0 PUSH1 0x1 DUP1 PUSH1 0xA0 SHL SUB DUP1 DUP16 AND DUP4 MSTORE DUP1 DUP15 AND PUSH1 0x20 DUP5 ADD MSTORE DUP13 PUSH1 0x40 DUP5 ADD MSTORE PUSH2 0x180 PUSH1 0x60 DUP5 ADD MSTORE PUSH2 0x1A82 PUSH2 0x180 DUP5 ADD DUP14 PUSH2 0x1A05 JUMP JUMPDEST DUP12 PUSH1 0x80 DUP6 ADD MSTORE DUP11 PUSH1 0xA0 DUP6 ADD MSTORE DUP10 PUSH1 0xC0 DUP6 ADD MSTORE DUP9 PUSH1 0xE0 DUP6 ADD MSTORE DUP8 PUSH2 0x100 DUP6 ADD MSTORE DUP4 DUP2 SUB PUSH2 0x120 DUP6 ADD MSTORE PUSH2 0x1AB4 DUP2 DUP9 PUSH2 0x1A05 JUMP JUMPDEST PUSH2 0x140 DUP6 ADD SWAP7 SWAP1 SWAP7 MSTORE POP SWAP3 SWAP1 SWAP3 AND PUSH2 0x160 SWAP1 SWAP2 ADD MSTORE POP SWAP11 SWAP10 POP POP POP POP POP POP POP POP POP POP JUMP JUMPDEST PUSH1 0x20 DUP1 DUP3 MSTORE DUP3 MLOAD DUP3 DUP3 ADD DUP2 SWAP1 MSTORE PUSH1 0x0 SWAP2 SWAP1 PUSH1 0x40 SWAP1 DUP2 DUP6 ADD SWAP1 DUP1 DUP5 MUL DUP7 ADD DUP4 ADD DUP8 DUP6 ADD DUP7 JUMPDEST DUP4 DUP2 LT ISZERO PUSH2 0x1B87 JUMPI PUSH1 0x3F NOT DUP10 DUP5 SUB ADD DUP6 MSTORE DUP2 MLOAD PUSH1 0xE0 DUP2 MLOAD DUP6 MSTORE DUP9 DUP3 ADD MLOAD DUP2 DUP11 DUP8 ADD MSTORE PUSH2 0x1B2A DUP3 DUP8 ADD DUP3 PUSH2 0x1A05 JUMP JUMPDEST SWAP2 POP POP DUP8 DUP3 ADD MLOAD DUP9 DUP7 ADD MSTORE PUSH1 0x60 DUP1 DUP4 ADD MLOAD DUP7 DUP4 SUB DUP3 DUP9 ADD MSTORE PUSH2 0x1B4C DUP4 DUP3 PUSH2 0x1A05 JUMP JUMPDEST PUSH1 0x80 DUP6 DUP2 ADD MLOAD ISZERO ISZERO SWAP1 DUP10 ADD MSTORE PUSH1 0xA0 DUP1 DUP7 ADD MLOAD ISZERO ISZERO SWAP1 DUP10 ADD MSTORE PUSH1 0xC0 SWAP5 DUP6 ADD MLOAD ISZERO ISZERO SWAP5 SWAP1 SWAP8 ADD SWAP4 SWAP1 SWAP4 MSTORE POP POP POP SWAP4 DUP7 ADD SWAP4 SWAP1 DUP7 ADD SWAP1 PUSH1 0x1 ADD PUSH2 0x1AFC JUMP JUMPDEST POP SWAP1 SWAP9 SWAP8 POP POP POP POP POP POP POP POP JUMP JUMPDEST PUSH1 0x20 DUP1 DUP3 MSTORE DUP3 MLOAD DUP3 DUP3 ADD DUP2 SWAP1 MSTORE PUSH1 0x0 SWAP2 SWAP1 PUSH1 0x40 SWAP1 DUP2 DUP6 ADD SWAP1 DUP7 DUP5 ADD DUP6 JUMPDEST DUP3 DUP2 LT ISZERO PUSH2 0x1BEE JUMPI DUP2 MLOAD DUP1 MLOAD DUP6 MSTORE DUP7 DUP2 ADD MLOAD DUP8 DUP7 ADD MSTORE DUP6 DUP2 ADD MLOAD DUP7 DUP7 ADD MSTORE PUSH1 0x60 SWAP1 DUP2 ADD MLOAD ISZERO ISZERO SWAP1 DUP6 ADD MSTORE PUSH1 0x80 SWAP1 SWAP4 ADD SWAP3 SWAP1 DUP6 ADD SWAP1 PUSH1 0x1 ADD PUSH2 0x1BB2 JUMP JUMPDEST POP SWAP2 SWAP8 SWAP7 POP POP POP POP POP POP POP JUMP JUMPDEST PUSH1 0x0 PUSH1 0x60 DUP3 MSTORE PUSH2 0x1C0E PUSH1 0x60 DUP4 ADD DUP7 PUSH2 0x1A05 JUMP JUMPDEST PUSH1 0x20 DUP4 ADD SWAP5 SWAP1 SWAP5 MSTORE POP PUSH1 0x40 ADD MSTORE SWAP2 SWAP1 POP JUMP JUMPDEST PUSH1 0x20 DUP1 DUP3 MSTORE PUSH1 0x13 SWAP1 DUP3 ADD MSTORE PUSH19 0x1059DC99595B595B9D081A185CC8195B991959 PUSH1 0x6A SHL PUSH1 0x40 DUP3 ADD MSTORE PUSH1 0x60 ADD SWAP1 JUMP JUMPDEST PUSH1 0x20 DUP1 DUP3 MSTORE PUSH1 0x19 SWAP1 DUP3 ADD MSTORE PUSH32 0x4E6F74207468652064697370757465207265736F6C7665722100000000000000 PUSH1 0x40 DUP3 ADD MSTORE PUSH1 0x60 ADD SWAP1 JUMP JUMPDEST PUSH1 0x20 DUP1 DUP3 MSTORE PUSH1 0x1B SWAP1 DUP3 ADD MSTORE PUSH32 0x4D696C6573746F6E6520616C726561647920617070726F766564210000000000 PUSH1 0x40 DUP3 ADD MSTORE PUSH1 0x60 ADD SWAP1 JUMP JUMPDEST PUSH1 0x20 DUP1 DUP3 MSTORE PUSH1 0x17 SWAP1 DUP3 ADD MSTORE PUSH32 0x4D696C6573746F6E652069736E27742066756E64656421000000000000000000 PUSH1 0x40 DUP3 ADD MSTORE PUSH1 0x60 ADD SWAP1 JUMP JUMPDEST PUSH1 0x20 DUP1 DUP3 MSTORE PUSH1 0x3A SWAP1 DUP3 ADD MSTORE PUSH32 0x526566756E6420616D6F756E742063616E6E6F74206265206772656174657220 PUSH1 0x40 DUP3 ADD MSTORE PUSH32 0x7468616E20746865206D696C6573746F6E6520616D6F756E7421000000000000 PUSH1 0x60 DUP3 ADD MSTORE PUSH1 0x80 ADD SWAP1 JUMP JUMPDEST PUSH1 0x20 DUP1 DUP3 MSTORE PUSH1 0x19 SWAP1 DUP3 ADD MSTORE PUSH32 0x4D696C6573746F6E6520616C72656164792066756E6465642100000000000000 PUSH1 0x40 DUP3 ADD MSTORE PUSH1 0x60 ADD SWAP1 JUMP JUMPDEST PUSH1 0x20 DUP1 DUP3 MSTORE PUSH1 0x10 SWAP1 DUP3 ADD MSTORE PUSH16 0x4E6F7420746865206D616E6167657221 PUSH1 0x80 SHL PUSH1 0x40 DUP3 ADD MSTORE PUSH1 0x60 ADD SWAP1 JUMP JUMPDEST PUSH1 0x0 DUP9 DUP3 MSTORE PUSH1 0xE0 PUSH1 0x20 DUP4 ADD MSTORE PUSH2 0x1DC9 PUSH1 0xE0 DUP4 ADD DUP10 PUSH2 0x1A05 JUMP JUMPDEST DUP8 PUSH1 0x40 DUP5 ADD MSTORE DUP3 DUP2 SUB PUSH1 0x60 DUP5 ADD MSTORE PUSH2 0x1DE1 DUP2 DUP9 PUSH2 0x1A05 JUMP JUMPDEST SWAP6 ISZERO ISZERO PUSH1 0x80 DUP5 ADD MSTORE POP POP SWAP2 ISZERO ISZERO PUSH1 0xA0 DUP4 ADD MSTORE ISZERO ISZERO PUSH1 0xC0 SWAP1 SWAP2 ADD MSTORE SWAP5 SWAP4 POP POP POP POP JUMP JUMPDEST PUSH1 0x0 DUP3 NOT DUP3 GT ISZERO PUSH2 0x1E16 JUMPI PUSH2 0x1E16 PUSH2 0x1EC7 JUMP JUMPDEST POP ADD SWAP1 JUMP JUMPDEST PUSH1 0x0 DUP3 PUSH2 0x1E36 JUMPI PUSH4 0x4E487B71 PUSH1 0xE0 SHL DUP2 MSTORE PUSH1 0x12 PUSH1 0x4 MSTORE PUSH1 0x24 DUP2 REVERT JUMPDEST POP DIV SWAP1 JUMP JUMPDEST PUSH1 0x0 DUP2 PUSH1 0x0 NOT DIV DUP4 GT DUP3 ISZERO ISZERO AND ISZERO PUSH2 0x1E55 JUMPI PUSH2 0x1E55 PUSH2 0x1EC7 JUMP JUMPDEST POP MUL SWAP1 JUMP JUMPDEST PUSH1 0x0 DUP3 DUP3 LT ISZERO PUSH2 0x1E6C JUMPI PUSH2 0x1E6C PUSH2 0x1EC7 JUMP JUMPDEST POP SUB SWAP1 JUMP JUMPDEST PUSH1 0x2 DUP2 DIV PUSH1 0x1 DUP3 AND DUP1 PUSH2 0x1E85 JUMPI PUSH1 0x7F DUP3 AND SWAP2 POP JUMPDEST PUSH1 0x20 DUP3 LT DUP2 EQ ISZERO PUSH2 0x1EA6 JUMPI PUSH4 0x4E487B71 PUSH1 0xE0 SHL PUSH1 0x0 MSTORE PUSH1 0x22 PUSH1 0x4 MSTORE PUSH1 0x24 PUSH1 0x0 REVERT JUMPDEST POP SWAP2 SWAP1 POP JUMP JUMPDEST PUSH1 0x0 PUSH1 0x0 NOT DUP3 EQ ISZERO PUSH2 0x1EC0 JUMPI PUSH2 0x1EC0 PUSH2 0x1EC7 JUMP JUMPDEST POP PUSH1 0x1 ADD SWAP1 JUMP JUMPDEST PUSH4 0x4E487B71 PUSH1 0xE0 SHL PUSH1 0x0 MSTORE PUSH1 0x11 PUSH1 0x4 MSTORE PUSH1 0x24 PUSH1 0x0 REVERT JUMPDEST PUSH4 0x4E487B71 PUSH1 0xE0 SHL PUSH1 0x0 MSTORE PUSH1 0x41 PUSH1 0x4 MSTORE PUSH1 0x24 PUSH1 0x0 REVERT INVALID LOG2 PUSH5 0x6970667358 0x22 SLT KECCAK256 0xDA 0xCE SHR 0xBB EXTCODECOPY 0xD GASPRICE PUSH22 0x798B7A7B4CF4AF58F7D7DF84AD9C8BD21666FBD97039 SWAP7 PUSH8 0x64736F6C63430008 MUL STOP CALLER LOG2 PUSH5 0x6970667358 0x22 SLT KECCAK256 0xF8 DUP7 INVALID 0xB8 LOG2 LOG0 0xD0 SGT DUP10 0xD1 SIGNEXTEND DUP7 0xBC 0x2D PUSH1 0x25 0xBA 0x25 0xB8 SWAP16 DUP4 SWAP16 0xE2 0xB4 0x22 CALLDATALOAD PUSH14 0xD1F660CD2D64736F6C6343000802 STOP CALLER "},"methodIdentifiers":{"admin()":"f851a440","agreementCount()":"bb7bb278","agreementUri(address)":"85c23f99","agreements(uint256)":"bd14de96","agreementsData(uint256)":"9f9019e9","buyScripts(uint256)":"f3ff64bd","createAgreement(string,uint256,string,address)":"22822a77","deductPendingScripts(address)":"7c2c0452","getAllAgreements()":"4e6873c7","getPackages()":"5c05a89f","getPendingScripts(address)":"a1eea4f7","getUserAgreements(address)":"adb9cae6","marketFee()":"0ccf2156","packages(uint256)":"c216212a","setMarketFee(uint256)":"26b825d2","setPackages((string,uint256,uint256),(string,uint256,uint256),(string,uint256,uint256),(string,uint256,uint256))":"5f6e8059","userAgreements(address,uint256)":"4c27984e","withdraw()":"3ccfd60b"}}}}}