{
  "_format": "hh-sol-artifact-1",
  "contractName": "Forwarder",
  "sourceName": "contracts/Forwarder.sol",
  "abi": [
    {
      "anonymous": false,
      "inputs": [
        {
          "indexed": false,
          "internalType": "address",
          "name": "previousAdmin",
          "type": "address"
        },
        {
          "indexed": false,
          "internalType": "address",
          "name": "newAdmin",
          "type": "address"
        }
      ],
      "name": "AdminChanged",
      "type": "event"
    },
    {
      "anonymous": false,
      "inputs": [
        {
          "indexed": true,
          "internalType": "address",
          "name": "beacon",
          "type": "address"
        }
      ],
      "name": "BeaconUpgraded",
      "type": "event"
    },
    {
      "anonymous": false,
      "inputs": [
        {
          "indexed": false,
          "internalType": "uint8",
          "name": "version",
          "type": "uint8"
        }
      ],
      "name": "Initialized",
      "type": "event"
    },
    {
      "anonymous": false,
      "inputs": [
        {
          "indexed": true,
          "internalType": "address",
          "name": "previousOwner",
          "type": "address"
        },
        {
          "indexed": true,
          "internalType": "address",
          "name": "newOwner",
          "type": "address"
        }
      ],
      "name": "OwnershipTransferred",
      "type": "event"
    },
    {
      "anonymous": false,
      "inputs": [
        {
          "indexed": true,
          "internalType": "address",
          "name": "implementation",
          "type": "address"
        }
      ],
      "name": "Upgraded",
      "type": "event"
    },
    {
      "inputs": [],
      "name": "_TYPE_HASH",
      "outputs": [
        {
          "internalType": "bytes32",
          "name": "",
          "type": "bytes32"
        }
      ],
      "stateMutability": "view",
      "type": "function"
    },
    {
      "inputs": [
        {
          "components": [
            {
              "internalType": "address",
              "name": "from",
              "type": "address"
            },
            {
              "internalType": "address",
              "name": "to",
              "type": "address"
            },
            {
              "internalType": "uint256",
              "name": "value",
              "type": "uint256"
            },
            {
              "internalType": "uint256",
              "name": "nonce",
              "type": "uint256"
            },
            {
              "internalType": "bytes",
              "name": "data",
              "type": "bytes"
            }
          ],
          "internalType": "struct Forwarder.ForwardRequest",
          "name": "req",
          "type": "tuple"
        },
        {
          "internalType": "bytes",
          "name": "signature",
          "type": "bytes"
        }
      ],
      "name": "execute",
      "outputs": [
        {
          "internalType": "bytes",
          "name": "",
          "type": "bytes"
        }
      ],
      "stateMutability": "payable",
      "type": "function"
    },
    {
      "inputs": [
        {
          "components": [
            {
              "internalType": "address",
              "name": "from",
              "type": "address"
            },
            {
              "internalType": "address",
              "name": "to",
              "type": "address"
            },
            {
              "internalType": "uint256",
              "name": "value",
              "type": "uint256"
            },
            {
              "internalType": "uint256",
              "name": "nonce",
              "type": "uint256"
            },
            {
              "internalType": "bytes",
              "name": "data",
              "type": "bytes"
            }
          ],
          "internalType": "struct Forwarder.ForwardRequest[]",
          "name": "reqs",
          "type": "tuple[]"
        },
        {
          "internalType": "bytes[]",
          "name": "signatures",
          "type": "bytes[]"
        }
      ],
      "name": "executeBatch",
      "outputs": [],
      "stateMutability": "payable",
      "type": "function"
    },
    {
      "inputs": [
        {
          "internalType": "address",
          "name": "from",
          "type": "address"
        },
        {
          "internalType": "address",
          "name": "to",
          "type": "address"
        },
        {
          "internalType": "uint256",
          "name": "value",
          "type": "uint256"
        },
        {
          "internalType": "uint256",
          "name": "nonce",
          "type": "uint256"
        },
        {
          "internalType": "bytes",
          "name": "data",
          "type": "bytes"
        }
      ],
      "name": "getDigest",
      "outputs": [
        {
          "internalType": "bytes32",
          "name": "digest",
          "type": "bytes32"
        }
      ],
      "stateMutability": "view",
      "type": "function"
    },
    {
      "inputs": [
        {
          "internalType": "bytes32",
          "name": "_messageHash",
          "type": "bytes32"
        }
      ],
      "name": "getEthSignedMessageHash",
      "outputs": [
        {
          "internalType": "bytes32",
          "name": "",
          "type": "bytes32"
        }
      ],
      "stateMutability": "pure",
      "type": "function"
    },
    {
      "inputs": [
        {
          "internalType": "address",
          "name": "from",
          "type": "address"
        }
      ],
      "name": "getNonce",
      "outputs": [
        {
          "internalType": "uint256",
          "name": "",
          "type": "uint256"
        }
      ],
      "stateMutability": "view",
      "type": "function"
    },
    {
      "inputs": [],
      "name": "initialize",
      "outputs": [],
      "stateMutability": "payable",
      "type": "function"
    },
    {
      "inputs": [
        {
          "internalType": "address",
          "name": "operator",
          "type": "address"
        },
        {
          "internalType": "address",
          "name": "from",
          "type": "address"
        },
        {
          "internalType": "uint256",
          "name": "tokenId",
          "type": "uint256"
        },
        {
          "internalType": "bytes",
          "name": "data",
          "type": "bytes"
        }
      ],
      "name": "onERC721Received",
      "outputs": [
        {
          "internalType": "bytes4",
          "name": "",
          "type": "bytes4"
        }
      ],
      "stateMutability": "pure",
      "type": "function"
    },
    {
      "inputs": [],
      "name": "owner",
      "outputs": [
        {
          "internalType": "address",
          "name": "",
          "type": "address"
        }
      ],
      "stateMutability": "view",
      "type": "function"
    },
    {
      "inputs": [],
      "name": "proxiableUUID",
      "outputs": [
        {
          "internalType": "bytes32",
          "name": "",
          "type": "bytes32"
        }
      ],
      "stateMutability": "view",
      "type": "function"
    },
    {
      "inputs": [],
      "name": "renounceOwnership",
      "outputs": [],
      "stateMutability": "nonpayable",
      "type": "function"
    },
    {
      "inputs": [
        {
          "internalType": "bytes",
          "name": "sig",
          "type": "bytes"
        }
      ],
      "name": "splitSignature",
      "outputs": [
        {
          "internalType": "bytes32",
          "name": "r",
          "type": "bytes32"
        },
        {
          "internalType": "bytes32",
          "name": "s",
          "type": "bytes32"
        },
        {
          "internalType": "uint8",
          "name": "v",
          "type": "uint8"
        }
      ],
      "stateMutability": "pure",
      "type": "function"
    },
    {
      "inputs": [
        {
          "internalType": "address payable",
          "name": "to",
          "type": "address"
        },
        {
          "internalType": "uint256",
          "name": "amount",
          "type": "uint256"
        }
      ],
      "name": "transferETH",
      "outputs": [],
      "stateMutability": "nonpayable",
      "type": "function"
    },
    {
      "inputs": [
        {
          "internalType": "address",
          "name": "newOwner",
          "type": "address"
        }
      ],
      "name": "transferOwnership",
      "outputs": [],
      "stateMutability": "nonpayable",
      "type": "function"
    },
    {
      "inputs": [
        {
          "internalType": "address",
          "name": "token",
          "type": "address"
        },
        {
          "internalType": "address",
          "name": "to",
          "type": "address"
        },
        {
          "internalType": "uint256",
          "name": "amount",
          "type": "uint256"
        }
      ],
      "name": "transferToken",
      "outputs": [],
      "stateMutability": "nonpayable",
      "type": "function"
    },
    {
      "inputs": [
        {
          "internalType": "address",
          "name": "newImplementation",
          "type": "address"
        }
      ],
      "name": "upgradeTo",
      "outputs": [],
      "stateMutability": "nonpayable",
      "type": "function"
    },
    {
      "inputs": [
        {
          "internalType": "address",
          "name": "newImplementation",
          "type": "address"
        },
        {
          "internalType": "bytes",
          "name": "data",
          "type": "bytes"
        }
      ],
      "name": "upgradeToAndCall",
      "outputs": [],
      "stateMutability": "payable",
      "type": "function"
    },
    {
      "inputs": [
        {
          "components": [
            {
              "internalType": "address",
              "name": "from",
              "type": "address"
            },
            {
              "internalType": "address",
              "name": "to",
              "type": "address"
            },
            {
              "internalType": "uint256",
              "name": "value",
              "type": "uint256"
            },
            {
              "internalType": "uint256",
              "name": "nonce",
              "type": "uint256"
            },
            {
              "internalType": "bytes",
              "name": "data",
              "type": "bytes"
            }
          ],
          "internalType": "struct Forwarder.ForwardRequest",
          "name": "req",
          "type": "tuple"
        },
        {
          "internalType": "bytes",
          "name": "signature",
          "type": "bytes"
        }
      ],
      "name": "verify",
      "outputs": [
        {
          "internalType": "bool",
          "name": "",
          "type": "bool"
        }
      ],
      "stateMutability": "view",
      "type": "function"
    },
    {
      "stateMutability": "payable",
      "type": "receive"
    }
  ],
  "bytecode": "0x60a06040523073ffffffffffffffffffffffffffffffffffffffff1660809073ffffffffffffffffffffffffffffffffffffffff1660601b81525034801561004657600080fd5b5060805160601c61365361008160003960008181610736015281816107c5015281816108e5015281816109740152610a2401526136536000f3fe60806040526004361061010d5760003560e01c8063715018a6116100955780638da5cb5b116100645780638da5cb5b1461033e578063a7bb580314610369578063f2fde38b146103a8578063f5537ede146103d1578063fa540801146103fa57610114565b8063715018a6146102c45780637507bd7a146102db5780637b1a49091461030b5780638129fc1c1461033457610114565b80634f1ef286116100dc5780634f1ef286146101d857806352d1902d146101f45780635b4dbfcc1461021f5780635d2dab0b1461025c57806369b37f4d1461028757610114565b80630191817014610119578063150b7a02146101355780632d0335ab146101725780633659cfe6146101af57610114565b3661011457005b600080fd5b610133600480360381019061012e91906121e9565b610437565b005b34801561014157600080fd5b5061015c60048036038101906101579190612086565b6106d5565b6040516101699190612a7e565b60405180910390f35b34801561017e57600080fd5b5061019960048036038101906101949190611fd2565b6106ea565b6040516101a69190612d18565b60405180910390f35b3480156101bb57600080fd5b506101d660048036038101906101d19190611fd2565b610734565b005b6101f260048036038101906101ed9190612195565b6108e3565b005b34801561020057600080fd5b50610209610a20565b6040516102169190612933565b60405180910390f35b34801561022b57600080fd5b5061024660048036038101906102419190612381565b610ad9565b6040516102539190612918565b60405180910390f35b34801561026857600080fd5b50610271610c07565b60405161027e9190612933565b60405180910390f35b34801561029357600080fd5b506102ae60048036038101906102a99190612106565b610c2b565b6040516102bb9190612933565b60405180910390f35b3480156102d057600080fd5b506102d9610c98565b005b6102f560048036038101906102f09190612315565b610cac565b6040516103029190612a99565b60405180910390f35b34801561031757600080fd5b50610332600480360381019061032d9190611ffb565b610e8b565b005b61033c610ef5565b005b34801561034a57600080fd5b506103536110af565b60405161036091906128d4565b60405180910390f35b34801561037557600080fd5b50610390600480360381019061038b91906122d4565b6110d9565b60405161039f93929190612a02565b60405180910390f35b3480156103b457600080fd5b506103cf60048036038101906103ca9190611fd2565b611141565b005b3480156103dd57600080fd5b506103f860048036038101906103f39190612037565b6111c5565b005b34801561040657600080fd5b50610421600480360381019061041c9190612282565b6112ff565b60405161042e9190612933565b60405180910390f35b61043f61132f565b80518383905014610485576040517f08c379a000000000000000000000000000000000000000000000000000000000815260040161047c90612c78565b60405180910390fd5b60005b838390508110156106c75760008484838181106104ce577f4e487b7100000000000000000000000000000000000000000000000000000000600052603260045260246000fd5b90506020028101906104e09190612d8a565b6104e990612f83565b90506000838381518110610526577f4e487b7100000000000000000000000000000000000000000000000000000000600052603260045260246000fd5b6020026020010151905061053a8282610ad9565b610579576040517f08c379a000000000000000000000000000000000000000000000000000000000815260040161057090612b58565b60405180910390fd5b6001826060015161058a9190612e7e565b61012f6000846000015173ffffffffffffffffffffffffffffffffffffffff1673ffffffffffffffffffffffffffffffffffffffff168152602001908152602001600020819055506000826020015173ffffffffffffffffffffffffffffffffffffffff1683604001518460800151856000015160405160200161060f92919061284f565b60405160208183030381529060405260405161062b9190612838565b60006040518083038185875af1925050503d8060008114610668576040519150601f19603f3d011682016040523d82523d6000602084013e61066d565b606091505b50509050806106b1576040517f08c379a00000000000000000000000000000000000000000000000000000000081526004016106a890612c18565b60405180910390fd5b50505080806106bf90613009565b915050610488565b506106d061137f565b505050565b600063150b7a0260e01b905095945050505050565b600061012f60008373ffffffffffffffffffffffffffffffffffffffff1673ffffffffffffffffffffffffffffffffffffffff168152602001908152602001600020549050919050565b7f000000000000000000000000000000000000000000000000000000000000000073ffffffffffffffffffffffffffffffffffffffff163073ffffffffffffffffffffffffffffffffffffffff1614156107c3576040517f08c379a00000000000000000000000000000000000000000000000000000000081526004016107ba90612b18565b60405180910390fd5b7f000000000000000000000000000000000000000000000000000000000000000073ffffffffffffffffffffffffffffffffffffffff16610802611389565b73ffffffffffffffffffffffffffffffffffffffff1614610858576040517f08c379a000000000000000000000000000000000000000000000000000000000815260040161084f90612b38565b60405180910390fd5b610861816113e0565b6108e081600067ffffffffffffffff8111156108a6577f4e487b7100000000000000000000000000000000000000000000000000000000600052604160045260246000fd5b6040519080825280601f01601f1916602001820160405280156108d85781602001600182028036833780820191505090505b506000611458565b50565b7f000000000000000000000000000000000000000000000000000000000000000073ffffffffffffffffffffffffffffffffffffffff163073ffffffffffffffffffffffffffffffffffffffff161415610972576040517f08c379a000000000000000000000000000000000000000000000000000000000815260040161096990612b18565b60405180910390fd5b7f000000000000000000000000000000000000000000000000000000000000000073ffffffffffffffffffffffffffffffffffffffff166109b1611389565b73ffffffffffffffffffffffffffffffffffffffff1614610a07576040517f08c379a00000000000000000000000000000000000000000000000000000000081526004016109fe90612b38565b60405180910390fd5b610a10826113e0565b610a1c82826001611458565b5050565b60007f000000000000000000000000000000000000000000000000000000000000000073ffffffffffffffffffffffffffffffffffffffff163073ffffffffffffffffffffffffffffffffffffffff1614610ab0576040517f08c379a0000000000000000000000000000000000000000000000000000000008152600401610aa790612b78565b60405180910390fd5b7f360894a13ba1a3210667c828492db98dca3e2076cc3735a920a3ca505d382bbc60001b905090565b600080610afd84600001518560200151866040015187606001518860800151610c2b565b90506000610b0a826112ff565b90506000806000610b1a876110d9565b925092509250600060018583868660405160008152602001604052604051610b459493929190612a39565b6020604051602081039080840390855afa158015610b67573d6000803e3d6000fd5b505050602060405103519050886060015161012f60008b6000015173ffffffffffffffffffffffffffffffffffffffff1673ffffffffffffffffffffffffffffffffffffffff16815260200190815260200160002054148015610bf95750886000015173ffffffffffffffffffffffffffffffffffffffff168173ffffffffffffffffffffffffffffffffffffffff16145b965050505050505092915050565b7f37f69988ed101a80359fd1bf023dce4ccbafcaf14b772646dec9ad4f0d6bc1e281565b6000610c8d7f37f69988ed101a80359fd1bf023dce4ccbafcaf14b772646dec9ad4f0d6bc1e2878787878780519060200120604051602001610c729695949392919061294e565b604051602081830303815290604052805190602001206115d5565b905095945050505050565b610ca06115ef565b610caa600061166d565b565b6060610cb661132f565b610cc983610cc390612f83565b83610ad9565b610d08576040517f08c379a0000000000000000000000000000000000000000000000000000000008152600401610cff90612b58565b60405180910390fd5b60018360600135610d199190612e7e565b61012f6000856000016020810190610d319190611fd2565b73ffffffffffffffffffffffffffffffffffffffff1673ffffffffffffffffffffffffffffffffffffffff16815260200190815260200160002081905550600080846020016020810190610d859190611fd2565b73ffffffffffffffffffffffffffffffffffffffff168560400135868060800190610db09190612d33565b886000016020810190610dc39190611fd2565b604051602001610dd59392919061280e565b604051602081830303815290604052604051610df19190612838565b60006040518083038185875af1925050503d8060008114610e2e576040519150601f19603f3d011682016040523d82523d6000602084013e610e33565b606091505b509150915081610e78576040517f08c379a0000000000000000000000000000000000000000000000000000000008152600401610e6f90612c18565b60405180910390fd5b8092505050610e8561137f565b92915050565b610e936115ef565b6000811415610ea0574790505b6000811115610ef1578173ffffffffffffffffffffffffffffffffffffffff166108fc829081150290604051600060405180830381858888f19350505050158015610eef573d6000803e3d6000fd5b505b5050565b60008060019054906101000a900460ff16159050808015610f265750600160008054906101000a900460ff1660ff16105b80610f535750610f3530611733565b158015610f525750600160008054906101000a900460ff1660ff16145b5b610f92576040517f08c379a0000000000000000000000000000000000000000000000000000000008152600401610f8990612bd8565b60405180910390fd5b60016000806101000a81548160ff021916908360ff1602179055508015610fcf576001600060016101000a81548160ff0219169083151502179055505b610fd7611756565b610fdf6117af565b6110536040518060400160405280600981526020017f466f7277617264657200000000000000000000000000000000000000000000008152506040518060400160405280600381526020017f312e300000000000000000000000000000000000000000000000000000000000815250611808565b80156110ac5760008060016101000a81548160ff0219169083151502179055507f7f26b83ff96e1f2b6a682f133852f6798a09c465da95921460cefb384740249860016040516110a39190612abb565b60405180910390a15b50565b600060fd60009054906101000a900473ffffffffffffffffffffffffffffffffffffffff16905090565b60008060006041845114611122576040517f08c379a000000000000000000000000000000000000000000000000000000000815260040161111990612cd8565b60405180910390fd5b6020840151925060408401519150606084015160001a90509193909250565b6111496115ef565b600073ffffffffffffffffffffffffffffffffffffffff168173ffffffffffffffffffffffffffffffffffffffff1614156111b9576040517f08c379a00000000000000000000000000000000000000000000000000000000081526004016111b090612af8565b60405180910390fd5b6111c28161166d565b50565b6111cd6115ef565b6000811415611262578273ffffffffffffffffffffffffffffffffffffffff166370a08231306040518263ffffffff1660e01b815260040161120f91906128d4565b60206040518083038186803b15801561122757600080fd5b505afa15801561123b573d6000803e3d6000fd5b505050506040513d601f19601f8201168201806040525081019061125f91906123ed565b90505b60008111156112fa578273ffffffffffffffffffffffffffffffffffffffff1663a9059cbb83836040518363ffffffff1660e01b81526004016112a69291906128ef565b602060405180830381600087803b1580156112c057600080fd5b505af11580156112d4573d6000803e3d6000fd5b505050506040513d601f19601f820116820180604052508101906112f89190612259565b505b505050565b6000816040516020016113129190612877565b604051602081830303815290604052805190602001209050919050565b60026065541415611375576040517f08c379a000000000000000000000000000000000000000000000000000000000815260040161136c90612cf8565b60405180910390fd5b6002606581905550565b6001606581905550565b60006113b77f360894a13ba1a3210667c828492db98dca3e2076cc3735a920a3ca505d382bbc60001b611865565b60000160009054906101000a900473ffffffffffffffffffffffffffffffffffffffff16905090565b6113e86110af565b73ffffffffffffffffffffffffffffffffffffffff163373ffffffffffffffffffffffffffffffffffffffff1614611455576040517f08c379a000000000000000000000000000000000000000000000000000000000815260040161144c90612bb8565b60405180910390fd5b50565b6114847f4910fdfa16fed3260ed0e7147f7cc6da11a60208b5b9406d12a635614ffd914360001b61186f565b60000160009054906101000a900460ff16156114a8576114a383611879565b6115d0565b8273ffffffffffffffffffffffffffffffffffffffff166352d1902d6040518163ffffffff1660e01b815260040160206040518083038186803b1580156114ee57600080fd5b505afa92505050801561151f57506040513d601f19601f8201168201806040525081019061151c91906122ab565b60015b61155e576040517f08c379a000000000000000000000000000000000000000000000000000000000815260040161155590612bf8565b60405180910390fd5b7f360894a13ba1a3210667c828492db98dca3e2076cc3735a920a3ca505d382bbc60001b81146115c3576040517f08c379a00000000000000000000000000000000000000000000000000000000081526004016115ba90612b98565b60405180910390fd5b506115cf838383611932565b5b505050565b60006115e86115e261195e565b8361199e565b9050919050565b6115f76119d1565b73ffffffffffffffffffffffffffffffffffffffff166116156110af565b73ffffffffffffffffffffffffffffffffffffffff161461166b576040517f08c379a000000000000000000000000000000000000000000000000000000000815260040161166290612c58565b60405180910390fd5b565b600060fd60009054906101000a900473ffffffffffffffffffffffffffffffffffffffff1690508160fd60006101000a81548173ffffffffffffffffffffffffffffffffffffffff021916908373ffffffffffffffffffffffffffffffffffffffff1602179055508173ffffffffffffffffffffffffffffffffffffffff168173ffffffffffffffffffffffffffffffffffffffff167f8be0079c531659141344cd1fd0a4f28419497f9722a3daafe3b4186f6b6457e060405160405180910390a35050565b6000808273ffffffffffffffffffffffffffffffffffffffff163b119050919050565b600060019054906101000a900460ff166117a5576040517f08c379a000000000000000000000000000000000000000000000000000000000815260040161179c90612cb8565b60405180910390fd5b6117ad6119d9565b565b600060019054906101000a900460ff166117fe576040517f08c379a00000000000000000000000000000000000000000000000000000000081526004016117f590612cb8565b60405180910390fd5b611806611a32565b565b600060019054906101000a900460ff16611857576040517f08c379a000000000000000000000000000000000000000000000000000000000815260040161184e90612cb8565b60405180910390fd5b6118618282611a93565b5050565b6000819050919050565b6000819050919050565b61188281611733565b6118c1576040517f08c379a00000000000000000000000000000000000000000000000000000000081526004016118b890612c38565b60405180910390fd5b806118ee7f360894a13ba1a3210667c828492db98dca3e2076cc3735a920a3ca505d382bbc60001b611865565b60000160006101000a81548173ffffffffffffffffffffffffffffffffffffffff021916908373ffffffffffffffffffffffffffffffffffffffff16021790555050565b61193b83611b0e565b6000825111806119485750805b15611959576119578383611b5d565b505b505050565b60006119997f8b73c3c69bb8fe3d512ecc4cf759cc79239f7b179b0ffacaa9a75d522b39400f61198c611c41565b611994611c4b565b611c55565b905090565b600082826040516020016119b392919061289d565b60405160208183030381529060405280519060200120905092915050565b600033905090565b600060019054906101000a900460ff16611a28576040517f08c379a0000000000000000000000000000000000000000000000000000000008152600401611a1f90612cb8565b60405180910390fd5b6001606581905550565b600060019054906101000a900460ff16611a81576040517f08c379a0000000000000000000000000000000000000000000000000000000008152600401611a7890612cb8565b60405180910390fd5b611a91611a8c6119d1565b61166d565b565b600060019054906101000a900460ff16611ae2576040517f08c379a0000000000000000000000000000000000000000000000000000000008152600401611ad990612cb8565b60405180910390fd5b600082805190602001209050600082805190602001209050816097819055508060988190555050505050565b611b1781611879565b8073ffffffffffffffffffffffffffffffffffffffff167fbc7cd75a20ee27fd9adebab32041f755214dbc6bffa90cc0225b39da2e5c2d3b60405160405180910390a250565b6060611b6883611733565b611ba7576040517f08c379a0000000000000000000000000000000000000000000000000000000008152600401611b9e90612c98565b60405180910390fd5b6000808473ffffffffffffffffffffffffffffffffffffffff1684604051611bcf9190612838565b600060405180830381855af49150503d8060008114611c0a576040519150601f19603f3d011682016040523d82523d6000602084013e611c0f565b606091505b5091509150611c3782826040518060600160405280602781526020016135f760279139611c8f565b9250505092915050565b6000609754905090565b6000609854905090565b60008383834630604051602001611c709594939291906129af565b6040516020818303038152906040528051906020012090509392505050565b60608315611c9f57829050611caa565b611ca98383611cb1565b5b9392505050565b600082511115611cc45781518083602001fd5b806040517f08c379a0000000000000000000000000000000000000000000000000000000008152600401611cf89190612ad6565b60405180910390fd5b6000611d14611d0f84612dd3565b612dae565b9050808382526020820190508260005b85811015611d545781358501611d3a8882611ec3565b845260208401935060208301925050600181019050611d24565b5050509392505050565b6000611d71611d6c84612dff565b612dae565b905082815260208101848484011115611d8957600080fd5b611d94848285612f96565b509392505050565b600081359050611dab81613583565b92915050565b600081359050611dc08161359a565b92915050565b600082601f830112611dd757600080fd5b8135611de7848260208601611d01565b91505092915050565b60008083601f840112611e0257600080fd5b8235905067ffffffffffffffff811115611e1b57600080fd5b602083019150836020820283011115611e3357600080fd5b9250929050565b600081519050611e49816135b1565b92915050565b600081359050611e5e816135c8565b92915050565b600081519050611e73816135c8565b92915050565b60008083601f840112611e8b57600080fd5b8235905067ffffffffffffffff811115611ea457600080fd5b602083019150836001820283011115611ebc57600080fd5b9250929050565b600082601f830112611ed457600080fd5b8135611ee4848260208601611d5e565b91505092915050565b600060a08284031215611eff57600080fd5b81905092915050565b600060a08284031215611f1a57600080fd5b611f2460a0612dae565b90506000611f3484828501611d9c565b6000830152506020611f4884828501611d9c565b6020830152506040611f5c84828501611fa8565b6040830152506060611f7084828501611fa8565b606083015250608082013567ffffffffffffffff811115611f9057600080fd5b611f9c84828501611ec3565b60808301525092915050565b600081359050611fb7816135df565b92915050565b600081519050611fcc816135df565b92915050565b600060208284031215611fe457600080fd5b6000611ff284828501611d9c565b91505092915050565b6000806040838503121561200e57600080fd5b600061201c85828601611db1565b925050602061202d85828601611fa8565b9150509250929050565b60008060006060848603121561204c57600080fd5b600061205a86828701611d9c565b935050602061206b86828701611d9c565b925050604061207c86828701611fa8565b9150509250925092565b60008060008060006080868803121561209e57600080fd5b60006120ac88828901611d9c565b95505060206120bd88828901611d9c565b94505060406120ce88828901611fa8565b935050606086013567ffffffffffffffff8111156120eb57600080fd5b6120f788828901611e79565b92509250509295509295909350565b600080600080600060a0868803121561211e57600080fd5b600061212c88828901611d9c565b955050602061213d88828901611d9c565b945050604061214e88828901611fa8565b935050606061215f88828901611fa8565b925050608086013567ffffffffffffffff81111561217c57600080fd5b61218888828901611ec3565b9150509295509295909350565b600080604083850312156121a857600080fd5b60006121b685828601611d9c565b925050602083013567ffffffffffffffff8111156121d357600080fd5b6121df85828601611ec3565b9150509250929050565b6000806000604084860312156121fe57600080fd5b600084013567ffffffffffffffff81111561221857600080fd5b61222486828701611df0565b9350935050602084013567ffffffffffffffff81111561224357600080fd5b61224f86828701611dc6565b9150509250925092565b60006020828403121561226b57600080fd5b600061227984828501611e3a565b91505092915050565b60006020828403121561229457600080fd5b60006122a284828501611e4f565b91505092915050565b6000602082840312156122bd57600080fd5b60006122cb84828501611e64565b91505092915050565b6000602082840312156122e657600080fd5b600082013567ffffffffffffffff81111561230057600080fd5b61230c84828501611ec3565b91505092915050565b6000806040838503121561232857600080fd5b600083013567ffffffffffffffff81111561234257600080fd5b61234e85828601611eed565b925050602083013567ffffffffffffffff81111561236b57600080fd5b61237785828601611ec3565b9150509250929050565b6000806040838503121561239457600080fd5b600083013567ffffffffffffffff8111156123ae57600080fd5b6123ba85828601611f08565b925050602083013567ffffffffffffffff8111156123d757600080fd5b6123e385828601611ec3565b9150509250929050565b6000602082840312156123ff57600080fd5b600061240d84828501611fbd565b91505092915050565b61241f81612ed4565b82525050565b61243661243182612ed4565b613052565b82525050565b61244581612ef8565b82525050565b61245481612f04565b82525050565b61246b61246682612f04565b613064565b82525050565b61247a81612f0e565b82525050565b600061248c8385612e57565b9350612499838584612f96565b82840190509392505050565b60006124b082612e30565b6124ba8185612e46565b93506124ca818560208601612fa5565b6124d3816130de565b840191505092915050565b60006124e982612e30565b6124f38185612e57565b9350612503818560208601612fa5565b80840191505092915050565b61251881612f71565b82525050565b600061252982612e3b565b6125338185612e62565b9350612543818560208601612fa5565b61254c816130de565b840191505092915050565b6000612564601c83612e73565b915061256f826130fc565b601c82019050919050565b6000612587602683612e62565b915061259282613125565b604082019050919050565b60006125aa600283612e73565b91506125b582613174565b600282019050919050565b60006125cd602c83612e62565b91506125d88261319d565b604082019050919050565b60006125f0602c83612e62565b91506125fb826131ec565b604082019050919050565b6000612613601883612e62565b915061261e8261323b565b602082019050919050565b6000612636603883612e62565b915061264182613264565b604082019050919050565b6000612659602983612e62565b9150612664826132b3565b604082019050919050565b600061267c600783612e62565b915061268782613302565b602082019050919050565b600061269f602e83612e62565b91506126aa8261332b565b604082019050919050565b60006126c2602e83612e62565b91506126cd8261337a565b604082019050919050565b60006126e5600683612e62565b91506126f0826133c9565b602082019050919050565b6000612708602d83612e62565b9150612713826133f2565b604082019050919050565b600061272b602083612e62565b915061273682613441565b602082019050919050565b600061274e601083612e62565b91506127598261346a565b602082019050919050565b6000612771602683612e62565b915061277c82613493565b604082019050919050565b6000612794602b83612e62565b915061279f826134e2565b604082019050919050565b60006127b7601883612e62565b91506127c282613531565b602082019050919050565b60006127da601f83612e62565b91506127e58261355a565b602082019050919050565b6127f981612f5a565b82525050565b61280881612f64565b82525050565b600061281b828587612480565b91506128278284612425565b601482019150819050949350505050565b600061284482846124de565b915081905092915050565b600061285b82856124de565b91506128678284612425565b6014820191508190509392505050565b600061288282612557565b915061288e828461245a565b60208201915081905092915050565b60006128a88261259d565b91506128b4828561245a565b6020820191506128c4828461245a565b6020820191508190509392505050565b60006020820190506128e96000830184612416565b92915050565b60006040820190506129046000830185612416565b61291160208301846127f0565b9392505050565b600060208201905061292d600083018461243c565b92915050565b6000602082019050612948600083018461244b565b92915050565b600060c082019050612963600083018961244b565b6129706020830188612416565b61297d6040830187612416565b61298a60608301866127f0565b61299760808301856127f0565b6129a460a083018461244b565b979650505050505050565b600060a0820190506129c4600083018861244b565b6129d1602083018761244b565b6129de604083018661244b565b6129eb60608301856127f0565b6129f86080830184612416565b9695505050505050565b6000606082019050612a17600083018661244b565b612a24602083018561244b565b612a3160408301846127ff565b949350505050565b6000608082019050612a4e600083018761244b565b612a5b60208301866127ff565b612a68604083018561244b565b612a75606083018461244b565b95945050505050565b6000602082019050612a936000830184612471565b92915050565b60006020820190508181036000830152612ab381846124a5565b905092915050565b6000602082019050612ad0600083018461250f565b92915050565b60006020820190508181036000830152612af0818461251e565b905092915050565b60006020820190508181036000830152612b118161257a565b9050919050565b60006020820190508181036000830152612b31816125c0565b9050919050565b60006020820190508181036000830152612b51816125e3565b9050919050565b60006020820190508181036000830152612b7181612606565b9050919050565b60006020820190508181036000830152612b9181612629565b9050919050565b60006020820190508181036000830152612bb18161264c565b9050919050565b60006020820190508181036000830152612bd18161266f565b9050919050565b60006020820190508181036000830152612bf181612692565b9050919050565b60006020820190508181036000830152612c11816126b5565b9050919050565b60006020820190508181036000830152612c31816126d8565b9050919050565b60006020820190508181036000830152612c51816126fb565b9050919050565b60006020820190508181036000830152612c718161271e565b9050919050565b60006020820190508181036000830152612c9181612741565b9050919050565b60006020820190508181036000830152612cb181612764565b9050919050565b60006020820190508181036000830152612cd181612787565b9050919050565b60006020820190508181036000830152612cf1816127aa565b9050919050565b60006020820190508181036000830152612d11816127cd565b9050919050565b6000602082019050612d2d60008301846127f0565b92915050565b60008083356001602003843603038112612d4c57600080fd5b80840192508235915067ffffffffffffffff821115612d6a57600080fd5b602083019250600182023603831315612d8257600080fd5b509250929050565b60008235600160a003833603038112612da257600080fd5b80830191505092915050565b6000612db8612dc9565b9050612dc48282612fd8565b919050565b6000604051905090565b600067ffffffffffffffff821115612dee57612ded6130af565b5b602082029050602081019050919050565b600067ffffffffffffffff821115612e1a57612e196130af565b5b612e23826130de565b9050602081019050919050565b600081519050919050565b600081519050919050565b600082825260208201905092915050565b600081905092915050565b600082825260208201905092915050565b600081905092915050565b6000612e8982612f5a565b9150612e9483612f5a565b9250827fffffffffffffffffffffffffffffffffffffffffffffffffffffffffffffffff03821115612ec957612ec8613080565b5b828201905092915050565b6000612edf82612f3a565b9050919050565b6000612ef182612f3a565b9050919050565b60008115159050919050565b6000819050919050565b60007fffffffff0000000000000000000000000000000000000000000000000000000082169050919050565b600073ffffffffffffffffffffffffffffffffffffffff82169050919050565b6000819050919050565b600060ff82169050919050565b6000612f7c82612f64565b9050919050565b6000612f8f3683611f08565b9050919050565b82818337600083830152505050565b60005b83811015612fc3578082015181840152602081019050612fa8565b83811115612fd2576000848401525b50505050565b612fe1826130de565b810181811067ffffffffffffffff8211171561300057612fff6130af565b5b80604052505050565b600061301482612f5a565b91507fffffffffffffffffffffffffffffffffffffffffffffffffffffffffffffffff82141561304757613046613080565b5b600182019050919050565b600061305d8261306e565b9050919050565b6000819050919050565b6000613079826130ef565b9050919050565b7f4e487b7100000000000000000000000000000000000000000000000000000000600052601160045260246000fd5b7f4e487b7100000000000000000000000000000000000000000000000000000000600052604160045260246000fd5b6000601f19601f8301169050919050565b60008160601b9050919050565b7f19457468657265756d205369676e6564204d6573736167653a0a333200000000600082015250565b7f4f776e61626c653a206e6577206f776e657220697320746865207a65726f206160008201527f6464726573730000000000000000000000000000000000000000000000000000602082015250565b7f1901000000000000000000000000000000000000000000000000000000000000600082015250565b7f46756e6374696f6e206d7573742062652063616c6c6564207468726f7567682060008201527f64656c656761746563616c6c0000000000000000000000000000000000000000602082015250565b7f46756e6374696f6e206d7573742062652063616c6c6564207468726f7567682060008201527f6163746976652070726f78790000000000000000000000000000000000000000602082015250565b7f7369676e617475726520646f6573206e6f74206d617463680000000000000000600082015250565b7f555550535570677261646561626c653a206d757374206e6f742062652063616c60008201527f6c6564207468726f7567682064656c656761746563616c6c0000000000000000602082015250565b7f45524331393637557067726164653a20756e737570706f727465642070726f7860008201527f6961626c65555549440000000000000000000000000000000000000000000000602082015250565b7f6e6f206175746800000000000000000000000000000000000000000000000000600082015250565b7f496e697469616c697a61626c653a20636f6e747261637420697320616c72656160008201527f647920696e697469616c697a6564000000000000000000000000000000000000602082015250565b7f45524331393637557067726164653a206e657720696d706c656d656e7461746960008201527f6f6e206973206e6f742055555053000000000000000000000000000000000000602082015250565b7f6661696c65640000000000000000000000000000000000000000000000000000600082015250565b7f455243313936373a206e657720696d706c656d656e746174696f6e206973206e60008201527f6f74206120636f6e747261637400000000000000000000000000000000000000602082015250565b7f4f776e61626c653a2063616c6c6572206973206e6f7420746865206f776e6572600082015250565b7f6c656e677468204e4f5420657175616c00000000000000000000000000000000600082015250565b7f416464726573733a2064656c65676174652063616c6c20746f206e6f6e2d636f60008201527f6e74726163740000000000000000000000000000000000000000000000000000602082015250565b7f496e697469616c697a61626c653a20636f6e7472616374206973206e6f74206960008201527f6e697469616c697a696e67000000000000000000000000000000000000000000602082015250565b7f696e76616c6964207369676e6174757265206c656e6774680000000000000000600082015250565b7f5265656e7472616e637947756172643a207265656e7472616e742063616c6c00600082015250565b61358c81612ed4565b811461359757600080fd5b50565b6135a381612ee6565b81146135ae57600080fd5b50565b6135ba81612ef8565b81146135c557600080fd5b50565b6135d181612f04565b81146135dc57600080fd5b50565b6135e881612f5a565b81146135f357600080fd5b5056fe416464726573733a206c6f772d6c6576656c2064656c65676174652063616c6c206661696c6564a264697066735822122052ef07ea8854073bfc3345981d131170571f4192d668389be19ecf7e4a8e362f64736f6c63430008020033",
  "linkReferences": {},
  "deployedLinkReferences": {}
}