{
  "_format": "hh-sol-artifact-1",
  "contractName": "Forwarder",
  "sourceName": "contracts/Forwarder.sol",
  "abi": [
    {
      "anonymous": false,
      "inputs": [
        {
          "indexed": false,
          "internalType": "address",
          "name": "previousAdmin",
          "type": "address"
        },
        {
          "indexed": false,
          "internalType": "address",
          "name": "newAdmin",
          "type": "address"
        }
      ],
      "name": "AdminChanged",
      "type": "event"
    },
    {
      "anonymous": false,
      "inputs": [
        {
          "indexed": true,
          "internalType": "address",
          "name": "beacon",
          "type": "address"
        }
      ],
      "name": "BeaconUpgraded",
      "type": "event"
    },
    {
      "anonymous": false,
      "inputs": [
        {
          "indexed": false,
          "internalType": "uint8",
          "name": "version",
          "type": "uint8"
        }
      ],
      "name": "Initialized",
      "type": "event"
    },
    {
      "anonymous": false,
      "inputs": [
        {
          "indexed": true,
          "internalType": "address",
          "name": "previousOwner",
          "type": "address"
        },
        {
          "indexed": true,
          "internalType": "address",
          "name": "newOwner",
          "type": "address"
        }
      ],
      "name": "OwnershipTransferred",
      "type": "event"
    },
    {
      "anonymous": false,
      "inputs": [
        {
          "indexed": true,
          "internalType": "address",
          "name": "implementation",
          "type": "address"
        }
      ],
      "name": "Upgraded",
      "type": "event"
    },
    {
      "inputs": [],
      "name": "_TYPE_HASH",
      "outputs": [
        {
          "internalType": "bytes32",
          "name": "",
          "type": "bytes32"
        }
      ],
      "stateMutability": "view",
      "type": "function"
    },
    {
      "inputs": [
        {
          "components": [
            {
              "internalType": "address",
              "name": "from",
              "type": "address"
            },
            {
              "internalType": "address",
              "name": "to",
              "type": "address"
            },
            {
              "internalType": "uint256",
              "name": "value",
              "type": "uint256"
            },
            {
              "internalType": "uint256",
              "name": "nonce",
              "type": "uint256"
            },
            {
              "internalType": "bytes",
              "name": "data",
              "type": "bytes"
            }
          ],
          "internalType": "struct Forwarder.ForwardRequest",
          "name": "req",
          "type": "tuple"
        },
        {
          "internalType": "bytes",
          "name": "signature",
          "type": "bytes"
        }
      ],
      "name": "execute",
      "outputs": [
        {
          "internalType": "bytes",
          "name": "",
          "type": "bytes"
        }
      ],
      "stateMutability": "payable",
      "type": "function"
    },
    {
      "inputs": [
        {
          "components": [
            {
              "internalType": "address",
              "name": "from",
              "type": "address"
            },
            {
              "internalType": "address",
              "name": "to",
              "type": "address"
            },
            {
              "internalType": "uint256",
              "name": "value",
              "type": "uint256"
            },
            {
              "internalType": "uint256",
              "name": "nonce",
              "type": "uint256"
            },
            {
              "internalType": "bytes",
              "name": "data",
              "type": "bytes"
            }
          ],
          "internalType": "struct Forwarder.ForwardRequest[]",
          "name": "reqs",
          "type": "tuple[]"
        },
        {
          "internalType": "bytes[]",
          "name": "signatures",
          "type": "bytes[]"
        }
      ],
      "name": "executeBatch",
      "outputs": [],
      "stateMutability": "payable",
      "type": "function"
    },
    {
      "inputs": [
        {
          "internalType": "address",
          "name": "from",
          "type": "address"
        },
        {
          "internalType": "address",
          "name": "to",
          "type": "address"
        },
        {
          "internalType": "uint256",
          "name": "value",
          "type": "uint256"
        },
        {
          "internalType": "uint256",
          "name": "nonce",
          "type": "uint256"
        },
        {
          "internalType": "bytes",
          "name": "data",
          "type": "bytes"
        }
      ],
      "name": "getDigest",
      "outputs": [
        {
          "internalType": "bytes32",
          "name": "digest",
          "type": "bytes32"
        }
      ],
      "stateMutability": "view",
      "type": "function"
    },
    {
      "inputs": [
        {
          "internalType": "bytes32",
          "name": "_messageHash",
          "type": "bytes32"
        }
      ],
      "name": "getEthSignedMessageHash",
      "outputs": [
        {
          "internalType": "bytes32",
          "name": "",
          "type": "bytes32"
        }
      ],
      "stateMutability": "pure",
      "type": "function"
    },
    {
      "inputs": [
        {
          "internalType": "address",
          "name": "from",
          "type": "address"
        }
      ],
      "name": "getNonce",
      "outputs": [
        {
          "internalType": "uint256",
          "name": "",
          "type": "uint256"
        }
      ],
      "stateMutability": "view",
      "type": "function"
    },
    {
      "inputs": [],
      "name": "initialize",
      "outputs": [],
      "stateMutability": "payable",
      "type": "function"
    },
    {
      "inputs": [
        {
          "internalType": "address",
          "name": "operator",
          "type": "address"
        },
        {
          "internalType": "address",
          "name": "from",
          "type": "address"
        },
        {
          "internalType": "uint256",
          "name": "tokenId",
          "type": "uint256"
        },
        {
          "internalType": "bytes",
          "name": "data",
          "type": "bytes"
        }
      ],
      "name": "onERC721Received",
      "outputs": [
        {
          "internalType": "bytes4",
          "name": "",
          "type": "bytes4"
        }
      ],
      "stateMutability": "pure",
      "type": "function"
    },
    {
      "inputs": [],
      "name": "owner",
      "outputs": [
        {
          "internalType": "address",
          "name": "",
          "type": "address"
        }
      ],
      "stateMutability": "view",
      "type": "function"
    },
    {
      "inputs": [],
      "name": "proxiableUUID",
      "outputs": [
        {
          "internalType": "bytes32",
          "name": "",
          "type": "bytes32"
        }
      ],
      "stateMutability": "view",
      "type": "function"
    },
    {
      "inputs": [],
      "name": "renounceOwnership",
      "outputs": [],
      "stateMutability": "nonpayable",
      "type": "function"
    },
    {
      "inputs": [
        {
          "internalType": "bytes",
          "name": "sig",
          "type": "bytes"
        }
      ],
      "name": "splitSignature",
      "outputs": [
        {
          "internalType": "bytes32",
          "name": "r",
          "type": "bytes32"
        },
        {
          "internalType": "bytes32",
          "name": "s",
          "type": "bytes32"
        },
        {
          "internalType": "uint8",
          "name": "v",
          "type": "uint8"
        }
      ],
      "stateMutability": "pure",
      "type": "function"
    },
    {
      "inputs": [
        {
          "internalType": "address payable",
          "name": "to",
          "type": "address"
        },
        {
          "internalType": "uint256",
          "name": "amount",
          "type": "uint256"
        }
      ],
      "name": "transferETH",
      "outputs": [],
      "stateMutability": "nonpayable",
      "type": "function"
    },
    {
      "inputs": [
        {
          "internalType": "address",
          "name": "newOwner",
          "type": "address"
        }
      ],
      "name": "transferOwnership",
      "outputs": [],
      "stateMutability": "nonpayable",
      "type": "function"
    },
    {
      "inputs": [
        {
          "internalType": "address",
          "name": "token",
          "type": "address"
        },
        {
          "internalType": "address",
          "name": "to",
          "type": "address"
        },
        {
          "internalType": "uint256",
          "name": "amount",
          "type": "uint256"
        }
      ],
      "name": "transferToken",
      "outputs": [],
      "stateMutability": "nonpayable",
      "type": "function"
    },
    {
      "inputs": [
        {
          "internalType": "address",
          "name": "newImplementation",
          "type": "address"
        }
      ],
      "name": "upgradeTo",
      "outputs": [],
      "stateMutability": "nonpayable",
      "type": "function"
    },
    {
      "inputs": [
        {
          "internalType": "address",
          "name": "newImplementation",
          "type": "address"
        },
        {
          "internalType": "bytes",
          "name": "data",
          "type": "bytes"
        }
      ],
      "name": "upgradeToAndCall",
      "outputs": [],
      "stateMutability": "payable",
      "type": "function"
    },
    {
      "inputs": [
        {
          "components": [
            {
              "internalType": "address",
              "name": "from",
              "type": "address"
            },
            {
              "internalType": "address",
              "name": "to",
              "type": "address"
            },
            {
              "internalType": "uint256",
              "name": "value",
              "type": "uint256"
            },
            {
              "internalType": "uint256",
              "name": "nonce",
              "type": "uint256"
            },
            {
              "internalType": "bytes",
              "name": "data",
              "type": "bytes"
            }
          ],
          "internalType": "struct Forwarder.ForwardRequest",
          "name": "req",
          "type": "tuple"
        },
        {
          "internalType": "bytes",
          "name": "signature",
          "type": "bytes"
        }
      ],
      "name": "verify",
      "outputs": [
        {
          "internalType": "bool",
          "name": "",
          "type": "bool"
        }
      ],
      "stateMutability": "view",
      "type": "function"
    },
    {
      "stateMutability": "payable",
      "type": "receive"
    }
  ],
  "bytecode": "0x60a06040523060601b60805234801561001757600080fd5b5060805160601c611ed9610052600039600081816105f801528181610638015281816106d80152818161071801526107ab0152611ed96000f3fe60806040526004361061010d5760003560e01c8063715018a6116100955780638da5cb5b116100645780638da5cb5b146102e6578063a7bb58031461030e578063f2fde38b1461034c578063f5537ede1461036c578063fa5408011461038c57610114565b8063715018a6146102895780637507bd7a1461029e5780637b1a4909146102be5780638129fc1c146102de57610114565b80634f1ef286116100dc5780634f1ef286146101dd57806352d1902d146101f05780635b4dbfcc146102055780635d2dab0b1461023557806369b37f4d1461026957610114565b80630191817014610119578063150b7a021461012e5780632d0335ab146101785780633659cfe6146101bd57610114565b3661011457005b600080fd5b61012c610127366004611958565b6103ac565b005b34801561013a57600080fd5b5061015a6101493660046117fc565b630a85bd0160e11b95945050505050565b6040516001600160e01b031990911681526020015b60405180910390f35b34801561018457600080fd5b506101af610193366004611775565b6001600160a01b0316600090815261012f602052604090205490565b60405190815260200161016f565b3480156101c957600080fd5b5061012c6101d8366004611775565b6105ed565b61012c6101eb36600461190a565b6106cd565b3480156101fc57600080fd5b506101af61079e565b34801561021157600080fd5b50610225610220366004611b36565b610851565b604051901515815260200161016f565b34801561024157600080fd5b506101af7f37f69988ed101a80359fd1bf023dce4ccbafcaf14b772646dec9ad4f0d6bc1e281565b34801561027557600080fd5b506101af610284366004611896565b610950565b34801561029557600080fd5b5061012c6109db565b6102b16102ac366004611ad8565b6109ef565b60405161016f9190611c28565b3480156102ca57600080fd5b5061012c6102d9366004611791565b610b8b565b61012c610bd7565b3480156102f257600080fd5b5060fd546040516001600160a01b03909116815260200161016f565b34801561031a57600080fd5b5061032e610329366004611a9d565b610d35565b60408051938452602084019290925260ff169082015260600161016f565b34801561035857600080fd5b5061012c610367366004611775565b610da9565b34801561037857600080fd5b5061012c6103873660046117bc565b610e1f565b34801561039857600080fd5b506101af6103a7366004611a6d565b610f34565b6103b4610f87565b805182146103fc5760405162461bcd60e51b815260206004820152601060248201526f1b195b99dd1a081393d508195c5d585b60821b60448201526064015b60405180910390fd5b60005b828110156105dd57600084848381811061042957634e487b7160e01b600052603260045260246000fd5b905060200281019061043b9190611d6a565b61044490611dc8565b9050600083838151811061046857634e487b7160e01b600052603260045260246000fd5b6020026020010151905061047c8282610851565b6104c35760405162461bcd60e51b81526020600482015260186024820152770e6d2cedcc2e8eae4ca40c8decae640dcdee840dac2e8c6d60431b60448201526064016103f3565b60608201516104d3906001611db0565b61012f600084600001516001600160a01b03166001600160a01b0316815260200190815260200160002081905550600082602001516001600160a01b0316836040015184608001518560000151604051602001610531929190611bf1565b60408051601f198184030181529082905261054b91611bd5565b60006040518083038185875af1925050503d8060008114610588576040519150601f19603f3d011682016040523d82523d6000602084013e61058d565b606091505b50509050806105c75760405162461bcd60e51b815260206004820152600660248201526519985a5b195960d21b60448201526064016103f3565b50505080806105d590611e00565b9150506103ff565b506105e86001606555565b505050565b306001600160a01b037f00000000000000000000000000000000000000000000000000000000000000001614156106365760405162461bcd60e51b81526004016103f390611c3b565b7f00000000000000000000000000000000000000000000000000000000000000006001600160a01b031661067f600080516020611e5d833981519152546001600160a01b031690565b6001600160a01b0316146106a55760405162461bcd60e51b81526004016103f390611c87565b6106ae81610fe8565b604080516000808252602082019092526106ca9183919061102c565b50565b306001600160a01b037f00000000000000000000000000000000000000000000000000000000000000001614156107165760405162461bcd60e51b81526004016103f390611c3b565b7f00000000000000000000000000000000000000000000000000000000000000006001600160a01b031661075f600080516020611e5d833981519152546001600160a01b031690565b6001600160a01b0316146107855760405162461bcd60e51b81526004016103f390611c87565b61078e82610fe8565b61079a8282600161102c565b5050565b6000306001600160a01b037f0000000000000000000000000000000000000000000000000000000000000000161461083e5760405162461bcd60e51b815260206004820152603860248201527f555550535570677261646561626c653a206d757374206e6f742062652063616c60448201527f6c6564207468726f7567682064656c656761746563616c6c000000000000000060648201526084016103f3565b50600080516020611e5d83398151915290565b60008061087584600001518560200151866040015187606001518860800151610950565b9050600061088282610f34565b9050600080600061089287610d35565b9250925092506000600185838686604051600081526020016040526040516108d6949392919093845260ff9290921660208401526040830152606082015260800190565b6020604051602081039080840390855afa1580156108f8573d6000803e3d6000fd5b505060408051601f19015160608c01518c516001600160a01b0316600090815261012f60205292909220549093501490508015610941575088516001600160a01b038281169116145b96505050505050505b92915050565b8051602080830191909120604080517f37f69988ed101a80359fd1bf023dce4ccbafcaf14b772646dec9ad4f0d6bc1e2818501526001600160a01b0389811682840152881660608201526080810187905260a0810186905260c0808201939093528151808203909301835260e001905280519101206000906109d1906111ab565b9695505050505050565b6109e36111f9565b6109ed6000611253565b565b60606109f9610f87565b610a0b610a0584611dc8565b83610851565b610a525760405162461bcd60e51b81526020600482015260186024820152770e6d2cedcc2e8eae4ca40c8decae640dcdee840dac2e8c6d60431b60448201526064016103f3565b610a6160608401356001611db0565b61012f6000610a736020870187611775565b6001600160a01b03166001600160a01b0316815260200190815260200160002081905550600080846020016020810190610aad9190611775565b6001600160a01b03166040860135610ac86080880188611d1e565b610ad560208a018a611775565b604051602001610ae793929190611bac565b60408051601f1981840301815290829052610b0191611bd5565b60006040518083038185875af1925050503d8060008114610b3e576040519150601f19603f3d011682016040523d82523d6000602084013e610b43565b606091505b509150915081610b7e5760405162461bcd60e51b815260206004820152600660248201526519985a5b195960d21b60448201526064016103f3565b91505061094a6001606555565b610b936111f9565b80610b9b5750475b801561079a576040516001600160a01b0383169082156108fc029083906000818181858888f193505050501580156105e8573d6000803e3d6000fd5b600054610100900460ff1615808015610bf75750600054600160ff909116105b80610c115750303b158015610c11575060005460ff166001145b610c745760405162461bcd60e51b815260206004820152602e60248201527f496e697469616c697a61626c653a20636f6e747261637420697320616c72656160448201526d191e481a5b9a5d1a585b1a5e995960921b60648201526084016103f3565b6000805460ff191660011790558015610c97576000805461ff0019166101001790555b610c9f6112a5565b610ca76112d4565b610ced604051806040016040528060098152602001682337b93bb0b93232b960b91b815250604051806040016040528060038152602001620312e360ec1b815250611303565b80156106ca576000805461ff0019169055604051600181527f7f26b83ff96e1f2b6a682f133852f6798a09c465da95921460cefb38474024989060200160405180910390a150565b60008060008351604114610d8b5760405162461bcd60e51b815260206004820152601860248201527f696e76616c6964207369676e6174757265206c656e677468000000000000000060448201526064016103f3565b50505060208101516040820151606090920151909260009190911a90565b610db16111f9565b6001600160a01b038116610e165760405162461bcd60e51b815260206004820152602660248201527f4f776e61626c653a206e6577206f776e657220697320746865207a65726f206160448201526564647265737360d01b60648201526084016103f3565b6106ca81611253565b610e276111f9565b80610ea6576040516370a0823160e01b81523060048201526001600160a01b038416906370a082319060240160206040518083038186803b158015610e6b57600080fd5b505afa158015610e7f573d6000803e3d6000fd5b505050506040513d601f19601f82011682018060405250810190610ea39190611a85565b90505b80156105e85760405163a9059cbb60e01b81526001600160a01b0383811660048301526024820183905284169063a9059cbb90604401602060405180830381600087803b158015610ef657600080fd5b505af1158015610f0a573d6000803e3d6000fd5b505050506040513d601f19601f82011682018060405250810190610f2e9190611a4d565b50505050565b6040517f19457468657265756d205369676e6564204d6573736167653a0a3332000000006020820152603c8101829052600090605c01604051602081830303815290604052805190602001209050919050565b60026065541415610fda5760405162461bcd60e51b815260206004820152601f60248201527f5265656e7472616e637947756172643a207265656e7472616e742063616c6c0060448201526064016103f3565b6002606555565b6001606555565b60fd546001600160a01b031633146106ca5760405162461bcd60e51b81526020600482015260076024820152660dcde40c2eae8d60cb1b60448201526064016103f3565b7f4910fdfa16fed3260ed0e7147f7cc6da11a60208b5b9406d12a635614ffd91435460ff16156110645761105f83611334565b6105e8565b826001600160a01b03166352d1902d6040518163ffffffff1660e01b815260040160206040518083038186803b15801561109d57600080fd5b505afa9250505080156110cd575060408051601f3d908101601f191682019092526110ca91810190611a85565b60015b6111305760405162461bcd60e51b815260206004820152602e60248201527f45524331393637557067726164653a206e657720696d706c656d656e7461746960448201526d6f6e206973206e6f74205555505360901b60648201526084016103f3565b600080516020611e5d833981519152811461119f5760405162461bcd60e51b815260206004820152602960248201527f45524331393637557067726164653a20756e737570706f727465642070726f786044820152681a58589b195555525160ba1b60648201526084016103f3565b506105e88383836113d0565b600061094a6111b86113f5565b8360405161190160f01b6020820152602281018390526042810182905260009060620160405160208183030381529060405280519060200120905092915050565b60fd546001600160a01b031633146109ed5760405162461bcd60e51b815260206004820181905260248201527f4f776e61626c653a2063616c6c6572206973206e6f7420746865206f776e657260448201526064016103f3565b60fd80546001600160a01b038381166001600160a01b0319831681179093556040519116919082907f8be0079c531659141344cd1fd0a4f28419497f9722a3daafe3b4186f6b6457e090600090a35050565b600054610100900460ff166112cc5760405162461bcd60e51b81526004016103f390611cd3565b6109ed611431565b600054610100900460ff166112fb5760405162461bcd60e51b81526004016103f390611cd3565b6109ed611458565b600054610100900460ff1661132a5760405162461bcd60e51b81526004016103f390611cd3565b61079a8282611488565b6001600160a01b0381163b6113a15760405162461bcd60e51b815260206004820152602d60248201527f455243313936373a206e657720696d706c656d656e746174696f6e206973206e60448201526c1bdd08184818dbdb9d1c9858dd609a1b60648201526084016103f3565b600080516020611e5d83398151915280546001600160a01b0319166001600160a01b0392909216919091179055565b6113d9836114c9565b6000825111806113e65750805b156105e857610f2e8383611509565b600061142c7f8b73c3c69bb8fe3d512ecc4cf759cc79239f7b179b0ffacaa9a75d522b39400f61142460975490565b6098546115fd565b905090565b600054610100900460ff16610fe15760405162461bcd60e51b81526004016103f390611cd3565b600054610100900460ff1661147f5760405162461bcd60e51b81526004016103f390611cd3565b6109ed33611253565b600054610100900460ff166114af5760405162461bcd60e51b81526004016103f390611cd3565b815160209283012081519190920120609791909155609855565b6114d281611334565b6040516001600160a01b038216907fbc7cd75a20ee27fd9adebab32041f755214dbc6bffa90cc0225b39da2e5c2d3b90600090a250565b60606001600160a01b0383163b6115715760405162461bcd60e51b815260206004820152602660248201527f416464726573733a2064656c65676174652063616c6c20746f206e6f6e2d636f6044820152651b9d1c9858dd60d21b60648201526084016103f3565b600080846001600160a01b03168460405161158c9190611bd5565b600060405180830381855af49150503d80600081146115c7576040519150601f19603f3d011682016040523d82523d6000602084013e6115cc565b606091505b50915091506115f48282604051806060016040528060278152602001611e7d60279139611647565b95945050505050565b6040805160208101859052908101839052606081018290524660808201523060a082015260009060c0016040516020818303038152906040528051906020012090505b9392505050565b60608315611656575081611640565b611640838381511561166b5781518083602001fd5b8060405162461bcd60e51b81526004016103f39190611c28565b600082601f830112611695578081fd5b813567ffffffffffffffff8111156116af576116af611e31565b6116c2601f8201601f1916602001611d7f565b8181528460208386010111156116d6578283fd5b816020850160208301379081016020019190915292915050565b600060a08284031215611701578081fd5b61170b60a0611d7f565b9050813561171881611e47565b8152602082013561172881611e47565b806020830152506040820135604082015260608201356060820152608082013567ffffffffffffffff81111561175d57600080fd5b61176984828501611685565b60808301525092915050565b600060208284031215611786578081fd5b813561164081611e47565b600080604083850312156117a3578081fd5b82356117ae81611e47565b946020939093013593505050565b6000806000606084860312156117d0578081fd5b83356117db81611e47565b925060208401356117eb81611e47565b929592945050506040919091013590565b600080600080600060808688031215611813578081fd5b853561181e81611e47565b9450602086013561182e81611e47565b935060408601359250606086013567ffffffffffffffff80821115611851578283fd5b818801915088601f830112611864578283fd5b813581811115611872578384fd5b896020828501011115611883578384fd5b9699959850939650602001949392505050565b600080600080600060a086880312156118ad578081fd5b85356118b881611e47565b945060208601356118c881611e47565b93506040860135925060608601359150608086013567ffffffffffffffff8111156118f1578182fd5b6118fd88828901611685565b9150509295509295909350565b6000806040838503121561191c578182fd5b823561192781611e47565b9150602083013567ffffffffffffffff811115611942578182fd5b61194e85828601611685565b9150509250929050565b60008060006040848603121561196c578283fd5b833567ffffffffffffffff80821115611983578485fd5b818601915086601f830112611996578485fd5b8135818111156119a4578586fd5b6020888182840286010111156119b8578687fd5b8084019650819550808801359350828411156119d2578485fd5b838801935088601f8501126119e5578485fd5b83359150828211156119f9576119f9611e31565b611a068182840201611d7f565b8281528181019350848201865b84811015611a3c57611a2a8c8584358a0101611685565b86529483019490830190600101611a13565b505080955050505050509250925092565b600060208284031215611a5e578081fd5b81518015158114611640578182fd5b600060208284031215611a7e578081fd5b5035919050565b600060208284031215611a96578081fd5b5051919050565b600060208284031215611aae578081fd5b813567ffffffffffffffff811115611ac4578182fd5b611ad084828501611685565b949350505050565b60008060408385031215611aea578182fd5b823567ffffffffffffffff80821115611b01578384fd5b9084019060a08287031215611b14578384fd5b90925060208401359080821115611b29578283fd5b5061194e85828601611685565b60008060408385031215611b48578182fd5b823567ffffffffffffffff80821115611b5f578384fd5b611b6b868387016116f0565b93506020850135915080821115611b29578283fd5b60008151808452611b98816020860160208601611dd4565b601f01601f19169290920160200192915050565b6000838583375060609190911b6bffffffffffffffffffffffff19169101908152601401919050565b60008251611be7818460208701611dd4565b9190910192915050565b60008351611c03818460208801611dd4565b60609390931b6bffffffffffffffffffffffff19169190920190815260140192915050565b6000602082526116406020830184611b80565b6020808252602c908201527f46756e6374696f6e206d7573742062652063616c6c6564207468726f7567682060408201526b19195b1959d85d1958d85b1b60a21b606082015260800190565b6020808252602c908201527f46756e6374696f6e206d7573742062652063616c6c6564207468726f7567682060408201526b6163746976652070726f787960a01b606082015260800190565b6020808252602b908201527f496e697469616c697a61626c653a20636f6e7472616374206973206e6f74206960408201526a6e697469616c697a696e6760a81b606082015260800190565b6000808335601e19843603018112611d34578283fd5b83018035915067ffffffffffffffff821115611d4e578283fd5b602001915036819003821315611d6357600080fd5b9250929050565b60008235609e19833603018112611be7578182fd5b604051601f8201601f1916810167ffffffffffffffff81118282101715611da857611da8611e31565b604052919050565b60008219821115611dc357611dc3611e1b565b500190565b600061094a36836116f0565b60005b83811015611def578181015183820152602001611dd7565b83811115610f2e5750506000910152565b6000600019821415611e1457611e14611e1b565b5060010190565b634e487b7160e01b600052601160045260246000fd5b634e487b7160e01b600052604160045260246000fd5b6001600160a01b03811681146106ca57600080fdfe360894a13ba1a3210667c828492db98dca3e2076cc3735a920a3ca505d382bbc416464726573733a206c6f772d6c6576656c2064656c65676174652063616c6c206661696c6564a264697066735822122028094d3b714479622e521d9fc57b3cffd091ea11afbe3eda8826b9c5e313ce5964736f6c63430008020033",
  "linkReferences": {},
  "deployedLinkReferences": {}
}