{
  "_format": "hh-sol-artifact-1",
  "contractName": "Agreement",
  "sourceName": "contracts/AskGPT.sol",
  "abi": [
    {
      "inputs": [
        {
          "internalType": "address",
          "name": "_firstParty",
          "type": "address"
        },
        {
          "internalType": "address",
          "name": "_secondParty",
          "type": "address"
        },
        {
          "internalType": "uint256",
          "name": "_agreementCount",
          "type": "uint256"
        },
        {
          "internalType": "string",
          "name": "_agreementUri",
          "type": "string"
        },
        {
          "internalType": "uint256",
          "name": "_startsAt",
          "type": "uint256"
        },
        {
          "internalType": "address",
          "name": "_agreementFactory",
          "type": "address"
        },
        {
          "internalType": "string",
          "name": "_name",
          "type": "string"
        },
        {
          "internalType": "uint256",
          "name": "_marketFee",
          "type": "uint256"
        },
        {
          "internalType": "address",
          "name": "_admin",
          "type": "address"
        },
        {
          "internalType": "address",
          "name": "_forwarder",
          "type": "address"
        }
      ],
      "stateMutability": "nonpayable",
      "type": "constructor"
    },
    {
      "anonymous": false,
      "inputs": [
        {
          "indexed": true,
          "internalType": "uint256",
          "name": "_milestoneId",
          "type": "uint256"
        },
        {
          "indexed": false,
          "internalType": "string",
          "name": "_name",
          "type": "string"
        },
        {
          "indexed": false,
          "internalType": "uint256",
          "name": "_amount",
          "type": "uint256"
        },
        {
          "indexed": false,
          "internalType": "uint256",
          "name": "_timestamp",
          "type": "uint256"
        }
      ],
      "name": "MilestoneAdded",
      "type": "event"
    },
    {
      "anonymous": false,
      "inputs": [
        {
          "indexed": true,
          "internalType": "uint256",
          "name": "_milestoneId",
          "type": "uint256"
        },
        {
          "indexed": false,
          "internalType": "uint256",
          "name": "_timestamp",
          "type": "uint256"
        }
      ],
      "name": "MilestoneApproved",
      "type": "event"
    },
    {
      "anonymous": false,
      "inputs": [
        {
          "indexed": true,
          "internalType": "uint256",
          "name": "_milestoneId",
          "type": "uint256"
        },
        {
          "indexed": false,
          "internalType": "uint256",
          "name": "_timestamp",
          "type": "uint256"
        }
      ],
      "name": "MilestoneFunded",
      "type": "event"
    },
    {
      "anonymous": false,
      "inputs": [
        {
          "indexed": true,
          "internalType": "uint256",
          "name": "_milestoneId",
          "type": "uint256"
        },
        {
          "indexed": false,
          "internalType": "uint256",
          "name": "_timestamp",
          "type": "uint256"
        }
      ],
      "name": "MilestoneRemoved",
      "type": "event"
    },
    {
      "anonymous": false,
      "inputs": [
        {
          "indexed": true,
          "internalType": "uint256",
          "name": "_milestoneId",
          "type": "uint256"
        },
        {
          "indexed": false,
          "internalType": "uint256",
          "name": "_timestamp",
          "type": "uint256"
        }
      ],
      "name": "MilestoneUpdated",
      "type": "event"
    },
    {
      "anonymous": false,
      "inputs": [
        {
          "indexed": true,
          "internalType": "uint256",
          "name": "_milestoneId",
          "type": "uint256"
        },
        {
          "indexed": false,
          "internalType": "uint256",
          "name": "_timestamp",
          "type": "uint256"
        }
      ],
      "name": "PaymentRequested",
      "type": "event"
    },
    {
      "anonymous": false,
      "inputs": [
        {
          "indexed": true,
          "internalType": "uint256",
          "name": "_requestId",
          "type": "uint256"
        },
        {
          "indexed": false,
          "internalType": "uint256",
          "name": "_timestamp",
          "type": "uint256"
        }
      ],
      "name": "RefundGranted",
      "type": "event"
    },
    {
      "anonymous": false,
      "inputs": [
        {
          "indexed": true,
          "internalType": "uint256",
          "name": "_requestId",
          "type": "uint256"
        },
        {
          "indexed": true,
          "internalType": "uint256",
          "name": "_milestoneId",
          "type": "uint256"
        },
        {
          "indexed": false,
          "internalType": "uint256",
          "name": "_amount",
          "type": "uint256"
        },
        {
          "indexed": false,
          "internalType": "uint256",
          "name": "_timestamp",
          "type": "uint256"
        }
      ],
      "name": "RefundRequested",
      "type": "event"
    },
    {
      "anonymous": false,
      "inputs": [
        {
          "indexed": true,
          "internalType": "uint256",
          "name": "_requestId",
          "type": "uint256"
        },
        {
          "indexed": false,
          "internalType": "uint256",
          "name": "_amount",
          "type": "uint256"
        },
        {
          "indexed": false,
          "internalType": "uint256",
          "name": "_timestamp",
          "type": "uint256"
        }
      ],
      "name": "RequestUpdated",
      "type": "event"
    },
    {
      "inputs": [
        {
          "internalType": "string",
          "name": "_name",
          "type": "string"
        },
        {
          "internalType": "uint256",
          "name": "_amount",
          "type": "uint256"
        },
        {
          "internalType": "string",
          "name": "_description",
          "type": "string"
        }
      ],
      "name": "addMilestone",
      "outputs": [],
      "stateMutability": "nonpayable",
      "type": "function"
    },
    {
      "inputs": [
        {
          "internalType": "uint256",
          "name": "_milestoneId",
          "type": "uint256"
        }
      ],
      "name": "approveMilestone",
      "outputs": [],
      "stateMutability": "payable",
      "type": "function"
    },
    {
      "inputs": [],
      "name": "endContract",
      "outputs": [],
      "stateMutability": "nonpayable",
      "type": "function"
    },
    {
      "inputs": [
        {
          "internalType": "uint256",
          "name": "_milestoneId",
          "type": "uint256"
        }
      ],
      "name": "fundMilestone",
      "outputs": [],
      "stateMutability": "payable",
      "type": "function"
    },
    {
      "inputs": [],
      "name": "getAgreementSummary",
      "outputs": [
        {
          "internalType": "address",
          "name": "",
          "type": "address"
        },
        {
          "internalType": "address",
          "name": "",
          "type": "address"
        },
        {
          "internalType": "uint256",
          "name": "",
          "type": "uint256"
        },
        {
          "internalType": "string",
          "name": "",
          "type": "string"
        },
        {
          "internalType": "uint256",
          "name": "",
          "type": "uint256"
        },
        {
          "internalType": "uint256",
          "name": "",
          "type": "uint256"
        },
        {
          "internalType": "uint256",
          "name": "",
          "type": "uint256"
        },
        {
          "internalType": "uint256",
          "name": "",
          "type": "uint256"
        },
        {
          "internalType": "uint256",
          "name": "",
          "type": "uint256"
        },
        {
          "internalType": "string",
          "name": "",
          "type": "string"
        },
        {
          "internalType": "uint256",
          "name": "",
          "type": "uint256"
        },
        {
          "internalType": "address",
          "name": "",
          "type": "address"
        }
      ],
      "stateMutability": "view",
      "type": "function"
    },
    {
      "inputs": [],
      "name": "getAllMilestones",
      "outputs": [
        {
          "components": [
            {
              "internalType": "uint256",
              "name": "milestoneId",
              "type": "uint256"
            },
            {
              "internalType": "string",
              "name": "name",
              "type": "string"
            },
            {
              "internalType": "uint256",
              "name": "amount",
              "type": "uint256"
            },
            {
              "internalType": "string",
              "name": "description",
              "type": "string"
            },
            {
              "internalType": "bool",
              "name": "funded",
              "type": "bool"
            },
            {
              "internalType": "bool",
              "name": "paymentRequested",
              "type": "bool"
            },
            {
              "internalType": "bool",
              "name": "paid",
              "type": "bool"
            }
          ],
          "internalType": "struct Agreement.MilestoneInfo[]",
          "name": "allMilestones",
          "type": "tuple[]"
        }
      ],
      "stateMutability": "view",
      "type": "function"
    },
    {
      "inputs": [],
      "name": "getAllRefundRequests",
      "outputs": [
        {
          "components": [
            {
              "internalType": "uint256",
              "name": "requestId",
              "type": "uint256"
            },
            {
              "internalType": "uint256",
              "name": "milestoneId",
              "type": "uint256"
            },
            {
              "internalType": "uint256",
              "name": "amount",
              "type": "uint256"
            },
            {
              "internalType": "bool",
              "name": "resolved",
              "type": "bool"
            }
          ],
          "internalType": "struct Agreement.RefundInfo[]",
          "name": "allRequests",
          "type": "tuple[]"
        }
      ],
      "stateMutability": "view",
      "type": "function"
    },
    {
      "inputs": [
        {
          "internalType": "uint256",
          "name": "_requestId",
          "type": "uint256"
        }
      ],
      "name": "grantRefund",
      "outputs": [],
      "stateMutability": "payable",
      "type": "function"
    },
    {
      "inputs": [
        {
          "internalType": "uint256",
          "name": "",
          "type": "uint256"
        }
      ],
      "name": "milestones",
      "outputs": [
        {
          "internalType": "uint256",
          "name": "milestoneId",
          "type": "uint256"
        },
        {
          "internalType": "string",
          "name": "name",
          "type": "string"
        },
        {
          "internalType": "uint256",
          "name": "amount",
          "type": "uint256"
        },
        {
          "internalType": "string",
          "name": "description",
          "type": "string"
        },
        {
          "internalType": "bool",
          "name": "funded",
          "type": "bool"
        },
        {
          "internalType": "bool",
          "name": "paymentRequested",
          "type": "bool"
        },
        {
          "internalType": "bool",
          "name": "paid",
          "type": "bool"
        }
      ],
      "stateMutability": "view",
      "type": "function"
    },
    {
      "inputs": [
        {
          "internalType": "uint256",
          "name": "",
          "type": "uint256"
        }
      ],
      "name": "refunds",
      "outputs": [
        {
          "internalType": "uint256",
          "name": "requestId",
          "type": "uint256"
        },
        {
          "internalType": "uint256",
          "name": "milestoneId",
          "type": "uint256"
        },
        {
          "internalType": "uint256",
          "name": "amount",
          "type": "uint256"
        },
        {
          "internalType": "bool",
          "name": "resolved",
          "type": "bool"
        }
      ],
      "stateMutability": "view",
      "type": "function"
    },
    {
      "inputs": [
        {
          "internalType": "uint256",
          "name": "_milestoneId",
          "type": "uint256"
        }
      ],
      "name": "removeMilestone",
      "outputs": [],
      "stateMutability": "nonpayable",
      "type": "function"
    },
    {
      "inputs": [
        {
          "internalType": "uint256",
          "name": "_milestoneId",
          "type": "uint256"
        }
      ],
      "name": "requestPayment",
      "outputs": [],
      "stateMutability": "nonpayable",
      "type": "function"
    },
    {
      "inputs": [
        {
          "internalType": "uint256",
          "name": "_milestoneId",
          "type": "uint256"
        },
        {
          "internalType": "uint256",
          "name": "_amount",
          "type": "uint256"
        }
      ],
      "name": "requestRefund",
      "outputs": [],
      "stateMutability": "nonpayable",
      "type": "function"
    },
    {
      "inputs": [
        {
          "internalType": "uint256",
          "name": "_milestoneId",
          "type": "uint256"
        },
        {
          "internalType": "string",
          "name": "_name",
          "type": "string"
        },
        {
          "internalType": "uint256",
          "name": "_amount",
          "type": "uint256"
        },
        {
          "internalType": "string",
          "name": "_description",
          "type": "string"
        }
      ],
      "name": "updateMilestone",
      "outputs": [],
      "stateMutability": "nonpayable",
      "type": "function"
    },
    {
      "inputs": [
        {
          "internalType": "uint256",
          "name": "_requestId",
          "type": "uint256"
        },
        {
          "internalType": "uint256",
          "name": "_amount",
          "type": "uint256"
        }
      ],
      "name": "updateRequest",
      "outputs": [],
      "stateMutability": "nonpayable",
      "type": "function"
    }
  ],
  "bytecode": "0x60806040523480156200001157600080fd5b50604051620022dc380380620022dc83398101604081905262000034916200026c565b6006889055600380546001600160a01b038085166001600160a01b031992831617909255600480548d841690831617905560058054928c169290911691909117905586516200008b9060079060208a0190620000f6565b506008869055600280546001600160a01b0319166001600160a01b0387161790558351620000c1906000906020870190620000f6565b5060019290925550600c80546001600160a01b0319166001600160a01b0390921691909117905550620003a395505050505050565b828054620001049062000350565b90600052602060002090601f01602090048101928262000128576000855562000173565b82601f106200014357805160ff191683800117855562000173565b8280016001018555821562000173579182015b828111156200017357825182559160200191906001019062000156565b506200018192915062000185565b5090565b5b8082111562000181576000815560010162000186565b80516001600160a01b0381168114620001b457600080fd5b919050565b600082601f830112620001ca578081fd5b81516001600160401b0380821115620001e757620001e76200038d565b604051601f8301601f19908116603f011681019082821181831017156200021257620002126200038d565b816040528381526020925086838588010111156200022e578485fd5b8491505b8382101562000251578582018301518183018401529082019062000232565b838211156200026257848385830101525b9695505050505050565b6000806000806000806000806000806101408b8d0312156200028c578586fd5b620002978b6200019c565b9950620002a760208c016200019c565b60408c015160608d0151919a5098506001600160401b0380821115620002cb578788fd5b620002d98e838f01620001b9565b985060808d01519750620002f060a08e016200019c565b965060c08d015191508082111562000306578586fd5b50620003158d828e01620001b9565b94505060e08b015192506200032e6101008c016200019c565b91506200033f6101208c016200019c565b90509295989b9194979a5092959850565b6002810460018216806200036557607f821691505b602082108114156200038757634e487b7160e01b600052602260045260246000fd5b50919050565b634e487b7160e01b600052604160045260246000fd5b611f2980620003b36000396000f3fe6080604052600436106100e75760003560e01c806397926fc81161008a578063c8a3e04e11610059578063c8a3e04e14610234578063e36bd0f314610254578063e7ca9969146102bb578063e89e4ed6146102dd576100e7565b806397926fc8146101d95780639f4a23ba146101f9578063bb6e7de91461020c578063c438b40f14610221576100e7565b80635de988ab116100c65780635de988ab146101595780636b9080c11461017957806373a482e9146101a65780637d60631e146101b9576100e7565b8062e6652a146100ec5780635c43dd991461010e5780635cdb464214610139575b600080fd5b3480156100f857600080fd5b5061010c6101073660046119e4565b610310565b005b34801561011a57600080fd5b506101236104c2565b6040516101309190611ad8565b60405180910390f35b34801561014557600080fd5b5061010c6101543660046119e4565b610756565b34801561016557600080fd5b5061010c610174366004611958565b6108b1565b34801561018557600080fd5b5061018e6109d5565b6040516101309c9b9a99989796959493929190611a50565b61010c6101b4366004611958565b610b80565b3480156101c557600080fd5b5061010c6101d43660046118ee565b610d3b565b3480156101e557600080fd5b5061010c6101f4366004611958565b610ebe565b61010c610207366004611958565b610fc1565b34801561021857600080fd5b5061010c611148565b61010c61022f366004611958565b6111a8565b34801561024057600080fd5b5061010c61024f366004611970565b611302565b34801561026057600080fd5b5061029961026f366004611958565b600e6020526000908152604090208054600182015460028301546003909301549192909160ff1684565b6040805194855260208501939093529183015215156060820152608001610130565b3480156102c757600080fd5b506102d061149d565b6040516101309190611b95565b3480156102e957600080fd5b506102fd6102f8366004611958565b6115d0565b6040516101309796959493929190611db0565b6004546001600160a01b0316610324611725565b6001600160a01b0316148061035357506003546001600160a01b0316610348611725565b6001600160a01b0316145b6103785760405162461bcd60e51b815260040161036f90611c4d565b60405180910390fd5b6000828152600d602052604090206004015460ff166103a95760405162461bcd60e51b815260040161036f90611cbb565b6000828152600d602052604090206004015462010000900460ff16156103e15760405162461bcd60e51b815260040161036f90611c84565b6000828152600d60205260409020600201548111156104125760405162461bcd60e51b815260040161036f90611cf2565b600b805490600061042283611eac565b909155505060408051608081018252600b80548083526020808401878152848601878152600060608701818152948152600e8452879020955186559051600186015551600285015590516003909301805460ff1916931515939093179092555482518481524292810192909252849290917f7918bd36c203935800793ba10c13259100530473ba726ee3a8d0bfbf49daeeab910160405180910390a35050565b60606000600a5467ffffffffffffffff8111156104ef57634e487b7160e01b600052604160045260246000fd5b60405190808252806020026020018201604052801561056657816020015b6105536040518060e00160405280600081526020016060815260200160008152602001606081526020016000151581526020016000151581526020016000151581525090565b81526020019060019003908161050d5790505b50905060015b600a5461057a906001611e03565b81101561074f57600d60008281526020019081526020016000206040518060e0016040529081600082015481526020016001820180546105b990611e71565b80601f01602080910402602001604051908101604052809291908181526020018280546105e590611e71565b80156106325780601f1061060757610100808354040283529160200191610632565b820191906000526020600020905b81548152906001019060200180831161061557829003601f168201915b505050505081526020016002820154815260200160038201805461065590611e71565b80601f016020809104026020016040519081016040528092919081815260200182805461068190611e71565b80156106ce5780601f106106a3576101008083540402835291602001916106ce565b820191906000526020600020905b8154815290600101906020018083116106b157829003601f168201915b50505091835250506004919091015460ff8082161515602084015261010082048116151560408401526201000090910416151560609091015282610713600184611e5a565b8151811061073157634e487b7160e01b600052603260045260246000fd5b6020026020010181905250808061074790611eac565b91505061056c565b5090505b90565b6004546001600160a01b031661076a611725565b6001600160a01b0316148061079957506003546001600160a01b031661078e611725565b6001600160a01b0316145b6107b55760405162461bcd60e51b815260040161036f90611c4d565b6000828152600e602052604090206003015460ff16156108135760405162461bcd60e51b81526020600482015260196024820152785265717565737420616c7265616479207265736f6c7665642160381b604482015260640161036f565b6000828152600e60209081526040808320600101548352600d9091529020600201548111156108545760405162461bcd60e51b815260040161036f90611cf2565b6000828152600e6020526040908190206002018290555182907fd35e4a11544ca6df55d52949c95edc0f59ce2714fd227da3726a92457b09a38c906108a59084904290918252602082015260400190565b60405180910390a25050565b6005546001600160a01b03166108c5611725565b6001600160a01b03161461090f5760405162461bcd60e51b81526020600482015260116024820152704e6f74207468652072656365697665722160781b604482015260640161036f565b6000818152600d602052604090206004015460ff166109405760405162461bcd60e51b815260040161036f90611cbb565b6000818152600d602052604090206004015462010000900460ff16156109785760405162461bcd60e51b815260040161036f90611c84565b6000818152600d602052604090819020600401805461ff0019166101001790555181907fcaf49e218dd72f80b847b963b0a3f9b56254f688513253fe99b456e6311c1fb9906109ca9042815260200190565b60405180910390a250565b6000806000606060008060008060006060600080600460009054906101000a90046001600160a01b0316600560009054906101000a90046001600160a01b0316600654600760085460095447600a54600b546000600154600360009054906101000a90046001600160a01b0316888054610a4e90611e71565b80601f0160208091040260200160405190810160405280929190818152602001828054610a7a90611e71565b8015610ac75780601f10610a9c57610100808354040283529160200191610ac7565b820191906000526020600020905b815481529060010190602001808311610aaa57829003601f168201915b50505050509850828054610ada90611e71565b80601f0160208091040260200160405190810160405280929190818152602001828054610b0690611e71565b8015610b535780601f10610b2857610100808354040283529160200191610b53565b820191906000526020600020905b815481529060010190602001808311610b3657829003601f168201915b505050505092509b509b509b509b509b509b509b509b509b509b509b509b50909192939495969798999a9b565b6004546001600160a01b0316610b94611725565b6001600160a01b031614610bba5760405162461bcd60e51b815260040161036f90611d86565b6001546000828152600d602052604081206002015490916103e891610bdf9190611e3b565b610be99190611e1b565b6000838152600d602052604090206004015490915060ff1615610c1e5760405162461bcd60e51b815260040161036f90611d4f565b6000828152600d6020526040902060020154610c3b908290611e03565b341015610cb05760405162461bcd60e51b815260206004820152603760248201527f416d6f756e742073656e7420646f6573206e6f74206d6174636820746865207360448201527f706563696669656420616d6f756e74202b206665657321000000000000000000606482015260840161036f565b6002546040516001600160a01b039091169082156108fc029083906000818181858888f19350505050158015610cea573d6000803e3d6000fd5b506000828152600d602052604090819020600401805460ff191660011790555182907fad6f5443f0021bc2808ac5204f3c96a037dc9406ec9bfdf92a8e81539f04c605906108a59042815260200190565b6004546001600160a01b0316610d4f611725565b6001600160a01b031614610d755760405162461bcd60e51b815260040161036f90611d86565b60095415610d955760405162461bcd60e51b815260040161036f90611c20565b600a8054906000610da583611eac565b90915550506040805160e081018252600a5480825260208083018781528385018790526060840186905260006080850181905260a0850181905260c08501819052928352600d8252939091208251815592518051929392610e0c926001850192019061178f565b506040820151600282015560608201518051610e3291600384019160209091019061178f565b5060808201516004909101805460a084015160c0909401511515620100000262ff0000199415156101000261ff001994151560ff1990931692909217939093161792909216179055600a546040517f6df4a40f54ddbc024cc4e985b8fa77b24d3b18ae73fe8d9444beaed8682ff0f390610eb190869086904290611bfb565b60405180910390a2505050565b6004546001600160a01b0316610ed2611725565b6001600160a01b031614610ef85760405162461bcd60e51b815260040161036f90611d86565b60095415610f185760405162461bcd60e51b815260040161036f90611c20565b6000818152600d602052604090206004015460ff1615610f4a5760405162461bcd60e51b815260040161036f90611d4f565b6000818152600d6020526040812081815590610f696001830182611813565b6002820160009055600382016000610f819190611813565b50600401805462ffffff1916905560405142815281907f846ab9b254edc77fe46806b496d2efb2f0f0f1c7338a82ee13d93ceb37152d2a906020016109ca565b6003546001600160a01b0316610fd5611725565b6001600160a01b0316148061100457506005546001600160a01b0316610ff9611725565b6001600160a01b0316145b6110205760405162461bcd60e51b815260040161036f90611c4d565b6000818152600e602052604090206003015460ff161561107e5760405162461bcd60e51b81526020600482015260196024820152785265717565737420616c7265616479207265736f6c7665642160381b604482015260640161036f565b6000818152600e6020908152604080832060038101805460ff1916600190811790915560028083015491909201548552600d909352908320018054919290916110c8908490611e5a565b90915550506004546000828152600e60205260408082206002015490516001600160a01b039093169281156108fc0292818181858888f19350505050158015611115573d6000803e3d6000fd5b50807f4ce0986d74e104c2d3d9c6f307178d94afd5abaf7ccf6658a17fac5a5718a8f2426040516109ca91815260200190565b6004546001600160a01b031661115c611725565b6001600160a01b0316146111825760405162461bcd60e51b815260040161036f90611d86565b600954156111a25760405162461bcd60e51b815260040161036f90611c20565b42600955565b6004546001600160a01b03166111bc611725565b6001600160a01b031614806111eb57506003546001600160a01b03166111e0611725565b6001600160a01b0316145b6112075760405162461bcd60e51b815260040161036f90611c4d565b6000818152600d602052604090206004015460ff166112385760405162461bcd60e51b815260040161036f90611cbb565b6000818152600d602052604090206004015462010000900460ff16156112705760405162461bcd60e51b815260040161036f90611c84565b6000818152600d602052604080822060048101805462ff000019166201000017905560055460029091015491516001600160a01b039091169282156108fc02929190818181858888f193505050501580156112cf573d6000803e3d6000fd5b50807f939da3b627c123c81fe5aacebf925163337a0d4f8a03724640618078cad24894426040516109ca91815260200190565b6004546001600160a01b0316611316611725565b6001600160a01b03161461133c5760405162461bcd60e51b815260040161036f90611d86565b6009541561135c5760405162461bcd60e51b815260040161036f90611c20565b6000848152600d602052604090206004015460ff161561138e5760405162461bcd60e51b815260040161036f90611d4f565b6040805160e08101825285815260208082018681528284018690526060830185905260006080840181905260a0840181905260c08401819052888152600d83529390932082518155925180519293926113ed926001850192019061178f565b50604082015160028201556060820151805161141391600384019160209091019061178f565b5060808201516004909101805460a084015160c0909401511515620100000262ff0000199415156101000261ff001994151560ff199093169290921793909316179290921617905560405184907f03ba09f38b23ad2697f2c208e0c31023842b2f3da43982784195f20216b2291f9061148f9042815260200190565b60405180910390a250505050565b60606000600b5467ffffffffffffffff8111156114ca57634e487b7160e01b600052604160045260246000fd5b60405190808252806020026020018201604052801561152857816020015b61151560405180608001604052806000815260200160008152602001600081526020016000151581525090565b8152602001906001900390816114e85790505b50905060015b600b5461153c906001611e03565b81101561074f576000818152600e6020908152604091829020825160808101845281548152600180830154938201939093526002820154938101939093526003015460ff161515606083015283906115949084611e5a565b815181106115b257634e487b7160e01b600052603260045260246000fd5b602002602001018190525080806115c890611eac565b91505061152e565b600d60205260009081526040902080546001820180549192916115f290611e71565b80601f016020809104026020016040519081016040528092919081815260200182805461161e90611e71565b801561166b5780601f106116405761010080835404028352916020019161166b565b820191906000526020600020905b81548152906001019060200180831161164e57829003601f168201915b50505050509080600201549080600301805461168690611e71565b80601f01602080910402602001604051908101604052809291908181526020018280546116b290611e71565b80156116ff5780601f106116d4576101008083540402835291602001916116ff565b820191906000526020600020905b8154815290600101906020018083116116e257829003601f168201915b5050506004909301549192505060ff808216916101008104821691620100009091041687565b600c546000906001600160a01b031633141561178857600080368080601f0160208091040260200160405190810160405280939291908181526020018383808284376000920191909152505050503601516001600160a01b031691506107539050565b5033610753565b82805461179b90611e71565b90600052602060002090601f0160209004810192826117bd5760008555611803565b82601f106117d657805160ff1916838001178555611803565b82800160010185558215611803579182015b828111156118035782518255916020019190600101906117e8565b5061180f929150611852565b5090565b50805461181f90611e71565b6000825580601f10611831575061184f565b601f01602090049060005260206000209081019061184f9190611852565b50565b5b8082111561180f5760008155600101611853565b600082601f830112611877578081fd5b813567ffffffffffffffff8082111561189257611892611edd565b604051601f8301601f19908116603f011681019082821181831017156118ba576118ba611edd565b816040528381528660208588010111156118d2578485fd5b8360208701602083013792830160200193909352509392505050565b600080600060608486031215611902578283fd5b833567ffffffffffffffff80821115611919578485fd5b61192587838801611867565b9450602086013593506040860135915080821115611941578283fd5b5061194e86828701611867565b9150509250925092565b600060208284031215611969578081fd5b5035919050565b60008060008060808587031215611985578081fd5b84359350602085013567ffffffffffffffff808211156119a3578283fd5b6119af88838901611867565b94506040870135935060608701359150808211156119cb578283fd5b506119d887828801611867565b91505092959194509250565b600080604083850312156119f6578182fd5b50508035926020909101359150565b60008151808452815b81811015611a2a57602081850181015186830182015201611a0e565b81811115611a3b5782602083870101525b50601f01601f19169290920160200192915050565b600060018060a01b03808f168352808e1660208401528c60408401526101806060840152611a8261018084018d611a05565b8b60808501528a60a08501528960c08501528860e085015287610100850152838103610120850152611ab48188611a05565b610140850196909652509290921661016090910152509a9950505050505050505050565b60208082528251828201819052600091906040908185019080840286018301878501865b83811015611b8757603f19898403018552815160e08151855288820151818a870152611b2a82870182611a05565b915050878201518886015260608083015186830382880152611b4c8382611a05565b60808581015115159089015260a08086015115159089015260c094850151151594909701939093525050509386019390860190600101611afc565b509098975050505050505050565b602080825282518282018190526000919060409081850190868401855b82811015611bee578151805185528681015187860152858101518686015260609081015115159085015260809093019290850190600101611bb2565b5091979650505050505050565b600060608252611c0e6060830186611a05565b60208301949094525060400152919050565b6020808252601390820152721059dc99595b595b9d081a185cc8195b991959606a1b604082015260600190565b60208082526019908201527f4e6f74207468652064697370757465207265736f6c7665722100000000000000604082015260600190565b6020808252601b908201527f4d696c6573746f6e6520616c726561647920617070726f766564210000000000604082015260600190565b60208082526017908201527f4d696c6573746f6e652069736e27742066756e64656421000000000000000000604082015260600190565b6020808252603a908201527f526566756e6420616d6f756e742063616e6e6f7420626520677265617465722060408201527f7468616e20746865206d696c6573746f6e6520616d6f756e7421000000000000606082015260800190565b60208082526019908201527f4d696c6573746f6e6520616c72656164792066756e6465642100000000000000604082015260600190565b60208082526010908201526f4e6f7420746865206d616e616765722160801b604082015260600190565b600088825260e06020830152611dc960e0830189611a05565b8760408401528281036060840152611de18188611a05565b9515156080840152505091151560a0830152151560c090910152949350505050565b60008219821115611e1657611e16611ec7565b500190565b600082611e3657634e487b7160e01b81526012600452602481fd5b500490565b6000816000190483118215151615611e5557611e55611ec7565b500290565b600082821015611e6c57611e6c611ec7565b500390565b600281046001821680611e8557607f821691505b60208210811415611ea657634e487b7160e01b600052602260045260246000fd5b50919050565b6000600019821415611ec057611ec0611ec7565b5060010190565b634e487b7160e01b600052601160045260246000fd5b634e487b7160e01b600052604160045260246000fdfea26469706673582212202cb4d9481062ca9999408836aed442b317d1699ddd99b20fabf409d53d773c0864736f6c63430008020033",
  "linkReferences": {},
  "deployedLinkReferences": {}
}