{
  "_format": "hh-sol-artifact-1",
  "contractName": "AskGPT",
  "sourceName": "contracts/AskGPT.sol",
  "abi": [
    {
      "inputs": [
        {
          "internalType": "address",
          "name": "_forwarder",
          "type": "address"
        }
      ],
      "stateMutability": "nonpayable",
      "type": "constructor"
    },
    {
      "anonymous": false,
      "inputs": [
        {
          "indexed": true,
          "internalType": "address",
          "name": "_firstParty",
          "type": "address"
        },
        {
          "indexed": true,
          "internalType": "address",
          "name": "_secondParty",
          "type": "address"
        },
        {
          "indexed": false,
          "internalType": "address",
          "name": "_contractAddress",
          "type": "address"
        },
        {
          "indexed": false,
          "internalType": "uint256",
          "name": "_timestamp",
          "type": "uint256"
        }
      ],
      "name": "AgreementCreated",
      "type": "event"
    },
    {
      "stateMutability": "payable",
      "type": "fallback"
    },
    {
      "inputs": [],
      "name": "admin",
      "outputs": [
        {
          "internalType": "address",
          "name": "",
          "type": "address"
        }
      ],
      "stateMutability": "view",
      "type": "function"
    },
    {
      "inputs": [],
      "name": "agreementCount",
      "outputs": [
        {
          "internalType": "uint256",
          "name": "",
          "type": "uint256"
        }
      ],
      "stateMutability": "view",
      "type": "function"
    },
    {
      "inputs": [
        {
          "internalType": "address",
          "name": "",
          "type": "address"
        }
      ],
      "name": "agreementUri",
      "outputs": [
        {
          "internalType": "string",
          "name": "",
          "type": "string"
        }
      ],
      "stateMutability": "view",
      "type": "function"
    },
    {
      "inputs": [
        {
          "internalType": "uint256",
          "name": "",
          "type": "uint256"
        }
      ],
      "name": "agreements",
      "outputs": [
        {
          "internalType": "address",
          "name": "",
          "type": "address"
        }
      ],
      "stateMutability": "view",
      "type": "function"
    },
    {
      "inputs": [
        {
          "internalType": "uint256",
          "name": "",
          "type": "uint256"
        }
      ],
      "name": "agreementsData",
      "outputs": [
        {
          "internalType": "address",
          "name": "contractAddress",
          "type": "address"
        },
        {
          "internalType": "string",
          "name": "data",
          "type": "string"
        }
      ],
      "stateMutability": "view",
      "type": "function"
    },
    {
      "inputs": [
        {
          "internalType": "string",
          "name": "_agreementUri",
          "type": "string"
        },
        {
          "internalType": "uint256",
          "name": "_startsAt",
          "type": "uint256"
        },
        {
          "internalType": "string",
          "name": "_name",
          "type": "string"
        },
        {
          "internalType": "address",
          "name": "_secondParty",
          "type": "address"
        }
      ],
      "name": "createAgreement",
      "outputs": [],
      "stateMutability": "nonpayable",
      "type": "function"
    },
    {
      "inputs": [],
      "name": "getAllAgreements",
      "outputs": [
        {
          "components": [
            {
              "internalType": "address",
              "name": "contractAddress",
              "type": "address"
            },
            {
              "internalType": "string",
              "name": "data",
              "type": "string"
            }
          ],
          "internalType": "struct AskGPT.AgreementData[]",
          "name": "allAgreements",
          "type": "tuple[]"
        }
      ],
      "stateMutability": "view",
      "type": "function"
    },
    {
      "inputs": [
        {
          "internalType": "address",
          "name": "_creator",
          "type": "address"
        }
      ],
      "name": "getUserAgreements",
      "outputs": [
        {
          "components": [
            {
              "internalType": "address",
              "name": "contractAddress",
              "type": "address"
            },
            {
              "internalType": "string",
              "name": "data",
              "type": "string"
            }
          ],
          "internalType": "struct AskGPT.AgreementData[]",
          "name": "allCreatorAgreements",
          "type": "tuple[]"
        }
      ],
      "stateMutability": "view",
      "type": "function"
    },
    {
      "inputs": [],
      "name": "marketFee",
      "outputs": [
        {
          "internalType": "uint256",
          "name": "",
          "type": "uint256"
        }
      ],
      "stateMutability": "view",
      "type": "function"
    },
    {
      "inputs": [
        {
          "internalType": "uint256",
          "name": "_amount",
          "type": "uint256"
        }
      ],
      "name": "setMarketFee",
      "outputs": [],
      "stateMutability": "nonpayable",
      "type": "function"
    },
    {
      "inputs": [
        {
          "internalType": "address",
          "name": "",
          "type": "address"
        },
        {
          "internalType": "uint256",
          "name": "",
          "type": "uint256"
        }
      ],
      "name": "userAgreements",
      "outputs": [
        {
          "internalType": "uint256",
          "name": "",
          "type": "uint256"
        }
      ],
      "stateMutability": "view",
      "type": "function"
    },
    {
      "inputs": [],
      "name": "withdraw",
      "outputs": [],
      "stateMutability": "nonpayable",
      "type": "function"
    },
    {
      "stateMutability": "payable",
      "type": "receive"
    }
  ],
  "bytecode": "0x608060405260196000553480156200001657600080fd5b50604051620056893803806200568983398181016040528101906200003c9190620000dc565b33600260006101000a81548173ffffffffffffffffffffffffffffffffffffffff021916908373ffffffffffffffffffffffffffffffffffffffff16021790555080600360006101000a81548173ffffffffffffffffffffffffffffffffffffffff021916908373ffffffffffffffffffffffffffffffffffffffff1602179055505062000156565b600081519050620000d6816200013c565b92915050565b600060208284031215620000ef57600080fd5b6000620000ff84828501620000c5565b91505092915050565b600062000115826200011c565b9050919050565b600073ffffffffffffffffffffffffffffffffffffffff82169050919050565b620001478162000108565b81146200015357600080fd5b50565b61552380620001666000396000f3fe608060405260043610620000bb5760003560e01c806385c23f99116200006d57806385c23f9914620001df5780639f9019e91462000223578063adb9cae61462000268578063bb7bb27814620002ac578063bd14de9614620002dc578063f851a440146200032057620000c3565b80630ccf215614620000c557806322822a7714620000f557806326b825d214620001235780633ccfd60b14620001515780634c27984e146200016b5780634e6873c714620001af57620000c3565b36620000c357005b005b348015620000d257600080fd5b50620000dd62000350565b604051620000ec919062001658565b60405180910390f35b3480156200010257600080fd5b506200012160048036038101906200011b919062001234565b62000356565b005b3480156200013057600080fd5b506200014f6004803603810190620001499190620012d2565b620006b5565b005b3480156200015e57600080fd5b50620001696200075b565b005b3480156200017857600080fd5b50620001976004803603810190620001919190620011f3565b62000850565b604051620001a6919062001658565b60405180910390f35b348015620001bc57600080fd5b50620001c762000882565b604051620001d69190620015ee565b60405180910390f35b348015620001ec57600080fd5b506200020b6004803603810190620002059190620011c7565b62000aa7565b6040516200021a919062001612565b60405180910390f35b3480156200023057600080fd5b506200024f6004803603810190620002499190620012d2565b62000b4f565b6040516200025f9291906200158d565b60405180910390f35b3480156200027557600080fd5b506200029460048036038101906200028e9190620011c7565b62000c23565b604051620002a39190620015ee565b60405180910390f35b348015620002b957600080fd5b50620002c462000eff565b604051620002d3919062001658565b60405180910390f35b348015620002e957600080fd5b50620003086004803603810190620003029190620012d2565b62000f05565b604051620003179190620014b2565b60405180910390f35b3480156200032d57600080fd5b506200033862000f38565b604051620003479190620014b2565b60405180910390f35b60005481565b600160008154809291906200036b90620018c1565b919050555060006200037c62000f5e565b8260015487873088600054600260009054906101000a900473ffffffffffffffffffffffffffffffffffffffff16600360009054906101000a900473ffffffffffffffffffffffffffffffffffffffff16604051620003db9062001039565b620003f09a99989796959493929190620014cf565b604051809103906000f0801580156200040d573d6000803e3d6000fd5b50905084600660008373ffffffffffffffffffffffffffffffffffffffff1673ffffffffffffffffffffffffffffffffffffffff16815260200190815260200160002090805190602001906200046592919062001047565b508060046000600154815260200190815260200160002060006101000a81548173ffffffffffffffffffffffffffffffffffffffff021916908373ffffffffffffffffffffffffffffffffffffffff16021790555060405180604001604052808273ffffffffffffffffffffffffffffffffffffffff1681526020018681525060076000600154815260200190815260200160002060008201518160000160006101000a81548173ffffffffffffffffffffffffffffffffffffffff021916908373ffffffffffffffffffffffffffffffffffffffff16021790555060208201518160010190805190602001906200055f92919062001047565b50905050600560006200057162000f5e565b73ffffffffffffffffffffffffffffffffffffffff1673ffffffffffffffffffffffffffffffffffffffff1681526020019081526020016000206001549080600181540180825580915050600190039060005260206000200160009091909190915055600560008373ffffffffffffffffffffffffffffffffffffffff1673ffffffffffffffffffffffffffffffffffffffff16815260200190815260200160002060015490806001815401808255809150506001900390600052602060002001600090919091909150558173ffffffffffffffffffffffffffffffffffffffff166200065d62000f5e565b73ffffffffffffffffffffffffffffffffffffffff167ff3e9fb09d0520a320797dae1f1ec5bc12aacd22478b49f6e89c50a46c6a276198342604051620006a6929190620015c1565b60405180910390a35050505050565b600260009054906101000a900473ffffffffffffffffffffffffffffffffffffffff1673ffffffffffffffffffffffffffffffffffffffff16620006f862000f5e565b73ffffffffffffffffffffffffffffffffffffffff161462000751576040517f08c379a0000000000000000000000000000000000000000000000000000000008152600401620007489062001636565b60405180910390fd5b8060008190555050565b600260009054906101000a900473ffffffffffffffffffffffffffffffffffffffff1673ffffffffffffffffffffffffffffffffffffffff166200079e62000f5e565b73ffffffffffffffffffffffffffffffffffffffff1614620007f7576040517f08c379a0000000000000000000000000000000000000000000000000000000008152600401620007ee9062001636565b60405180910390fd5b60006200080362000f5e565b90508073ffffffffffffffffffffffffffffffffffffffff166108fc479081150290604051600060405180830381858888f193505050501580156200084c573d6000803e3d6000fd5b5050565b600560205281600052604060002081815481106200086d57600080fd5b90600052602060002001600091509150505481565b6060600060015467ffffffffffffffff811115620008c9577f4e487b7100000000000000000000000000000000000000000000000000000000600052604160045260246000fd5b6040519080825280602002602001820160405280156200090657816020015b620008f2620010d8565b815260200190600190039081620008e85790505b5090506000600190505b600180546200092091906200173a565b81101562000a9f57600760008281526020019081526020016000206040518060400160405290816000820160009054906101000a900473ffffffffffffffffffffffffffffffffffffffff1673ffffffffffffffffffffffffffffffffffffffff1673ffffffffffffffffffffffffffffffffffffffff168152602001600182018054620009ae9062001855565b80601f0160208091040260200160405190810160405280929190818152602001828054620009dc9062001855565b801562000a2d5780601f1062000a015761010080835404028352916020019162000a2d565b820191906000526020600020905b81548152906001019060200180831162000a0f57829003601f168201915b5050505050815250508260018362000a46919062001797565b8151811062000a7e577f4e487b7100000000000000000000000000000000000000000000000000000000600052603260045260246000fd5b6020026020010181905250808062000a9690620018c1565b91505062000910565b508091505090565b6006602052806000526040600020600091509050805462000ac89062001855565b80601f016020809104026020016040519081016040528092919081815260200182805462000af69062001855565b801562000b475780601f1062000b1b5761010080835404028352916020019162000b47565b820191906000526020600020905b81548152906001019060200180831162000b2957829003601f168201915b505050505081565b60076020528060005260406000206000915090508060000160009054906101000a900473ffffffffffffffffffffffffffffffffffffffff169080600101805462000b9a9062001855565b80601f016020809104026020016040519081016040528092919081815260200182805462000bc89062001855565b801562000c195780601f1062000bed5761010080835404028352916020019162000c19565b820191906000526020600020905b81548152906001019060200180831162000bfb57829003601f168201915b5050505050905082565b60606000600560008473ffffffffffffffffffffffffffffffffffffffff1673ffffffffffffffffffffffffffffffffffffffff16815260200190815260200160002080548060200260200160405190810160405280929190818152602001828054801562000cb257602002820191906000526020600020905b81548152602001906001019080831162000c9d575b505050505090506000815167ffffffffffffffff81111562000cfd577f4e487b7100000000000000000000000000000000000000000000000000000000600052604160045260246000fd5b60405190808252806020026020018201604052801562000d3a57816020015b62000d26620010d8565b81526020019060019003908162000d1c5790505b50905060005b825181101562000ef4576007600084838151811062000d88577f4e487b7100000000000000000000000000000000000000000000000000000000600052603260045260246000fd5b602002602001015181526020019081526020016000206040518060400160405290816000820160009054906101000a900473ffffffffffffffffffffffffffffffffffffffff1673ffffffffffffffffffffffffffffffffffffffff1673ffffffffffffffffffffffffffffffffffffffff16815260200160018201805462000e119062001855565b80601f016020809104026020016040519081016040528092919081815260200182805462000e3f9062001855565b801562000e905780601f1062000e645761010080835404028352916020019162000e90565b820191906000526020600020905b81548152906001019060200180831162000e7257829003601f168201915b50505050508152505082828151811062000ed3577f4e487b7100000000000000000000000000000000000000000000000000000000600052603260045260246000fd5b6020026020010181905250808062000eeb90620018c1565b91505062000d40565b508092505050919050565b60015481565b60046020528060005260406000206000915054906101000a900473ffffffffffffffffffffffffffffffffffffffff1681565b600260009054906101000a900473ffffffffffffffffffffffffffffffffffffffff1681565b6000600360009054906101000a900473ffffffffffffffffffffffffffffffffffffffff1673ffffffffffffffffffffffffffffffffffffffff163373ffffffffffffffffffffffffffffffffffffffff1614156200102c57600080368080601f016020809104026020016040519081016040528093929190818152602001838380828437600081840152601f19601f820116905080830192505050505050509050600080369050905073ffffffffffffffffffffffffffffffffffffffff81830151169250505062001035565b33905062001036565b5b90565b613ae38062001a0b83390190565b828054620010559062001855565b90600052602060002090601f016020900481019282620010795760008555620010c5565b82601f106200109457805160ff1916838001178555620010c5565b82800160010185558215620010c5579182015b82811115620010c4578251825591602001919060010190620010a7565b5b509050620010d4919062001108565b5090565b6040518060400160405280600073ffffffffffffffffffffffffffffffffffffffff168152602001606081525090565b5b808211156200112357600081600090555060010162001109565b5090565b60006200113e62001138846200169e565b62001675565b9050828152602081018484840111156200115757600080fd5b6200116484828562001810565b509392505050565b6000813590506200117d81620019d6565b92915050565b600082601f8301126200119557600080fd5b8135620011a784826020860162001127565b91505092915050565b600081359050620011c181620019f0565b92915050565b600060208284031215620011da57600080fd5b6000620011ea848285016200116c565b91505092915050565b600080604083850312156200120757600080fd5b600062001217858286016200116c565b92505060206200122a85828601620011b0565b9150509250929050565b600080600080608085870312156200124b57600080fd5b600085013567ffffffffffffffff8111156200126657600080fd5b620012748782880162001183565b94505060206200128787828801620011b0565b935050604085013567ffffffffffffffff811115620012a557600080fd5b620012b38782880162001183565b9250506060620012c6878288016200116c565b91505092959194509250565b600060208284031215620012e557600080fd5b6000620012f584828501620011b0565b91505092915050565b60006200130c838362001460565b905092915050565b6200131f81620017d2565b82525050565b6200133081620017d2565b82525050565b60006200134382620016e4565b6200134f818562001707565b9350836020820285016200136385620016d4565b8060005b85811015620013a55784840389528151620013838582620012fe565b94506200139083620016fa565b925060208a0199505060018101905062001367565b50829750879550505050505092915050565b6000620013c482620016ef565b620013d0818562001718565b9350620013e28185602086016200181f565b620013ed816200199c565b840191505092915050565b60006200140582620016ef565b62001411818562001729565b9350620014238185602086016200181f565b6200142e816200199c565b840191505092915050565b600062001448600e8362001729565b91506200145582620019ad565b602082019050919050565b60006040830160008301516200147a600086018262001314565b5060208301518482036020860152620014948282620013b7565b9150508091505092915050565b620014ac8162001806565b82525050565b6000602082019050620014c9600083018462001325565b92915050565b600061014082019050620014e7600083018d62001325565b620014f6602083018c62001325565b62001505604083018b620014a1565b818103606083015262001519818a620013f8565b90506200152a6080830189620014a1565b6200153960a083018862001325565b81810360c08301526200154d8187620013f8565b90506200155e60e0830186620014a1565b6200156e61010083018562001325565b6200157e61012083018462001325565b9b9a5050505050505050505050565b6000604082019050620015a4600083018562001325565b8181036020830152620015b88184620013f8565b90509392505050565b6000604082019050620015d8600083018562001325565b620015e76020830184620014a1565b9392505050565b600060208201905081810360008301526200160a818462001336565b905092915050565b600060208201905081810360008301526200162e8184620013f8565b905092915050565b60006020820190508181036000830152620016518162001439565b9050919050565b60006020820190506200166f6000830184620014a1565b92915050565b60006200168162001694565b90506200168f82826200188b565b919050565b6000604051905090565b600067ffffffffffffffff821115620016bc57620016bb6200196d565b5b620016c7826200199c565b9050602081019050919050565b6000819050602082019050919050565b600081519050919050565b600081519050919050565b6000602082019050919050565b600082825260208201905092915050565b600082825260208201905092915050565b600082825260208201905092915050565b6000620017478262001806565b9150620017548362001806565b9250827fffffffffffffffffffffffffffffffffffffffffffffffffffffffffffffffff038211156200178c576200178b6200190f565b5b828201905092915050565b6000620017a48262001806565b9150620017b18362001806565b925082821015620017c757620017c66200190f565b5b828203905092915050565b6000620017df82620017e6565b9050919050565b600073ffffffffffffffffffffffffffffffffffffffff82169050919050565b6000819050919050565b82818337600083830152505050565b60005b838110156200183f57808201518184015260208101905062001822565b838111156200184f576000848401525b50505050565b600060028204905060018216806200186e57607f821691505b602082108114156200188557620018846200193e565b5b50919050565b62001896826200199c565b810181811067ffffffffffffffff82111715620018b857620018b76200196d565b5b80604052505050565b6000620018ce8262001806565b91507fffffffffffffffffffffffffffffffffffffffffffffffffffffffffffffffff8214156200190457620019036200190f565b5b600182019050919050565b7f4e487b7100000000000000000000000000000000000000000000000000000000600052601160045260246000fd5b7f4e487b7100000000000000000000000000000000000000000000000000000000600052602260045260246000fd5b7f4e487b7100000000000000000000000000000000000000000000000000000000600052604160045260246000fd5b6000601f19601f8301169050919050565b7f4e6f74207468652061646d696e21000000000000000000000000000000000000600082015250565b620019e181620017d2565b8114620019ed57600080fd5b50565b620019fb8162001806565b811462001a0757600080fd5b5056fe60806040523480156200001157600080fd5b5060405162003ae338038062003ae3833981810160405281019062000037919062000323565b8760068190555081600360006101000a81548173ffffffffffffffffffffffffffffffffffffffff021916908373ffffffffffffffffffffffffffffffffffffffff16021790555089600460006101000a81548173ffffffffffffffffffffffffffffffffffffffff021916908373ffffffffffffffffffffffffffffffffffffffff16021790555088600560006101000a81548173ffffffffffffffffffffffffffffffffffffffff021916908373ffffffffffffffffffffffffffffffffffffffff160217905550866007908051906020019062000119929190620001d3565b508560088190555084600260006101000a81548173ffffffffffffffffffffffffffffffffffffffff021916908373ffffffffffffffffffffffffffffffffffffffff16021790555083600090805190602001906200017a929190620001d3565b508260018190555080600c60006101000a81548173ffffffffffffffffffffffffffffffffffffffff021916908373ffffffffffffffffffffffffffffffffffffffff1602179055505050505050505050505062000627565b828054620001e19062000518565b90600052602060002090601f01602090048101928262000205576000855562000251565b82601f106200022057805160ff191683800117855562000251565b8280016001018555821562000251579182015b828111156200025057825182559160200191906001019062000233565b5b50905062000260919062000264565b5090565b5b808211156200027f57600081600090555060010162000265565b5090565b60006200029a62000294846200046e565b62000445565b905082815260208101848484011115620002b357600080fd5b620002c0848285620004e2565b509392505050565b600081519050620002d981620005f3565b92915050565b600082601f830112620002f157600080fd5b81516200030384826020860162000283565b91505092915050565b6000815190506200031d816200060d565b92915050565b6000806000806000806000806000806101408b8d0312156200034457600080fd5b6000620003548d828e01620002c8565b9a50506020620003678d828e01620002c8565b99505060406200037a8d828e016200030c565b98505060608b015167ffffffffffffffff8111156200039857600080fd5b620003a68d828e01620002df565b9750506080620003b98d828e016200030c565b96505060a0620003cc8d828e01620002c8565b95505060c08b015167ffffffffffffffff811115620003ea57600080fd5b620003f88d828e01620002df565b94505060e06200040b8d828e016200030c565b9350506101006200041f8d828e01620002c8565b925050610120620004338d828e01620002c8565b9150509295989b9194979a5092959850565b60006200045162000464565b90506200045f82826200054e565b919050565b6000604051905090565b600067ffffffffffffffff8211156200048c576200048b620005b3565b5b6200049782620005e2565b9050602081019050919050565b6000620004b182620004b8565b9050919050565b600073ffffffffffffffffffffffffffffffffffffffff82169050919050565b6000819050919050565b60005b8381101562000502578082015181840152602081019050620004e5565b8381111562000512576000848401525b50505050565b600060028204905060018216806200053157607f821691505b6020821081141562000548576200054762000584565b5b50919050565b6200055982620005e2565b810181811067ffffffffffffffff821117156200057b576200057a620005b3565b5b80604052505050565b7f4e487b7100000000000000000000000000000000000000000000000000000000600052602260045260246000fd5b7f4e487b7100000000000000000000000000000000000000000000000000000000600052604160045260246000fd5b6000601f19601f8301169050919050565b620005fe81620004a4565b81146200060a57600080fd5b50565b6200061881620004d8565b81146200062457600080fd5b50565b6134ac80620006376000396000f3fe6080604052600436106100e75760003560e01c806397926fc81161008a578063c8a3e04e11610059578063c8a3e04e14610285578063e36bd0f3146102ae578063e7ca9969146102ee578063e89e4ed614610319576100e7565b806397926fc81461020d5780639f4a23ba14610236578063bb6e7de914610252578063c438b40f14610269576100e7565b80635de988ab116100c65780635de988ab146101695780636b9080c11461019257806373a482e9146101c85780637d60631e146101e4576100e7565b8062e6652a146100ec5780635c43dd99146101155780635cdb464214610140575b600080fd5b3480156100f857600080fd5b50610113600480360381019061010e919061268e565b61035c565b005b34801561012157600080fd5b5061012a61068c565b6040516101379190612ba4565b60405180910390f35b34801561014c57600080fd5b506101676004803603810190610162919061268e565b61093d565b005b34801561017557600080fd5b50610190600480360381019061018b91906125d2565b610ba4565b005b34801561019e57600080fd5b506101a7610db1565b6040516101bf9c9b9a99989796959493929190612adc565b60405180910390f35b6101e260048036038101906101dd91906125d2565b610f83565b005b3480156101f057600080fd5b5061020b60048036038101906102069190612553565b611230565b005b34801561021957600080fd5b50610234600480360381019061022f91906125d2565b61146b565b005b610250600480360381019061024b91906125d2565b611668565b005b34801561025e57600080fd5b50610267611949565b005b610283600480360381019061027e91906125d2565b611a2e565b005b34801561029157600080fd5b506102ac60048036038101906102a791906125fb565b611d19565b005b3480156102ba57600080fd5b506102d560048036038101906102d091906125d2565b611f97565b6040516102e59493929190612e27565b60405180910390f35b3480156102fa57600080fd5b50610303611fd4565b6040516103109190612bc6565b60405180910390f35b34801561032557600080fd5b50610340600480360381019061033b91906125d2565b612135565b6040516103539796959493929190612d81565b60405180910390f35b600460009054906101000a900473ffffffffffffffffffffffffffffffffffffffff1673ffffffffffffffffffffffffffffffffffffffff1661039d6122ae565b73ffffffffffffffffffffffffffffffffffffffff1614806104135750600360009054906101000a900473ffffffffffffffffffffffffffffffffffffffff1673ffffffffffffffffffffffffffffffffffffffff166103fb6122ae565b73ffffffffffffffffffffffffffffffffffffffff16145b610452576040517f08c379a000000000000000000000000000000000000000000000000000000000815260040161044990612c46565b60405180910390fd5b600060095414610497576040517f08c379a000000000000000000000000000000000000000000000000000000000815260040161048e90612c26565b60405180910390fd5b600d600083815260200190815260200160002060040160009054906101000a900460ff166104fa576040517f08c379a00000000000000000000000000000000000000000000000000000000081526004016104f190612ca6565b60405180910390fd5b600d600083815260200190815260200160002060040160029054906101000a900460ff161561055e576040517f08c379a000000000000000000000000000000000000000000000000000000000815260040161055590612c86565b60405180910390fd5b600d6000838152602001908152602001600020600201548111156105b7576040517f08c379a00000000000000000000000000000000000000000000000000000000081526004016105ae90612cc6565b60405180910390fd5b600b60008154809291906105ca90613163565b91905055506040518060800160405280600b54815260200183815260200182815260200160001515815250600e6000600b54815260200190815260200160002060008201518160000155602082015181600101556040820151816002015560608201518160030160006101000a81548160ff02191690831515021790555090505081600b547f7918bd36c203935800793ba10c13259100530473ba726ee3a8d0bfbf49daeeab8342604051610680929190612dfe565b60405180910390a35050565b60606000600a5467ffffffffffffffff8111156106d2577f4e487b7100000000000000000000000000000000000000000000000000000000600052604160045260246000fd5b60405190808252806020026020018201604052801561070b57816020015b6106f8612386565b8152602001906001900390816106f05790505b5090506000600190505b6001600a546107249190612f61565b81101561093557600d60008281526020019081526020016000206040518060e00160405290816000820154815260200160018201805461076390613100565b80601f016020809104026020016040519081016040528092919081815260200182805461078f90613100565b80156107dc5780601f106107b1576101008083540402835291602001916107dc565b820191906000526020600020905b8154815290600101906020018083116107bf57829003601f168201915b50505050508152602001600282015481526020016003820180546107ff90613100565b80601f016020809104026020016040519081016040528092919081815260200182805461082b90613100565b80156108785780601f1061084d57610100808354040283529160200191610878565b820191906000526020600020905b81548152906001019060200180831161085b57829003601f168201915b505050505081526020016004820160009054906101000a900460ff161515151581526020016004820160019054906101000a900460ff161515151581526020016004820160029054906101000a900460ff161515151581525050826001836108e09190613042565b81518110610917577f4e487b7100000000000000000000000000000000000000000000000000000000600052603260045260246000fd5b6020026020010181905250808061092d90613163565b915050610715565b508091505090565b600460009054906101000a900473ffffffffffffffffffffffffffffffffffffffff1673ffffffffffffffffffffffffffffffffffffffff1661097e6122ae565b73ffffffffffffffffffffffffffffffffffffffff1614806109f45750600360009054906101000a900473ffffffffffffffffffffffffffffffffffffffff1673ffffffffffffffffffffffffffffffffffffffff166109dc6122ae565b73ffffffffffffffffffffffffffffffffffffffff16145b610a33576040517f08c379a0000000000000000000000000000000000000000000000000000000008152600401610a2a90612c46565b60405180910390fd5b600060095414610a78576040517f08c379a0000000000000000000000000000000000000000000000000000000008152600401610a6f90612c26565b60405180910390fd5b600e600083815260200190815260200160002060030160009054906101000a900460ff1615610adc576040517f08c379a0000000000000000000000000000000000000000000000000000000008152600401610ad390612d06565b60405180910390fd5b600d6000600e600085815260200190815260200160002060010154815260200190815260200160002060020154811115610b4b576040517f08c379a0000000000000000000000000000000000000000000000000000000008152600401610b4290612cc6565b60405180910390fd5b80600e600084815260200190815260200160002060020181905550817fd35e4a11544ca6df55d52949c95edc0f59ce2714fd227da3726a92457b09a38c8242604051610b98929190612dfe565b60405180910390a25050565b600560009054906101000a900473ffffffffffffffffffffffffffffffffffffffff1673ffffffffffffffffffffffffffffffffffffffff16610be56122ae565b73ffffffffffffffffffffffffffffffffffffffff1614610c3b576040517f08c379a0000000000000000000000000000000000000000000000000000000008152600401610c3290612c66565b60405180910390fd5b600060095414610c80576040517f08c379a0000000000000000000000000000000000000000000000000000000008152600401610c7790612c26565b60405180910390fd5b600d600082815260200190815260200160002060040160009054906101000a900460ff16610ce3576040517f08c379a0000000000000000000000000000000000000000000000000000000008152600401610cda90612ca6565b60405180910390fd5b600d600082815260200190815260200160002060040160029054906101000a900460ff1615610d47576040517f08c379a0000000000000000000000000000000000000000000000000000000008152600401610d3e90612c86565b60405180910390fd5b6001600d600083815260200190815260200160002060040160016101000a81548160ff021916908315150217905550807fcaf49e218dd72f80b847b963b0a3f9b56254f688513253fe99b456e6311c1fb942604051610da69190612d66565b60405180910390a250565b6000806000606060008060008060006060600080600460009054906101000a900473ffffffffffffffffffffffffffffffffffffffff16600560009054906101000a900473ffffffffffffffffffffffffffffffffffffffff16600654600760085460095447600a54600b546000600154600360009054906101000a900473ffffffffffffffffffffffffffffffffffffffff16888054610e5190613100565b80601f0160208091040260200160405190810160405280929190818152602001828054610e7d90613100565b8015610eca5780601f10610e9f57610100808354040283529160200191610eca565b820191906000526020600020905b815481529060010190602001808311610ead57829003601f168201915b50505050509850828054610edd90613100565b80601f0160208091040260200160405190810160405280929190818152602001828054610f0990613100565b8015610f565780601f10610f2b57610100808354040283529160200191610f56565b820191906000526020600020905b815481529060010190602001808311610f3957829003601f168201915b505050505092509b509b509b509b509b509b509b509b509b509b509b509b50909192939495969798999a9b565b600460009054906101000a900473ffffffffffffffffffffffffffffffffffffffff1673ffffffffffffffffffffffffffffffffffffffff16610fc46122ae565b73ffffffffffffffffffffffffffffffffffffffff161461101a576040517f08c379a000000000000000000000000000000000000000000000000000000000815260040161101190612d46565b60405180910390fd5b60006009541461105f576040517f08c379a000000000000000000000000000000000000000000000000000000000815260040161105690612c26565b60405180910390fd5b60006103e8600154600d6000858152602001908152602001600020600201546110889190612fe8565b6110929190612fb7565b9050600d600083815260200190815260200160002060040160009054906101000a900460ff16156110f8576040517f08c379a00000000000000000000000000000000000000000000000000000000081526004016110ef90612d26565b60405180910390fd5b80600d60008481526020019081526020016000206002015461111a9190612f61565b34101561115c576040517f08c379a000000000000000000000000000000000000000000000000000000000815260040161115390612ce6565b60405180910390fd5b600260009054906101000a900473ffffffffffffffffffffffffffffffffffffffff1673ffffffffffffffffffffffffffffffffffffffff166108fc829081150290604051600060405180830381858888f193505050501580156111c4573d6000803e3d6000fd5b506001600d600084815260200190815260200160002060040160006101000a81548160ff021916908315150217905550817fad6f5443f0021bc2808ac5204f3c96a037dc9406ec9bfdf92a8e81539f04c605426040516112249190612d66565b60405180910390a25050565b600460009054906101000a900473ffffffffffffffffffffffffffffffffffffffff1673ffffffffffffffffffffffffffffffffffffffff166112716122ae565b73ffffffffffffffffffffffffffffffffffffffff16146112c7576040517f08c379a00000000000000000000000000000000000000000000000000000000081526004016112be90612d46565b60405180910390fd5b60006009541461130c576040517f08c379a000000000000000000000000000000000000000000000000000000000815260040161130390612c26565b60405180910390fd5b600a600081548092919061131f90613163565b91905055506040518060e00160405280600a54815260200184815260200183815260200182815260200160001515815260200160001515815260200160001515815250600d6000600a54815260200190815260200160002060008201518160000155602082015181600101908051906020019061139d9291906123c9565b506040820151816002015560608201518160030190805190602001906113c49291906123c9565b5060808201518160040160006101000a81548160ff02191690831515021790555060a08201518160040160016101000a81548160ff02191690831515021790555060c08201518160040160026101000a81548160ff021916908315150217905550905050600a547f6df4a40f54ddbc024cc4e985b8fa77b24d3b18ae73fe8d9444beaed8682ff0f384844260405161145e93929190612be8565b60405180910390a2505050565b600460009054906101000a900473ffffffffffffffffffffffffffffffffffffffff1673ffffffffffffffffffffffffffffffffffffffff166114ac6122ae565b73ffffffffffffffffffffffffffffffffffffffff1614611502576040517f08c379a00000000000000000000000000000000000000000000000000000000081526004016114f990612d46565b60405180910390fd5b600060095414611547576040517f08c379a000000000000000000000000000000000000000000000000000000000815260040161153e90612c26565b60405180910390fd5b600d600082815260200190815260200160002060040160009054906101000a900460ff16156115ab576040517f08c379a00000000000000000000000000000000000000000000000000000000081526004016115a290612d26565b60405180910390fd5b600d60008281526020019081526020016000206000808201600090556001820160006115d7919061244f565b60028201600090556003820160006115ef919061244f565b6004820160006101000a81549060ff02191690556004820160016101000a81549060ff02191690556004820160026101000a81549060ff02191690555050807f846ab9b254edc77fe46806b496d2efb2f0f0f1c7338a82ee13d93ceb37152d2a4260405161165d9190612d66565b60405180910390a250565b600360009054906101000a900473ffffffffffffffffffffffffffffffffffffffff1673ffffffffffffffffffffffffffffffffffffffff166116a96122ae565b73ffffffffffffffffffffffffffffffffffffffff16148061171f5750600560009054906101000a900473ffffffffffffffffffffffffffffffffffffffff1673ffffffffffffffffffffffffffffffffffffffff166117076122ae565b73ffffffffffffffffffffffffffffffffffffffff16145b61175e576040517f08c379a000000000000000000000000000000000000000000000000000000000815260040161175590612c46565b60405180910390fd5b6000600954146117a3576040517f08c379a000000000000000000000000000000000000000000000000000000000815260040161179a90612c26565b60405180910390fd5b600e600082815260200190815260200160002060030160009054906101000a900460ff1615611807576040517f08c379a00000000000000000000000000000000000000000000000000000000081526004016117fe90612d06565b60405180910390fd5b6001600e600083815260200190815260200160002060030160006101000a81548160ff021916908315150217905550600e600082815260200190815260200160002060020154600d6000600e600085815260200190815260200160002060010154815260200190815260200160002060020160008282546118889190613042565b92505081905550600460009054906101000a900473ffffffffffffffffffffffffffffffffffffffff1673ffffffffffffffffffffffffffffffffffffffff166108fc600e6000848152602001908152602001600020600201549081150290604051600060405180830381858888f1935050505015801561190d573d6000803e3d6000fd5b50807f4ce0986d74e104c2d3d9c6f307178d94afd5abaf7ccf6658a17fac5a5718a8f24260405161193e9190612d66565b60405180910390a250565b600460009054906101000a900473ffffffffffffffffffffffffffffffffffffffff1673ffffffffffffffffffffffffffffffffffffffff1661198a6122ae565b73ffffffffffffffffffffffffffffffffffffffff16146119e0576040517f08c379a00000000000000000000000000000000000000000000000000000000081526004016119d790612d46565b60405180910390fd5b600060095414611a25576040517f08c379a0000000000000000000000000000000000000000000000000000000008152600401611a1c90612c26565b60405180910390fd5b42600981905550565b600460009054906101000a900473ffffffffffffffffffffffffffffffffffffffff1673ffffffffffffffffffffffffffffffffffffffff16611a6f6122ae565b73ffffffffffffffffffffffffffffffffffffffff161480611ae55750600360009054906101000a900473ffffffffffffffffffffffffffffffffffffffff1673ffffffffffffffffffffffffffffffffffffffff16611acd6122ae565b73ffffffffffffffffffffffffffffffffffffffff16145b611b24576040517f08c379a0000000000000000000000000000000000000000000000000000000008152600401611b1b90612c46565b60405180910390fd5b600060095414611b69576040517f08c379a0000000000000000000000000000000000000000000000000000000008152600401611b6090612c26565b60405180910390fd5b600d600082815260200190815260200160002060040160009054906101000a900460ff16611bcc576040517f08c379a0000000000000000000000000000000000000000000000000000000008152600401611bc390612ca6565b60405180910390fd5b600d600082815260200190815260200160002060040160029054906101000a900460ff1615611c30576040517f08c379a0000000000000000000000000000000000000000000000000000000008152600401611c2790612c86565b60405180910390fd5b6001600d600083815260200190815260200160002060040160026101000a81548160ff021916908315150217905550600560009054906101000a900473ffffffffffffffffffffffffffffffffffffffff1673ffffffffffffffffffffffffffffffffffffffff166108fc600d6000848152602001908152602001600020600201549081150290604051600060405180830381858888f19350505050158015611cdd573d6000803e3d6000fd5b50807f939da3b627c123c81fe5aacebf925163337a0d4f8a03724640618078cad2489442604051611d0e9190612d66565b60405180910390a250565b600460009054906101000a900473ffffffffffffffffffffffffffffffffffffffff1673ffffffffffffffffffffffffffffffffffffffff16611d5a6122ae565b73ffffffffffffffffffffffffffffffffffffffff1614611db0576040517f08c379a0000000000000000000000000000000000000000000000000000000008152600401611da790612d46565b60405180910390fd5b600060095414611df5576040517f08c379a0000000000000000000000000000000000000000000000000000000008152600401611dec90612c26565b60405180910390fd5b600d600085815260200190815260200160002060040160009054906101000a900460ff1615611e59576040517f08c379a0000000000000000000000000000000000000000000000000000000008152600401611e5090612d26565b60405180910390fd5b6040518060e0016040528085815260200184815260200183815260200182815260200160001515815260200160001515815260200160001515815250600d6000868152602001908152602001600020600082015181600001556020820151816001019080519060200190611ece9291906123c9565b50604082015181600201556060820151816003019080519060200190611ef59291906123c9565b5060808201518160040160006101000a81548160ff02191690831515021790555060a08201518160040160016101000a81548160ff02191690831515021790555060c08201518160040160026101000a81548160ff021916908315150217905550905050837f03ba09f38b23ad2697f2c208e0c31023842b2f3da43982784195f20216b2291f42604051611f899190612d66565b60405180910390a250505050565b600e6020528060005260406000206000915090508060000154908060010154908060020154908060030160009054906101000a900460ff16905084565b60606000600b5467ffffffffffffffff81111561201a577f4e487b7100000000000000000000000000000000000000000000000000000000600052604160045260246000fd5b60405190808252806020026020018201604052801561205357816020015b61204061248f565b8152602001906001900390816120385790505b5090506000600190505b6001600b5461206c9190612f61565b81101561212d57600e60008281526020019081526020016000206040518060800160405290816000820154815260200160018201548152602001600282015481526020016003820160009054906101000a900460ff161515151581525050826001836120d89190613042565b8151811061210f577f4e487b7100000000000000000000000000000000000000000000000000000000600052603260045260246000fd5b6020026020010181905250808061212590613163565b91505061205d565b508091505090565b600d60205280600052604060002060009150905080600001549080600101805461215e90613100565b80601f016020809104026020016040519081016040528092919081815260200182805461218a90613100565b80156121d75780601f106121ac576101008083540402835291602001916121d7565b820191906000526020600020905b8154815290600101906020018083116121ba57829003601f168201915b5050505050908060020154908060030180546121f290613100565b80601f016020809104026020016040519081016040528092919081815260200182805461221e90613100565b801561226b5780601f106122405761010080835404028352916020019161226b565b820191906000526020600020905b81548152906001019060200180831161224e57829003601f168201915b5050505050908060040160009054906101000a900460ff16908060040160019054906101000a900460ff16908060040160029054906101000a900460ff16905087565b6000600c60009054906101000a900473ffffffffffffffffffffffffffffffffffffffff1673ffffffffffffffffffffffffffffffffffffffff163373ffffffffffffffffffffffffffffffffffffffff16141561237a57600080368080601f016020809104026020016040519081016040528093929190818152602001838380828437600081840152601f19601f820116905080830192505050505050509050600080369050905073ffffffffffffffffffffffffffffffffffffffff818301511692505050612382565b339050612383565b5b90565b6040518060e00160405280600081526020016060815260200160008152602001606081526020016000151581526020016000151581526020016000151581525090565b8280546123d590613100565b90600052602060002090601f0160209004810192826123f7576000855561243e565b82601f1061241057805160ff191683800117855561243e565b8280016001018555821561243e579182015b8281111561243d578251825591602001919060010190612422565b5b50905061244b91906124b9565b5090565b50805461245b90613100565b6000825580601f1061246d575061248c565b601f01602090049060005260206000209081019061248b91906124b9565b5b50565b60405180608001604052806000815260200160008152602001600081526020016000151581525090565b5b808211156124d25760008160009055506001016124ba565b5090565b60006124e96124e484612e91565b612e6c565b90508281526020810184848401111561250157600080fd5b61250c8482856130be565b509392505050565b600082601f83011261252557600080fd5b81356125358482602086016124d6565b91505092915050565b60008135905061254d8161345f565b92915050565b60008060006060848603121561256857600080fd5b600084013567ffffffffffffffff81111561258257600080fd5b61258e86828701612514565b935050602061259f8682870161253e565b925050604084013567ffffffffffffffff8111156125bc57600080fd5b6125c886828701612514565b9150509250925092565b6000602082840312156125e457600080fd5b60006125f28482850161253e565b91505092915050565b6000806000806080858703121561261157600080fd5b600061261f8782880161253e565b945050602085013567ffffffffffffffff81111561263c57600080fd5b61264887828801612514565b93505060406126598782880161253e565b925050606085013567ffffffffffffffff81111561267657600080fd5b61268287828801612514565b91505092959194509250565b600080604083850312156126a157600080fd5b60006126af8582860161253e565b92505060206126c08582860161253e565b9150509250929050565b60006126d683836129c6565b905092915050565b60006126ea8383612a69565b60808301905092915050565b6126ff81613076565b82525050565b600061271082612ee2565b61271a8185612f1d565b93508360208202850161272c85612ec2565b8060005b85811015612768578484038952815161274985826126ca565b945061275483612f03565b925060208a01995050600181019050612730565b50829750879550505050505092915050565b600061278582612eed565b61278f8185612f2e565b935061279a83612ed2565b8060005b838110156127cb5781516127b288826126de565b97506127bd83612f10565b92505060018101905061279e565b5085935050505092915050565b6127e181613088565b82525050565b6127f081613088565b82525050565b600061280182612ef8565b61280b8185612f3f565b935061281b8185602086016130cd565b61282481613268565b840191505092915050565b600061283a82612ef8565b6128448185612f50565b93506128548185602086016130cd565b61285d81613268565b840191505092915050565b6000612875601383612f50565b915061288082613279565b602082019050919050565b6000612898601983612f50565b91506128a3826132a2565b602082019050919050565b60006128bb601183612f50565b91506128c6826132cb565b602082019050919050565b60006128de601b83612f50565b91506128e9826132f4565b602082019050919050565b6000612901601783612f50565b915061290c8261331d565b602082019050919050565b6000612924603a83612f50565b915061292f82613346565b604082019050919050565b6000612947603783612f50565b915061295282613395565b604082019050919050565b600061296a601983612f50565b9150612975826133e4565b602082019050919050565b600061298d601983612f50565b91506129988261340d565b602082019050919050565b60006129b0601083612f50565b91506129bb82613436565b602082019050919050565b600060e0830160008301516129de6000860182612abe565b50602083015184820360208601526129f682826127f6565b9150506040830151612a0b6040860182612abe565b5060608301518482036060860152612a2382826127f6565b9150506080830151612a3860808601826127d8565b5060a0830151612a4b60a08601826127d8565b5060c0830151612a5e60c08601826127d8565b508091505092915050565b608082016000820151612a7f6000850182612abe565b506020820151612a926020850182612abe565b506040820151612aa56040850182612abe565b506060820151612ab860608501826127d8565b50505050565b612ac7816130b4565b82525050565b612ad6816130b4565b82525050565b600061018082019050612af2600083018f6126f6565b612aff602083018e6126f6565b612b0c604083018d612acd565b8181036060830152612b1e818c61282f565b9050612b2d608083018b612acd565b612b3a60a083018a612acd565b612b4760c0830189612acd565b612b5460e0830188612acd565b612b62610100830187612acd565b818103610120830152612b75818661282f565b9050612b85610140830185612acd565b612b936101608301846126f6565b9d9c50505050505050505050505050565b60006020820190508181036000830152612bbe8184612705565b905092915050565b60006020820190508181036000830152612be0818461277a565b905092915050565b60006060820190508181036000830152612c02818661282f565b9050612c116020830185612acd565b612c1e6040830184612acd565b949350505050565b60006020820190508181036000830152612c3f81612868565b9050919050565b60006020820190508181036000830152612c5f8161288b565b9050919050565b60006020820190508181036000830152612c7f816128ae565b9050919050565b60006020820190508181036000830152612c9f816128d1565b9050919050565b60006020820190508181036000830152612cbf816128f4565b9050919050565b60006020820190508181036000830152612cdf81612917565b9050919050565b60006020820190508181036000830152612cff8161293a565b9050919050565b60006020820190508181036000830152612d1f8161295d565b9050919050565b60006020820190508181036000830152612d3f81612980565b9050919050565b60006020820190508181036000830152612d5f816129a3565b9050919050565b6000602082019050612d7b6000830184612acd565b92915050565b600060e082019050612d96600083018a612acd565b8181036020830152612da8818961282f565b9050612db76040830188612acd565b8181036060830152612dc9818761282f565b9050612dd860808301866127e7565b612de560a08301856127e7565b612df260c08301846127e7565b98975050505050505050565b6000604082019050612e136000830185612acd565b612e206020830184612acd565b9392505050565b6000608082019050612e3c6000830187612acd565b612e496020830186612acd565b612e566040830185612acd565b612e6360608301846127e7565b95945050505050565b6000612e76612e87565b9050612e828282613132565b919050565b6000604051905090565b600067ffffffffffffffff821115612eac57612eab613239565b5b612eb582613268565b9050602081019050919050565b6000819050602082019050919050565b6000819050602082019050919050565b600081519050919050565b600081519050919050565b600081519050919050565b6000602082019050919050565b6000602082019050919050565b600082825260208201905092915050565b600082825260208201905092915050565b600082825260208201905092915050565b600082825260208201905092915050565b6000612f6c826130b4565b9150612f77836130b4565b9250827fffffffffffffffffffffffffffffffffffffffffffffffffffffffffffffffff03821115612fac57612fab6131ac565b5b828201905092915050565b6000612fc2826130b4565b9150612fcd836130b4565b925082612fdd57612fdc6131db565b5b828204905092915050565b6000612ff3826130b4565b9150612ffe836130b4565b9250817fffffffffffffffffffffffffffffffffffffffffffffffffffffffffffffffff0483118215151615613037576130366131ac565b5b828202905092915050565b600061304d826130b4565b9150613058836130b4565b92508282101561306b5761306a6131ac565b5b828203905092915050565b600061308182613094565b9050919050565b60008115159050919050565b600073ffffffffffffffffffffffffffffffffffffffff82169050919050565b6000819050919050565b82818337600083830152505050565b60005b838110156130eb5780820151818401526020810190506130d0565b838111156130fa576000848401525b50505050565b6000600282049050600182168061311857607f821691505b6020821081141561312c5761312b61320a565b5b50919050565b61313b82613268565b810181811067ffffffffffffffff8211171561315a57613159613239565b5b80604052505050565b600061316e826130b4565b91507fffffffffffffffffffffffffffffffffffffffffffffffffffffffffffffffff8214156131a1576131a06131ac565b5b600182019050919050565b7f4e487b7100000000000000000000000000000000000000000000000000000000600052601160045260246000fd5b7f4e487b7100000000000000000000000000000000000000000000000000000000600052601260045260246000fd5b7f4e487b7100000000000000000000000000000000000000000000000000000000600052602260045260246000fd5b7f4e487b7100000000000000000000000000000000000000000000000000000000600052604160045260246000fd5b6000601f19601f8301169050919050565b7f41677265656d656e742068617320656e64656400000000000000000000000000600082015250565b7f4e6f74207468652064697370757465207265736f6c7665722100000000000000600082015250565b7f4e6f742074686520726563656976657221000000000000000000000000000000600082015250565b7f4d696c6573746f6e6520616c726561647920617070726f766564210000000000600082015250565b7f4d696c6573746f6e652069736e27742066756e64656421000000000000000000600082015250565b7f526566756e6420616d6f756e742063616e6e6f7420626520677265617465722060008201527f7468616e20746865206d696c6573746f6e6520616d6f756e7421000000000000602082015250565b7f416d6f756e742073656e7420646f6573206e6f74206d6174636820746865207360008201527f706563696669656420616d6f756e74202b206665657321000000000000000000602082015250565b7f5265717565737420616c7265616479207265736f6c7665642100000000000000600082015250565b7f4d696c6573746f6e6520616c72656164792066756e6465642100000000000000600082015250565b7f4e6f7420746865206d616e616765722100000000000000000000000000000000600082015250565b613468816130b4565b811461347357600080fd5b5056fea2646970667358221220c99b58e79d8e9abc975a3a04fba12189038710ca59a55426cc12318aec24a3b964736f6c63430008020033a2646970667358221220ea02cd68b595a40a43c04524093bacd3753d1dc2b59554f2631204f3972ceeb264736f6c63430008020033",
  "linkReferences": {},
  "deployedLinkReferences": {}
}