{
  "_format": "hh-sol-artifact-1",
  "contractName": "AskGPT",
  "sourceName": "contracts/AskGPT.sol",
  "abi": [
    {
      "inputs": [
        {
          "internalType": "address",
          "name": "_forwarder",
          "type": "address"
        }
      ],
      "stateMutability": "nonpayable",
      "type": "constructor"
    },
    {
      "anonymous": false,
      "inputs": [
        {
          "indexed": true,
          "internalType": "address",
          "name": "_firstParty",
          "type": "address"
        },
        {
          "indexed": true,
          "internalType": "address",
          "name": "_secondParty",
          "type": "address"
        },
        {
          "indexed": false,
          "internalType": "address",
          "name": "_contractAddress",
          "type": "address"
        },
        {
          "indexed": false,
          "internalType": "uint256",
          "name": "_timestamp",
          "type": "uint256"
        }
      ],
      "name": "AgreementCreated",
      "type": "event"
    },
    {
      "anonymous": false,
      "inputs": [
        {
          "indexed": true,
          "internalType": "address",
          "name": "_buyer",
          "type": "address"
        },
        {
          "indexed": true,
          "internalType": "uint256",
          "name": "_numOfScripts",
          "type": "uint256"
        },
        {
          "indexed": false,
          "internalType": "uint256",
          "name": "_paymentAmount",
          "type": "uint256"
        },
        {
          "indexed": false,
          "internalType": "uint256",
          "name": "_timestamp",
          "type": "uint256"
        }
      ],
      "name": "MembershipPayment",
      "type": "event"
    },
    {
      "stateMutability": "payable",
      "type": "fallback"
    },
    {
      "inputs": [],
      "name": "admin",
      "outputs": [
        {
          "internalType": "address",
          "name": "",
          "type": "address"
        }
      ],
      "stateMutability": "view",
      "type": "function"
    },
    {
      "inputs": [],
      "name": "agreementCount",
      "outputs": [
        {
          "internalType": "uint256",
          "name": "",
          "type": "uint256"
        }
      ],
      "stateMutability": "view",
      "type": "function"
    },
    {
      "inputs": [
        {
          "internalType": "address",
          "name": "",
          "type": "address"
        }
      ],
      "name": "agreementUri",
      "outputs": [
        {
          "internalType": "string",
          "name": "",
          "type": "string"
        }
      ],
      "stateMutability": "view",
      "type": "function"
    },
    {
      "inputs": [
        {
          "internalType": "uint256",
          "name": "",
          "type": "uint256"
        }
      ],
      "name": "agreements",
      "outputs": [
        {
          "internalType": "address",
          "name": "",
          "type": "address"
        }
      ],
      "stateMutability": "view",
      "type": "function"
    },
    {
      "inputs": [
        {
          "internalType": "uint256",
          "name": "",
          "type": "uint256"
        }
      ],
      "name": "agreementsData",
      "outputs": [
        {
          "internalType": "address",
          "name": "contractAddress",
          "type": "address"
        },
        {
          "internalType": "string",
          "name": "data",
          "type": "string"
        }
      ],
      "stateMutability": "view",
      "type": "function"
    },
    {
      "inputs": [
        {
          "internalType": "uint256",
          "name": "_amount",
          "type": "uint256"
        }
      ],
      "name": "buyScripts",
      "outputs": [],
      "stateMutability": "payable",
      "type": "function"
    },
    {
      "inputs": [
        {
          "internalType": "string",
          "name": "_agreementUri",
          "type": "string"
        },
        {
          "internalType": "uint256",
          "name": "_startsAt",
          "type": "uint256"
        },
        {
          "internalType": "string",
          "name": "_name",
          "type": "string"
        },
        {
          "internalType": "address",
          "name": "_secondParty",
          "type": "address"
        }
      ],
      "name": "createAgreement",
      "outputs": [],
      "stateMutability": "nonpayable",
      "type": "function"
    },
    {
      "inputs": [
        {
          "internalType": "address",
          "name": "_user",
          "type": "address"
        }
      ],
      "name": "deductPendingScripts",
      "outputs": [],
      "stateMutability": "nonpayable",
      "type": "function"
    },
    {
      "inputs": [],
      "name": "getAllAgreements",
      "outputs": [
        {
          "components": [
            {
              "internalType": "address",
              "name": "contractAddress",
              "type": "address"
            },
            {
              "internalType": "string",
              "name": "data",
              "type": "string"
            }
          ],
          "internalType": "struct AskGPT.AgreementData[]",
          "name": "allAgreements",
          "type": "tuple[]"
        }
      ],
      "stateMutability": "view",
      "type": "function"
    },
    {
      "inputs": [
        {
          "internalType": "address",
          "name": "_user",
          "type": "address"
        }
      ],
      "name": "getPendingScripts",
      "outputs": [
        {
          "internalType": "uint256",
          "name": "_numOfScripts",
          "type": "uint256"
        }
      ],
      "stateMutability": "view",
      "type": "function"
    },
    {
      "inputs": [
        {
          "internalType": "address",
          "name": "_creator",
          "type": "address"
        }
      ],
      "name": "getUserAgreements",
      "outputs": [
        {
          "components": [
            {
              "internalType": "address",
              "name": "contractAddress",
              "type": "address"
            },
            {
              "internalType": "string",
              "name": "data",
              "type": "string"
            }
          ],
          "internalType": "struct AskGPT.AgreementData[]",
          "name": "allCreatorAgreements",
          "type": "tuple[]"
        }
      ],
      "stateMutability": "view",
      "type": "function"
    },
    {
      "inputs": [],
      "name": "marketFee",
      "outputs": [
        {
          "internalType": "uint256",
          "name": "",
          "type": "uint256"
        }
      ],
      "stateMutability": "view",
      "type": "function"
    },
    {
      "inputs": [],
      "name": "pricePerScript",
      "outputs": [
        {
          "internalType": "uint256",
          "name": "",
          "type": "uint256"
        }
      ],
      "stateMutability": "view",
      "type": "function"
    },
    {
      "inputs": [
        {
          "internalType": "uint256",
          "name": "_amount",
          "type": "uint256"
        }
      ],
      "name": "setMarketFee",
      "outputs": [],
      "stateMutability": "nonpayable",
      "type": "function"
    },
    {
      "inputs": [
        {
          "internalType": "uint256",
          "name": "_amount",
          "type": "uint256"
        }
      ],
      "name": "setPricePerScript",
      "outputs": [],
      "stateMutability": "nonpayable",
      "type": "function"
    },
    {
      "inputs": [
        {
          "internalType": "address",
          "name": "",
          "type": "address"
        },
        {
          "internalType": "uint256",
          "name": "",
          "type": "uint256"
        }
      ],
      "name": "userAgreements",
      "outputs": [
        {
          "internalType": "uint256",
          "name": "",
          "type": "uint256"
        }
      ],
      "stateMutability": "view",
      "type": "function"
    },
    {
      "inputs": [],
      "name": "withdraw",
      "outputs": [],
      "stateMutability": "nonpayable",
      "type": "function"
    },
    {
      "stateMutability": "payable",
      "type": "receive"
    }
  ],
  "bytecode": "0x60806040526019600055662386f26fc100006004553480156200002157600080fd5b5060405162005bb138038062005bb18339818101604052810190620000479190620000e7565b33600260006101000a81548173ffffffffffffffffffffffffffffffffffffffff021916908373ffffffffffffffffffffffffffffffffffffffff16021790555080600360006101000a81548173ffffffffffffffffffffffffffffffffffffffff021916908373ffffffffffffffffffffffffffffffffffffffff1602179055505062000161565b600081519050620000e18162000147565b92915050565b600060208284031215620000fa57600080fd5b60006200010a84828501620000d0565b91505092915050565b6000620001208262000127565b9050919050565b600073ffffffffffffffffffffffffffffffffffffffff82169050919050565b620001528162000113565b81146200015e57600080fd5b50565b615a4080620001716000396000f3fe6080604052600436106200011b5760003560e01c806385c23f9911620000a3578063adb9cae6116200006d578063adb9cae61462000398578063bb7bb27814620003dc578063bd14de96146200040c578063f3ff64bd1462000450578063f851a44014620004705762000123565b806385c23f99146200029d57806398a16dc014620002e15780639f9019e9146200030f578063a1eea4f714620003545762000123565b80634c27984e11620000e55780634c27984e14620001cb5780634e6873c7146200020f578063725fb7ba146200023f5780637c2c0452146200026f5762000123565b80630ccf2156146200012557806322822a77146200015557806326b825d214620001835780633ccfd60b14620001b15762000123565b366200012357005b005b3480156200013257600080fd5b506200013d620004a0565b6040516200014c919062001c07565b60405180910390f35b3480156200016257600080fd5b506200018160048036038101906200017b91906200179a565b620004a6565b005b3480156200019057600080fd5b50620001af6004803603810190620001a9919062001838565b62000805565b005b348015620001be57600080fd5b50620001c9620008ab565b005b348015620001d857600080fd5b50620001f76004803603810190620001f1919062001759565b620009a0565b60405162000206919062001c07565b60405180910390f35b3480156200021c57600080fd5b5062000227620009d2565b60405162000236919062001b7b565b60405180910390f35b3480156200024c57600080fd5b506200025762000bf7565b60405162000266919062001c07565b60405180910390f35b3480156200027c57600080fd5b506200029b60048036038101906200029591906200172d565b62000bfd565b005b348015620002aa57600080fd5b50620002c96004803603810190620002c391906200172d565b62000da5565b604051620002d8919062001b9f565b60405180910390f35b348015620002ee57600080fd5b506200030d600480360381019062000307919062001838565b62000e4d565b005b3480156200031c57600080fd5b506200033b600480360381019062000335919062001838565b62000ef3565b6040516200034b92919062001b1a565b60405180910390f35b3480156200036157600080fd5b506200038060048036038101906200037a91906200172d565b62000fc7565b6040516200038f919062001c07565b60405180910390f35b348015620003a557600080fd5b50620003c46004803603810190620003be91906200172d565b6200106e565b604051620003d3919062001b7b565b60405180910390f35b348015620003e957600080fd5b50620003f46200134a565b60405162000403919062001c07565b60405180910390f35b3480156200041957600080fd5b5062000438600480360381019062000432919062001838565b62001350565b60405162000447919062001a3f565b60405180910390f35b6200046e600480360381019062000468919062001838565b62001383565b005b3480156200047d57600080fd5b50620004886200149e565b60405162000497919062001a3f565b60405180910390f35b60005481565b60016000815480929190620004bb9062001f2d565b91905055506000620004cc620014c4565b8260015487873088600054600260009054906101000a900473ffffffffffffffffffffffffffffffffffffffff16600360009054906101000a900473ffffffffffffffffffffffffffffffffffffffff166040516200052b906200159f565b620005409a9998979695949392919062001a5c565b604051809103906000f0801580156200055d573d6000803e3d6000fd5b50905084600760008373ffffffffffffffffffffffffffffffffffffffff1673ffffffffffffffffffffffffffffffffffffffff1681526020019081526020016000209080519060200190620005b5929190620015ad565b508060056000600154815260200190815260200160002060006101000a81548173ffffffffffffffffffffffffffffffffffffffff021916908373ffffffffffffffffffffffffffffffffffffffff16021790555060405180604001604052808273ffffffffffffffffffffffffffffffffffffffff1681526020018681525060086000600154815260200190815260200160002060008201518160000160006101000a81548173ffffffffffffffffffffffffffffffffffffffff021916908373ffffffffffffffffffffffffffffffffffffffff1602179055506020820151816001019080519060200190620006af929190620015ad565b5090505060066000620006c1620014c4565b73ffffffffffffffffffffffffffffffffffffffff1673ffffffffffffffffffffffffffffffffffffffff1681526020019081526020016000206001549080600181540180825580915050600190039060005260206000200160009091909190915055600660008373ffffffffffffffffffffffffffffffffffffffff1673ffffffffffffffffffffffffffffffffffffffff16815260200190815260200160002060015490806001815401808255809150506001900390600052602060002001600090919091909150558173ffffffffffffffffffffffffffffffffffffffff16620007ad620014c4565b73ffffffffffffffffffffffffffffffffffffffff167ff3e9fb09d0520a320797dae1f1ec5bc12aacd22478b49f6e89c50a46c6a276198342604051620007f692919062001b4e565b60405180910390a35050505050565b600260009054906101000a900473ffffffffffffffffffffffffffffffffffffffff1673ffffffffffffffffffffffffffffffffffffffff1662000848620014c4565b73ffffffffffffffffffffffffffffffffffffffff1614620008a1576040517f08c379a0000000000000000000000000000000000000000000000000000000008152600401620008989062001be5565b60405180910390fd5b8060008190555050565b600260009054906101000a900473ffffffffffffffffffffffffffffffffffffffff1673ffffffffffffffffffffffffffffffffffffffff16620008ee620014c4565b73ffffffffffffffffffffffffffffffffffffffff161462000947576040517f08c379a00000000000000000000000000000000000000000000000000000000081526004016200093e9062001be5565b60405180910390fd5b600062000953620014c4565b90508073ffffffffffffffffffffffffffffffffffffffff166108fc479081150290604051600060405180830381858888f193505050501580156200099c573d6000803e3d6000fd5b5050565b60066020528160005260406000208181548110620009bd57600080fd5b90600052602060002001600091509150505481565b6060600060015467ffffffffffffffff81111562000a19577f4e487b7100000000000000000000000000000000000000000000000000000000600052604160045260246000fd5b60405190808252806020026020018201604052801562000a5657816020015b62000a426200163e565b81526020019060019003908162000a385790505b5090506000600190505b6001805462000a70919062001d16565b81101562000bef57600860008281526020019081526020016000206040518060400160405290816000820160009054906101000a900473ffffffffffffffffffffffffffffffffffffffff1673ffffffffffffffffffffffffffffffffffffffff1673ffffffffffffffffffffffffffffffffffffffff16815260200160018201805462000afe9062001ec1565b80601f016020809104026020016040519081016040528092919081815260200182805462000b2c9062001ec1565b801562000b7d5780601f1062000b515761010080835404028352916020019162000b7d565b820191906000526020600020905b81548152906001019060200180831162000b5f57829003601f168201915b5050505050815250508260018362000b96919062001dd4565b8151811062000bce577f4e487b7100000000000000000000000000000000000000000000000000000000600052603260045260246000fd5b6020026020010181905250808062000be69062001f2d565b91505062000a60565b508091505090565b60045481565b600260009054906101000a900473ffffffffffffffffffffffffffffffffffffffff1673ffffffffffffffffffffffffffffffffffffffff1662000c40620014c4565b73ffffffffffffffffffffffffffffffffffffffff161462000c99576040517f08c379a000000000000000000000000000000000000000000000000000000000815260040162000c909062001be5565b60405180910390fd5b600a60008273ffffffffffffffffffffffffffffffffffffffff1673ffffffffffffffffffffffffffffffffffffffff16815260200190815260200160002060009054906101000a900460ff161562000d4957600960008273ffffffffffffffffffffffffffffffffffffffff1673ffffffffffffffffffffffffffffffffffffffff168152602001908152602001600020600081548092919062000d3e9062001e92565b919050555062000da2565b6001600a60008373ffffffffffffffffffffffffffffffffffffffff1673ffffffffffffffffffffffffffffffffffffffff16815260200190815260200160002060006101000a81548160ff0219169083151502179055505b50565b6007602052806000526040600020600091509050805462000dc69062001ec1565b80601f016020809104026020016040519081016040528092919081815260200182805462000df49062001ec1565b801562000e455780601f1062000e195761010080835404028352916020019162000e45565b820191906000526020600020905b81548152906001019060200180831162000e2757829003601f168201915b505050505081565b600260009054906101000a900473ffffffffffffffffffffffffffffffffffffffff1673ffffffffffffffffffffffffffffffffffffffff1662000e90620014c4565b73ffffffffffffffffffffffffffffffffffffffff161462000ee9576040517f08c379a000000000000000000000000000000000000000000000000000000000815260040162000ee09062001be5565b60405180910390fd5b8060048190555050565b60086020528060005260406000206000915090508060000160009054906101000a900473ffffffffffffffffffffffffffffffffffffffff169080600101805462000f3e9062001ec1565b80601f016020809104026020016040519081016040528092919081815260200182805462000f6c9062001ec1565b801562000fbd5780601f1062000f915761010080835404028352916020019162000fbd565b820191906000526020600020905b81548152906001019060200180831162000f9f57829003601f168201915b5050505050905082565b6000600a60008373ffffffffffffffffffffffffffffffffffffffff1673ffffffffffffffffffffffffffffffffffffffff16815260200190815260200160002060009054906101000a900460ff16156200106457600960008373ffffffffffffffffffffffffffffffffffffffff1673ffffffffffffffffffffffffffffffffffffffff16815260200190815260200160002054905062001069565b600190505b919050565b60606000600660008473ffffffffffffffffffffffffffffffffffffffff1673ffffffffffffffffffffffffffffffffffffffff168152602001908152602001600020805480602002602001604051908101604052809291908181526020018280548015620010fd57602002820191906000526020600020905b815481526020019060010190808311620010e8575b505050505090506000815167ffffffffffffffff81111562001148577f4e487b7100000000000000000000000000000000000000000000000000000000600052604160045260246000fd5b6040519080825280602002602001820160405280156200118557816020015b620011716200163e565b815260200190600190039081620011675790505b50905060005b82518110156200133f5760086000848381518110620011d3577f4e487b7100000000000000000000000000000000000000000000000000000000600052603260045260246000fd5b602002602001015181526020019081526020016000206040518060400160405290816000820160009054906101000a900473ffffffffffffffffffffffffffffffffffffffff1673ffffffffffffffffffffffffffffffffffffffff1673ffffffffffffffffffffffffffffffffffffffff1681526020016001820180546200125c9062001ec1565b80601f01602080910402602001604051908101604052809291908181526020018280546200128a9062001ec1565b8015620012db5780601f10620012af57610100808354040283529160200191620012db565b820191906000526020600020905b815481529060010190602001808311620012bd57829003601f168201915b5050505050815250508282815181106200131e577f4e487b7100000000000000000000000000000000000000000000000000000000600052603260045260246000fd5b60200260200101819052508080620013369062001f2d565b9150506200118b565b508092505050919050565b60015481565b60056020528060005260406000206000915054906101000a900473ffffffffffffffffffffffffffffffffffffffff1681565b6004548162001393919062001d73565b341015620013d8576040517f08c379a0000000000000000000000000000000000000000000000000000000008152600401620013cf9062001bc3565b60405180910390fd5b6000620013e4620014c4565b905081600960008373ffffffffffffffffffffffffffffffffffffffff1673ffffffffffffffffffffffffffffffffffffffff168152602001908152602001600020600082825462001437919062001d16565b925050819055508162001449620014c4565b73ffffffffffffffffffffffffffffffffffffffff167f382f658b6642bff97773130e5a5da27bc9fb84c464fe84cbd7ec50e808b9f28034426040516200149292919062001c24565b60405180910390a35050565b600260009054906101000a900473ffffffffffffffffffffffffffffffffffffffff1681565b6000600360009054906101000a900473ffffffffffffffffffffffffffffffffffffffff1673ffffffffffffffffffffffffffffffffffffffff163373ffffffffffffffffffffffffffffffffffffffff1614156200159257600080368080601f016020809104026020016040519081016040528093929190818152602001838380828437600081840152601f19601f820116905080830192505050505050509050600080369050905073ffffffffffffffffffffffffffffffffffffffff8183015116925050506200159b565b3390506200159c565b5b90565b61394580620020c683390190565b828054620015bb9062001ec1565b90600052602060002090601f016020900481019282620015df57600085556200162b565b82601f10620015fa57805160ff19168380011785556200162b565b828001600101855582156200162b579182015b828111156200162a5782518255916020019190600101906200160d565b5b5090506200163a91906200166e565b5090565b6040518060400160405280600073ffffffffffffffffffffffffffffffffffffffff168152602001606081525090565b5b80821115620016895760008160009055506001016200166f565b5090565b6000620016a46200169e8462001c7a565b62001c51565b905082815260208101848484011115620016bd57600080fd5b620016ca84828562001e4d565b509392505050565b600081359050620016e38162002091565b92915050565b600082601f830112620016fb57600080fd5b81356200170d8482602086016200168d565b91505092915050565b6000813590506200172781620020ab565b92915050565b6000602082840312156200174057600080fd5b60006200175084828501620016d2565b91505092915050565b600080604083850312156200176d57600080fd5b60006200177d85828601620016d2565b9250506020620017908582860162001716565b9150509250929050565b60008060008060808587031215620017b157600080fd5b600085013567ffffffffffffffff811115620017cc57600080fd5b620017da87828801620016e9565b9450506020620017ed8782880162001716565b935050604085013567ffffffffffffffff8111156200180b57600080fd5b6200181987828801620016e9565b92505060606200182c87828801620016d2565b91505092959194509250565b6000602082840312156200184b57600080fd5b60006200185b8482850162001716565b91505092915050565b6000620018728383620019ed565b905092915050565b620018858162001e0f565b82525050565b620018968162001e0f565b82525050565b6000620018a98262001cc0565b620018b5818562001ce3565b935083602082028501620018c98562001cb0565b8060005b858110156200190b5784840389528151620018e9858262001864565b9450620018f68362001cd6565b925060208a01995050600181019050620018cd565b50829750879550505050505092915050565b60006200192a8262001ccb565b62001936818562001cf4565b93506200194881856020860162001e5c565b620019538162002008565b840191505092915050565b60006200196b8262001ccb565b62001977818562001d05565b93506200198981856020860162001e5c565b620019948162002008565b840191505092915050565b6000620019ae60248362001d05565b9150620019bb8262002019565b604082019050919050565b6000620019d5600e8362001d05565b9150620019e28262002068565b602082019050919050565b600060408301600083015162001a0760008601826200187a565b506020830151848203602086015262001a2182826200191d565b9150508091505092915050565b62001a398162001e43565b82525050565b600060208201905062001a5660008301846200188b565b92915050565b60006101408201905062001a74600083018d6200188b565b62001a83602083018c6200188b565b62001a92604083018b62001a2e565b818103606083015262001aa6818a6200195e565b905062001ab7608083018962001a2e565b62001ac660a08301886200188b565b81810360c083015262001ada81876200195e565b905062001aeb60e083018662001a2e565b62001afb6101008301856200188b565b62001b0b6101208301846200188b565b9b9a5050505050505050505050565b600060408201905062001b3160008301856200188b565b818103602083015262001b4581846200195e565b90509392505050565b600060408201905062001b6560008301856200188b565b62001b74602083018462001a2e565b9392505050565b6000602082019050818103600083015262001b9781846200189c565b905092915050565b6000602082019050818103600083015262001bbb81846200195e565b905092915050565b6000602082019050818103600083015262001bde816200199f565b9050919050565b6000602082019050818103600083015262001c0081620019c6565b9050919050565b600060208201905062001c1e600083018462001a2e565b92915050565b600060408201905062001c3b600083018562001a2e565b62001c4a602083018462001a2e565b9392505050565b600062001c5d62001c70565b905062001c6b828262001ef7565b919050565b6000604051905090565b600067ffffffffffffffff82111562001c985762001c9762001fd9565b5b62001ca38262002008565b9050602081019050919050565b6000819050602082019050919050565b600081519050919050565b600081519050919050565b6000602082019050919050565b600082825260208201905092915050565b600082825260208201905092915050565b600082825260208201905092915050565b600062001d238262001e43565b915062001d308362001e43565b9250827fffffffffffffffffffffffffffffffffffffffffffffffffffffffffffffffff0382111562001d685762001d6762001f7b565b5b828201905092915050565b600062001d808262001e43565b915062001d8d8362001e43565b9250817fffffffffffffffffffffffffffffffffffffffffffffffffffffffffffffffff048311821515161562001dc95762001dc862001f7b565b5b828202905092915050565b600062001de18262001e43565b915062001dee8362001e43565b92508282101562001e045762001e0362001f7b565b5b828203905092915050565b600062001e1c8262001e23565b9050919050565b600073ffffffffffffffffffffffffffffffffffffffff82169050919050565b6000819050919050565b82818337600083830152505050565b60005b8381101562001e7c57808201518184015260208101905062001e5f565b8381111562001e8c576000848401525b50505050565b600062001e9f8262001e43565b9150600082141562001eb65762001eb562001f7b565b5b600182039050919050565b6000600282049050600182168062001eda57607f821691505b6020821081141562001ef15762001ef062001faa565b5b50919050565b62001f028262002008565b810181811067ffffffffffffffff8211171562001f245762001f2362001fd9565b5b80604052505050565b600062001f3a8262001e43565b91507fffffffffffffffffffffffffffffffffffffffffffffffffffffffffffffffff82141562001f705762001f6f62001f7b565b5b600182019050919050565b7f4e487b7100000000000000000000000000000000000000000000000000000000600052601160045260246000fd5b7f4e487b7100000000000000000000000000000000000000000000000000000000600052602260045260246000fd5b7f4e487b7100000000000000000000000000000000000000000000000000000000600052604160045260246000fd5b6000601f19601f8301169050919050565b7f45746865722073656e7420646f6573206e6f74206d617463682074686520707260008201527f6963652100000000000000000000000000000000000000000000000000000000602082015250565b7f4e6f74207468652061646d696e21000000000000000000000000000000000000600082015250565b6200209c8162001e0f565b8114620020a857600080fd5b50565b620020b68162001e43565b8114620020c257600080fd5b5056fe60806040523480156200001157600080fd5b506040516200394538038062003945833981810160405281019062000037919062000323565b8760068190555081600360006101000a81548173ffffffffffffffffffffffffffffffffffffffff021916908373ffffffffffffffffffffffffffffffffffffffff16021790555089600460006101000a81548173ffffffffffffffffffffffffffffffffffffffff021916908373ffffffffffffffffffffffffffffffffffffffff16021790555088600560006101000a81548173ffffffffffffffffffffffffffffffffffffffff021916908373ffffffffffffffffffffffffffffffffffffffff160217905550866007908051906020019062000119929190620001d3565b508560088190555084600260006101000a81548173ffffffffffffffffffffffffffffffffffffffff021916908373ffffffffffffffffffffffffffffffffffffffff16021790555083600090805190602001906200017a929190620001d3565b508260018190555080600c60006101000a81548173ffffffffffffffffffffffffffffffffffffffff021916908373ffffffffffffffffffffffffffffffffffffffff1602179055505050505050505050505062000627565b828054620001e19062000518565b90600052602060002090601f01602090048101928262000205576000855562000251565b82601f106200022057805160ff191683800117855562000251565b8280016001018555821562000251579182015b828111156200025057825182559160200191906001019062000233565b5b50905062000260919062000264565b5090565b5b808211156200027f57600081600090555060010162000265565b5090565b60006200029a62000294846200046e565b62000445565b905082815260208101848484011115620002b357600080fd5b620002c0848285620004e2565b509392505050565b600081519050620002d981620005f3565b92915050565b600082601f830112620002f157600080fd5b81516200030384826020860162000283565b91505092915050565b6000815190506200031d816200060d565b92915050565b6000806000806000806000806000806101408b8d0312156200034457600080fd5b6000620003548d828e01620002c8565b9a50506020620003678d828e01620002c8565b99505060406200037a8d828e016200030c565b98505060608b015167ffffffffffffffff8111156200039857600080fd5b620003a68d828e01620002df565b9750506080620003b98d828e016200030c565b96505060a0620003cc8d828e01620002c8565b95505060c08b015167ffffffffffffffff811115620003ea57600080fd5b620003f88d828e01620002df565b94505060e06200040b8d828e016200030c565b9350506101006200041f8d828e01620002c8565b925050610120620004338d828e01620002c8565b9150509295989b9194979a5092959850565b60006200045162000464565b90506200045f82826200054e565b919050565b6000604051905090565b600067ffffffffffffffff8211156200048c576200048b620005b3565b5b6200049782620005e2565b9050602081019050919050565b6000620004b182620004b8565b9050919050565b600073ffffffffffffffffffffffffffffffffffffffff82169050919050565b6000819050919050565b60005b8381101562000502578082015181840152602081019050620004e5565b8381111562000512576000848401525b50505050565b600060028204905060018216806200053157607f821691505b6020821081141562000548576200054762000584565b5b50919050565b6200055982620005e2565b810181811067ffffffffffffffff821117156200057b576200057a620005b3565b5b80604052505050565b7f4e487b7100000000000000000000000000000000000000000000000000000000600052602260045260246000fd5b7f4e487b7100000000000000000000000000000000000000000000000000000000600052604160045260246000fd5b6000601f19601f8301169050919050565b620005fe81620004a4565b81146200060a57600080fd5b50565b6200061881620004d8565b81146200062457600080fd5b50565b61330e80620006376000396000f3fe6080604052600436106100e75760003560e01c806397926fc81161008a578063c8a3e04e11610059578063c8a3e04e14610285578063e36bd0f3146102ae578063e7ca9969146102ee578063e89e4ed614610319576100e7565b806397926fc81461020d5780639f4a23ba14610236578063bb6e7de914610252578063c438b40f14610269576100e7565b80635de988ab116100c65780635de988ab146101695780636b9080c11461019257806373a482e9146101c85780637d60631e146101e4576100e7565b8062e6652a146100ec5780635c43dd99146101155780635cdb464214610140575b600080fd5b3480156100f857600080fd5b50610113600480360381019061010e91906124f0565b61035c565b005b34801561012157600080fd5b5061012a610647565b6040516101379190612a06565b60405180910390f35b34801561014c57600080fd5b50610167600480360381019061016291906124f0565b6108f8565b005b34801561017557600080fd5b50610190600480360381019061018b9190612434565b610b1a565b005b34801561019e57600080fd5b506101a7610ce2565b6040516101bf9c9b9a9998979695949392919061293e565b60405180910390f35b6101e260048036038101906101dd9190612434565b610eb4565b005b3480156101f057600080fd5b5061020b600480360381019061020691906123b5565b61111c565b005b34801561021957600080fd5b50610234600480360381019061022f9190612434565b611357565b005b610250600480360381019061024b9190612434565b611554565b005b34801561025e57600080fd5b506102676117f0565b005b610283600480360381019061027e9190612434565b6118d5565b005b34801561029157600080fd5b506102ac60048036038101906102a7919061245d565b611b7b565b005b3480156102ba57600080fd5b506102d560048036038101906102d09190612434565b611df9565b6040516102e59493929190612c89565b60405180910390f35b3480156102fa57600080fd5b50610303611e36565b6040516103109190612a28565b60405180910390f35b34801561032557600080fd5b50610340600480360381019061033b9190612434565b611f97565b6040516103539796959493929190612be3565b60405180910390f35b600460009054906101000a900473ffffffffffffffffffffffffffffffffffffffff1673ffffffffffffffffffffffffffffffffffffffff1661039d612110565b73ffffffffffffffffffffffffffffffffffffffff1614806104135750600360009054906101000a900473ffffffffffffffffffffffffffffffffffffffff1673ffffffffffffffffffffffffffffffffffffffff166103fb612110565b73ffffffffffffffffffffffffffffffffffffffff16145b610452576040517f08c379a000000000000000000000000000000000000000000000000000000000815260040161044990612aa8565b60405180910390fd5b600d600083815260200190815260200160002060040160009054906101000a900460ff166104b5576040517f08c379a00000000000000000000000000000000000000000000000000000000081526004016104ac90612b08565b60405180910390fd5b600d600083815260200190815260200160002060040160029054906101000a900460ff1615610519576040517f08c379a000000000000000000000000000000000000000000000000000000000815260040161051090612ae8565b60405180910390fd5b600d600083815260200190815260200160002060020154811115610572576040517f08c379a000000000000000000000000000000000000000000000000000000000815260040161056990612b28565b60405180910390fd5b600b600081548092919061058590612fc5565b91905055506040518060800160405280600b54815260200183815260200182815260200160001515815250600e6000600b54815260200190815260200160002060008201518160000155602082015181600101556040820151816002015560608201518160030160006101000a81548160ff02191690831515021790555090505081600b547f7918bd36c203935800793ba10c13259100530473ba726ee3a8d0bfbf49daeeab834260405161063b929190612c60565b60405180910390a35050565b60606000600a5467ffffffffffffffff81111561068d577f4e487b7100000000000000000000000000000000000000000000000000000000600052604160045260246000fd5b6040519080825280602002602001820160405280156106c657816020015b6106b36121e8565b8152602001906001900390816106ab5790505b5090506000600190505b6001600a546106df9190612dc3565b8110156108f057600d60008281526020019081526020016000206040518060e00160405290816000820154815260200160018201805461071e90612f62565b80601f016020809104026020016040519081016040528092919081815260200182805461074a90612f62565b80156107975780601f1061076c57610100808354040283529160200191610797565b820191906000526020600020905b81548152906001019060200180831161077a57829003601f168201915b50505050508152602001600282015481526020016003820180546107ba90612f62565b80601f01602080910402602001604051908101604052809291908181526020018280546107e690612f62565b80156108335780601f1061080857610100808354040283529160200191610833565b820191906000526020600020905b81548152906001019060200180831161081657829003601f168201915b505050505081526020016004820160009054906101000a900460ff161515151581526020016004820160019054906101000a900460ff161515151581526020016004820160029054906101000a900460ff1615151515815250508260018361089b9190612ea4565b815181106108d2577f4e487b7100000000000000000000000000000000000000000000000000000000600052603260045260246000fd5b602002602001018190525080806108e890612fc5565b9150506106d0565b508091505090565b600460009054906101000a900473ffffffffffffffffffffffffffffffffffffffff1673ffffffffffffffffffffffffffffffffffffffff16610939612110565b73ffffffffffffffffffffffffffffffffffffffff1614806109af5750600360009054906101000a900473ffffffffffffffffffffffffffffffffffffffff1673ffffffffffffffffffffffffffffffffffffffff16610997612110565b73ffffffffffffffffffffffffffffffffffffffff16145b6109ee576040517f08c379a00000000000000000000000000000000000000000000000000000000081526004016109e590612aa8565b60405180910390fd5b600e600083815260200190815260200160002060030160009054906101000a900460ff1615610a52576040517f08c379a0000000000000000000000000000000000000000000000000000000008152600401610a4990612b68565b60405180910390fd5b600d6000600e600085815260200190815260200160002060010154815260200190815260200160002060020154811115610ac1576040517f08c379a0000000000000000000000000000000000000000000000000000000008152600401610ab890612b28565b60405180910390fd5b80600e600084815260200190815260200160002060020181905550817fd35e4a11544ca6df55d52949c95edc0f59ce2714fd227da3726a92457b09a38c8242604051610b0e929190612c60565b60405180910390a25050565b600560009054906101000a900473ffffffffffffffffffffffffffffffffffffffff1673ffffffffffffffffffffffffffffffffffffffff16610b5b612110565b73ffffffffffffffffffffffffffffffffffffffff1614610bb1576040517f08c379a0000000000000000000000000000000000000000000000000000000008152600401610ba890612ac8565b60405180910390fd5b600d600082815260200190815260200160002060040160009054906101000a900460ff16610c14576040517f08c379a0000000000000000000000000000000000000000000000000000000008152600401610c0b90612b08565b60405180910390fd5b600d600082815260200190815260200160002060040160029054906101000a900460ff1615610c78576040517f08c379a0000000000000000000000000000000000000000000000000000000008152600401610c6f90612ae8565b60405180910390fd5b6001600d600083815260200190815260200160002060040160016101000a81548160ff021916908315150217905550807fcaf49e218dd72f80b847b963b0a3f9b56254f688513253fe99b456e6311c1fb942604051610cd79190612bc8565b60405180910390a250565b6000806000606060008060008060006060600080600460009054906101000a900473ffffffffffffffffffffffffffffffffffffffff16600560009054906101000a900473ffffffffffffffffffffffffffffffffffffffff16600654600760085460095447600a54600b546000600154600360009054906101000a900473ffffffffffffffffffffffffffffffffffffffff16888054610d8290612f62565b80601f0160208091040260200160405190810160405280929190818152602001828054610dae90612f62565b8015610dfb5780601f10610dd057610100808354040283529160200191610dfb565b820191906000526020600020905b815481529060010190602001808311610dde57829003601f168201915b50505050509850828054610e0e90612f62565b80601f0160208091040260200160405190810160405280929190818152602001828054610e3a90612f62565b8015610e875780601f10610e5c57610100808354040283529160200191610e87565b820191906000526020600020905b815481529060010190602001808311610e6a57829003601f168201915b505050505092509b509b509b509b509b509b509b509b509b509b509b509b50909192939495969798999a9b565b600460009054906101000a900473ffffffffffffffffffffffffffffffffffffffff1673ffffffffffffffffffffffffffffffffffffffff16610ef5612110565b73ffffffffffffffffffffffffffffffffffffffff1614610f4b576040517f08c379a0000000000000000000000000000000000000000000000000000000008152600401610f4290612ba8565b60405180910390fd5b60006103e8600154600d600085815260200190815260200160002060020154610f749190612e4a565b610f7e9190612e19565b9050600d600083815260200190815260200160002060040160009054906101000a900460ff1615610fe4576040517f08c379a0000000000000000000000000000000000000000000000000000000008152600401610fdb90612b88565b60405180910390fd5b80600d6000848152602001908152602001600020600201546110069190612dc3565b341015611048576040517f08c379a000000000000000000000000000000000000000000000000000000000815260040161103f90612b48565b60405180910390fd5b600260009054906101000a900473ffffffffffffffffffffffffffffffffffffffff1673ffffffffffffffffffffffffffffffffffffffff166108fc829081150290604051600060405180830381858888f193505050501580156110b0573d6000803e3d6000fd5b506001600d600084815260200190815260200160002060040160006101000a81548160ff021916908315150217905550817fad6f5443f0021bc2808ac5204f3c96a037dc9406ec9bfdf92a8e81539f04c605426040516111109190612bc8565b60405180910390a25050565b600460009054906101000a900473ffffffffffffffffffffffffffffffffffffffff1673ffffffffffffffffffffffffffffffffffffffff1661115d612110565b73ffffffffffffffffffffffffffffffffffffffff16146111b3576040517f08c379a00000000000000000000000000000000000000000000000000000000081526004016111aa90612ba8565b60405180910390fd5b6000600954146111f8576040517f08c379a00000000000000000000000000000000000000000000000000000000081526004016111ef90612a88565b60405180910390fd5b600a600081548092919061120b90612fc5565b91905055506040518060e00160405280600a54815260200184815260200183815260200182815260200160001515815260200160001515815260200160001515815250600d6000600a54815260200190815260200160002060008201518160000155602082015181600101908051906020019061128992919061222b565b506040820151816002015560608201518160030190805190602001906112b092919061222b565b5060808201518160040160006101000a81548160ff02191690831515021790555060a08201518160040160016101000a81548160ff02191690831515021790555060c08201518160040160026101000a81548160ff021916908315150217905550905050600a547f6df4a40f54ddbc024cc4e985b8fa77b24d3b18ae73fe8d9444beaed8682ff0f384844260405161134a93929190612a4a565b60405180910390a2505050565b600460009054906101000a900473ffffffffffffffffffffffffffffffffffffffff1673ffffffffffffffffffffffffffffffffffffffff16611398612110565b73ffffffffffffffffffffffffffffffffffffffff16146113ee576040517f08c379a00000000000000000000000000000000000000000000000000000000081526004016113e590612ba8565b60405180910390fd5b600060095414611433576040517f08c379a000000000000000000000000000000000000000000000000000000000815260040161142a90612a88565b60405180910390fd5b600d600082815260200190815260200160002060040160009054906101000a900460ff1615611497576040517f08c379a000000000000000000000000000000000000000000000000000000000815260040161148e90612b88565b60405180910390fd5b600d60008281526020019081526020016000206000808201600090556001820160006114c391906122b1565b60028201600090556003820160006114db91906122b1565b6004820160006101000a81549060ff02191690556004820160016101000a81549060ff02191690556004820160026101000a81549060ff02191690555050807f846ab9b254edc77fe46806b496d2efb2f0f0f1c7338a82ee13d93ceb37152d2a426040516115499190612bc8565b60405180910390a250565b600360009054906101000a900473ffffffffffffffffffffffffffffffffffffffff1673ffffffffffffffffffffffffffffffffffffffff16611595612110565b73ffffffffffffffffffffffffffffffffffffffff16148061160b5750600560009054906101000a900473ffffffffffffffffffffffffffffffffffffffff1673ffffffffffffffffffffffffffffffffffffffff166115f3612110565b73ffffffffffffffffffffffffffffffffffffffff16145b61164a576040517f08c379a000000000000000000000000000000000000000000000000000000000815260040161164190612aa8565b60405180910390fd5b600e600082815260200190815260200160002060030160009054906101000a900460ff16156116ae576040517f08c379a00000000000000000000000000000000000000000000000000000000081526004016116a590612b68565b60405180910390fd5b6001600e600083815260200190815260200160002060030160006101000a81548160ff021916908315150217905550600e600082815260200190815260200160002060020154600d6000600e6000858152602001908152602001600020600101548152602001908152602001600020600201600082825461172f9190612ea4565b92505081905550600460009054906101000a900473ffffffffffffffffffffffffffffffffffffffff1673ffffffffffffffffffffffffffffffffffffffff166108fc600e6000848152602001908152602001600020600201549081150290604051600060405180830381858888f193505050501580156117b4573d6000803e3d6000fd5b50807f4ce0986d74e104c2d3d9c6f307178d94afd5abaf7ccf6658a17fac5a5718a8f2426040516117e59190612bc8565b60405180910390a250565b600460009054906101000a900473ffffffffffffffffffffffffffffffffffffffff1673ffffffffffffffffffffffffffffffffffffffff16611831612110565b73ffffffffffffffffffffffffffffffffffffffff1614611887576040517f08c379a000000000000000000000000000000000000000000000000000000000815260040161187e90612ba8565b60405180910390fd5b6000600954146118cc576040517f08c379a00000000000000000000000000000000000000000000000000000000081526004016118c390612a88565b60405180910390fd5b42600981905550565b600460009054906101000a900473ffffffffffffffffffffffffffffffffffffffff1673ffffffffffffffffffffffffffffffffffffffff16611916612110565b73ffffffffffffffffffffffffffffffffffffffff16148061198c5750600360009054906101000a900473ffffffffffffffffffffffffffffffffffffffff1673ffffffffffffffffffffffffffffffffffffffff16611974612110565b73ffffffffffffffffffffffffffffffffffffffff16145b6119cb576040517f08c379a00000000000000000000000000000000000000000000000000000000081526004016119c290612aa8565b60405180910390fd5b600d600082815260200190815260200160002060040160009054906101000a900460ff16611a2e576040517f08c379a0000000000000000000000000000000000000000000000000000000008152600401611a2590612b08565b60405180910390fd5b600d600082815260200190815260200160002060040160029054906101000a900460ff1615611a92576040517f08c379a0000000000000000000000000000000000000000000000000000000008152600401611a8990612ae8565b60405180910390fd5b6001600d600083815260200190815260200160002060040160026101000a81548160ff021916908315150217905550600560009054906101000a900473ffffffffffffffffffffffffffffffffffffffff1673ffffffffffffffffffffffffffffffffffffffff166108fc600d6000848152602001908152602001600020600201549081150290604051600060405180830381858888f19350505050158015611b3f573d6000803e3d6000fd5b50807f939da3b627c123c81fe5aacebf925163337a0d4f8a03724640618078cad2489442604051611b709190612bc8565b60405180910390a250565b600460009054906101000a900473ffffffffffffffffffffffffffffffffffffffff1673ffffffffffffffffffffffffffffffffffffffff16611bbc612110565b73ffffffffffffffffffffffffffffffffffffffff1614611c12576040517f08c379a0000000000000000000000000000000000000000000000000000000008152600401611c0990612ba8565b60405180910390fd5b600060095414611c57576040517f08c379a0000000000000000000000000000000000000000000000000000000008152600401611c4e90612a88565b60405180910390fd5b600d600085815260200190815260200160002060040160009054906101000a900460ff1615611cbb576040517f08c379a0000000000000000000000000000000000000000000000000000000008152600401611cb290612b88565b60405180910390fd5b6040518060e0016040528085815260200184815260200183815260200182815260200160001515815260200160001515815260200160001515815250600d6000868152602001908152602001600020600082015181600001556020820151816001019080519060200190611d3092919061222b565b50604082015181600201556060820151816003019080519060200190611d5792919061222b565b5060808201518160040160006101000a81548160ff02191690831515021790555060a08201518160040160016101000a81548160ff02191690831515021790555060c08201518160040160026101000a81548160ff021916908315150217905550905050837f03ba09f38b23ad2697f2c208e0c31023842b2f3da43982784195f20216b2291f42604051611deb9190612bc8565b60405180910390a250505050565b600e6020528060005260406000206000915090508060000154908060010154908060020154908060030160009054906101000a900460ff16905084565b60606000600b5467ffffffffffffffff811115611e7c577f4e487b7100000000000000000000000000000000000000000000000000000000600052604160045260246000fd5b604051908082528060200260200182016040528015611eb557816020015b611ea26122f1565b815260200190600190039081611e9a5790505b5090506000600190505b6001600b54611ece9190612dc3565b811015611f8f57600e60008281526020019081526020016000206040518060800160405290816000820154815260200160018201548152602001600282015481526020016003820160009054906101000a900460ff16151515158152505082600183611f3a9190612ea4565b81518110611f71577f4e487b7100000000000000000000000000000000000000000000000000000000600052603260045260246000fd5b60200260200101819052508080611f8790612fc5565b915050611ebf565b508091505090565b600d602052806000526040600020600091509050806000015490806001018054611fc090612f62565b80601f0160208091040260200160405190810160405280929190818152602001828054611fec90612f62565b80156120395780601f1061200e57610100808354040283529160200191612039565b820191906000526020600020905b81548152906001019060200180831161201c57829003601f168201915b50505050509080600201549080600301805461205490612f62565b80601f016020809104026020016040519081016040528092919081815260200182805461208090612f62565b80156120cd5780601f106120a2576101008083540402835291602001916120cd565b820191906000526020600020905b8154815290600101906020018083116120b057829003601f168201915b5050505050908060040160009054906101000a900460ff16908060040160019054906101000a900460ff16908060040160029054906101000a900460ff16905087565b6000600c60009054906101000a900473ffffffffffffffffffffffffffffffffffffffff1673ffffffffffffffffffffffffffffffffffffffff163373ffffffffffffffffffffffffffffffffffffffff1614156121dc57600080368080601f016020809104026020016040519081016040528093929190818152602001838380828437600081840152601f19601f820116905080830192505050505050509050600080369050905073ffffffffffffffffffffffffffffffffffffffff8183015116925050506121e4565b3390506121e5565b5b90565b6040518060e00160405280600081526020016060815260200160008152602001606081526020016000151581526020016000151581526020016000151581525090565b82805461223790612f62565b90600052602060002090601f01602090048101928261225957600085556122a0565b82601f1061227257805160ff19168380011785556122a0565b828001600101855582156122a0579182015b8281111561229f578251825591602001919060010190612284565b5b5090506122ad919061231b565b5090565b5080546122bd90612f62565b6000825580601f106122cf57506122ee565b601f0160209004906000526020600020908101906122ed919061231b565b5b50565b60405180608001604052806000815260200160008152602001600081526020016000151581525090565b5b8082111561233457600081600090555060010161231c565b5090565b600061234b61234684612cf3565b612cce565b90508281526020810184848401111561236357600080fd5b61236e848285612f20565b509392505050565b600082601f83011261238757600080fd5b8135612397848260208601612338565b91505092915050565b6000813590506123af816132c1565b92915050565b6000806000606084860312156123ca57600080fd5b600084013567ffffffffffffffff8111156123e457600080fd5b6123f086828701612376565b9350506020612401868287016123a0565b925050604084013567ffffffffffffffff81111561241e57600080fd5b61242a86828701612376565b9150509250925092565b60006020828403121561244657600080fd5b6000612454848285016123a0565b91505092915050565b6000806000806080858703121561247357600080fd5b6000612481878288016123a0565b945050602085013567ffffffffffffffff81111561249e57600080fd5b6124aa87828801612376565b93505060406124bb878288016123a0565b925050606085013567ffffffffffffffff8111156124d857600080fd5b6124e487828801612376565b91505092959194509250565b6000806040838503121561250357600080fd5b6000612511858286016123a0565b9250506020612522858286016123a0565b9150509250929050565b60006125388383612828565b905092915050565b600061254c83836128cb565b60808301905092915050565b61256181612ed8565b82525050565b600061257282612d44565b61257c8185612d7f565b93508360208202850161258e85612d24565b8060005b858110156125ca57848403895281516125ab858261252c565b94506125b683612d65565b925060208a01995050600181019050612592565b50829750879550505050505092915050565b60006125e782612d4f565b6125f18185612d90565b93506125fc83612d34565b8060005b8381101561262d5781516126148882612540565b975061261f83612d72565b925050600181019050612600565b5085935050505092915050565b61264381612eea565b82525050565b61265281612eea565b82525050565b600061266382612d5a565b61266d8185612da1565b935061267d818560208601612f2f565b612686816130ca565b840191505092915050565b600061269c82612d5a565b6126a68185612db2565b93506126b6818560208601612f2f565b6126bf816130ca565b840191505092915050565b60006126d7601383612db2565b91506126e2826130db565b602082019050919050565b60006126fa601983612db2565b915061270582613104565b602082019050919050565b600061271d601183612db2565b91506127288261312d565b602082019050919050565b6000612740601b83612db2565b915061274b82613156565b602082019050919050565b6000612763601783612db2565b915061276e8261317f565b602082019050919050565b6000612786603a83612db2565b9150612791826131a8565b604082019050919050565b60006127a9603783612db2565b91506127b4826131f7565b604082019050919050565b60006127cc601983612db2565b91506127d782613246565b602082019050919050565b60006127ef601983612db2565b91506127fa8261326f565b602082019050919050565b6000612812601083612db2565b915061281d82613298565b602082019050919050565b600060e0830160008301516128406000860182612920565b50602083015184820360208601526128588282612658565b915050604083015161286d6040860182612920565b50606083015184820360608601526128858282612658565b915050608083015161289a608086018261263a565b5060a08301516128ad60a086018261263a565b5060c08301516128c060c086018261263a565b508091505092915050565b6080820160008201516128e16000850182612920565b5060208201516128f46020850182612920565b5060408201516129076040850182612920565b50606082015161291a606085018261263a565b50505050565b61292981612f16565b82525050565b61293881612f16565b82525050565b600061018082019050612954600083018f612558565b612961602083018e612558565b61296e604083018d61292f565b8181036060830152612980818c612691565b905061298f608083018b61292f565b61299c60a083018a61292f565b6129a960c083018961292f565b6129b660e083018861292f565b6129c461010083018761292f565b8181036101208301526129d78186612691565b90506129e761014083018561292f565b6129f5610160830184612558565b9d9c50505050505050505050505050565b60006020820190508181036000830152612a208184612567565b905092915050565b60006020820190508181036000830152612a4281846125dc565b905092915050565b60006060820190508181036000830152612a648186612691565b9050612a73602083018561292f565b612a80604083018461292f565b949350505050565b60006020820190508181036000830152612aa1816126ca565b9050919050565b60006020820190508181036000830152612ac1816126ed565b9050919050565b60006020820190508181036000830152612ae181612710565b9050919050565b60006020820190508181036000830152612b0181612733565b9050919050565b60006020820190508181036000830152612b2181612756565b9050919050565b60006020820190508181036000830152612b4181612779565b9050919050565b60006020820190508181036000830152612b618161279c565b9050919050565b60006020820190508181036000830152612b81816127bf565b9050919050565b60006020820190508181036000830152612ba1816127e2565b9050919050565b60006020820190508181036000830152612bc181612805565b9050919050565b6000602082019050612bdd600083018461292f565b92915050565b600060e082019050612bf8600083018a61292f565b8181036020830152612c0a8189612691565b9050612c19604083018861292f565b8181036060830152612c2b8187612691565b9050612c3a6080830186612649565b612c4760a0830185612649565b612c5460c0830184612649565b98975050505050505050565b6000604082019050612c75600083018561292f565b612c82602083018461292f565b9392505050565b6000608082019050612c9e600083018761292f565b612cab602083018661292f565b612cb8604083018561292f565b612cc56060830184612649565b95945050505050565b6000612cd8612ce9565b9050612ce48282612f94565b919050565b6000604051905090565b600067ffffffffffffffff821115612d0e57612d0d61309b565b5b612d17826130ca565b9050602081019050919050565b6000819050602082019050919050565b6000819050602082019050919050565b600081519050919050565b600081519050919050565b600081519050919050565b6000602082019050919050565b6000602082019050919050565b600082825260208201905092915050565b600082825260208201905092915050565b600082825260208201905092915050565b600082825260208201905092915050565b6000612dce82612f16565b9150612dd983612f16565b9250827fffffffffffffffffffffffffffffffffffffffffffffffffffffffffffffffff03821115612e0e57612e0d61300e565b5b828201905092915050565b6000612e2482612f16565b9150612e2f83612f16565b925082612e3f57612e3e61303d565b5b828204905092915050565b6000612e5582612f16565b9150612e6083612f16565b9250817fffffffffffffffffffffffffffffffffffffffffffffffffffffffffffffffff0483118215151615612e9957612e9861300e565b5b828202905092915050565b6000612eaf82612f16565b9150612eba83612f16565b925082821015612ecd57612ecc61300e565b5b828203905092915050565b6000612ee382612ef6565b9050919050565b60008115159050919050565b600073ffffffffffffffffffffffffffffffffffffffff82169050919050565b6000819050919050565b82818337600083830152505050565b60005b83811015612f4d578082015181840152602081019050612f32565b83811115612f5c576000848401525b50505050565b60006002820490506001821680612f7a57607f821691505b60208210811415612f8e57612f8d61306c565b5b50919050565b612f9d826130ca565b810181811067ffffffffffffffff82111715612fbc57612fbb61309b565b5b80604052505050565b6000612fd082612f16565b91507fffffffffffffffffffffffffffffffffffffffffffffffffffffffffffffffff8214156130035761300261300e565b5b600182019050919050565b7f4e487b7100000000000000000000000000000000000000000000000000000000600052601160045260246000fd5b7f4e487b7100000000000000000000000000000000000000000000000000000000600052601260045260246000fd5b7f4e487b7100000000000000000000000000000000000000000000000000000000600052602260045260246000fd5b7f4e487b7100000000000000000000000000000000000000000000000000000000600052604160045260246000fd5b6000601f19601f8301169050919050565b7f41677265656d656e742068617320656e64656400000000000000000000000000600082015250565b7f4e6f74207468652064697370757465207265736f6c7665722100000000000000600082015250565b7f4e6f742074686520726563656976657221000000000000000000000000000000600082015250565b7f4d696c6573746f6e6520616c726561647920617070726f766564210000000000600082015250565b7f4d696c6573746f6e652069736e27742066756e64656421000000000000000000600082015250565b7f526566756e6420616d6f756e742063616e6e6f7420626520677265617465722060008201527f7468616e20746865206d696c6573746f6e6520616d6f756e7421000000000000602082015250565b7f416d6f756e742073656e7420646f6573206e6f74206d6174636820746865207360008201527f706563696669656420616d6f756e74202b206665657321000000000000000000602082015250565b7f5265717565737420616c7265616479207265736f6c7665642100000000000000600082015250565b7f4d696c6573746f6e6520616c72656164792066756e6465642100000000000000600082015250565b7f4e6f7420746865206d616e616765722100000000000000000000000000000000600082015250565b6132ca81612f16565b81146132d557600080fd5b5056fea26469706673582212206dd4a5c69c25ba512fd2bae1a10dcfa2fe6f7ead030ab1a3c1d58857274dc48e64736f6c63430008020033a2646970667358221220aa8b8f7cbf0ad4a17a15941b9b3321fbcd4c94fb3837fd0e7f7aa8c3efbc69a464736f6c63430008020033",
  "linkReferences": {},
  "deployedLinkReferences": {}
}