{
  "_format": "hh-sol-artifact-1",
  "contractName": "AskGPT",
  "sourceName": "contracts/AskGPT.sol",
  "abi": [
    {
      "inputs": [],
      "stateMutability": "nonpayable",
      "type": "constructor"
    },
    {
      "anonymous": false,
      "inputs": [
        {
          "indexed": true,
          "internalType": "address",
          "name": "_firstParty",
          "type": "address"
        },
        {
          "indexed": true,
          "internalType": "address",
          "name": "_secondParty",
          "type": "address"
        },
        {
          "indexed": false,
          "internalType": "address",
          "name": "_contractAddress",
          "type": "address"
        },
        {
          "indexed": false,
          "internalType": "uint256",
          "name": "_timestamp",
          "type": "uint256"
        }
      ],
      "name": "AgreementCreated",
      "type": "event"
    },
    {
      "stateMutability": "payable",
      "type": "fallback"
    },
    {
      "inputs": [],
      "name": "agreementCount",
      "outputs": [
        {
          "internalType": "uint256",
          "name": "",
          "type": "uint256"
        }
      ],
      "stateMutability": "view",
      "type": "function"
    },
    {
      "inputs": [
        {
          "internalType": "address",
          "name": "",
          "type": "address"
        }
      ],
      "name": "agreementUri",
      "outputs": [
        {
          "internalType": "string",
          "name": "",
          "type": "string"
        }
      ],
      "stateMutability": "view",
      "type": "function"
    },
    {
      "inputs": [
        {
          "internalType": "uint256",
          "name": "",
          "type": "uint256"
        }
      ],
      "name": "agreements",
      "outputs": [
        {
          "internalType": "address",
          "name": "",
          "type": "address"
        }
      ],
      "stateMutability": "view",
      "type": "function"
    },
    {
      "inputs": [
        {
          "internalType": "uint256",
          "name": "",
          "type": "uint256"
        }
      ],
      "name": "agreementsData",
      "outputs": [
        {
          "internalType": "address",
          "name": "contractAddress",
          "type": "address"
        },
        {
          "internalType": "string",
          "name": "data",
          "type": "string"
        }
      ],
      "stateMutability": "view",
      "type": "function"
    },
    {
      "inputs": [
        {
          "internalType": "string",
          "name": "_agreementUri",
          "type": "string"
        },
        {
          "internalType": "uint256",
          "name": "_startsAt",
          "type": "uint256"
        },
        {
          "internalType": "string",
          "name": "_name",
          "type": "string"
        },
        {
          "internalType": "address",
          "name": "_secondParty",
          "type": "address"
        }
      ],
      "name": "createAgreement",
      "outputs": [],
      "stateMutability": "nonpayable",
      "type": "function"
    },
    {
      "inputs": [],
      "name": "creator",
      "outputs": [
        {
          "internalType": "address",
          "name": "",
          "type": "address"
        }
      ],
      "stateMutability": "view",
      "type": "function"
    },
    {
      "inputs": [],
      "name": "getAllAgreements",
      "outputs": [
        {
          "components": [
            {
              "internalType": "address",
              "name": "contractAddress",
              "type": "address"
            },
            {
              "internalType": "string",
              "name": "data",
              "type": "string"
            }
          ],
          "internalType": "struct AskGPT.AgreementData[]",
          "name": "allAgreements",
          "type": "tuple[]"
        }
      ],
      "stateMutability": "view",
      "type": "function"
    },
    {
      "inputs": [
        {
          "internalType": "address",
          "name": "_creator",
          "type": "address"
        }
      ],
      "name": "getUserAgreements",
      "outputs": [
        {
          "components": [
            {
              "internalType": "address",
              "name": "contractAddress",
              "type": "address"
            },
            {
              "internalType": "string",
              "name": "data",
              "type": "string"
            }
          ],
          "internalType": "struct AskGPT.AgreementData[]",
          "name": "allCreatorAgreements",
          "type": "tuple[]"
        }
      ],
      "stateMutability": "view",
      "type": "function"
    },
    {
      "inputs": [],
      "name": "marketFee",
      "outputs": [
        {
          "internalType": "uint256",
          "name": "",
          "type": "uint256"
        }
      ],
      "stateMutability": "view",
      "type": "function"
    },
    {
      "inputs": [
        {
          "internalType": "uint256",
          "name": "_amount",
          "type": "uint256"
        }
      ],
      "name": "setMarketFee",
      "outputs": [],
      "stateMutability": "nonpayable",
      "type": "function"
    },
    {
      "inputs": [
        {
          "internalType": "address",
          "name": "",
          "type": "address"
        },
        {
          "internalType": "uint256",
          "name": "",
          "type": "uint256"
        }
      ],
      "name": "userAgreements",
      "outputs": [
        {
          "internalType": "uint256",
          "name": "",
          "type": "uint256"
        }
      ],
      "stateMutability": "view",
      "type": "function"
    },
    {
      "inputs": [],
      "name": "withdraw",
      "outputs": [],
      "stateMutability": "nonpayable",
      "type": "function"
    },
    {
      "stateMutability": "payable",
      "type": "receive"
    }
  ],
  "bytecode": "0x6080604052601960005534801561001557600080fd5b5033600260006101000a81548173ffffffffffffffffffffffffffffffffffffffff021916908373ffffffffffffffffffffffffffffffffffffffff160217905550614d40806100666000396000f3fe608060405260043610620000bb5760003560e01c80634e6873c7116200006d5780634e6873c714620001df57806385c23f99146200020f5780639f9019e91462000253578063adb9cae61462000298578063bb7bb27814620002dc578063bd14de96146200030c57620000c3565b806302d05d3f14620000c55780630ccf215614620000f557806322822a77146200012557806326b825d214620001535780633ccfd60b14620001815780634c27984e146200019b57620000c3565b36620000c357005b005b348015620000d257600080fd5b50620000dd62000350565b604051620000ec919062001398565b60405180910390f35b3480156200010257600080fd5b506200010d62000376565b6040516200011c91906200152d565b60405180910390f35b3480156200013257600080fd5b506200015160048036038101906200014b9190620010ff565b6200037c565b005b3480156200016057600080fd5b506200017f60048036038101906200017991906200119d565b6200069c565b005b3480156200018e57600080fd5b506200019962000739565b005b348015620001a857600080fd5b50620001c76004803603810190620001c19190620010be565b6200081c565b604051620001d691906200152d565b60405180910390f35b348015620001ec57600080fd5b50620001f76200084e565b604051620002069190620014c3565b60405180910390f35b3480156200021c57600080fd5b506200023b600480360381019062000235919062001092565b62000a73565b6040516200024a9190620014e7565b60405180910390f35b3480156200026057600080fd5b506200027f60048036038101906200027991906200119d565b62000b1b565b6040516200028f92919062001462565b60405180910390f35b348015620002a557600080fd5b50620002c46004803603810190620002be919062001092565b62000bef565b604051620002d39190620014c3565b60405180910390f35b348015620002e957600080fd5b50620002f462000ecb565b6040516200030391906200152d565b60405180910390f35b3480156200031957600080fd5b506200033860048036038101906200033291906200119d565b62000ed1565b60405162000347919062001398565b60405180910390f35b600260009054906101000a900473ffffffffffffffffffffffffffffffffffffffff1681565b60005481565b60016000815480929190620003919062001768565b91905055506000338260015487873088600054600260009054906101000a900473ffffffffffffffffffffffffffffffffffffffff16604051620003d59062000f04565b620003e999989796959493929190620013b5565b604051809103906000f08015801562000406573d6000803e3d6000fd5b50905084600560008373ffffffffffffffffffffffffffffffffffffffff1673ffffffffffffffffffffffffffffffffffffffff16815260200190815260200160002090805190602001906200045e92919062000f12565b508060036000600154815260200190815260200160002060006101000a81548173ffffffffffffffffffffffffffffffffffffffff021916908373ffffffffffffffffffffffffffffffffffffffff16021790555060405180604001604052808273ffffffffffffffffffffffffffffffffffffffff1681526020018681525060066000600154815260200190815260200160002060008201518160000160006101000a81548173ffffffffffffffffffffffffffffffffffffffff021916908373ffffffffffffffffffffffffffffffffffffffff16021790555060208201518160010190805190602001906200055892919062000f12565b50905050600460003373ffffffffffffffffffffffffffffffffffffffff1673ffffffffffffffffffffffffffffffffffffffff1681526020019081526020016000206001549080600181540180825580915050600190039060005260206000200160009091909190915055600460008373ffffffffffffffffffffffffffffffffffffffff1673ffffffffffffffffffffffffffffffffffffffff16815260200190815260200160002060015490806001815401808255809150506001900390600052602060002001600090919091909150558173ffffffffffffffffffffffffffffffffffffffff163373ffffffffffffffffffffffffffffffffffffffff167ff3e9fb09d0520a320797dae1f1ec5bc12aacd22478b49f6e89c50a46c6a2761983426040516200068d92919062001496565b60405180910390a35050505050565b600260009054906101000a900473ffffffffffffffffffffffffffffffffffffffff1673ffffffffffffffffffffffffffffffffffffffff163373ffffffffffffffffffffffffffffffffffffffff16146200072f576040517f08c379a000000000000000000000000000000000000000000000000000000000815260040162000726906200150b565b60405180910390fd5b8060008190555050565b600260009054906101000a900473ffffffffffffffffffffffffffffffffffffffff1673ffffffffffffffffffffffffffffffffffffffff163373ffffffffffffffffffffffffffffffffffffffff1614620007cc576040517f08c379a0000000000000000000000000000000000000000000000000000000008152600401620007c3906200150b565b60405180910390fd5b60003390508073ffffffffffffffffffffffffffffffffffffffff166108fc479081150290604051600060405180830381858888f1935050505015801562000818573d6000803e3d6000fd5b5050565b600460205281600052604060002081815481106200083957600080fd5b90600052602060002001600091509150505481565b6060600060015467ffffffffffffffff81111562000895577f4e487b7100000000000000000000000000000000000000000000000000000000600052604160045260246000fd5b604051908082528060200260200182016040528015620008d257816020015b620008be62000fa3565b815260200190600190039081620008b45790505b5090506000600190505b60018054620008ec919062001617565b81101562000a6b57600660008281526020019081526020016000206040518060400160405290816000820160009054906101000a900473ffffffffffffffffffffffffffffffffffffffff1673ffffffffffffffffffffffffffffffffffffffff1673ffffffffffffffffffffffffffffffffffffffff1681526020016001820180546200097a9062001732565b80601f0160208091040260200160405190810160405280929190818152602001828054620009a89062001732565b8015620009f95780601f10620009cd57610100808354040283529160200191620009f9565b820191906000526020600020905b815481529060010190602001808311620009db57829003601f168201915b5050505050815250508260018362000a12919062001674565b8151811062000a4a577f4e487b7100000000000000000000000000000000000000000000000000000000600052603260045260246000fd5b6020026020010181905250808062000a629062001768565b915050620008dc565b508091505090565b6005602052806000526040600020600091509050805462000a949062001732565b80601f016020809104026020016040519081016040528092919081815260200182805462000ac29062001732565b801562000b135780601f1062000ae75761010080835404028352916020019162000b13565b820191906000526020600020905b81548152906001019060200180831162000af557829003601f168201915b505050505081565b60066020528060005260406000206000915090508060000160009054906101000a900473ffffffffffffffffffffffffffffffffffffffff169080600101805462000b669062001732565b80601f016020809104026020016040519081016040528092919081815260200182805462000b949062001732565b801562000be55780601f1062000bb95761010080835404028352916020019162000be5565b820191906000526020600020905b81548152906001019060200180831162000bc757829003601f168201915b5050505050905082565b60606000600460008473ffffffffffffffffffffffffffffffffffffffff1673ffffffffffffffffffffffffffffffffffffffff16815260200190815260200160002080548060200260200160405190810160405280929190818152602001828054801562000c7e57602002820191906000526020600020905b81548152602001906001019080831162000c69575b505050505090506000815167ffffffffffffffff81111562000cc9577f4e487b7100000000000000000000000000000000000000000000000000000000600052604160045260246000fd5b60405190808252806020026020018201604052801562000d0657816020015b62000cf262000fa3565b81526020019060019003908162000ce85790505b50905060005b825181101562000ec0576006600084838151811062000d54577f4e487b7100000000000000000000000000000000000000000000000000000000600052603260045260246000fd5b602002602001015181526020019081526020016000206040518060400160405290816000820160009054906101000a900473ffffffffffffffffffffffffffffffffffffffff1673ffffffffffffffffffffffffffffffffffffffff1673ffffffffffffffffffffffffffffffffffffffff16815260200160018201805462000ddd9062001732565b80601f016020809104026020016040519081016040528092919081815260200182805462000e0b9062001732565b801562000e5c5780601f1062000e305761010080835404028352916020019162000e5c565b820191906000526020600020905b81548152906001019060200180831162000e3e57829003601f168201915b50505050508152505082828151811062000e9f577f4e487b7100000000000000000000000000000000000000000000000000000000600052603260045260246000fd5b6020026020010181905250808062000eb79062001768565b91505062000d0c565b508092505050919050565b60015481565b60036020528060005260406000206000915054906101000a900473ffffffffffffffffffffffffffffffffffffffff1681565b613482806200188983390190565b82805462000f209062001732565b90600052602060002090601f01602090048101928262000f44576000855562000f90565b82601f1062000f5f57805160ff191683800117855562000f90565b8280016001018555821562000f90579182015b8281111562000f8f57825182559160200191906001019062000f72565b5b50905062000f9f919062000fd3565b5090565b6040518060400160405280600073ffffffffffffffffffffffffffffffffffffffff168152602001606081525090565b5b8082111562000fee57600081600090555060010162000fd4565b5090565b60006200100962001003846200157e565b6200154a565b9050828152602081018484840111156200102257600080fd5b6200102f848285620016ed565b509392505050565b600081359050620010488162001854565b92915050565b600082601f8301126200106057600080fd5b81356200107284826020860162000ff2565b91505092915050565b6000813590506200108c816200186e565b92915050565b600060208284031215620010a557600080fd5b6000620010b58482850162001037565b91505092915050565b60008060408385031215620010d257600080fd5b6000620010e28582860162001037565b9250506020620010f5858286016200107b565b9150509250929050565b600080600080608085870312156200111657600080fd5b600085013567ffffffffffffffff8111156200113157600080fd5b6200113f878288016200104e565b945050602062001152878288016200107b565b935050604085013567ffffffffffffffff8111156200117057600080fd5b6200117e878288016200104e565b9250506060620011918782880162001037565b91505092959194509250565b600060208284031215620011b057600080fd5b6000620011c0848285016200107b565b91505092915050565b6000620011d7838362001346565b905092915050565b620011ea81620016af565b82525050565b620011fb81620016af565b82525050565b60006200120e82620015c1565b6200121a8185620015e4565b9350836020820285016200122e85620015b1565b8060005b858110156200127057848403895281516200124e8582620011c9565b94506200125b83620015d7565b925060208a0199505060018101905062001232565b50829750879550505050505092915050565b60006200128f82620015cc565b6200129b8185620015f5565b9350620012ad818560208601620016fc565b620012b88162001843565b840191505092915050565b6000620012d082620015cc565b620012dc818562001606565b9350620012ee818560208601620016fc565b620012f98162001843565b840191505092915050565b60006200131360108362001606565b91507f4e6f7420746865206d616e6167657221000000000000000000000000000000006000830152602082019050919050565b6000604083016000830151620013606000860182620011df565b50602083015184820360208601526200137a828262001282565b9150508091505092915050565b6200139281620016e3565b82525050565b6000602082019050620013af6000830184620011f0565b92915050565b600061012082019050620013cd600083018c620011f0565b620013dc602083018b620011f0565b620013eb604083018a62001387565b8181036060830152620013ff8189620012c3565b905062001410608083018862001387565b6200141f60a0830187620011f0565b81810360c0830152620014338186620012c3565b90506200144460e083018562001387565b62001454610100830184620011f0565b9a9950505050505050505050565b6000604082019050620014796000830185620011f0565b81810360208301526200148d8184620012c3565b90509392505050565b6000604082019050620014ad6000830185620011f0565b620014bc602083018462001387565b9392505050565b60006020820190508181036000830152620014df818462001201565b905092915050565b60006020820190508181036000830152620015038184620012c3565b905092915050565b60006020820190508181036000830152620015268162001304565b9050919050565b600060208201905062001544600083018462001387565b92915050565b6000604051905081810181811067ffffffffffffffff8211171562001574576200157362001814565b5b8060405250919050565b600067ffffffffffffffff8211156200159c576200159b62001814565b5b601f19601f8301169050602081019050919050565b6000819050602082019050919050565b600081519050919050565b600081519050919050565b6000602082019050919050565b600082825260208201905092915050565b600082825260208201905092915050565b600082825260208201905092915050565b60006200162482620016e3565b91506200163183620016e3565b9250827fffffffffffffffffffffffffffffffffffffffffffffffffffffffffffffffff03821115620016695762001668620017b6565b5b828201905092915050565b60006200168182620016e3565b91506200168e83620016e3565b925082821015620016a457620016a3620017b6565b5b828203905092915050565b6000620016bc82620016c3565b9050919050565b600073ffffffffffffffffffffffffffffffffffffffff82169050919050565b6000819050919050565b82818337600083830152505050565b60005b838110156200171c578082015181840152602081019050620016ff565b838111156200172c576000848401525b50505050565b600060028204905060018216806200174b57607f821691505b60208210811415620017625762001761620017e5565b5b50919050565b60006200177582620016e3565b91507fffffffffffffffffffffffffffffffffffffffffffffffffffffffffffffffff821415620017ab57620017aa620017b6565b5b600182019050919050565b7f4e487b7100000000000000000000000000000000000000000000000000000000600052601160045260246000fd5b7f4e487b7100000000000000000000000000000000000000000000000000000000600052602260045260246000fd5b7f4e487b7100000000000000000000000000000000000000000000000000000000600052604160045260246000fd5b6000601f19601f8301169050919050565b6200185f81620016af565b81146200186b57600080fd5b50565b6200187981620016e3565b81146200188557600080fd5b5056fe60806040523480156200001157600080fd5b5060405162003482380380620034828339818101604052810190620000379190620002e1565b8660068190555080600360006101000a81548173ffffffffffffffffffffffffffffffffffffffff021916908373ffffffffffffffffffffffffffffffffffffffff16021790555088600460006101000a81548173ffffffffffffffffffffffffffffffffffffffff021916908373ffffffffffffffffffffffffffffffffffffffff16021790555087600560006101000a81548173ffffffffffffffffffffffffffffffffffffffff021916908373ffffffffffffffffffffffffffffffffffffffff16021790555085600790805190602001906200011992919062000191565b508460088190555083600260006101000a81548173ffffffffffffffffffffffffffffffffffffffff021916908373ffffffffffffffffffffffffffffffffffffffff16021790555082600090805190602001906200017a92919062000191565b50816001819055505050505050505050506200058f565b8280546200019f90620004c7565b90600052602060002090601f016020900481019282620001c357600085556200020f565b82601f10620001de57805160ff19168380011785556200020f565b828001600101855582156200020f579182015b828111156200020e578251825591602001919060010190620001f1565b5b5090506200021e919062000222565b5090565b5b808211156200023d57600081600090555060010162000223565b5090565b600062000258620002528462000420565b620003ec565b9050828152602081018484840111156200027157600080fd5b6200027e84828562000491565b509392505050565b60008151905062000297816200055b565b92915050565b600082601f830112620002af57600080fd5b8151620002c184826020860162000241565b91505092915050565b600081519050620002db8162000575565b92915050565b60008060008060008060008060006101208a8c0312156200030157600080fd5b6000620003118c828d0162000286565b9950506020620003248c828d0162000286565b9850506040620003378c828d01620002ca565b97505060608a015167ffffffffffffffff8111156200035557600080fd5b620003638c828d016200029d565b9650506080620003768c828d01620002ca565b95505060a0620003898c828d0162000286565b94505060c08a015167ffffffffffffffff811115620003a757600080fd5b620003b58c828d016200029d565b93505060e0620003c88c828d01620002ca565b925050610100620003dc8c828d0162000286565b9150509295985092959850929598565b6000604051905081810181811067ffffffffffffffff821117156200041657620004156200052c565b5b8060405250919050565b600067ffffffffffffffff8211156200043e576200043d6200052c565b5b601f19601f8301169050602081019050919050565b6000620004608262000467565b9050919050565b600073ffffffffffffffffffffffffffffffffffffffff82169050919050565b6000819050919050565b60005b83811015620004b157808201518184015260208101905062000494565b83811115620004c1576000848401525b50505050565b60006002820490506001821680620004e057607f821691505b60208210811415620004f757620004f6620004fd565b5b50919050565b7f4e487b7100000000000000000000000000000000000000000000000000000000600052602260045260246000fd5b7f4e487b7100000000000000000000000000000000000000000000000000000000600052604160045260246000fd5b620005668162000453565b81146200057257600080fd5b50565b620005808162000487565b81146200058c57600080fd5b50565b612ee3806200059f6000396000f3fe6080604052600436106100e75760003560e01c806397926fc81161008a578063c8a3e04e11610059578063c8a3e04e14610285578063e36bd0f3146102ae578063e7ca9969146102ed578063e89e4ed614610318576100e7565b806397926fc81461020d5780639f4a23ba14610236578063bb6e7de914610252578063c438b40f14610269576100e7565b80635de988ab116100c65780635de988ab146101695780636b9080c11461019257806373a482e9146101c85780637d60631e146101e4576100e7565b8062e6652a146100ec5780635c43dd99146101155780635cdb464214610140575b600080fd5b3480156100f857600080fd5b50610113600480360381019061010e9190612205565b61035a565b005b34801561012157600080fd5b5061012a61060a565b6040516101379190612823565b60405180910390f35b34801561014c57600080fd5b5061016760048036038101906101629190612205565b6108b1565b005b34801561017557600080fd5b50610190600480360381019061018b9190612149565b610ac5565b005b34801561019e57600080fd5b506101a7610c86565b6040516101bf9c9b9a9998979695949392919061275b565b60405180910390f35b6101e260048036038101906101dd9190612149565b610e58565b005b3480156101f057600080fd5b5061020b600480360381019061020691906120ca565b6110a3565b005b34801561021957600080fd5b50610234600480360381019061022f9190612149565b611280565b005b610250600480360381019061024b9190612149565b611429565b005b34801561025e57600080fd5b506102676116b7565b005b610283600480360381019061027e9190612149565b611750565b005b34801561029157600080fd5b506102ac60048036038101906102a79190612172565b6119e8565b005b3480156102ba57600080fd5b506102d560048036038101906102d09190612149565b611c0a565b6040516102e493929190612a78565b60405180910390f35b3480156102f957600080fd5b50610302611c41565b60405161030f9190612845565b60405180910390f35b34801561032457600080fd5b5061033f600480360381019061033a9190612149565b611d98565b60405161035196959493929190612867565b60405180910390f35b600460009054906101000a900473ffffffffffffffffffffffffffffffffffffffff1673ffffffffffffffffffffffffffffffffffffffff163373ffffffffffffffffffffffffffffffffffffffff1614806104035750600360009054906101000a900473ffffffffffffffffffffffffffffffffffffffff1673ffffffffffffffffffffffffffffffffffffffff163373ffffffffffffffffffffffffffffffffffffffff16145b610442576040517f08c379a000000000000000000000000000000000000000000000000000000000815260040161043990612914565b60405180910390fd5b600c600083815260200190815260200160002060030160009054906101000a900460ff166104a5576040517f08c379a000000000000000000000000000000000000000000000000000000000815260040161049c90612974565b60405180910390fd5b600c600083815260200190815260200160002060030160029054906101000a900460ff1615610509576040517f08c379a000000000000000000000000000000000000000000000000000000000815260040161050090612954565b60405180910390fd5b600c600083815260200190815260200160002060010154811115610562576040517f08c379a000000000000000000000000000000000000000000000000000000000815260040161055990612994565b60405180910390fd5b604051806060016040528083815260200182815260200160001515815250600d6000600b548152602001908152602001600020600082015181600001556020820151816001015560408201518160020160006101000a81548160ff021916908315150217905550905050817f4edb2645faa4c02901da451f48b7196171ec29bd0eea0677d7e13b21f8cf12b282426040516105fe929190612a4f565b60405180910390a25050565b60606000600a5467ffffffffffffffff811115610650577f4e487b7100000000000000000000000000000000000000000000000000000000600052604160045260246000fd5b60405190808252806020026020018201604052801561068957816020015b610676611f0b565b81526020019060019003908161066e5790505b5090506000600190505b6001600a546106a29190612baf565b8110156108a957600c60008281526020019081526020016000206040518060c00160405290816000820180546106d790612d4e565b80601f016020809104026020016040519081016040528092919081815260200182805461070390612d4e565b80156107505780601f1061072557610100808354040283529160200191610750565b820191906000526020600020905b81548152906001019060200180831161073357829003601f168201915b505050505081526020016001820154815260200160028201805461077390612d4e565b80601f016020809104026020016040519081016040528092919081815260200182805461079f90612d4e565b80156107ec5780601f106107c1576101008083540402835291602001916107ec565b820191906000526020600020905b8154815290600101906020018083116107cf57829003601f168201915b505050505081526020016003820160009054906101000a900460ff161515151581526020016003820160019054906101000a900460ff161515151581526020016003820160029054906101000a900460ff161515151581525050826001836108549190612c90565b8151811061088b577f4e487b7100000000000000000000000000000000000000000000000000000000600052603260045260246000fd5b602002602001018190525080806108a190612d80565b915050610693565b508091505090565b600460009054906101000a900473ffffffffffffffffffffffffffffffffffffffff1673ffffffffffffffffffffffffffffffffffffffff163373ffffffffffffffffffffffffffffffffffffffff16148061095a5750600360009054906101000a900473ffffffffffffffffffffffffffffffffffffffff1673ffffffffffffffffffffffffffffffffffffffff163373ffffffffffffffffffffffffffffffffffffffff16145b610999576040517f08c379a000000000000000000000000000000000000000000000000000000000815260040161099090612914565b60405180910390fd5b600d600083815260200190815260200160002060020160009054906101000a900460ff16156109fd576040517f08c379a00000000000000000000000000000000000000000000000000000000081526004016109f4906129d4565b60405180910390fd5b600c6000600d600085815260200190815260200160002060000154815260200190815260200160002060010154811115610a6c576040517f08c379a0000000000000000000000000000000000000000000000000000000008152600401610a6390612994565b60405180910390fd5b80600d600084815260200190815260200160002060010181905550817fd35e4a11544ca6df55d52949c95edc0f59ce2714fd227da3726a92457b09a38c8242604051610ab9929190612a4f565b60405180910390a25050565b600560009054906101000a900473ffffffffffffffffffffffffffffffffffffffff1673ffffffffffffffffffffffffffffffffffffffff163373ffffffffffffffffffffffffffffffffffffffff1614610b55576040517f08c379a0000000000000000000000000000000000000000000000000000000008152600401610b4c90612934565b60405180910390fd5b600c600082815260200190815260200160002060030160009054906101000a900460ff16610bb8576040517f08c379a0000000000000000000000000000000000000000000000000000000008152600401610baf90612974565b60405180910390fd5b600c600082815260200190815260200160002060030160029054906101000a900460ff1615610c1c576040517f08c379a0000000000000000000000000000000000000000000000000000000008152600401610c1390612954565b60405180910390fd5b6001600c600083815260200190815260200160002060030160016101000a81548160ff021916908315150217905550807fcaf49e218dd72f80b847b963b0a3f9b56254f688513253fe99b456e6311c1fb942604051610c7b9190612a34565b60405180910390a250565b6000806000606060008060008060006060600080600460009054906101000a900473ffffffffffffffffffffffffffffffffffffffff16600560009054906101000a900473ffffffffffffffffffffffffffffffffffffffff16600654600760085460095447600a54600b546000600154600360009054906101000a900473ffffffffffffffffffffffffffffffffffffffff16888054610d2690612d4e565b80601f0160208091040260200160405190810160405280929190818152602001828054610d5290612d4e565b8015610d9f5780601f10610d7457610100808354040283529160200191610d9f565b820191906000526020600020905b815481529060010190602001808311610d8257829003601f168201915b50505050509850828054610db290612d4e565b80601f0160208091040260200160405190810160405280929190818152602001828054610dde90612d4e565b8015610e2b5780601f10610e0057610100808354040283529160200191610e2b565b820191906000526020600020905b815481529060010190602001808311610e0e57829003601f168201915b505050505092509b509b509b509b509b509b509b509b509b509b509b509b50909192939495969798999a9b565b600460009054906101000a900473ffffffffffffffffffffffffffffffffffffffff1673ffffffffffffffffffffffffffffffffffffffff163373ffffffffffffffffffffffffffffffffffffffff1614610ee8576040517f08c379a0000000000000000000000000000000000000000000000000000000008152600401610edf90612a14565b60405180910390fd5b60006103e860015434610efb9190612c36565b610f059190612c05565b9050600c600083815260200190815260200160002060030160009054906101000a900460ff1615610f6b576040517f08c379a0000000000000000000000000000000000000000000000000000000008152600401610f62906129f4565b60405180910390fd5b80600c600084815260200190815260200160002060010154610f8d9190612baf565b341015610fcf576040517f08c379a0000000000000000000000000000000000000000000000000000000008152600401610fc6906129b4565b60405180910390fd5b600260009054906101000a900473ffffffffffffffffffffffffffffffffffffffff1673ffffffffffffffffffffffffffffffffffffffff166108fc829081150290604051600060405180830381858888f19350505050158015611037573d6000803e3d6000fd5b506001600c600084815260200190815260200160002060030160006101000a81548160ff021916908315150217905550817fad6f5443f0021bc2808ac5204f3c96a037dc9406ec9bfdf92a8e81539f04c605426040516110979190612a34565b60405180910390a25050565b600460009054906101000a900473ffffffffffffffffffffffffffffffffffffffff1673ffffffffffffffffffffffffffffffffffffffff163373ffffffffffffffffffffffffffffffffffffffff1614611133576040517f08c379a000000000000000000000000000000000000000000000000000000000815260040161112a90612a14565b60405180910390fd5b600a600081548092919061114690612d80565b91905055506040518060c0016040528084815260200183815260200182815260200160001515815260200160001515815260200160001515815250600c6000600a54815260200190815260200160002060008201518160000190805190602001906111b2929190611f47565b506020820151816001015560408201518160020190805190602001906111d9929190611f47565b5060608201518160030160006101000a81548160ff02191690831515021790555060808201518160030160016101000a81548160ff02191690831515021790555060a08201518160030160026101000a81548160ff021916908315150217905550905050600a547f6df4a40f54ddbc024cc4e985b8fa77b24d3b18ae73fe8d9444beaed8682ff0f3848442604051611273939291906128d6565b60405180910390a2505050565b600460009054906101000a900473ffffffffffffffffffffffffffffffffffffffff1673ffffffffffffffffffffffffffffffffffffffff163373ffffffffffffffffffffffffffffffffffffffff1614611310576040517f08c379a000000000000000000000000000000000000000000000000000000000815260040161130790612a14565b60405180910390fd5b600c600082815260200190815260200160002060030160009054906101000a900460ff1615611374576040517f08c379a000000000000000000000000000000000000000000000000000000000815260040161136b906129f4565b60405180910390fd5b600c6000828152602001908152602001600020600080820160006113989190611fcd565b60018201600090556002820160006113b09190611fcd565b6003820160006101000a81549060ff02191690556003820160016101000a81549060ff02191690556003820160026101000a81549060ff02191690555050807f846ab9b254edc77fe46806b496d2efb2f0f0f1c7338a82ee13d93ceb37152d2a4260405161141e9190612a34565b60405180910390a250565b600460009054906101000a900473ffffffffffffffffffffffffffffffffffffffff1673ffffffffffffffffffffffffffffffffffffffff163373ffffffffffffffffffffffffffffffffffffffff1614806114d25750600360009054906101000a900473ffffffffffffffffffffffffffffffffffffffff1673ffffffffffffffffffffffffffffffffffffffff163373ffffffffffffffffffffffffffffffffffffffff16145b611511576040517f08c379a000000000000000000000000000000000000000000000000000000000815260040161150890612914565b60405180910390fd5b600d600082815260200190815260200160002060020160009054906101000a900460ff1615611575576040517f08c379a000000000000000000000000000000000000000000000000000000000815260040161156c906129d4565b60405180910390fd5b6001600d600083815260200190815260200160002060020160006101000a81548160ff021916908315150217905550600d600082815260200190815260200160002060010154600c6000600d600085815260200190815260200160002060000154815260200190815260200160002060010160008282546115f69190612c90565b92505081905550600460009054906101000a900473ffffffffffffffffffffffffffffffffffffffff1673ffffffffffffffffffffffffffffffffffffffff166108fc600d6000848152602001908152602001600020600101549081150290604051600060405180830381858888f1935050505015801561167b573d6000803e3d6000fd5b50807f4ce0986d74e104c2d3d9c6f307178d94afd5abaf7ccf6658a17fac5a5718a8f2426040516116ac9190612a34565b60405180910390a250565b600460009054906101000a900473ffffffffffffffffffffffffffffffffffffffff1673ffffffffffffffffffffffffffffffffffffffff163373ffffffffffffffffffffffffffffffffffffffff1614611747576040517f08c379a000000000000000000000000000000000000000000000000000000000815260040161173e90612a14565b60405180910390fd5b42600981905550565b600460009054906101000a900473ffffffffffffffffffffffffffffffffffffffff1673ffffffffffffffffffffffffffffffffffffffff163373ffffffffffffffffffffffffffffffffffffffff1614806117f95750600360009054906101000a900473ffffffffffffffffffffffffffffffffffffffff1673ffffffffffffffffffffffffffffffffffffffff163373ffffffffffffffffffffffffffffffffffffffff16145b611838576040517f08c379a000000000000000000000000000000000000000000000000000000000815260040161182f90612914565b60405180910390fd5b600c600082815260200190815260200160002060030160009054906101000a900460ff1661189b576040517f08c379a000000000000000000000000000000000000000000000000000000000815260040161189290612974565b60405180910390fd5b600c600082815260200190815260200160002060030160029054906101000a900460ff16156118ff576040517f08c379a00000000000000000000000000000000000000000000000000000000081526004016118f690612954565b60405180910390fd5b6001600c600083815260200190815260200160002060030160026101000a81548160ff021916908315150217905550600560009054906101000a900473ffffffffffffffffffffffffffffffffffffffff1673ffffffffffffffffffffffffffffffffffffffff166108fc600c6000848152602001908152602001600020600101549081150290604051600060405180830381858888f193505050501580156119ac573d6000803e3d6000fd5b50807f939da3b627c123c81fe5aacebf925163337a0d4f8a03724640618078cad24894426040516119dd9190612a34565b60405180910390a250565b600460009054906101000a900473ffffffffffffffffffffffffffffffffffffffff1673ffffffffffffffffffffffffffffffffffffffff163373ffffffffffffffffffffffffffffffffffffffff1614611a78576040517f08c379a0000000000000000000000000000000000000000000000000000000008152600401611a6f90612a14565b60405180910390fd5b600c600085815260200190815260200160002060030160009054906101000a900460ff1615611adc576040517f08c379a0000000000000000000000000000000000000000000000000000000008152600401611ad3906129f4565b60405180910390fd5b6040518060c0016040528084815260200183815260200182815260200160001515815260200160001515815260200160001515815250600c60008681526020019081526020016000206000820151816000019080519060200190611b41929190611f47565b50602082015181600101556040820151816002019080519060200190611b68929190611f47565b5060608201518160030160006101000a81548160ff02191690831515021790555060808201518160030160016101000a81548160ff02191690831515021790555060a08201518160030160026101000a81548160ff021916908315150217905550905050837f03ba09f38b23ad2697f2c208e0c31023842b2f3da43982784195f20216b2291f42604051611bfc9190612a34565b60405180910390a250505050565b600d6020528060005260406000206000915090508060000154908060010154908060020160009054906101000a900460ff16905083565b60606000600b5467ffffffffffffffff811115611c87577f4e487b7100000000000000000000000000000000000000000000000000000000600052604160045260246000fd5b604051908082528060200260200182016040528015611cc057816020015b611cad61200d565b815260200190600190039081611ca55790505b5090506000600190505b6001600b54611cd99190612baf565b811015611d9057600d600082815260200190815260200160002060405180606001604052908160008201548152602001600182015481526020016002820160009054906101000a900460ff16151515158152505082600183611d3b9190612c90565b81518110611d72577f4e487b7100000000000000000000000000000000000000000000000000000000600052603260045260246000fd5b60200260200101819052508080611d8890612d80565b915050611cca565b508091505090565b600c602052806000526040600020600091509050806000018054611dbb90612d4e565b80601f0160208091040260200160405190810160405280929190818152602001828054611de790612d4e565b8015611e345780601f10611e0957610100808354040283529160200191611e34565b820191906000526020600020905b815481529060010190602001808311611e1757829003601f168201915b505050505090806001015490806002018054611e4f90612d4e565b80601f0160208091040260200160405190810160405280929190818152602001828054611e7b90612d4e565b8015611ec85780601f10611e9d57610100808354040283529160200191611ec8565b820191906000526020600020905b815481529060010190602001808311611eab57829003601f168201915b5050505050908060030160009054906101000a900460ff16908060030160019054906101000a900460ff16908060030160029054906101000a900460ff16905086565b6040518060c001604052806060815260200160008152602001606081526020016000151581526020016000151581526020016000151581525090565b828054611f5390612d4e565b90600052602060002090601f016020900481019282611f755760008555611fbc565b82601f10611f8e57805160ff1916838001178555611fbc565b82800160010185558215611fbc579182015b82811115611fbb578251825591602001919060010190611fa0565b5b509050611fc99190612030565b5090565b508054611fd990612d4e565b6000825580601f10611feb575061200a565b601f0160209004906000526020600020908101906120099190612030565b5b50565b604051806060016040528060008152602001600081526020016000151581525090565b5b80821115612049576000816000905550600101612031565b5090565b600061206061205b84612ae0565b612aaf565b90508281526020810184848401111561207857600080fd5b612083848285612d0c565b509392505050565b600082601f83011261209c57600080fd5b81356120ac84826020860161204d565b91505092915050565b6000813590506120c481612e96565b92915050565b6000806000606084860312156120df57600080fd5b600084013567ffffffffffffffff8111156120f957600080fd5b6121058682870161208b565b9350506020612116868287016120b5565b925050604084013567ffffffffffffffff81111561213357600080fd5b61213f8682870161208b565b9150509250925092565b60006020828403121561215b57600080fd5b6000612169848285016120b5565b91505092915050565b6000806000806080858703121561218857600080fd5b6000612196878288016120b5565b945050602085013567ffffffffffffffff8111156121b357600080fd5b6121bf8782880161208b565b93505060406121d0878288016120b5565b925050606085013567ffffffffffffffff8111156121ed57600080fd5b6121f98782880161208b565b91505092959194509250565b6000806040838503121561221857600080fd5b6000612226858286016120b5565b9250506020612237858286016120b5565b9150509250929050565b600061224d838361266b565b905092915050565b600061226183836126fb565b60608301905092915050565b61227681612cc4565b82525050565b600061228782612b30565b6122918185612b6b565b9350836020820285016122a385612b10565b8060005b858110156122df57848403895281516122c08582612241565b94506122cb83612b51565b925060208a019950506001810190506122a7565b50829750879550505050505092915050565b60006122fc82612b3b565b6123068185612b7c565b935061231183612b20565b8060005b838110156123425781516123298882612255565b975061233483612b5e565b925050600181019050612315565b5085935050505092915050565b61235881612cd6565b82525050565b61236781612cd6565b82525050565b600061237882612b46565b6123828185612b8d565b9350612392818560208601612d1b565b61239b81612e85565b840191505092915050565b60006123b182612b46565b6123bb8185612b9e565b93506123cb818560208601612d1b565b6123d481612e85565b840191505092915050565b60006123ec601983612b9e565b91507f4e6f74207468652064697370757465207265736f6c76657221000000000000006000830152602082019050919050565b600061242c601183612b9e565b91507f4e6f7420746865207265636569766572210000000000000000000000000000006000830152602082019050919050565b600061246c601b83612b9e565b91507f4d696c6573746f6e6520616c726561647920617070726f7665642100000000006000830152602082019050919050565b60006124ac601783612b9e565b91507f4d696c6573746f6e652069736e27742066756e646564210000000000000000006000830152602082019050919050565b60006124ec603a83612b9e565b91507f526566756e6420616d6f756e742063616e6e6f7420626520677265617465722060008301527f7468616e20746865206d696c6573746f6e6520616d6f756e74210000000000006020830152604082019050919050565b6000612552603783612b9e565b91507f416d6f756e742073656e7420646f6573206e6f74206d6174636820746865207360008301527f706563696669656420616d6f756e74202b2066656573210000000000000000006020830152604082019050919050565b60006125b8601983612b9e565b91507f5265717565737420616c7265616479207265736f6c76656421000000000000006000830152602082019050919050565b60006125f8601983612b9e565b91507f4d696c6573746f6e6520616c72656164792066756e64656421000000000000006000830152602082019050919050565b6000612638601083612b9e565b91507f4e6f7420746865206d616e6167657221000000000000000000000000000000006000830152602082019050919050565b600060c0830160008301518482036000860152612688828261236d565b915050602083015161269d602086018261273d565b50604083015184820360408601526126b5828261236d565b91505060608301516126ca606086018261234f565b5060808301516126dd608086018261234f565b5060a08301516126f060a086018261234f565b508091505092915050565b606082016000820151612711600085018261273d565b506020820151612724602085018261273d565b506040820151612737604085018261234f565b50505050565b61274681612d02565b82525050565b61275581612d02565b82525050565b600061018082019050612771600083018f61226d565b61277e602083018e61226d565b61278b604083018d61274c565b818103606083015261279d818c6123a6565b90506127ac608083018b61274c565b6127b960a083018a61274c565b6127c660c083018961274c565b6127d360e083018861274c565b6127e161010083018761274c565b8181036101208301526127f481866123a6565b905061280461014083018561274c565b61281261016083018461226d565b9d9c50505050505050505050505050565b6000602082019050818103600083015261283d818461227c565b905092915050565b6000602082019050818103600083015261285f81846122f1565b905092915050565b600060c082019050818103600083015261288181896123a6565b9050612890602083018861274c565b81810360408301526128a281876123a6565b90506128b1606083018661235e565b6128be608083018561235e565b6128cb60a083018461235e565b979650505050505050565b600060608201905081810360008301526128f081866123a6565b90506128ff602083018561274c565b61290c604083018461274c565b949350505050565b6000602082019050818103600083015261292d816123df565b9050919050565b6000602082019050818103600083015261294d8161241f565b9050919050565b6000602082019050818103600083015261296d8161245f565b9050919050565b6000602082019050818103600083015261298d8161249f565b9050919050565b600060208201905081810360008301526129ad816124df565b9050919050565b600060208201905081810360008301526129cd81612545565b9050919050565b600060208201905081810360008301526129ed816125ab565b9050919050565b60006020820190508181036000830152612a0d816125eb565b9050919050565b60006020820190508181036000830152612a2d8161262b565b9050919050565b6000602082019050612a49600083018461274c565b92915050565b6000604082019050612a64600083018561274c565b612a71602083018461274c565b9392505050565b6000606082019050612a8d600083018661274c565b612a9a602083018561274c565b612aa7604083018461235e565b949350505050565b6000604051905081810181811067ffffffffffffffff82111715612ad657612ad5612e56565b5b8060405250919050565b600067ffffffffffffffff821115612afb57612afa612e56565b5b601f19601f8301169050602081019050919050565b6000819050602082019050919050565b6000819050602082019050919050565b600081519050919050565b600081519050919050565b600081519050919050565b6000602082019050919050565b6000602082019050919050565b600082825260208201905092915050565b600082825260208201905092915050565b600082825260208201905092915050565b600082825260208201905092915050565b6000612bba82612d02565b9150612bc583612d02565b9250827fffffffffffffffffffffffffffffffffffffffffffffffffffffffffffffffff03821115612bfa57612bf9612dc9565b5b828201905092915050565b6000612c1082612d02565b9150612c1b83612d02565b925082612c2b57612c2a612df8565b5b828204905092915050565b6000612c4182612d02565b9150612c4c83612d02565b9250817fffffffffffffffffffffffffffffffffffffffffffffffffffffffffffffffff0483118215151615612c8557612c84612dc9565b5b828202905092915050565b6000612c9b82612d02565b9150612ca683612d02565b925082821015612cb957612cb8612dc9565b5b828203905092915050565b6000612ccf82612ce2565b9050919050565b60008115159050919050565b600073ffffffffffffffffffffffffffffffffffffffff82169050919050565b6000819050919050565b82818337600083830152505050565b60005b83811015612d39578082015181840152602081019050612d1e565b83811115612d48576000848401525b50505050565b60006002820490506001821680612d6657607f821691505b60208210811415612d7a57612d79612e27565b5b50919050565b6000612d8b82612d02565b91507fffffffffffffffffffffffffffffffffffffffffffffffffffffffffffffffff821415612dbe57612dbd612dc9565b5b600182019050919050565b7f4e487b7100000000000000000000000000000000000000000000000000000000600052601160045260246000fd5b7f4e487b7100000000000000000000000000000000000000000000000000000000600052601260045260246000fd5b7f4e487b7100000000000000000000000000000000000000000000000000000000600052602260045260246000fd5b7f4e487b7100000000000000000000000000000000000000000000000000000000600052604160045260246000fd5b6000601f19601f8301169050919050565b612e9f81612d02565b8114612eaa57600080fd5b5056fea2646970667358221220652936fafa4c38c2b37d328104008886d1ab215609ea885953a1e75007c4249964736f6c63430008000033a2646970667358221220378bc3f681ee2949cfa57ce90c43ae8ec781835a51cf4fbbd5a7921782b0803064736f6c63430008000033",
  "linkReferences": {},
  "deployedLinkReferences": {}
}