{
  "_format": "hh-sol-artifact-1",
  "contractName": "AskGPT",
  "sourceName": "contracts/AskGPT.sol",
  "abi": [
    {
      "inputs": [
        {
          "internalType": "address",
          "name": "_forwarder",
          "type": "address"
        }
      ],
      "stateMutability": "nonpayable",
      "type": "constructor"
    },
    {
      "anonymous": false,
      "inputs": [
        {
          "indexed": true,
          "internalType": "address",
          "name": "_firstParty",
          "type": "address"
        },
        {
          "indexed": true,
          "internalType": "address",
          "name": "_secondParty",
          "type": "address"
        },
        {
          "indexed": false,
          "internalType": "address",
          "name": "_contractAddress",
          "type": "address"
        },
        {
          "indexed": false,
          "internalType": "uint256",
          "name": "_timestamp",
          "type": "uint256"
        }
      ],
      "name": "AgreementCreated",
      "type": "event"
    },
    {
      "stateMutability": "payable",
      "type": "fallback"
    },
    {
      "inputs": [],
      "name": "agreementCount",
      "outputs": [
        {
          "internalType": "uint256",
          "name": "",
          "type": "uint256"
        }
      ],
      "stateMutability": "view",
      "type": "function"
    },
    {
      "inputs": [
        {
          "internalType": "address",
          "name": "",
          "type": "address"
        }
      ],
      "name": "agreementUri",
      "outputs": [
        {
          "internalType": "string",
          "name": "",
          "type": "string"
        }
      ],
      "stateMutability": "view",
      "type": "function"
    },
    {
      "inputs": [
        {
          "internalType": "uint256",
          "name": "",
          "type": "uint256"
        }
      ],
      "name": "agreements",
      "outputs": [
        {
          "internalType": "address",
          "name": "",
          "type": "address"
        }
      ],
      "stateMutability": "view",
      "type": "function"
    },
    {
      "inputs": [
        {
          "internalType": "uint256",
          "name": "",
          "type": "uint256"
        }
      ],
      "name": "agreementsData",
      "outputs": [
        {
          "internalType": "address",
          "name": "contractAddress",
          "type": "address"
        },
        {
          "internalType": "string",
          "name": "data",
          "type": "string"
        }
      ],
      "stateMutability": "view",
      "type": "function"
    },
    {
      "inputs": [
        {
          "internalType": "string",
          "name": "_agreementUri",
          "type": "string"
        },
        {
          "internalType": "uint256",
          "name": "_startsAt",
          "type": "uint256"
        },
        {
          "internalType": "string",
          "name": "_name",
          "type": "string"
        },
        {
          "internalType": "address",
          "name": "_secondParty",
          "type": "address"
        }
      ],
      "name": "createAgreement",
      "outputs": [],
      "stateMutability": "nonpayable",
      "type": "function"
    },
    {
      "inputs": [],
      "name": "creator",
      "outputs": [
        {
          "internalType": "address",
          "name": "",
          "type": "address"
        }
      ],
      "stateMutability": "view",
      "type": "function"
    },
    {
      "inputs": [],
      "name": "getAllAgreements",
      "outputs": [
        {
          "components": [
            {
              "internalType": "address",
              "name": "contractAddress",
              "type": "address"
            },
            {
              "internalType": "string",
              "name": "data",
              "type": "string"
            }
          ],
          "internalType": "struct AskGPT.AgreementData[]",
          "name": "allAgreements",
          "type": "tuple[]"
        }
      ],
      "stateMutability": "view",
      "type": "function"
    },
    {
      "inputs": [
        {
          "internalType": "address",
          "name": "_creator",
          "type": "address"
        }
      ],
      "name": "getUserAgreements",
      "outputs": [
        {
          "components": [
            {
              "internalType": "address",
              "name": "contractAddress",
              "type": "address"
            },
            {
              "internalType": "string",
              "name": "data",
              "type": "string"
            }
          ],
          "internalType": "struct AskGPT.AgreementData[]",
          "name": "allCreatorAgreements",
          "type": "tuple[]"
        }
      ],
      "stateMutability": "view",
      "type": "function"
    },
    {
      "inputs": [],
      "name": "marketFee",
      "outputs": [
        {
          "internalType": "uint256",
          "name": "",
          "type": "uint256"
        }
      ],
      "stateMutability": "view",
      "type": "function"
    },
    {
      "inputs": [
        {
          "internalType": "uint256",
          "name": "_amount",
          "type": "uint256"
        }
      ],
      "name": "setMarketFee",
      "outputs": [],
      "stateMutability": "nonpayable",
      "type": "function"
    },
    {
      "inputs": [
        {
          "internalType": "address",
          "name": "",
          "type": "address"
        },
        {
          "internalType": "uint256",
          "name": "",
          "type": "uint256"
        }
      ],
      "name": "userAgreements",
      "outputs": [
        {
          "internalType": "uint256",
          "name": "",
          "type": "uint256"
        }
      ],
      "stateMutability": "view",
      "type": "function"
    },
    {
      "inputs": [],
      "name": "withdraw",
      "outputs": [],
      "stateMutability": "nonpayable",
      "type": "function"
    },
    {
      "stateMutability": "payable",
      "type": "receive"
    }
  ],
  "bytecode": "0x608060405260196000553480156200001657600080fd5b50604051620052ef380380620052ef83398181016040528101906200003c9190620000dc565b33600260006101000a81548173ffffffffffffffffffffffffffffffffffffffff021916908373ffffffffffffffffffffffffffffffffffffffff16021790555080600360006101000a81548173ffffffffffffffffffffffffffffffffffffffff021916908373ffffffffffffffffffffffffffffffffffffffff1602179055505062000156565b600081519050620000d6816200013c565b92915050565b600060208284031215620000ef57600080fd5b6000620000ff84828501620000c5565b91505092915050565b600062000115826200011c565b9050919050565b600073ffffffffffffffffffffffffffffffffffffffff82169050919050565b620001478162000108565b81146200015357600080fd5b50565b61518980620001666000396000f3fe608060405260043610620000bb5760003560e01c80634e6873c7116200006d5780634e6873c714620001df57806385c23f99146200020f5780639f9019e91462000253578063adb9cae61462000298578063bb7bb27814620002dc578063bd14de96146200030c57620000c3565b806302d05d3f14620000c55780630ccf215614620000f557806322822a77146200012557806326b825d214620001535780633ccfd60b14620001815780634c27984e146200019b57620000c3565b36620000c357005b005b348015620000d257600080fd5b50620000dd62000350565b604051620000ec9190620014b2565b60405180910390f35b3480156200010257600080fd5b506200010d62000376565b6040516200011c919062001658565b60405180910390f35b3480156200013257600080fd5b506200015160048036038101906200014b919062001234565b6200037c565b005b3480156200016057600080fd5b506200017f6004803603810190620001799190620012d2565b620006db565b005b3480156200018e57600080fd5b506200019962000781565b005b348015620001a857600080fd5b50620001c76004803603810190620001c19190620011f3565b62000876565b604051620001d6919062001658565b60405180910390f35b348015620001ec57600080fd5b50620001f7620008a8565b604051620002069190620015ee565b60405180910390f35b3480156200021c57600080fd5b506200023b6004803603810190620002359190620011c7565b62000acd565b6040516200024a919062001612565b60405180910390f35b3480156200026057600080fd5b506200027f6004803603810190620002799190620012d2565b62000b75565b6040516200028f9291906200158d565b60405180910390f35b348015620002a557600080fd5b50620002c46004803603810190620002be9190620011c7565b62000c49565b604051620002d39190620015ee565b60405180910390f35b348015620002e957600080fd5b50620002f462000f25565b60405162000303919062001658565b60405180910390f35b3480156200031957600080fd5b50620003386004803603810190620003329190620012d2565b62000f2b565b604051620003479190620014b2565b60405180910390f35b600260009054906101000a900473ffffffffffffffffffffffffffffffffffffffff1681565b60005481565b600160008154809291906200039190620018c1565b91905055506000620003a262000f5e565b8260015487873088600054600260009054906101000a900473ffffffffffffffffffffffffffffffffffffffff16600360009054906101000a900473ffffffffffffffffffffffffffffffffffffffff16604051620004019062001039565b620004169a99989796959493929190620014cf565b604051809103906000f08015801562000433573d6000803e3d6000fd5b50905084600660008373ffffffffffffffffffffffffffffffffffffffff1673ffffffffffffffffffffffffffffffffffffffff16815260200190815260200160002090805190602001906200048b92919062001047565b508060046000600154815260200190815260200160002060006101000a81548173ffffffffffffffffffffffffffffffffffffffff021916908373ffffffffffffffffffffffffffffffffffffffff16021790555060405180604001604052808273ffffffffffffffffffffffffffffffffffffffff1681526020018681525060076000600154815260200190815260200160002060008201518160000160006101000a81548173ffffffffffffffffffffffffffffffffffffffff021916908373ffffffffffffffffffffffffffffffffffffffff16021790555060208201518160010190805190602001906200058592919062001047565b50905050600560006200059762000f5e565b73ffffffffffffffffffffffffffffffffffffffff1673ffffffffffffffffffffffffffffffffffffffff1681526020019081526020016000206001549080600181540180825580915050600190039060005260206000200160009091909190915055600560008373ffffffffffffffffffffffffffffffffffffffff1673ffffffffffffffffffffffffffffffffffffffff16815260200190815260200160002060015490806001815401808255809150506001900390600052602060002001600090919091909150558173ffffffffffffffffffffffffffffffffffffffff166200068362000f5e565b73ffffffffffffffffffffffffffffffffffffffff167ff3e9fb09d0520a320797dae1f1ec5bc12aacd22478b49f6e89c50a46c6a276198342604051620006cc929190620015c1565b60405180910390a35050505050565b600260009054906101000a900473ffffffffffffffffffffffffffffffffffffffff1673ffffffffffffffffffffffffffffffffffffffff166200071e62000f5e565b73ffffffffffffffffffffffffffffffffffffffff161462000777576040517f08c379a00000000000000000000000000000000000000000000000000000000081526004016200076e9062001636565b60405180910390fd5b8060008190555050565b600260009054906101000a900473ffffffffffffffffffffffffffffffffffffffff1673ffffffffffffffffffffffffffffffffffffffff16620007c462000f5e565b73ffffffffffffffffffffffffffffffffffffffff16146200081d576040517f08c379a0000000000000000000000000000000000000000000000000000000008152600401620008149062001636565b60405180910390fd5b60006200082962000f5e565b90508073ffffffffffffffffffffffffffffffffffffffff166108fc479081150290604051600060405180830381858888f1935050505015801562000872573d6000803e3d6000fd5b5050565b600560205281600052604060002081815481106200089357600080fd5b90600052602060002001600091509150505481565b6060600060015467ffffffffffffffff811115620008ef577f4e487b7100000000000000000000000000000000000000000000000000000000600052604160045260246000fd5b6040519080825280602002602001820160405280156200092c57816020015b62000918620010d8565b8152602001906001900390816200090e5790505b5090506000600190505b600180546200094691906200173a565b81101562000ac557600760008281526020019081526020016000206040518060400160405290816000820160009054906101000a900473ffffffffffffffffffffffffffffffffffffffff1673ffffffffffffffffffffffffffffffffffffffff1673ffffffffffffffffffffffffffffffffffffffff168152602001600182018054620009d49062001855565b80601f016020809104026020016040519081016040528092919081815260200182805462000a029062001855565b801562000a535780601f1062000a275761010080835404028352916020019162000a53565b820191906000526020600020905b81548152906001019060200180831162000a3557829003601f168201915b5050505050815250508260018362000a6c919062001797565b8151811062000aa4577f4e487b7100000000000000000000000000000000000000000000000000000000600052603260045260246000fd5b6020026020010181905250808062000abc90620018c1565b91505062000936565b508091505090565b6006602052806000526040600020600091509050805462000aee9062001855565b80601f016020809104026020016040519081016040528092919081815260200182805462000b1c9062001855565b801562000b6d5780601f1062000b415761010080835404028352916020019162000b6d565b820191906000526020600020905b81548152906001019060200180831162000b4f57829003601f168201915b505050505081565b60076020528060005260406000206000915090508060000160009054906101000a900473ffffffffffffffffffffffffffffffffffffffff169080600101805462000bc09062001855565b80601f016020809104026020016040519081016040528092919081815260200182805462000bee9062001855565b801562000c3f5780601f1062000c135761010080835404028352916020019162000c3f565b820191906000526020600020905b81548152906001019060200180831162000c2157829003601f168201915b5050505050905082565b60606000600560008473ffffffffffffffffffffffffffffffffffffffff1673ffffffffffffffffffffffffffffffffffffffff16815260200190815260200160002080548060200260200160405190810160405280929190818152602001828054801562000cd857602002820191906000526020600020905b81548152602001906001019080831162000cc3575b505050505090506000815167ffffffffffffffff81111562000d23577f4e487b7100000000000000000000000000000000000000000000000000000000600052604160045260246000fd5b60405190808252806020026020018201604052801562000d6057816020015b62000d4c620010d8565b81526020019060019003908162000d425790505b50905060005b825181101562000f1a576007600084838151811062000dae577f4e487b7100000000000000000000000000000000000000000000000000000000600052603260045260246000fd5b602002602001015181526020019081526020016000206040518060400160405290816000820160009054906101000a900473ffffffffffffffffffffffffffffffffffffffff1673ffffffffffffffffffffffffffffffffffffffff1673ffffffffffffffffffffffffffffffffffffffff16815260200160018201805462000e379062001855565b80601f016020809104026020016040519081016040528092919081815260200182805462000e659062001855565b801562000eb65780601f1062000e8a5761010080835404028352916020019162000eb6565b820191906000526020600020905b81548152906001019060200180831162000e9857829003601f168201915b50505050508152505082828151811062000ef9577f4e487b7100000000000000000000000000000000000000000000000000000000600052603260045260246000fd5b6020026020010181905250808062000f1190620018c1565b91505062000d66565b508092505050919050565b60015481565b60046020528060005260406000206000915054906101000a900473ffffffffffffffffffffffffffffffffffffffff1681565b6000600360009054906101000a900473ffffffffffffffffffffffffffffffffffffffff1673ffffffffffffffffffffffffffffffffffffffff163373ffffffffffffffffffffffffffffffffffffffff1614156200102c57600080368080601f016020809104026020016040519081016040528093929190818152602001838380828437600081840152601f19601f820116905080830192505050505050509050600080369050905073ffffffffffffffffffffffffffffffffffffffff81830151169250505062001035565b33905062001036565b5b90565b6137498062001a0b83390190565b828054620010559062001855565b90600052602060002090601f016020900481019282620010795760008555620010c5565b82601f106200109457805160ff1916838001178555620010c5565b82800160010185558215620010c5579182015b82811115620010c4578251825591602001919060010190620010a7565b5b509050620010d4919062001108565b5090565b6040518060400160405280600073ffffffffffffffffffffffffffffffffffffffff168152602001606081525090565b5b808211156200112357600081600090555060010162001109565b5090565b60006200113e62001138846200169e565b62001675565b9050828152602081018484840111156200115757600080fd5b6200116484828562001810565b509392505050565b6000813590506200117d81620019d6565b92915050565b600082601f8301126200119557600080fd5b8135620011a784826020860162001127565b91505092915050565b600081359050620011c181620019f0565b92915050565b600060208284031215620011da57600080fd5b6000620011ea848285016200116c565b91505092915050565b600080604083850312156200120757600080fd5b600062001217858286016200116c565b92505060206200122a85828601620011b0565b9150509250929050565b600080600080608085870312156200124b57600080fd5b600085013567ffffffffffffffff8111156200126657600080fd5b620012748782880162001183565b94505060206200128787828801620011b0565b935050604085013567ffffffffffffffff811115620012a557600080fd5b620012b38782880162001183565b9250506060620012c6878288016200116c565b91505092959194509250565b600060208284031215620012e557600080fd5b6000620012f584828501620011b0565b91505092915050565b60006200130c838362001460565b905092915050565b6200131f81620017d2565b82525050565b6200133081620017d2565b82525050565b60006200134382620016e4565b6200134f818562001707565b9350836020820285016200136385620016d4565b8060005b85811015620013a55784840389528151620013838582620012fe565b94506200139083620016fa565b925060208a0199505060018101905062001367565b50829750879550505050505092915050565b6000620013c482620016ef565b620013d0818562001718565b9350620013e28185602086016200181f565b620013ed816200199c565b840191505092915050565b60006200140582620016ef565b62001411818562001729565b9350620014238185602086016200181f565b6200142e816200199c565b840191505092915050565b60006200144860108362001729565b91506200145582620019ad565b602082019050919050565b60006040830160008301516200147a600086018262001314565b5060208301518482036020860152620014948282620013b7565b9150508091505092915050565b620014ac8162001806565b82525050565b6000602082019050620014c9600083018462001325565b92915050565b600061014082019050620014e7600083018d62001325565b620014f6602083018c62001325565b62001505604083018b620014a1565b818103606083015262001519818a620013f8565b90506200152a6080830189620014a1565b6200153960a083018862001325565b81810360c08301526200154d8187620013f8565b90506200155e60e0830186620014a1565b6200156e61010083018562001325565b6200157e61012083018462001325565b9b9a5050505050505050505050565b6000604082019050620015a4600083018562001325565b8181036020830152620015b88184620013f8565b90509392505050565b6000604082019050620015d8600083018562001325565b620015e76020830184620014a1565b9392505050565b600060208201905081810360008301526200160a818462001336565b905092915050565b600060208201905081810360008301526200162e8184620013f8565b905092915050565b60006020820190508181036000830152620016518162001439565b9050919050565b60006020820190506200166f6000830184620014a1565b92915050565b60006200168162001694565b90506200168f82826200188b565b919050565b6000604051905090565b600067ffffffffffffffff821115620016bc57620016bb6200196d565b5b620016c7826200199c565b9050602081019050919050565b6000819050602082019050919050565b600081519050919050565b600081519050919050565b6000602082019050919050565b600082825260208201905092915050565b600082825260208201905092915050565b600082825260208201905092915050565b6000620017478262001806565b9150620017548362001806565b9250827fffffffffffffffffffffffffffffffffffffffffffffffffffffffffffffffff038211156200178c576200178b6200190f565b5b828201905092915050565b6000620017a48262001806565b9150620017b18362001806565b925082821015620017c757620017c66200190f565b5b828203905092915050565b6000620017df82620017e6565b9050919050565b600073ffffffffffffffffffffffffffffffffffffffff82169050919050565b6000819050919050565b82818337600083830152505050565b60005b838110156200183f57808201518184015260208101905062001822565b838111156200184f576000848401525b50505050565b600060028204905060018216806200186e57607f821691505b602082108114156200188557620018846200193e565b5b50919050565b62001896826200199c565b810181811067ffffffffffffffff82111715620018b857620018b76200196d565b5b80604052505050565b6000620018ce8262001806565b91507fffffffffffffffffffffffffffffffffffffffffffffffffffffffffffffffff8214156200190457620019036200190f565b5b600182019050919050565b7f4e487b7100000000000000000000000000000000000000000000000000000000600052601160045260246000fd5b7f4e487b7100000000000000000000000000000000000000000000000000000000600052602260045260246000fd5b7f4e487b7100000000000000000000000000000000000000000000000000000000600052604160045260246000fd5b6000601f19601f8301169050919050565b7f4e6f7420746865206d616e616765722100000000000000000000000000000000600082015250565b620019e181620017d2565b8114620019ed57600080fd5b50565b620019fb8162001806565b811462001a0757600080fd5b5056fe60806040523480156200001157600080fd5b506040516200374938038062003749833981810160405281019062000037919062000323565b8760068190555081600360006101000a81548173ffffffffffffffffffffffffffffffffffffffff021916908373ffffffffffffffffffffffffffffffffffffffff16021790555089600460006101000a81548173ffffffffffffffffffffffffffffffffffffffff021916908373ffffffffffffffffffffffffffffffffffffffff16021790555088600560006101000a81548173ffffffffffffffffffffffffffffffffffffffff021916908373ffffffffffffffffffffffffffffffffffffffff160217905550866007908051906020019062000119929190620001d3565b508560088190555084600260006101000a81548173ffffffffffffffffffffffffffffffffffffffff021916908373ffffffffffffffffffffffffffffffffffffffff16021790555083600090805190602001906200017a929190620001d3565b508260018190555080600c60006101000a81548173ffffffffffffffffffffffffffffffffffffffff021916908373ffffffffffffffffffffffffffffffffffffffff1602179055505050505050505050505062000627565b828054620001e19062000518565b90600052602060002090601f01602090048101928262000205576000855562000251565b82601f106200022057805160ff191683800117855562000251565b8280016001018555821562000251579182015b828111156200025057825182559160200191906001019062000233565b5b50905062000260919062000264565b5090565b5b808211156200027f57600081600090555060010162000265565b5090565b60006200029a62000294846200046e565b62000445565b905082815260208101848484011115620002b357600080fd5b620002c0848285620004e2565b509392505050565b600081519050620002d981620005f3565b92915050565b600082601f830112620002f157600080fd5b81516200030384826020860162000283565b91505092915050565b6000815190506200031d816200060d565b92915050565b6000806000806000806000806000806101408b8d0312156200034457600080fd5b6000620003548d828e01620002c8565b9a50506020620003678d828e01620002c8565b99505060406200037a8d828e016200030c565b98505060608b015167ffffffffffffffff8111156200039857600080fd5b620003a68d828e01620002df565b9750506080620003b98d828e016200030c565b96505060a0620003cc8d828e01620002c8565b95505060c08b015167ffffffffffffffff811115620003ea57600080fd5b620003f88d828e01620002df565b94505060e06200040b8d828e016200030c565b9350506101006200041f8d828e01620002c8565b925050610120620004338d828e01620002c8565b9150509295989b9194979a5092959850565b60006200045162000464565b90506200045f82826200054e565b919050565b6000604051905090565b600067ffffffffffffffff8211156200048c576200048b620005b3565b5b6200049782620005e2565b9050602081019050919050565b6000620004b182620004b8565b9050919050565b600073ffffffffffffffffffffffffffffffffffffffff82169050919050565b6000819050919050565b60005b8381101562000502578082015181840152602081019050620004e5565b8381111562000512576000848401525b50505050565b600060028204905060018216806200053157607f821691505b6020821081141562000548576200054762000584565b5b50919050565b6200055982620005e2565b810181811067ffffffffffffffff821117156200057b576200057a620005b3565b5b80604052505050565b7f4e487b7100000000000000000000000000000000000000000000000000000000600052602260045260246000fd5b7f4e487b7100000000000000000000000000000000000000000000000000000000600052604160045260246000fd5b6000601f19601f8301169050919050565b620005fe81620004a4565b81146200060a57600080fd5b50565b6200061881620004d8565b81146200062457600080fd5b50565b61311280620006376000396000f3fe6080604052600436106100e75760003560e01c806397926fc81161008a578063c8a3e04e11610059578063c8a3e04e14610285578063e36bd0f3146102ae578063e7ca9969146102ed578063e89e4ed614610318576100e7565b806397926fc81461020d5780639f4a23ba14610236578063bb6e7de914610252578063c438b40f14610269576100e7565b80635de988ab116100c65780635de988ab146101695780636b9080c11461019257806373a482e9146101c85780637d60631e146101e4576100e7565b8062e6652a146100ec5780635c43dd99146101155780635cdb464214610140575b600080fd5b3480156100f857600080fd5b50610113600480360381019061010e9190612381565b61035b565b005b34801561012157600080fd5b5061012a610619565b6040516101379190612861565b60405180910390f35b34801561014c57600080fd5b5061016760048036038101906101629190612381565b6108ca565b005b34801561017557600080fd5b50610190600480360381019061018b91906122c5565b610aec565b005b34801561019e57600080fd5b506101a7610cb4565b6040516101bf9c9b9a99989796959493929190612799565b60405180910390f35b6101e260048036038101906101dd91906122c5565b610e86565b005b3480156101f057600080fd5b5061020b60048036038101906102069190612246565b6110d8565b005b34801561021957600080fd5b50610234600480360381019061022f91906122c5565b6112ce565b005b610250600480360381019061024b91906122c5565b611486565b005b34801561025e57600080fd5b50610267611722565b005b610283600480360381019061027e91906122c5565b6117c2565b005b34801561029157600080fd5b506102ac60048036038101906102a791906122ee565b611a68565b005b3480156102ba57600080fd5b506102d560048036038101906102d091906122c5565b611ca1565b6040516102e493929190612ac4565b60405180910390f35b3480156102f957600080fd5b50610302611cd8565b60405161030f9190612883565b60405180910390f35b34801561032457600080fd5b5061033f600480360381019061033a91906122c5565b611e2f565b6040516103529796959493929190612a1e565b60405180910390f35b600460009054906101000a900473ffffffffffffffffffffffffffffffffffffffff1673ffffffffffffffffffffffffffffffffffffffff1661039c611fa8565b73ffffffffffffffffffffffffffffffffffffffff1614806104125750600360009054906101000a900473ffffffffffffffffffffffffffffffffffffffff1673ffffffffffffffffffffffffffffffffffffffff166103fa611fa8565b73ffffffffffffffffffffffffffffffffffffffff16145b610451576040517f08c379a0000000000000000000000000000000000000000000000000000000008152600401610448906128e3565b60405180910390fd5b600d600083815260200190815260200160002060040160009054906101000a900460ff166104b4576040517f08c379a00000000000000000000000000000000000000000000000000000000081526004016104ab90612943565b60405180910390fd5b600d600083815260200190815260200160002060040160029054906101000a900460ff1615610518576040517f08c379a000000000000000000000000000000000000000000000000000000000815260040161050f90612923565b60405180910390fd5b600d600083815260200190815260200160002060020154811115610571576040517f08c379a000000000000000000000000000000000000000000000000000000000815260040161056890612963565b60405180910390fd5b604051806060016040528083815260200182815260200160001515815250600e6000600b548152602001908152602001600020600082015181600001556020820151816001015560408201518160020160006101000a81548160ff021916908315150217905550905050817f4edb2645faa4c02901da451f48b7196171ec29bd0eea0677d7e13b21f8cf12b2824260405161060d929190612a9b565b60405180910390a25050565b60606000600a5467ffffffffffffffff81111561065f577f4e487b7100000000000000000000000000000000000000000000000000000000600052604160045260246000fd5b60405190808252806020026020018201604052801561069857816020015b610685612080565b81526020019060019003908161067d5790505b5090506000600190505b6001600a546106b19190612bf0565b8110156108c257600d60008281526020019081526020016000206040518060e0016040529081600082015481526020016001820180546106f090612d8f565b80601f016020809104026020016040519081016040528092919081815260200182805461071c90612d8f565b80156107695780601f1061073e57610100808354040283529160200191610769565b820191906000526020600020905b81548152906001019060200180831161074c57829003601f168201915b505050505081526020016002820154815260200160038201805461078c90612d8f565b80601f01602080910402602001604051908101604052809291908181526020018280546107b890612d8f565b80156108055780601f106107da57610100808354040283529160200191610805565b820191906000526020600020905b8154815290600101906020018083116107e857829003601f168201915b505050505081526020016004820160009054906101000a900460ff161515151581526020016004820160019054906101000a900460ff161515151581526020016004820160029054906101000a900460ff1615151515815250508260018361086d9190612cd1565b815181106108a4577f4e487b7100000000000000000000000000000000000000000000000000000000600052603260045260246000fd5b602002602001018190525080806108ba90612df2565b9150506106a2565b508091505090565b600460009054906101000a900473ffffffffffffffffffffffffffffffffffffffff1673ffffffffffffffffffffffffffffffffffffffff1661090b611fa8565b73ffffffffffffffffffffffffffffffffffffffff1614806109815750600360009054906101000a900473ffffffffffffffffffffffffffffffffffffffff1673ffffffffffffffffffffffffffffffffffffffff16610969611fa8565b73ffffffffffffffffffffffffffffffffffffffff16145b6109c0576040517f08c379a00000000000000000000000000000000000000000000000000000000081526004016109b7906128e3565b60405180910390fd5b600e600083815260200190815260200160002060020160009054906101000a900460ff1615610a24576040517f08c379a0000000000000000000000000000000000000000000000000000000008152600401610a1b906129a3565b60405180910390fd5b600d6000600e600085815260200190815260200160002060000154815260200190815260200160002060020154811115610a93576040517f08c379a0000000000000000000000000000000000000000000000000000000008152600401610a8a90612963565b60405180910390fd5b80600e600084815260200190815260200160002060010181905550817fd35e4a11544ca6df55d52949c95edc0f59ce2714fd227da3726a92457b09a38c8242604051610ae0929190612a9b565b60405180910390a25050565b600560009054906101000a900473ffffffffffffffffffffffffffffffffffffffff1673ffffffffffffffffffffffffffffffffffffffff16610b2d611fa8565b73ffffffffffffffffffffffffffffffffffffffff1614610b83576040517f08c379a0000000000000000000000000000000000000000000000000000000008152600401610b7a90612903565b60405180910390fd5b600d600082815260200190815260200160002060040160009054906101000a900460ff16610be6576040517f08c379a0000000000000000000000000000000000000000000000000000000008152600401610bdd90612943565b60405180910390fd5b600d600082815260200190815260200160002060040160029054906101000a900460ff1615610c4a576040517f08c379a0000000000000000000000000000000000000000000000000000000008152600401610c4190612923565b60405180910390fd5b6001600d600083815260200190815260200160002060040160016101000a81548160ff021916908315150217905550807fcaf49e218dd72f80b847b963b0a3f9b56254f688513253fe99b456e6311c1fb942604051610ca99190612a03565b60405180910390a250565b6000806000606060008060008060006060600080600460009054906101000a900473ffffffffffffffffffffffffffffffffffffffff16600560009054906101000a900473ffffffffffffffffffffffffffffffffffffffff16600654600760085460095447600a54600b546000600154600360009054906101000a900473ffffffffffffffffffffffffffffffffffffffff16888054610d5490612d8f565b80601f0160208091040260200160405190810160405280929190818152602001828054610d8090612d8f565b8015610dcd5780601f10610da257610100808354040283529160200191610dcd565b820191906000526020600020905b815481529060010190602001808311610db057829003601f168201915b50505050509850828054610de090612d8f565b80601f0160208091040260200160405190810160405280929190818152602001828054610e0c90612d8f565b8015610e595780601f10610e2e57610100808354040283529160200191610e59565b820191906000526020600020905b815481529060010190602001808311610e3c57829003601f168201915b505050505092509b509b509b509b509b509b509b509b509b509b509b509b50909192939495969798999a9b565b600460009054906101000a900473ffffffffffffffffffffffffffffffffffffffff1673ffffffffffffffffffffffffffffffffffffffff16610ec7611fa8565b73ffffffffffffffffffffffffffffffffffffffff1614610f1d576040517f08c379a0000000000000000000000000000000000000000000000000000000008152600401610f14906129e3565b60405180910390fd5b60006103e860015434610f309190612c77565b610f3a9190612c46565b9050600d600083815260200190815260200160002060040160009054906101000a900460ff1615610fa0576040517f08c379a0000000000000000000000000000000000000000000000000000000008152600401610f97906129c3565b60405180910390fd5b80600d600084815260200190815260200160002060020154610fc29190612bf0565b341015611004576040517f08c379a0000000000000000000000000000000000000000000000000000000008152600401610ffb90612983565b60405180910390fd5b600260009054906101000a900473ffffffffffffffffffffffffffffffffffffffff1673ffffffffffffffffffffffffffffffffffffffff166108fc829081150290604051600060405180830381858888f1935050505015801561106c573d6000803e3d6000fd5b506001600d600084815260200190815260200160002060040160006101000a81548160ff021916908315150217905550817fad6f5443f0021bc2808ac5204f3c96a037dc9406ec9bfdf92a8e81539f04c605426040516110cc9190612a03565b60405180910390a25050565b600460009054906101000a900473ffffffffffffffffffffffffffffffffffffffff1673ffffffffffffffffffffffffffffffffffffffff16611119611fa8565b73ffffffffffffffffffffffffffffffffffffffff161461116f576040517f08c379a0000000000000000000000000000000000000000000000000000000008152600401611166906129e3565b60405180910390fd5b600a600081548092919061118290612df2565b91905055506040518060e00160405280600a54815260200184815260200183815260200182815260200160001515815260200160001515815260200160001515815250600d6000600a5481526020019081526020016000206000820151816000015560208201518160010190805190602001906112009291906120c3565b506040820151816002015560608201518160030190805190602001906112279291906120c3565b5060808201518160040160006101000a81548160ff02191690831515021790555060a08201518160040160016101000a81548160ff02191690831515021790555060c08201518160040160026101000a81548160ff021916908315150217905550905050600a547f6df4a40f54ddbc024cc4e985b8fa77b24d3b18ae73fe8d9444beaed8682ff0f38484426040516112c1939291906128a5565b60405180910390a2505050565b600460009054906101000a900473ffffffffffffffffffffffffffffffffffffffff1673ffffffffffffffffffffffffffffffffffffffff1661130f611fa8565b73ffffffffffffffffffffffffffffffffffffffff1614611365576040517f08c379a000000000000000000000000000000000000000000000000000000000815260040161135c906129e3565b60405180910390fd5b600d600082815260200190815260200160002060040160009054906101000a900460ff16156113c9576040517f08c379a00000000000000000000000000000000000000000000000000000000081526004016113c0906129c3565b60405180910390fd5b600d60008281526020019081526020016000206000808201600090556001820160006113f59190612149565b600282016000905560038201600061140d9190612149565b6004820160006101000a81549060ff02191690556004820160016101000a81549060ff02191690556004820160026101000a81549060ff02191690555050807f846ab9b254edc77fe46806b496d2efb2f0f0f1c7338a82ee13d93ceb37152d2a4260405161147b9190612a03565b60405180910390a250565b600460009054906101000a900473ffffffffffffffffffffffffffffffffffffffff1673ffffffffffffffffffffffffffffffffffffffff166114c7611fa8565b73ffffffffffffffffffffffffffffffffffffffff16148061153d5750600360009054906101000a900473ffffffffffffffffffffffffffffffffffffffff1673ffffffffffffffffffffffffffffffffffffffff16611525611fa8565b73ffffffffffffffffffffffffffffffffffffffff16145b61157c576040517f08c379a0000000000000000000000000000000000000000000000000000000008152600401611573906128e3565b60405180910390fd5b600e600082815260200190815260200160002060020160009054906101000a900460ff16156115e0576040517f08c379a00000000000000000000000000000000000000000000000000000000081526004016115d7906129a3565b60405180910390fd5b6001600e600083815260200190815260200160002060020160006101000a81548160ff021916908315150217905550600e600082815260200190815260200160002060010154600d6000600e600085815260200190815260200160002060000154815260200190815260200160002060020160008282546116619190612cd1565b92505081905550600460009054906101000a900473ffffffffffffffffffffffffffffffffffffffff1673ffffffffffffffffffffffffffffffffffffffff166108fc600e6000848152602001908152602001600020600101549081150290604051600060405180830381858888f193505050501580156116e6573d6000803e3d6000fd5b50807f4ce0986d74e104c2d3d9c6f307178d94afd5abaf7ccf6658a17fac5a5718a8f2426040516117179190612a03565b60405180910390a250565b600460009054906101000a900473ffffffffffffffffffffffffffffffffffffffff1673ffffffffffffffffffffffffffffffffffffffff16611763611fa8565b73ffffffffffffffffffffffffffffffffffffffff16146117b9576040517f08c379a00000000000000000000000000000000000000000000000000000000081526004016117b0906129e3565b60405180910390fd5b42600981905550565b600460009054906101000a900473ffffffffffffffffffffffffffffffffffffffff1673ffffffffffffffffffffffffffffffffffffffff16611803611fa8565b73ffffffffffffffffffffffffffffffffffffffff1614806118795750600360009054906101000a900473ffffffffffffffffffffffffffffffffffffffff1673ffffffffffffffffffffffffffffffffffffffff16611861611fa8565b73ffffffffffffffffffffffffffffffffffffffff16145b6118b8576040517f08c379a00000000000000000000000000000000000000000000000000000000081526004016118af906128e3565b60405180910390fd5b600d600082815260200190815260200160002060040160009054906101000a900460ff1661191b576040517f08c379a000000000000000000000000000000000000000000000000000000000815260040161191290612943565b60405180910390fd5b600d600082815260200190815260200160002060040160029054906101000a900460ff161561197f576040517f08c379a000000000000000000000000000000000000000000000000000000000815260040161197690612923565b60405180910390fd5b6001600d600083815260200190815260200160002060040160026101000a81548160ff021916908315150217905550600560009054906101000a900473ffffffffffffffffffffffffffffffffffffffff1673ffffffffffffffffffffffffffffffffffffffff166108fc600d6000848152602001908152602001600020600201549081150290604051600060405180830381858888f19350505050158015611a2c573d6000803e3d6000fd5b50807f939da3b627c123c81fe5aacebf925163337a0d4f8a03724640618078cad2489442604051611a5d9190612a03565b60405180910390a250565b600460009054906101000a900473ffffffffffffffffffffffffffffffffffffffff1673ffffffffffffffffffffffffffffffffffffffff16611aa9611fa8565b73ffffffffffffffffffffffffffffffffffffffff1614611aff576040517f08c379a0000000000000000000000000000000000000000000000000000000008152600401611af6906129e3565b60405180910390fd5b600d600085815260200190815260200160002060040160009054906101000a900460ff1615611b63576040517f08c379a0000000000000000000000000000000000000000000000000000000008152600401611b5a906129c3565b60405180910390fd5b6040518060e0016040528085815260200184815260200183815260200182815260200160001515815260200160001515815260200160001515815250600d6000868152602001908152602001600020600082015181600001556020820151816001019080519060200190611bd89291906120c3565b50604082015181600201556060820151816003019080519060200190611bff9291906120c3565b5060808201518160040160006101000a81548160ff02191690831515021790555060a08201518160040160016101000a81548160ff02191690831515021790555060c08201518160040160026101000a81548160ff021916908315150217905550905050837f03ba09f38b23ad2697f2c208e0c31023842b2f3da43982784195f20216b2291f42604051611c939190612a03565b60405180910390a250505050565b600e6020528060005260406000206000915090508060000154908060010154908060020160009054906101000a900460ff16905083565b60606000600b5467ffffffffffffffff811115611d1e577f4e487b7100000000000000000000000000000000000000000000000000000000600052604160045260246000fd5b604051908082528060200260200182016040528015611d5757816020015b611d44612189565b815260200190600190039081611d3c5790505b5090506000600190505b6001600b54611d709190612bf0565b811015611e2757600e600082815260200190815260200160002060405180606001604052908160008201548152602001600182015481526020016002820160009054906101000a900460ff16151515158152505082600183611dd29190612cd1565b81518110611e09577f4e487b7100000000000000000000000000000000000000000000000000000000600052603260045260246000fd5b60200260200101819052508080611e1f90612df2565b915050611d61565b508091505090565b600d602052806000526040600020600091509050806000015490806001018054611e5890612d8f565b80601f0160208091040260200160405190810160405280929190818152602001828054611e8490612d8f565b8015611ed15780601f10611ea657610100808354040283529160200191611ed1565b820191906000526020600020905b815481529060010190602001808311611eb457829003601f168201915b505050505090806002015490806003018054611eec90612d8f565b80601f0160208091040260200160405190810160405280929190818152602001828054611f1890612d8f565b8015611f655780601f10611f3a57610100808354040283529160200191611f65565b820191906000526020600020905b815481529060010190602001808311611f4857829003601f168201915b5050505050908060040160009054906101000a900460ff16908060040160019054906101000a900460ff16908060040160029054906101000a900460ff16905087565b6000600c60009054906101000a900473ffffffffffffffffffffffffffffffffffffffff1673ffffffffffffffffffffffffffffffffffffffff163373ffffffffffffffffffffffffffffffffffffffff16141561207457600080368080601f016020809104026020016040519081016040528093929190818152602001838380828437600081840152601f19601f820116905080830192505050505050509050600080369050905073ffffffffffffffffffffffffffffffffffffffff81830151169250505061207c565b33905061207d565b5b90565b6040518060e00160405280600081526020016060815260200160008152602001606081526020016000151581526020016000151581526020016000151581525090565b8280546120cf90612d8f565b90600052602060002090601f0160209004810192826120f15760008555612138565b82601f1061210a57805160ff1916838001178555612138565b82800160010185558215612138579182015b8281111561213757825182559160200191906001019061211c565b5b50905061214591906121ac565b5090565b50805461215590612d8f565b6000825580601f106121675750612186565b601f01602090049060005260206000209081019061218591906121ac565b5b50565b604051806060016040528060008152602001600081526020016000151581525090565b5b808211156121c55760008160009055506001016121ad565b5090565b60006121dc6121d784612b20565b612afb565b9050828152602081018484840111156121f457600080fd5b6121ff848285612d4d565b509392505050565b600082601f83011261221857600080fd5b81356122288482602086016121c9565b91505092915050565b600081359050612240816130c5565b92915050565b60008060006060848603121561225b57600080fd5b600084013567ffffffffffffffff81111561227557600080fd5b61228186828701612207565b935050602061229286828701612231565b925050604084013567ffffffffffffffff8111156122af57600080fd5b6122bb86828701612207565b9150509250925092565b6000602082840312156122d757600080fd5b60006122e584828501612231565b91505092915050565b6000806000806080858703121561230457600080fd5b600061231287828801612231565b945050602085013567ffffffffffffffff81111561232f57600080fd5b61233b87828801612207565b935050604061234c87828801612231565b925050606085013567ffffffffffffffff81111561236957600080fd5b61237587828801612207565b91505092959194509250565b6000806040838503121561239457600080fd5b60006123a285828601612231565b92505060206123b385828601612231565b9150509250929050565b60006123c98383612696565b905092915050565b60006123dd8383612739565b60608301905092915050565b6123f281612d05565b82525050565b600061240382612b71565b61240d8185612bac565b93508360208202850161241f85612b51565b8060005b8581101561245b578484038952815161243c85826123bd565b945061244783612b92565b925060208a01995050600181019050612423565b50829750879550505050505092915050565b600061247882612b7c565b6124828185612bbd565b935061248d83612b61565b8060005b838110156124be5781516124a588826123d1565b97506124b083612b9f565b925050600181019050612491565b5085935050505092915050565b6124d481612d17565b82525050565b6124e381612d17565b82525050565b60006124f482612b87565b6124fe8185612bce565b935061250e818560208601612d5c565b61251781612ef7565b840191505092915050565b600061252d82612b87565b6125378185612bdf565b9350612547818560208601612d5c565b61255081612ef7565b840191505092915050565b6000612568601983612bdf565b915061257382612f08565b602082019050919050565b600061258b601183612bdf565b915061259682612f31565b602082019050919050565b60006125ae601b83612bdf565b91506125b982612f5a565b602082019050919050565b60006125d1601783612bdf565b91506125dc82612f83565b602082019050919050565b60006125f4603a83612bdf565b91506125ff82612fac565b604082019050919050565b6000612617603783612bdf565b915061262282612ffb565b604082019050919050565b600061263a601983612bdf565b91506126458261304a565b602082019050919050565b600061265d601983612bdf565b915061266882613073565b602082019050919050565b6000612680601083612bdf565b915061268b8261309c565b602082019050919050565b600060e0830160008301516126ae600086018261277b565b50602083015184820360208601526126c682826124e9565b91505060408301516126db604086018261277b565b50606083015184820360608601526126f382826124e9565b915050608083015161270860808601826124cb565b5060a083015161271b60a08601826124cb565b5060c083015161272e60c08601826124cb565b508091505092915050565b60608201600082015161274f600085018261277b565b506020820151612762602085018261277b565b50604082015161277560408501826124cb565b50505050565b61278481612d43565b82525050565b61279381612d43565b82525050565b6000610180820190506127af600083018f6123e9565b6127bc602083018e6123e9565b6127c9604083018d61278a565b81810360608301526127db818c612522565b90506127ea608083018b61278a565b6127f760a083018a61278a565b61280460c083018961278a565b61281160e083018861278a565b61281f61010083018761278a565b8181036101208301526128328186612522565b905061284261014083018561278a565b6128506101608301846123e9565b9d9c50505050505050505050505050565b6000602082019050818103600083015261287b81846123f8565b905092915050565b6000602082019050818103600083015261289d818461246d565b905092915050565b600060608201905081810360008301526128bf8186612522565b90506128ce602083018561278a565b6128db604083018461278a565b949350505050565b600060208201905081810360008301526128fc8161255b565b9050919050565b6000602082019050818103600083015261291c8161257e565b9050919050565b6000602082019050818103600083015261293c816125a1565b9050919050565b6000602082019050818103600083015261295c816125c4565b9050919050565b6000602082019050818103600083015261297c816125e7565b9050919050565b6000602082019050818103600083015261299c8161260a565b9050919050565b600060208201905081810360008301526129bc8161262d565b9050919050565b600060208201905081810360008301526129dc81612650565b9050919050565b600060208201905081810360008301526129fc81612673565b9050919050565b6000602082019050612a18600083018461278a565b92915050565b600060e082019050612a33600083018a61278a565b8181036020830152612a458189612522565b9050612a54604083018861278a565b8181036060830152612a668187612522565b9050612a7560808301866124da565b612a8260a08301856124da565b612a8f60c08301846124da565b98975050505050505050565b6000604082019050612ab0600083018561278a565b612abd602083018461278a565b9392505050565b6000606082019050612ad9600083018661278a565b612ae6602083018561278a565b612af360408301846124da565b949350505050565b6000612b05612b16565b9050612b118282612dc1565b919050565b6000604051905090565b600067ffffffffffffffff821115612b3b57612b3a612ec8565b5b612b4482612ef7565b9050602081019050919050565b6000819050602082019050919050565b6000819050602082019050919050565b600081519050919050565b600081519050919050565b600081519050919050565b6000602082019050919050565b6000602082019050919050565b600082825260208201905092915050565b600082825260208201905092915050565b600082825260208201905092915050565b600082825260208201905092915050565b6000612bfb82612d43565b9150612c0683612d43565b9250827fffffffffffffffffffffffffffffffffffffffffffffffffffffffffffffffff03821115612c3b57612c3a612e3b565b5b828201905092915050565b6000612c5182612d43565b9150612c5c83612d43565b925082612c6c57612c6b612e6a565b5b828204905092915050565b6000612c8282612d43565b9150612c8d83612d43565b9250817fffffffffffffffffffffffffffffffffffffffffffffffffffffffffffffffff0483118215151615612cc657612cc5612e3b565b5b828202905092915050565b6000612cdc82612d43565b9150612ce783612d43565b925082821015612cfa57612cf9612e3b565b5b828203905092915050565b6000612d1082612d23565b9050919050565b60008115159050919050565b600073ffffffffffffffffffffffffffffffffffffffff82169050919050565b6000819050919050565b82818337600083830152505050565b60005b83811015612d7a578082015181840152602081019050612d5f565b83811115612d89576000848401525b50505050565b60006002820490506001821680612da757607f821691505b60208210811415612dbb57612dba612e99565b5b50919050565b612dca82612ef7565b810181811067ffffffffffffffff82111715612de957612de8612ec8565b5b80604052505050565b6000612dfd82612d43565b91507fffffffffffffffffffffffffffffffffffffffffffffffffffffffffffffffff821415612e3057612e2f612e3b565b5b600182019050919050565b7f4e487b7100000000000000000000000000000000000000000000000000000000600052601160045260246000fd5b7f4e487b7100000000000000000000000000000000000000000000000000000000600052601260045260246000fd5b7f4e487b7100000000000000000000000000000000000000000000000000000000600052602260045260246000fd5b7f4e487b7100000000000000000000000000000000000000000000000000000000600052604160045260246000fd5b6000601f19601f8301169050919050565b7f4e6f74207468652064697370757465207265736f6c7665722100000000000000600082015250565b7f4e6f742074686520726563656976657221000000000000000000000000000000600082015250565b7f4d696c6573746f6e6520616c726561647920617070726f766564210000000000600082015250565b7f4d696c6573746f6e652069736e27742066756e64656421000000000000000000600082015250565b7f526566756e6420616d6f756e742063616e6e6f7420626520677265617465722060008201527f7468616e20746865206d696c6573746f6e6520616d6f756e7421000000000000602082015250565b7f416d6f756e742073656e7420646f6573206e6f74206d6174636820746865207360008201527f706563696669656420616d6f756e74202b206665657321000000000000000000602082015250565b7f5265717565737420616c7265616479207265736f6c7665642100000000000000600082015250565b7f4d696c6573746f6e6520616c72656164792066756e6465642100000000000000600082015250565b7f4e6f7420746865206d616e616765722100000000000000000000000000000000600082015250565b6130ce81612d43565b81146130d957600080fd5b5056fea2646970667358221220bcfbc1d13ae94b2d74e8f062db256c00392163908c7055d041208128d632a80064736f6c63430008020033a26469706673582212208bdd6ddba6ed30b822b4f3672919e4966e34388b090a7ebc579341fc3a64f8bb64736f6c63430008020033",
  "linkReferences": {},
  "deployedLinkReferences": {}
}