{
  "_format": "hh-sol-artifact-1",
  "contractName": "AskGPT",
  "sourceName": "contracts/AskGPT.sol",
  "abi": [
    {
      "inputs": [
        {
          "internalType": "address",
          "name": "_forwarder",
          "type": "address"
        }
      ],
      "stateMutability": "nonpayable",
      "type": "constructor"
    },
    {
      "anonymous": false,
      "inputs": [
        {
          "indexed": true,
          "internalType": "address",
          "name": "_firstParty",
          "type": "address"
        },
        {
          "indexed": true,
          "internalType": "address",
          "name": "_secondParty",
          "type": "address"
        },
        {
          "indexed": false,
          "internalType": "address",
          "name": "_contractAddress",
          "type": "address"
        },
        {
          "indexed": false,
          "internalType": "uint256",
          "name": "_timestamp",
          "type": "uint256"
        }
      ],
      "name": "AgreementCreated",
      "type": "event"
    },
    {
      "anonymous": false,
      "inputs": [
        {
          "indexed": true,
          "internalType": "address",
          "name": "_buyer",
          "type": "address"
        },
        {
          "indexed": true,
          "internalType": "uint256",
          "name": "_numOfScripts",
          "type": "uint256"
        },
        {
          "indexed": false,
          "internalType": "uint256",
          "name": "_paymentAmount",
          "type": "uint256"
        },
        {
          "indexed": false,
          "internalType": "uint256",
          "name": "_timestamp",
          "type": "uint256"
        }
      ],
      "name": "MembershipPayment",
      "type": "event"
    },
    {
      "stateMutability": "payable",
      "type": "fallback"
    },
    {
      "inputs": [],
      "name": "admin",
      "outputs": [
        {
          "internalType": "address",
          "name": "",
          "type": "address"
        }
      ],
      "stateMutability": "view",
      "type": "function"
    },
    {
      "inputs": [],
      "name": "agreementCount",
      "outputs": [
        {
          "internalType": "uint256",
          "name": "",
          "type": "uint256"
        }
      ],
      "stateMutability": "view",
      "type": "function"
    },
    {
      "inputs": [
        {
          "internalType": "address",
          "name": "",
          "type": "address"
        }
      ],
      "name": "agreementUri",
      "outputs": [
        {
          "internalType": "string",
          "name": "",
          "type": "string"
        }
      ],
      "stateMutability": "view",
      "type": "function"
    },
    {
      "inputs": [
        {
          "internalType": "uint256",
          "name": "",
          "type": "uint256"
        }
      ],
      "name": "agreements",
      "outputs": [
        {
          "internalType": "address",
          "name": "",
          "type": "address"
        }
      ],
      "stateMutability": "view",
      "type": "function"
    },
    {
      "inputs": [
        {
          "internalType": "uint256",
          "name": "",
          "type": "uint256"
        }
      ],
      "name": "agreementsData",
      "outputs": [
        {
          "internalType": "address",
          "name": "contractAddress",
          "type": "address"
        },
        {
          "internalType": "string",
          "name": "data",
          "type": "string"
        }
      ],
      "stateMutability": "view",
      "type": "function"
    },
    {
      "inputs": [
        {
          "internalType": "uint256",
          "name": "_packageId",
          "type": "uint256"
        }
      ],
      "name": "buyScripts",
      "outputs": [],
      "stateMutability": "payable",
      "type": "function"
    },
    {
      "inputs": [
        {
          "internalType": "string",
          "name": "_agreementUri",
          "type": "string"
        },
        {
          "internalType": "uint256",
          "name": "_startsAt",
          "type": "uint256"
        },
        {
          "internalType": "string",
          "name": "_name",
          "type": "string"
        },
        {
          "internalType": "address",
          "name": "_secondParty",
          "type": "address"
        }
      ],
      "name": "createAgreement",
      "outputs": [],
      "stateMutability": "nonpayable",
      "type": "function"
    },
    {
      "inputs": [
        {
          "internalType": "address",
          "name": "_user",
          "type": "address"
        }
      ],
      "name": "deductPendingScripts",
      "outputs": [],
      "stateMutability": "nonpayable",
      "type": "function"
    },
    {
      "inputs": [],
      "name": "getAllAgreements",
      "outputs": [
        {
          "components": [
            {
              "internalType": "address",
              "name": "contractAddress",
              "type": "address"
            },
            {
              "internalType": "string",
              "name": "data",
              "type": "string"
            }
          ],
          "internalType": "struct AskGPT.AgreementData[]",
          "name": "allAgreements",
          "type": "tuple[]"
        }
      ],
      "stateMutability": "view",
      "type": "function"
    },
    {
      "inputs": [],
      "name": "getPackages",
      "outputs": [
        {
          "components": [
            {
              "internalType": "string",
              "name": "name",
              "type": "string"
            },
            {
              "internalType": "uint256",
              "name": "price",
              "type": "uint256"
            },
            {
              "internalType": "uint256",
              "name": "numOfScripts",
              "type": "uint256"
            }
          ],
          "internalType": "struct AskGPT.PackageData[]",
          "name": "allPackages",
          "type": "tuple[]"
        }
      ],
      "stateMutability": "view",
      "type": "function"
    },
    {
      "inputs": [
        {
          "internalType": "address",
          "name": "_user",
          "type": "address"
        }
      ],
      "name": "getPendingScripts",
      "outputs": [
        {
          "internalType": "uint256",
          "name": "_numOfScripts",
          "type": "uint256"
        }
      ],
      "stateMutability": "view",
      "type": "function"
    },
    {
      "inputs": [
        {
          "internalType": "address",
          "name": "_creator",
          "type": "address"
        }
      ],
      "name": "getUserAgreements",
      "outputs": [
        {
          "components": [
            {
              "internalType": "address",
              "name": "contractAddress",
              "type": "address"
            },
            {
              "internalType": "string",
              "name": "data",
              "type": "string"
            }
          ],
          "internalType": "struct AskGPT.AgreementData[]",
          "name": "allCreatorAgreements",
          "type": "tuple[]"
        }
      ],
      "stateMutability": "view",
      "type": "function"
    },
    {
      "inputs": [],
      "name": "marketFee",
      "outputs": [
        {
          "internalType": "uint256",
          "name": "",
          "type": "uint256"
        }
      ],
      "stateMutability": "view",
      "type": "function"
    },
    {
      "inputs": [
        {
          "internalType": "uint256",
          "name": "",
          "type": "uint256"
        }
      ],
      "name": "packages",
      "outputs": [
        {
          "internalType": "string",
          "name": "name",
          "type": "string"
        },
        {
          "internalType": "uint256",
          "name": "price",
          "type": "uint256"
        },
        {
          "internalType": "uint256",
          "name": "numOfScripts",
          "type": "uint256"
        }
      ],
      "stateMutability": "view",
      "type": "function"
    },
    {
      "inputs": [
        {
          "internalType": "uint256",
          "name": "_amount",
          "type": "uint256"
        }
      ],
      "name": "setMarketFee",
      "outputs": [],
      "stateMutability": "nonpayable",
      "type": "function"
    },
    {
      "inputs": [
        {
          "components": [
            {
              "internalType": "string",
              "name": "name",
              "type": "string"
            },
            {
              "internalType": "uint256",
              "name": "price",
              "type": "uint256"
            },
            {
              "internalType": "uint256",
              "name": "numOfScripts",
              "type": "uint256"
            }
          ],
          "internalType": "struct AskGPT.PackageData",
          "name": "_package1",
          "type": "tuple"
        },
        {
          "components": [
            {
              "internalType": "string",
              "name": "name",
              "type": "string"
            },
            {
              "internalType": "uint256",
              "name": "price",
              "type": "uint256"
            },
            {
              "internalType": "uint256",
              "name": "numOfScripts",
              "type": "uint256"
            }
          ],
          "internalType": "struct AskGPT.PackageData",
          "name": "_package2",
          "type": "tuple"
        },
        {
          "components": [
            {
              "internalType": "string",
              "name": "name",
              "type": "string"
            },
            {
              "internalType": "uint256",
              "name": "price",
              "type": "uint256"
            },
            {
              "internalType": "uint256",
              "name": "numOfScripts",
              "type": "uint256"
            }
          ],
          "internalType": "struct AskGPT.PackageData",
          "name": "_package3",
          "type": "tuple"
        },
        {
          "components": [
            {
              "internalType": "string",
              "name": "name",
              "type": "string"
            },
            {
              "internalType": "uint256",
              "name": "price",
              "type": "uint256"
            },
            {
              "internalType": "uint256",
              "name": "numOfScripts",
              "type": "uint256"
            }
          ],
          "internalType": "struct AskGPT.PackageData",
          "name": "_package4",
          "type": "tuple"
        }
      ],
      "name": "setPackages",
      "outputs": [],
      "stateMutability": "nonpayable",
      "type": "function"
    },
    {
      "inputs": [
        {
          "internalType": "address",
          "name": "",
          "type": "address"
        },
        {
          "internalType": "uint256",
          "name": "",
          "type": "uint256"
        }
      ],
      "name": "userAgreements",
      "outputs": [
        {
          "internalType": "uint256",
          "name": "",
          "type": "uint256"
        }
      ],
      "stateMutability": "view",
      "type": "function"
    },
    {
      "inputs": [],
      "name": "withdraw",
      "outputs": [],
      "stateMutability": "nonpayable",
      "type": "function"
    },
    {
      "stateMutability": "payable",
      "type": "receive"
    }
  ],
  "bytecode": "0x6080604052601960005534801561001557600080fd5b50604051613d92380380613d9283398101604081905261003491610067565b60028054336001600160a01b031991821617909155600380549091166001600160a01b0392909216919091179055610095565b600060208284031215610078578081fd5b81516001600160a01b038116811461008e578182fd5b9392505050565b613cee806100a46000396000f3fe608060405260043610620001275760003560e01c806385c23f9911620000a3578063bb7bb278116200006d578063bb7bb278146200032e578063bd14de961462000346578063c216212a1462000399578063f3ff64bd14620003cf578063f851a44014620003e6576200012f565b806385c23f99146200027b5780639f9019e914620002af578063a1eea4f714620002e4578063adb9cae61462000309576200012f565b80634c27984e11620000f15780634c27984e14620001be5780634e6873c714620001e35780635c05a89f146200020a5780635f6e805914620002315780637c2c04521462000256576200012f565b80630ccf2156146200013157806322822a77146200015c57806326b825d214620001815780633ccfd60b14620001a6576200012f565b366200012f57005b005b3480156200013e57600080fd5b506200014960005481565b6040519081526020015b60405180910390f35b3480156200016957600080fd5b506200012f6200017b3660046200152c565b62000408565b3480156200018e57600080fd5b506200012f620001a036600462001665565b620005fd565b348015620001b357600080fd5b506200012f6200064a565b348015620001cb57600080fd5b5062000149620001dd36600462001500565b620006d2565b348015620001f057600080fd5b50620001fb62000704565b6040516200015391906200177c565b3480156200021757600080fd5b5062000222620008b3565b604051620001539190620017fa565b3480156200023e57600080fd5b506200012f62000250366004620015b0565b62000a2d565b3480156200026357600080fd5b506200012f62000275366004620014dc565b62000bde565b3480156200028857600080fd5b50620002a06200029a366004620014dc565b62000ce4565b6040516200015391906200186e565b348015620002bc57600080fd5b50620002d4620002ce36600462001665565b62000d86565b604051620001539291906200174e565b348015620002f157600080fd5b506200014962000303366004620014dc565b62000e3d565b3480156200031657600080fd5b50620001fb62000328366004620014dc565b62000ead565b3480156200033b57600080fd5b506200014960015481565b3480156200035357600080fd5b50620003806200036536600462001665565b6004602052600090815260409020546001600160a01b031681565b6040516001600160a01b03909116815260200162000153565b348015620003a657600080fd5b50620003be620003b836600462001665565b620010f1565b604051620001539392919062001883565b6200012f620003e036600462001665565b620011a3565b348015620003f357600080fd5b5060025462000380906001600160a01b031681565b600180549060006200041a8362001992565b919050555060006200042b620012ce565b6001546000546002546003546040518794938b938b9330938c93926001600160a01b039081169216906200045f906200133b565b620004749a99989796959493929190620016cc565b604051809103906000f08015801562000491573d6000803e3d6000fd5b506001600160a01b03811660009081526006602090815260409091208751929350620004c292909188019062001349565b5060018054600090815260046020908152604080832080546001600160a01b038088166001600160a01b03199283168117909355835180850185529283528285018c8152875487526007865293909520825181549616959091169490941784559051805191946200053a939085019291019062001349565b50905050600560006200054c620012ce565b6001600160a01b03908116825260208083019390935260409182016000908120600180548254808301845592845286842090920191909155918616808252600585529281208254815493840182559082529390200191909155620005af620012ce565b604080516001600160a01b03858116825242602083015292909216917ff3e9fb09d0520a320797dae1f1ec5bc12aacd22478b49f6e89c50a46c6a27619910160405180910390a35050505050565b6002546001600160a01b031662000613620012ce565b6001600160a01b031614620006455760405162461bcd60e51b81526004016200063c90620018aa565b60405180910390fd5b600055565b6002546001600160a01b031662000660620012ce565b6001600160a01b031614620006895760405162461bcd60e51b81526004016200063c90620018aa565b600062000695620012ce565b6040519091506001600160a01b038216904780156108fc02916000818181858888f19350505050158015620006ce573d6000803e3d6000fd5b5050565b60056020528160005260406000208181548110620006ef57600080fd5b90600052602060002001600091509150505481565b6060600060015467ffffffffffffffff8111156200073257634e487b7160e01b600052604160045260246000fd5b6040519080825280602002602001820160405280156200077a57816020015b604080518082019091526000815260606020820152815260200190600190039081620007515790505b50905060015b600180546200078f9162001906565b811015620008ac57600081815260076020908152604091829020825180840190935280546001600160a01b031683526001810180549192840191620007d49062001955565b80601f0160208091040260200160405190810160405280929190818152602001828054620008029062001955565b8015620008535780601f10620008275761010080835404028352916020019162000853565b820191906000526020600020905b8154815290600101906020018083116200083557829003601f168201915b505050505081525050826001836200086c919062001921565b815181106200088b57634e487b7160e01b600052603260045260246000fd5b60200260200101819052508080620008a39062001992565b91505062000780565b5090505b90565b60408051600480825260a0820190925260609160009190816020015b620008f460405180606001604052806060815260200160008152602001600081525090565b815260200190600190039081620008cf57905050905060015b6005811015620008ac576000818152600b602052604090819020815160608101909252805482908290620009419062001955565b80601f01602080910402602001604051908101604052809291908181526020018280546200096f9062001955565b8015620009c05780601f106200099457610100808354040283529160200191620009c0565b820191906000526020600020905b815481529060010190602001808311620009a257829003601f168201915b505050505081526020016001820154815260200160028201548152505082600183620009ed919062001921565b8151811062000a0c57634e487b7160e01b600052603260045260246000fd5b6020026020010181905250808062000a249062001992565b9150506200090d565b6002546001600160a01b031662000a43620012ce565b6001600160a01b03161462000a6c5760405162461bcd60e51b81526004016200063c90620018aa565b6001600052600b60209081528451805186927f72c6bfb7988af3a1efa6568f02a999bc52252641c659d85961ca3d372b57d5cf9262000ab2928492919091019062001349565b506020828101516001830155604090920151600291820155600052600b81528351805185927fa50eece07c7db1631545c0069bd8f5f54d5935e215d59097edf258a44ba916349262000b0b928492919091019062001349565b5060208281015160018301556040909201516002909101556003600052600b81528251805184927f64c15cc42be7899b001f818cf4433057002112c418d1d3a67cd5cb453051d33e9262000b66928492919091019062001349565b5060208281015160018301556040909201516002909101556004600052600b81528151805183927f12d0c11577e2f0950f57c455c117796550b79f444811db8ba2f69c57b646c7849262000bc1928492919091019062001349565b506020820151600182015560409091015160029091015550505050565b6002546001600160a01b031662000bf4620012ce565b6001600160a01b03161462000c1d5760405162461bcd60e51b81526004016200063c90620018aa565b6001600160a01b0381166000908152600a602052604090205460ff161562000c70576001600160a01b038116600090815260086020526040812080549162000c65836200193b565b919050555062000ce1565b6001600160a01b038116600090815260096020526040812080549162000c968362001992565b90915550506001600160a01b0381166000908152600960205260409020546003141562000ce1576001600160a01b0381166000908152600a60205260409020805460ff191660011790555b50565b6006602052600090815260409020805462000cff9062001955565b80601f016020809104026020016040519081016040528092919081815260200182805462000d2d9062001955565b801562000d7e5780601f1062000d525761010080835404028352916020019162000d7e565b820191906000526020600020905b81548152906001019060200180831162000d6057829003601f168201915b505050505081565b600760205260009081526040902080546001820180546001600160a01b03909216929162000db49062001955565b80601f016020809104026020016040519081016040528092919081815260200182805462000de29062001955565b801562000e335780601f1062000e075761010080835404028352916020019162000e33565b820191906000526020600020905b81548152906001019060200180831162000e1557829003601f168201915b5050505050905082565b6001600160a01b0381166000908152600a602052604081205460ff161562000e7f57506001600160a01b03811660009081526008602052604090205462000ea8565b6001600160a01b03821660009081526009602052604090205462000ea590600362001921565b90505b919050565b6001600160a01b038116600090815260056020908152604080832080548251818502810185019093528083526060949383018282801562000f0e57602002820191906000526020600020905b81548152602001906001019080831162000ef9575b505050505090506000815167ffffffffffffffff81111562000f4057634e487b7160e01b600052604160045260246000fd5b60405190808252806020026020018201604052801562000f8857816020015b60408051808201909152600081526060602082015281526020019060019003908162000f5f5790505b50905060005b8251811015620010e9576007600084838151811062000fbd57634e487b7160e01b600052603260045260246000fd5b602002602001015181526020019081526020016000206040518060400160405290816000820160009054906101000a90046001600160a01b03166001600160a01b03166001600160a01b031681526020016001820180546200101f9062001955565b80601f01602080910402602001604051908101604052809291908181526020018280546200104d9062001955565b80156200109e5780601f1062001072576101008083540402835291602001916200109e565b820191906000526020600020905b8154815290600101906020018083116200108057829003601f168201915b505050505081525050828281518110620010c857634e487b7160e01b600052603260045260246000fd5b60200260200101819052508080620010e09062001992565b91505062000f8e565b509392505050565b600b602052600090815260409020805481906200110e9062001955565b80601f01602080910402602001604051908101604052809291908181526020018280546200113c9062001955565b80156200118d5780601f1062001161576101008083540402835291602001916200118d565b820191906000526020600020905b8154815290600101906020018083116200116f57829003601f168201915b5050505050908060010154908060020154905083565b6000818152600b6020526040902060010154341015620012125760405162461bcd60e51b8152602060048201526024808201527f45746865722073656e7420646f6573206e6f74206d61746368207468652070726044820152636963652160e01b60648201526084016200063c565b60006200121e620012ce565b6000838152600b60209081526040808320600201546001600160a01b038516845260089092528220805493945090929091906200125d90849062001906565b90915550506000828152600b60205260409020600201546200127e620012ce565b6001600160a01b03167f382f658b6642bff97773130e5a5da27bc9fb84c464fe84cbd7ec50e808b9f2803442604051620012c2929190918252602082015260400190565b60405180910390a35050565b6003546000906001600160a01b03163314156200133357600080368080601f0160208091040260200160405190810160405280939291908181526020018383808284376000920191909152505050503601516001600160a01b03169150620008b09050565b5033620008b0565b6122dc80620019dd83390190565b828054620013579062001955565b90600052602060002090601f0160209004810192826200137b5760008555620013c6565b82601f106200139657805160ff1916838001178555620013c6565b82800160010185558215620013c6579182015b82811115620013c6578251825591602001919060010190620013a9565b50620013d4929150620013d8565b5090565b5b80821115620013d45760008155600101620013d9565b80356001600160a01b038116811462000ea857600080fd5b600082601f83011262001418578081fd5b813567ffffffffffffffff811115620014355762001435620019c6565b6200144a601f8201601f1916602001620018d2565b8181528460208386010111156200145f578283fd5b816020850160208301379081016020019190915292915050565b6000606082840312156200148b578081fd5b620014976060620018d2565b9050813567ffffffffffffffff811115620014b157600080fd5b620014bf8482850162001407565b825250602082013560208201526040820135604082015292915050565b600060208284031215620014ee578081fd5b620014f982620013ef565b9392505050565b6000806040838503121562001513578081fd5b6200151e83620013ef565b946020939093013593505050565b6000806000806080858703121562001542578182fd5b843567ffffffffffffffff808211156200155a578384fd5b620015688883890162001407565b955060208701359450604087013591508082111562001585578384fd5b50620015948782880162001407565b925050620015a560608601620013ef565b905092959194509250565b60008060008060808587031215620015c6578384fd5b843567ffffffffffffffff80821115620015de578586fd5b620015ec8883890162001479565b9550602087013591508082111562001602578485fd5b620016108883890162001479565b9450604087013591508082111562001626578384fd5b620016348883890162001479565b935060608701359150808211156200164a578283fd5b50620016598782880162001479565b91505092959194509250565b60006020828403121562001677578081fd5b5035919050565b60008151808452815b81811015620016a55760208185018101518683018201520162001687565b81811115620016b75782602083870101525b50601f01601f19169290920160200192915050565b6001600160a01b038b811682528a81166020830152604082018a905261014060608301819052600091620017038483018c6200167e565b915089608085015280891660a085015283820360c08501526200172782896200167e565b60e08501979097529485166101008401525050911661012090910152979650505050505050565b6001600160a01b038316815260406020820181905260009062001774908301846200167e565b949350505050565b60208082528251828201819052600091906040908185019080840286018301878501865b83811015620017ec57888303603f19018552815180516001600160a01b03168452870151878401879052620017d8878501826200167e565b9588019593505090860190600101620017a0565b509098975050505050505050565b60208082528251828201819052600091906040908185019080840286018301878501865b83811015620017ec57603f1989840301855281516060815181865262001847828701826200167e565b838b0151878c0152928901519589019590955250948701949250908601906001016200181e565b600060208252620014f960208301846200167e565b6000606082526200189860608301866200167e565b60208301949094525060400152919050565b6020808252600e908201526d4e6f74207468652061646d696e2160901b604082015260600190565b604051601f8201601f1916810167ffffffffffffffff81118282101715620018fe57620018fe620019c6565b604052919050565b600082198211156200191c576200191c620019b0565b500190565b600082821015620019365762001936620019b0565b500390565b6000816200194d576200194d620019b0565b506000190190565b6002810460018216806200196a57607f821691505b602082108114156200198c57634e487b7160e01b600052602260045260246000fd5b50919050565b6000600019821415620019a957620019a9620019b0565b5060010190565b634e487b7160e01b600052601160045260246000fd5b634e487b7160e01b600052604160045260246000fdfe60806040523480156200001157600080fd5b50604051620022dc380380620022dc83398101604081905262000034916200026c565b6006889055600380546001600160a01b038085166001600160a01b031992831617909255600480548d841690831617905560058054928c169290911691909117905586516200008b9060079060208a0190620000f6565b506008869055600280546001600160a01b0319166001600160a01b0387161790558351620000c1906000906020870190620000f6565b5060019290925550600c80546001600160a01b0319166001600160a01b0390921691909117905550620003a395505050505050565b828054620001049062000350565b90600052602060002090601f01602090048101928262000128576000855562000173565b82601f106200014357805160ff191683800117855562000173565b8280016001018555821562000173579182015b828111156200017357825182559160200191906001019062000156565b506200018192915062000185565b5090565b5b8082111562000181576000815560010162000186565b80516001600160a01b0381168114620001b457600080fd5b919050565b600082601f830112620001ca578081fd5b81516001600160401b0380821115620001e757620001e76200038d565b604051601f8301601f19908116603f011681019082821181831017156200021257620002126200038d565b816040528381526020925086838588010111156200022e578485fd5b8491505b8382101562000251578582018301518183018401529082019062000232565b838211156200026257848385830101525b9695505050505050565b6000806000806000806000806000806101408b8d0312156200028c578586fd5b620002978b6200019c565b9950620002a760208c016200019c565b60408c015160608d0151919a5098506001600160401b0380821115620002cb578788fd5b620002d98e838f01620001b9565b985060808d01519750620002f060a08e016200019c565b965060c08d015191508082111562000306578586fd5b50620003158d828e01620001b9565b94505060e08b015192506200032e6101008c016200019c565b91506200033f6101208c016200019c565b90509295989b9194979a5092959850565b6002810460018216806200036557607f821691505b602082108114156200038757634e487b7160e01b600052602260045260246000fd5b50919050565b634e487b7160e01b600052604160045260246000fd5b611f2980620003b36000396000f3fe6080604052600436106100e75760003560e01c806397926fc81161008a578063c8a3e04e11610059578063c8a3e04e14610234578063e36bd0f314610254578063e7ca9969146102bb578063e89e4ed6146102dd576100e7565b806397926fc8146101d95780639f4a23ba146101f9578063bb6e7de91461020c578063c438b40f14610221576100e7565b80635de988ab116100c65780635de988ab146101595780636b9080c11461017957806373a482e9146101a65780637d60631e146101b9576100e7565b8062e6652a146100ec5780635c43dd991461010e5780635cdb464214610139575b600080fd5b3480156100f857600080fd5b5061010c6101073660046119e4565b610310565b005b34801561011a57600080fd5b506101236104c2565b6040516101309190611ad8565b60405180910390f35b34801561014557600080fd5b5061010c6101543660046119e4565b610756565b34801561016557600080fd5b5061010c610174366004611958565b6108b1565b34801561018557600080fd5b5061018e6109d5565b6040516101309c9b9a99989796959493929190611a50565b61010c6101b4366004611958565b610b80565b3480156101c557600080fd5b5061010c6101d43660046118ee565b610d3b565b3480156101e557600080fd5b5061010c6101f4366004611958565b610ebe565b61010c610207366004611958565b610fc1565b34801561021857600080fd5b5061010c611148565b61010c61022f366004611958565b6111a8565b34801561024057600080fd5b5061010c61024f366004611970565b611302565b34801561026057600080fd5b5061029961026f366004611958565b600e6020526000908152604090208054600182015460028301546003909301549192909160ff1684565b6040805194855260208501939093529183015215156060820152608001610130565b3480156102c757600080fd5b506102d061149d565b6040516101309190611b95565b3480156102e957600080fd5b506102fd6102f8366004611958565b6115d0565b6040516101309796959493929190611db0565b6004546001600160a01b0316610324611725565b6001600160a01b0316148061035357506003546001600160a01b0316610348611725565b6001600160a01b0316145b6103785760405162461bcd60e51b815260040161036f90611c4d565b60405180910390fd5b6000828152600d602052604090206004015460ff166103a95760405162461bcd60e51b815260040161036f90611cbb565b6000828152600d602052604090206004015462010000900460ff16156103e15760405162461bcd60e51b815260040161036f90611c84565b6000828152600d60205260409020600201548111156104125760405162461bcd60e51b815260040161036f90611cf2565b600b805490600061042283611eac565b909155505060408051608081018252600b80548083526020808401878152848601878152600060608701818152948152600e8452879020955186559051600186015551600285015590516003909301805460ff1916931515939093179092555482518481524292810192909252849290917f7918bd36c203935800793ba10c13259100530473ba726ee3a8d0bfbf49daeeab910160405180910390a35050565b60606000600a5467ffffffffffffffff8111156104ef57634e487b7160e01b600052604160045260246000fd5b60405190808252806020026020018201604052801561056657816020015b6105536040518060e00160405280600081526020016060815260200160008152602001606081526020016000151581526020016000151581526020016000151581525090565b81526020019060019003908161050d5790505b50905060015b600a5461057a906001611e03565b81101561074f57600d60008281526020019081526020016000206040518060e0016040529081600082015481526020016001820180546105b990611e71565b80601f01602080910402602001604051908101604052809291908181526020018280546105e590611e71565b80156106325780601f1061060757610100808354040283529160200191610632565b820191906000526020600020905b81548152906001019060200180831161061557829003601f168201915b505050505081526020016002820154815260200160038201805461065590611e71565b80601f016020809104026020016040519081016040528092919081815260200182805461068190611e71565b80156106ce5780601f106106a3576101008083540402835291602001916106ce565b820191906000526020600020905b8154815290600101906020018083116106b157829003601f168201915b50505091835250506004919091015460ff8082161515602084015261010082048116151560408401526201000090910416151560609091015282610713600184611e5a565b8151811061073157634e487b7160e01b600052603260045260246000fd5b6020026020010181905250808061074790611eac565b91505061056c565b5090505b90565b6004546001600160a01b031661076a611725565b6001600160a01b0316148061079957506003546001600160a01b031661078e611725565b6001600160a01b0316145b6107b55760405162461bcd60e51b815260040161036f90611c4d565b6000828152600e602052604090206003015460ff16156108135760405162461bcd60e51b81526020600482015260196024820152785265717565737420616c7265616479207265736f6c7665642160381b604482015260640161036f565b6000828152600e60209081526040808320600101548352600d9091529020600201548111156108545760405162461bcd60e51b815260040161036f90611cf2565b6000828152600e6020526040908190206002018290555182907fd35e4a11544ca6df55d52949c95edc0f59ce2714fd227da3726a92457b09a38c906108a59084904290918252602082015260400190565b60405180910390a25050565b6005546001600160a01b03166108c5611725565b6001600160a01b03161461090f5760405162461bcd60e51b81526020600482015260116024820152704e6f74207468652072656365697665722160781b604482015260640161036f565b6000818152600d602052604090206004015460ff166109405760405162461bcd60e51b815260040161036f90611cbb565b6000818152600d602052604090206004015462010000900460ff16156109785760405162461bcd60e51b815260040161036f90611c84565b6000818152600d602052604090819020600401805461ff0019166101001790555181907fcaf49e218dd72f80b847b963b0a3f9b56254f688513253fe99b456e6311c1fb9906109ca9042815260200190565b60405180910390a250565b6000806000606060008060008060006060600080600460009054906101000a90046001600160a01b0316600560009054906101000a90046001600160a01b0316600654600760085460095447600a54600b546000600154600360009054906101000a90046001600160a01b0316888054610a4e90611e71565b80601f0160208091040260200160405190810160405280929190818152602001828054610a7a90611e71565b8015610ac75780601f10610a9c57610100808354040283529160200191610ac7565b820191906000526020600020905b815481529060010190602001808311610aaa57829003601f168201915b50505050509850828054610ada90611e71565b80601f0160208091040260200160405190810160405280929190818152602001828054610b0690611e71565b8015610b535780601f10610b2857610100808354040283529160200191610b53565b820191906000526020600020905b815481529060010190602001808311610b3657829003601f168201915b505050505092509b509b509b509b509b509b509b509b509b509b509b509b50909192939495969798999a9b565b6004546001600160a01b0316610b94611725565b6001600160a01b031614610bba5760405162461bcd60e51b815260040161036f90611d86565b6001546000828152600d602052604081206002015490916103e891610bdf9190611e3b565b610be99190611e1b565b6000838152600d602052604090206004015490915060ff1615610c1e5760405162461bcd60e51b815260040161036f90611d4f565b6000828152600d6020526040902060020154610c3b908290611e03565b341015610cb05760405162461bcd60e51b815260206004820152603760248201527f416d6f756e742073656e7420646f6573206e6f74206d6174636820746865207360448201527f706563696669656420616d6f756e74202b206665657321000000000000000000606482015260840161036f565b6002546040516001600160a01b039091169082156108fc029083906000818181858888f19350505050158015610cea573d6000803e3d6000fd5b506000828152600d602052604090819020600401805460ff191660011790555182907fad6f5443f0021bc2808ac5204f3c96a037dc9406ec9bfdf92a8e81539f04c605906108a59042815260200190565b6004546001600160a01b0316610d4f611725565b6001600160a01b031614610d755760405162461bcd60e51b815260040161036f90611d86565b60095415610d955760405162461bcd60e51b815260040161036f90611c20565b600a8054906000610da583611eac565b90915550506040805160e081018252600a5480825260208083018781528385018790526060840186905260006080850181905260a0850181905260c08501819052928352600d8252939091208251815592518051929392610e0c926001850192019061178f565b506040820151600282015560608201518051610e3291600384019160209091019061178f565b5060808201516004909101805460a084015160c0909401511515620100000262ff0000199415156101000261ff001994151560ff1990931692909217939093161792909216179055600a546040517f6df4a40f54ddbc024cc4e985b8fa77b24d3b18ae73fe8d9444beaed8682ff0f390610eb190869086904290611bfb565b60405180910390a2505050565b6004546001600160a01b0316610ed2611725565b6001600160a01b031614610ef85760405162461bcd60e51b815260040161036f90611d86565b60095415610f185760405162461bcd60e51b815260040161036f90611c20565b6000818152600d602052604090206004015460ff1615610f4a5760405162461bcd60e51b815260040161036f90611d4f565b6000818152600d6020526040812081815590610f696001830182611813565b6002820160009055600382016000610f819190611813565b50600401805462ffffff1916905560405142815281907f846ab9b254edc77fe46806b496d2efb2f0f0f1c7338a82ee13d93ceb37152d2a906020016109ca565b6003546001600160a01b0316610fd5611725565b6001600160a01b0316148061100457506005546001600160a01b0316610ff9611725565b6001600160a01b0316145b6110205760405162461bcd60e51b815260040161036f90611c4d565b6000818152600e602052604090206003015460ff161561107e5760405162461bcd60e51b81526020600482015260196024820152785265717565737420616c7265616479207265736f6c7665642160381b604482015260640161036f565b6000818152600e6020908152604080832060038101805460ff1916600190811790915560028083015491909201548552600d909352908320018054919290916110c8908490611e5a565b90915550506004546000828152600e60205260408082206002015490516001600160a01b039093169281156108fc0292818181858888f19350505050158015611115573d6000803e3d6000fd5b50807f4ce0986d74e104c2d3d9c6f307178d94afd5abaf7ccf6658a17fac5a5718a8f2426040516109ca91815260200190565b6004546001600160a01b031661115c611725565b6001600160a01b0316146111825760405162461bcd60e51b815260040161036f90611d86565b600954156111a25760405162461bcd60e51b815260040161036f90611c20565b42600955565b6004546001600160a01b03166111bc611725565b6001600160a01b031614806111eb57506003546001600160a01b03166111e0611725565b6001600160a01b0316145b6112075760405162461bcd60e51b815260040161036f90611c4d565b6000818152600d602052604090206004015460ff166112385760405162461bcd60e51b815260040161036f90611cbb565b6000818152600d602052604090206004015462010000900460ff16156112705760405162461bcd60e51b815260040161036f90611c84565b6000818152600d602052604080822060048101805462ff000019166201000017905560055460029091015491516001600160a01b039091169282156108fc02929190818181858888f193505050501580156112cf573d6000803e3d6000fd5b50807f939da3b627c123c81fe5aacebf925163337a0d4f8a03724640618078cad24894426040516109ca91815260200190565b6004546001600160a01b0316611316611725565b6001600160a01b03161461133c5760405162461bcd60e51b815260040161036f90611d86565b6009541561135c5760405162461bcd60e51b815260040161036f90611c20565b6000848152600d602052604090206004015460ff161561138e5760405162461bcd60e51b815260040161036f90611d4f565b6040805160e08101825285815260208082018681528284018690526060830185905260006080840181905260a0840181905260c08401819052888152600d83529390932082518155925180519293926113ed926001850192019061178f565b50604082015160028201556060820151805161141391600384019160209091019061178f565b5060808201516004909101805460a084015160c0909401511515620100000262ff0000199415156101000261ff001994151560ff199093169290921793909316179290921617905560405184907f03ba09f38b23ad2697f2c208e0c31023842b2f3da43982784195f20216b2291f9061148f9042815260200190565b60405180910390a250505050565b60606000600b5467ffffffffffffffff8111156114ca57634e487b7160e01b600052604160045260246000fd5b60405190808252806020026020018201604052801561152857816020015b61151560405180608001604052806000815260200160008152602001600081526020016000151581525090565b8152602001906001900390816114e85790505b50905060015b600b5461153c906001611e03565b81101561074f576000818152600e6020908152604091829020825160808101845281548152600180830154938201939093526002820154938101939093526003015460ff161515606083015283906115949084611e5a565b815181106115b257634e487b7160e01b600052603260045260246000fd5b602002602001018190525080806115c890611eac565b91505061152e565b600d60205260009081526040902080546001820180549192916115f290611e71565b80601f016020809104026020016040519081016040528092919081815260200182805461161e90611e71565b801561166b5780601f106116405761010080835404028352916020019161166b565b820191906000526020600020905b81548152906001019060200180831161164e57829003601f168201915b50505050509080600201549080600301805461168690611e71565b80601f01602080910402602001604051908101604052809291908181526020018280546116b290611e71565b80156116ff5780601f106116d4576101008083540402835291602001916116ff565b820191906000526020600020905b8154815290600101906020018083116116e257829003601f168201915b5050506004909301549192505060ff808216916101008104821691620100009091041687565b600c546000906001600160a01b031633141561178857600080368080601f0160208091040260200160405190810160405280939291908181526020018383808284376000920191909152505050503601516001600160a01b031691506107539050565b5033610753565b82805461179b90611e71565b90600052602060002090601f0160209004810192826117bd5760008555611803565b82601f106117d657805160ff1916838001178555611803565b82800160010185558215611803579182015b828111156118035782518255916020019190600101906117e8565b5061180f929150611852565b5090565b50805461181f90611e71565b6000825580601f10611831575061184f565b601f01602090049060005260206000209081019061184f9190611852565b50565b5b8082111561180f5760008155600101611853565b600082601f830112611877578081fd5b813567ffffffffffffffff8082111561189257611892611edd565b604051601f8301601f19908116603f011681019082821181831017156118ba576118ba611edd565b816040528381528660208588010111156118d2578485fd5b8360208701602083013792830160200193909352509392505050565b600080600060608486031215611902578283fd5b833567ffffffffffffffff80821115611919578485fd5b61192587838801611867565b9450602086013593506040860135915080821115611941578283fd5b5061194e86828701611867565b9150509250925092565b600060208284031215611969578081fd5b5035919050565b60008060008060808587031215611985578081fd5b84359350602085013567ffffffffffffffff808211156119a3578283fd5b6119af88838901611867565b94506040870135935060608701359150808211156119cb578283fd5b506119d887828801611867565b91505092959194509250565b600080604083850312156119f6578182fd5b50508035926020909101359150565b60008151808452815b81811015611a2a57602081850181015186830182015201611a0e565b81811115611a3b5782602083870101525b50601f01601f19169290920160200192915050565b600060018060a01b03808f168352808e1660208401528c60408401526101806060840152611a8261018084018d611a05565b8b60808501528a60a08501528960c08501528860e085015287610100850152838103610120850152611ab48188611a05565b610140850196909652509290921661016090910152509a9950505050505050505050565b60208082528251828201819052600091906040908185019080840286018301878501865b83811015611b8757603f19898403018552815160e08151855288820151818a870152611b2a82870182611a05565b915050878201518886015260608083015186830382880152611b4c8382611a05565b60808581015115159089015260a08086015115159089015260c094850151151594909701939093525050509386019390860190600101611afc565b509098975050505050505050565b602080825282518282018190526000919060409081850190868401855b82811015611bee578151805185528681015187860152858101518686015260609081015115159085015260809093019290850190600101611bb2565b5091979650505050505050565b600060608252611c0e6060830186611a05565b60208301949094525060400152919050565b6020808252601390820152721059dc99595b595b9d081a185cc8195b991959606a1b604082015260600190565b60208082526019908201527f4e6f74207468652064697370757465207265736f6c7665722100000000000000604082015260600190565b6020808252601b908201527f4d696c6573746f6e6520616c726561647920617070726f766564210000000000604082015260600190565b60208082526017908201527f4d696c6573746f6e652069736e27742066756e64656421000000000000000000604082015260600190565b6020808252603a908201527f526566756e6420616d6f756e742063616e6e6f7420626520677265617465722060408201527f7468616e20746865206d696c6573746f6e6520616d6f756e7421000000000000606082015260800190565b60208082526019908201527f4d696c6573746f6e6520616c72656164792066756e6465642100000000000000604082015260600190565b60208082526010908201526f4e6f7420746865206d616e616765722160801b604082015260600190565b600088825260e06020830152611dc960e0830189611a05565b8760408401528281036060840152611de18188611a05565b9515156080840152505091151560a0830152151560c090910152949350505050565b60008219821115611e1657611e16611ec7565b500190565b600082611e3657634e487b7160e01b81526012600452602481fd5b500490565b6000816000190483118215151615611e5557611e55611ec7565b500290565b600082821015611e6c57611e6c611ec7565b500390565b600281046001821680611e8557607f821691505b60208210811415611ea657634e487b7160e01b600052602260045260246000fd5b50919050565b6000600019821415611ec057611ec0611ec7565b5060010190565b634e487b7160e01b600052601160045260246000fd5b634e487b7160e01b600052604160045260246000fdfea26469706673582212202cb4d9481062ca9999408836aed442b317d1699ddd99b20fabf409d53d773c0864736f6c63430008020033a2646970667358221220c7c0f10073072a6dd180e278f5f01bfaced8078fe39d44e9c0aca694a48dbab664736f6c63430008020033",
  "linkReferences": {},
  "deployedLinkReferences": {}
}