{
  "_format": "hh-sol-artifact-1",
  "contractName": "AskGPT",
  "sourceName": "contracts/AskGPT.sol",
  "abi": [
    {
      "inputs": [],
      "stateMutability": "nonpayable",
      "type": "constructor"
    },
    {
      "anonymous": false,
      "inputs": [
        {
          "indexed": true,
          "internalType": "address",
          "name": "previousOwner",
          "type": "address"
        },
        {
          "indexed": true,
          "internalType": "address",
          "name": "newOwner",
          "type": "address"
        }
      ],
      "name": "OwnershipTransferred",
      "type": "event"
    },
    {
      "inputs": [],
      "name": "marketFee",
      "outputs": [
        {
          "internalType": "uint256",
          "name": "",
          "type": "uint256"
        }
      ],
      "stateMutability": "view",
      "type": "function"
    },
    {
      "inputs": [],
      "name": "owner",
      "outputs": [
        {
          "internalType": "address",
          "name": "",
          "type": "address"
        }
      ],
      "stateMutability": "view",
      "type": "function"
    },
    {
      "inputs": [],
      "name": "renounceOwnership",
      "outputs": [],
      "stateMutability": "nonpayable",
      "type": "function"
    },
    {
      "inputs": [
        {
          "internalType": "uint256",
          "name": "_amount",
          "type": "uint256"
        }
      ],
      "name": "setMarketFee",
      "outputs": [],
      "stateMutability": "nonpayable",
      "type": "function"
    },
    {
      "inputs": [
        {
          "internalType": "address",
          "name": "newOwner",
          "type": "address"
        }
      ],
      "name": "transferOwnership",
      "outputs": [],
      "stateMutability": "nonpayable",
      "type": "function"
    },
    {
      "inputs": [],
      "name": "withdraw",
      "outputs": [],
      "stateMutability": "nonpayable",
      "type": "function"
    }
  ],
  "bytecode": "0x6080604052601960015534801561001557600080fd5b5061003261002761003760201b60201c565b61003f60201b60201c565b610103565b600033905090565b60008060009054906101000a900473ffffffffffffffffffffffffffffffffffffffff169050816000806101000a81548173ffffffffffffffffffffffffffffffffffffffff021916908373ffffffffffffffffffffffffffffffffffffffff1602179055508173ffffffffffffffffffffffffffffffffffffffff168173ffffffffffffffffffffffffffffffffffffffff167f8be0079c531659141344cd1fd0a4f28419497f9722a3daafe3b4186f6b6457e060405160405180910390a35050565b6105d0806101126000396000f3fe608060405234801561001057600080fd5b50600436106100625760003560e01c80630ccf21561461006757806326b825d2146100855780633ccfd60b146100a1578063715018a6146100ab5780638da5cb5b146100b5578063f2fde38b146100d3575b600080fd5b61006f6100ef565b60405161007c9190610504565b60405180910390f35b61009f600480360381019061009a91906103bc565b6100f5565b005b6100a9610107565b005b6100b361015e565b005b6100bd610172565b6040516100ca91906104a9565b60405180910390f35b6100ed60048036038101906100e89190610393565b61019b565b005b60015481565b6100fd61021f565b8060018190555050565b61010f61021f565b60003390508073ffffffffffffffffffffffffffffffffffffffff166108fc479081150290604051600060405180830381858888f1935050505015801561015a573d6000803e3d6000fd5b5050565b61016661021f565b610170600061029d565b565b60008060009054906101000a900473ffffffffffffffffffffffffffffffffffffffff16905090565b6101a361021f565b600073ffffffffffffffffffffffffffffffffffffffff168173ffffffffffffffffffffffffffffffffffffffff161415610213576040517f08c379a000000000000000000000000000000000000000000000000000000000815260040161020a906104c4565b60405180910390fd5b61021c8161029d565b50565b610227610361565b73ffffffffffffffffffffffffffffffffffffffff16610245610172565b73ffffffffffffffffffffffffffffffffffffffff161461029b576040517f08c379a0000000000000000000000000000000000000000000000000000000008152600401610292906104e4565b60405180910390fd5b565b60008060009054906101000a900473ffffffffffffffffffffffffffffffffffffffff169050816000806101000a81548173ffffffffffffffffffffffffffffffffffffffff021916908373ffffffffffffffffffffffffffffffffffffffff1602179055508173ffffffffffffffffffffffffffffffffffffffff168173ffffffffffffffffffffffffffffffffffffffff167f8be0079c531659141344cd1fd0a4f28419497f9722a3daafe3b4186f6b6457e060405160405180910390a35050565b600033905090565b6000813590506103788161056c565b92915050565b60008135905061038d81610583565b92915050565b6000602082840312156103a557600080fd5b60006103b384828501610369565b91505092915050565b6000602082840312156103ce57600080fd5b60006103dc8482850161037e565b91505092915050565b6103ee81610530565b82525050565b600061040160268361051f565b91507f4f776e61626c653a206e6577206f776e657220697320746865207a65726f206160008301527f64647265737300000000000000000000000000000000000000000000000000006020830152604082019050919050565b600061046760208361051f565b91507f4f776e61626c653a2063616c6c6572206973206e6f7420746865206f776e65726000830152602082019050919050565b6104a381610562565b82525050565b60006020820190506104be60008301846103e5565b92915050565b600060208201905081810360008301526104dd816103f4565b9050919050565b600060208201905081810360008301526104fd8161045a565b9050919050565b6000602082019050610519600083018461049a565b92915050565b600082825260208201905092915050565b600061053b82610542565b9050919050565b600073ffffffffffffffffffffffffffffffffffffffff82169050919050565b6000819050919050565b61057581610530565b811461058057600080fd5b50565b61058c81610562565b811461059757600080fd5b5056fea2646970667358221220f84e4da8d274835bcf6d9b45e1534c07df1d378c73c97df04b6770d1ef729db664736f6c63430008000033",
  "linkReferences": {},
  "deployedLinkReferences": {}
}